:020000040800F2
:10000000C008002061020008970C00088F0C00084F
:10001000930C0008C5070008F91A0008000000004A
:10002000000000000000000000000000A101000826
:10003000D509000800000000FD010008B9170008FC
:100040007B0200087B0200087B0200087B0200089C
:100050007B0200087B020008D90900087B02000827
:10006000190A0008CD0A00087B0200087B0200087C
:100070007B0200087B0200087B0200085908000888
:100080007B0200087B0200087B0200087B0200085C
:100090007B0200087B0200087B0200087B0200084C
:1000A0007B0200087B0200087B0200087B0200083C
:1000B0007B0200087B0200087B0200087B0200082C
:1000C0007B0200087B0200087B0200087B0200081C
:1000D000491600087B0200087B0200087B0200082A
:1000E0007B0200087B0200087B0200087B020008FC
:1000F0007B0200087B0200087B0200087B020008EC
:100100007B020008C11400087B0200087B02000883
:100110007B0200087B020008551800087B020008DB
:100120007B0200087B0200087B0200087B020008BB
:100130007B0200087B0200087B0200087B020008AB
:100140007B0200087B0200087B0200087B0200089B
:10015000A9080008CD0800087B0200087B020008FF
:100160007B0200087B0200087B0200087B0200087B
:100170007B0200087B0200087B0200087B0200086B
:100180007B0200087B020008DFF810D000F008FBBB
:100190000048004775240008AFF30080C008002025
:1001A0002C4B19680868B0E8F04F80F30988BFF35A
:1001B0006F8F4FF0000080F311887047000000003F
:1001C00008480068006880F308884FF0000080F35A
:1001D000148862B661B6BFF34F8FBFF36F8F00DF35
:1001E00000BF00BF08ED00E0DFF80C00016841F43B
:1001F00070010160704700BF88ED00E0EFF30980F7
:10020000BFF36F8F134B1A681EF0100F08BF20ED5D
:10021000108A20E9F04F106009B44FF0500080F3CD
:100220001188BFF34F8FBFF36F8F02F021FA4FF0A9
:10023000000080F3118809BC19680868B0E8F04F25
:100240001EF0100F08BFB0EC108A80F30988BFF3CE
:100250006F8F704738000020EFF305807047000073
:100260000648804706480047FEE7FEE7FEE7FEE750
:10027000FEE7FEE7FEE7FEE7FEE7FEE7ED17000814
:10028000890100082DE9FE4F804681EA0300C00F76
:100290000C46009021F0004123F00045B8EB02002D
:1002A000A94105D24046214690461C460B460246CF
:1002B00023F00040104347D0270DC7F30A00C3F3D3
:1002C0000A510290401A019040286BDAC3F31300E0
:1002D00040F4801B0098924620B10023D2EB030A21
:1002E00063EB0B0B01985946C0F14002504600F0F9
:1002F00098F906460D4650465946019A00F0B0F965
:1003000010EB08006141002487EA115284EAE77388
:100310001A4340D0009A62B3019A012A4FEA075269
:1003200015DC001B61EB02014FF0004202EA0752AC
:10033000CDE90042001C41F5801132462B4600F009
:10034000B0F903B0BDE8F08F40462146F9E7001B45
:1003500061EB0201001C41F5801300185B4120187D
:10036000A2F5001747EB030140EAD570B6196D41BD
:1003700011E06D084FEA360645EAC0754FEA0752AC
:10038000001B61EB0201001C41F5801149084FEA96
:1003900030000019514132462B4603B0BDE8F04F02
:1003A00000F070B90098012240000023D0EB020257
:1003B00063EBE073009821464FEAE074B8EB00006D
:1003C00061EB0401E9E783F000435BE781F0004162
:1003D00058E72DE9FE4F81EA030404F0004421F0C0
:1003E000004100944FF0000B23F0004350EA010459
:1003F0005ED052EA03045BD0C3F30A54C1F30A553A
:100400002C44A4F2F3340194A0FB0254C1F3130171
:1004100041F48011C3F3130343F4801301FB02443E
:1004200000FB034E840A970A44EA815447EA835743
:10043000A4FB076802958D0A05FB07854FEA932CFC
:1004400004FB0C542705029D4FEA065847EA16376D
:10045000B5EB08056EEB070C870E920E47EA811785
:1004600042EA8312A7FB0201B6EB0B0164EB000426
:100470002B0D43EA0C335E1844EB1C50DA46514610
:10048000E7FB0201C5F313044FEA0B3343EA1453AD
:100490004FEA0432019C43EA0603A4F10C040294DF
:1004A000009CCDE900B400F0FCF803B0BDE8F08F8B
:1004B00000200146F9E72DE9F04D81EA030404F03C
:1004C000004B21F0004514464FF0000A23F0004194
:1004D00050EA050220D054EA01021DD0C5F30A57A4
:1004E0000246C5F31303C1F31300C1F30A5640F4E7
:1004F000801543F48013A7EB0608101BD64608F2BC
:10050000FD3873EB050002D308F1010801E09218F1
:100510005B41B8F1000F03DA00200146BDE8F08D21
:1005200000204FF48011064684460EE0171B73EB43
:10053000050705D3121B63EB050306434CEA010CC8
:1005400049084FEA300092185B4150EA0107EDD1AB
:1005500052EA030012D082EA040083EA050108434C
:1005600005D0101BAB4106D20122002306E0002279
:100570004FF0004302E06FF0010253101AEB060047
:100580004CEB085110EB0A0041EB0B01BDE8F04DBC
:1005900000F078B830B50B46014600202022012437
:1005A00009E021FA02F59D4205D303FA02F5491B41
:1005B00004FA02F52844151EA2F10102F1DC30BD57
:1005C0002DE9F05F0546002092469B468846064688
:1005D000814640241BE0284641464746224600F01B
:1005E0002FF853465A46C01A914110D31146184667
:1005F000224600F016F82D1A67EB01084F462246F6
:100600000120002100F00DF817EB00094E41201EDB
:10061000A4F10104DFDC484631462A464346BDE8E2
:10062000F09F202A04DB203A00FA02F100207047F4
:100630009140C2F1200320FA03F319439040704720
:10064000202A04DB203A21FA02F00021704721FA27
:1006500002F3D040C2F1200291400843194670478E
:10066000202A06DBCB17203A41FA02F043EAE07376
:1006700006E041FA02F3D040C2F120029140084363
:100680001946704710B5141E73F1000408DA401CB7
:1006900041F1000192185B411A4301D120F00100A1
:1006A00010BD2DE9F04D92469B4611B1B1FA81F291
:1006B00002E0B0FA80F220329046FFF7B2FF044623
:1006C0000F4640EA0A0041EA0B0153465A460843E6
:1006D00013D0114653EA010019D0C8F14002504628
:1006E000FFF7AEFF05460E46504659464246FFF715
:1006F00098FF084305D0012004E020463946BDE8B4
:10070000F08D0020054346EAE0762C4337430A98F3
:100710006305E40AA0EB08000022FD0A44EA4754FE
:100720000A3002D500200146E9E7010510196941A8
:10073000DDE9084500196941BDE8F04DA2E7C1F3C4
:100740000A52C1F3130140F2FF3341F480119A427F
:1007500002DA00200146704740F233439A42A2F287
:10076000334202DC5242FFF76BBFFFF75ABF000073
:1007700030B5041E71F1000404DB4FF00044404228
:1007800064EB0101141E73F1000405DB1C464FF0FD
:100790000043524263EB0403994208BF904230BDCC
:1007A000064C074D06E0E06840F0010394E80700BE
:1007B00098471034AC42F6D3FFF7EAFC4C28000807
:1007C0006C28000800BFFEE770B5044605E0164837
:1007D000056805F0450000B100E0F8E700BF04201F
:1007E00000F062FE20B1042000F058FE032070BD2E
:1007F000012000F059FE20B1012000F04FFE012041
:10080000F5E7094824380068A04201D01020EEE73F
:1008100040F2FF5000F042FE0348203800680821F3
:100820000840C0B2E3E70000342C014010B508498D
:10083000084800F05BF80021064800F08BF88021A2
:10084000044800F0C5F80121024800F083F810BD0B
:10085000200000207060024010B50649064800F0F4
:1008600085F828B10349044800F05AF800F006F86A
:1008700010BD0000208000207060024010B50849C3
:10088000084800F033F80021064800F063F88021A2
:10089000044800F09DF80121024800F05BF810BD0B
:1008A000000800208864024010B50649064800F0A0
:1008B0005DF828B10349044800F032F8FFF7B6FFAD
:1008C00010BD0000008800208864024010B5054972
:1008D000054800F04BF818B10249034800F020F831
:1008E00010BD000000802020A06402400246094B99
:1008F0009A4201D2084801E00648103801F000533E
:100900001BB1064B0B40C36002E0044B0B408360FD
:100910007047000010640240006002407D0F7D0FB0
:100920000246094B9A4201D2084801E006481038B5
:1009300001F000531BB1064B0B40C36002E0044BB7
:100940000B4083607047000010640240006002406A
:100950007D0F7D0F21B1026842F00102026003E0C9
:10096000026822F0010202607047000070B5024682
:10097000002000240025124EB24201D2114B01E0AA
:100980000F4B103B104E0E4036B11E2606EAD12406
:10099000166806EA040502E0566906F0800501F0D3
:1009A00000560EB15C6800E01C68084E344004EA52
:1009B000010616B10DB1012000E0002070BD00005D
:1009C00010640240006002403C0F3C0F7D0F7D0F21
:1009D000416070477047000010B5C82001F0F3FC7B
:1009E000012000F0D9F801280ED14102084800F09A
:1009F0004CF908480078401C064908700846007801
:100A0000042801DD00200870012000F0BFF810BDAF
:100A1000000402401B00002010B5C82001F0D3FCE8
:100A2000042000F0B9F801283FD14102214800F02C
:100A30002AF921480078012806D0022810D003287E
:100A40001AD0042830D123E01C480078401C1B49F0
:100A5000087008460078632801D10020087023E060
:100A600017480078401C164908700846007863282B
:100A700001D10020087017E012480078401C11498D
:100A8000087008460078632801D1002008700BE048
:100A90000D480078401C0C4908700846007863280F
:100AA00001D10020087000BF00BF042000F06EF8E4
:100AB00010BD0000000402401B0000201D000020AB
:100AC0001E0000201F0000202000002010B5C820BC
:100AD00001F079FC082000F05FF8012844D14102C0
:100AE000234800F0D0F82348007806283BD2DFE8FE
:100AF00000F03A030E19242F1F480078401E1E49AB
:100B000008700846007808B9632008702BE01B487D
:100B10000078401E194908700846007808B963201B
:100B2000087020E016480078401E154908700846F5
:100B3000007808B96320087015E012480078401E5C
:100B4000104908700846007808B9632008700AE068
:100B50000D480078401E0C4908700846007808B916
:100B60001E20087000BF00BF082000F00FF810BD65
:100B7000000402401B0000201D0000201E00002079
:100B80001F000020200000201C00002001490860F8
:100B900070470000143C014001460020034A1268DF
:100BA0000A400AB1012000E000207047143C0140D7
:100BB000F0B50A4600210023002400BF3DE00125D6
:100BC00005FA01F3156805EA03049C4234D105686F
:100BD0004F000326BE40B543056015794E00B54071
:100BE0000668354305601579012D02D01579022D6F
:100BF00016D185684F000326BE40B5438560557900
:100C00004E00B540866835438560456801268E40B4
:100C1000B5434560456896798E40B6B23543456028
:100C2000C5684F000326BE40B543C560D5794E0068
:100C3000B540C6683543C560491C1029BFD3F0BD17
:100C4000F0B5002300244D07ED0E02FA05F3CE1097
:100C500000F1200555F826504E07F70E0F26BE402E
:100C6000B543CF1000F1200646F82750CE1000F112
:100C7000200555F8265045EA0304CE1000F1200562
:100C800045F82640F0BD418370470183704700BF9F
:100C9000FEE700BFFEE7704770B5002100230F227A
:100CA000C4781CB3174C246804F4E064C4F5E06411
:100CB000C4F30721C1F10404E3B20A4144789C4023
:100CC000E1B28478144021430C07210E0E4C0578C4
:100CD0006155047804F01F050124AC4005786D11BE
:100CE000AD0005F1E025C5F8004109E0047804F005
:100CF0001F050124AC40054D0678761145F82640C5
:100D000070BD00000CED00E000E400E080E100E0D8
:100D100002490143024A1160704700000000FA05D1
:100D20000CED00E0014908627047000000000E422F
:100D300010B5024800F0D3FD80B210BD0010004095
:100D40001FB50121102000F043F80020ADF80C0081
:100D50004CF24F3002905320ADF8040001A9134823
:100D600000F0D2FD36208DF8000001208DF8030040
:100D700009208DF8010000208DF802006846FFF779
:100D80008BFF00220121094800F0B5FD0121074831
:100D900000F08AFD0020054948620121034800F067
:100DA0008FFD0121014800F08EFD1FBD00100040A5
:100DB00029B1064A12680243044B1A6004E0034A50
:100DC00012688243014B1A607047000030380240BD
:100DD00029B1064A12680243044B1A6004E0034A30
:100DE00012688243014B1A6070470000403802408D
:100DF00029B1064A12680243044B1A6004E0034A10
:100E000012688243014B1A60704700004438024068
:100E1000F0B5002100220024022500260223324FD3
:100E20003F6807F00C0121B1042905D0082937D10A
:100E300005E02E4F076036E02D4F076033E02A4F64
:100E40003F1F3F68C7F38056274F3F1F3F6807F09B
:100E50003F036EB1264FB7FBF3F7DFF88CC0ACF160
:100E6000040CDCF800C0CCF3881C07FB0CF40CE08D
:100E70001E4FB7FBF3F7DFF870C0ACF1040CDCF8E1
:100E800000C0CCF3881C07FB0CF4174F3F1F3F68D2
:100E9000C7F301477F1C7D00B4FBF5F7076002E054
:100EA000124F076000BF00BF0F4F3F6807F0F0010F
:100EB0000909104F7A5C0768D74047600A4F3F68BE
:100EC00007F4E051890A0B4F7A5C4768D740876086
:100ED000054F3F6807F46041490B064F7A5C47684D
:100EE000D740C760F0BD0000083802400024F4007D
:100EF00040787D010000002010B50146002200234B
:100F000000204A11012A02D10A4C236808E0022A73
:100F100003D1084C7034236802E0064C7434236813
:100F200001F01F02012494401C400CB1012000E09C
:100F3000002010BD003802400021094A11701170D4
:100F4000012802D0042808D103E00121044A1170CD
:100F500004E00521024A117000E000BF00BF7047A5
:100F60007038024001490860704700003C0E47425B
:100F7000002100F44072B2F5407F08D1094A11689F
:100F800021F4F811084A02401143064A1160054A4B
:100F900068321268C0F30B031A43024B68331A60BD
:100FA0007047000008380240FFFCFF0F014600BFF9
:100FB000080900EB8000420001F00F001044C0B2AD
:100FC00070470146002204E0501CC2B2A1F10A00A1
:100FD000C1B20A29F8DA100741EA10607047000030
:100FE0003EB5FF2401210807FFF7F2FE0120FFF7BD
:100FF00099FE002000F014F945F65A21884235D0B8
:101000000120FFF799FF0AE04120FFF775FF012853
:1010100000D106E0022001F0D6F9601EC4B2002C17
:10102000F2D100BF04B93EBD4FF48070FFF7A0FFBE
:101030000120FFF797FF7F200190FF200290002002
:101040000090684600F0BAF8094B9A7959791879F6
:1010500000F0D4F9064DEB78AA786978287800F08A
:10106000BBF945F65A21002000F00AFA00BFDAE782
:101070004428000808B50022009200200021104AF0
:10108000126802F04002CAB9421E0D4B1A6000BF3E
:101090000B4A126802F04001009A521C0092009A1A
:1010A000B2F5803F01D00029F2D0054A126802F063
:1010B00040020AB1012002E0002000E0012008BD4A
:1010C0000C2800400348006820F0800001490860B7
:1010D000704700000C28004070B506460C460025FD
:1010E0000E4800680E4900EA0105280CE070C5F3BF
:1010F0000420607005F03F00A070C5F342302070FE
:101100005EB9E078FFF752FFE0706078FFF74EFFBE
:101110006070A078FFF74AFFA07070BD04280040FF
:101120003FFFFF0070B506460C4600250F480068DB
:101130000F4900EA0105C5F305402070C5F30620FC
:10114000607005F07F00A07005F48000000CE07076
:101150005EB92078FFF72AFF20706078FFF726FF3E
:101160006070A078FFF722FFA07070BD00280040DB
:101170007F7F7F0038B5044669460020FFF7ACFF4B
:101180009DF8030020709DF8010060709DF802003A
:10119000A0709DF80000E07038BD38B5044669467F
:1011A0000020FFF7BFFF9DF8000020719DF80100AF
:1011B00060719DF80200A07138BD000030B5044692
:1011C0000025CA201549086053200860FFF752FF28
:1011D00000B91DE011481C38006820F040000F499C
:1011E0001C39086008460068216808430B491C390F
:1011F00008600A491439A068086008460068A18898
:1012000040EA0140054914390860FFF75BFF0125FA
:10121000FF2002490860284630BD00002428004015
:1012200008B501460020009004480090009800EBAB
:10123000810000900098006808BD00005028004020
:101240002DE9F04105460C46002600274DB960788F
:1012500000F01000102804D1607820F010000A304F
:10126000607005B908E06078FFF7A0FE0646A07838
:10127000FFF79CFE064600BF55B1E0780004617898
:1012800040EA0120A1780843217840EA413611E084
:10129000E078FFF796FE4FEA00486078FFF791FE8E
:1012A00048EA0028A078FFF78CFE48EA000820787A
:1012B00048EA4036CA201249086053200860FFF708
:1012C000D9FE08B9002714E00E4830400C492039F7
:1012D0000860FFF7F7FE0A481C38006800F020009D
:1012E00030B900F09DF808B9002702E0012700E0BE
:1012F0000127FF20024908603846BDE8F081000060
:10130000242800403FFFFF002DE9F04105460C4630
:10131000002600274DB92E48006800F0400000B1BB
:1013200002E00020E07000BF0DE02948006800F0F6
:10133000400020B12078FFF739FE064602E0002089
:10134000E07000BF00BF55B120780004617840EA2A
:101350000120A1780843E17840EA014611E02078B5
:10136000FFF72FFE4FEA00486078FFF72AFE48EAB1
:101370000028A078FFF725FE48EA0008E07848EA50
:101380000046CA2012491C31086053200860FFF74C
:1013900071FE08B9002713E00E4830400C490839A7
:1013A0000860FFF78FFE0A48006800F0200030B99F
:1013B00000F036F808B9002702E0012700E0012715
:1013C000FF2003491C3108603846BDE8F081000069
:1013D000082800407F7F7F00F8B504460D4616467A
:1013E0001F468DF803408DF801508DF802608DF88E
:1013F000007069460020FFF723FFF8BDF8B50646E8
:101400000C4615468DF800608DF801408DF80250AD
:1014100040208DF8030069460020FFF775FFF8BDF6
:1014200008B50022009200200021CA22134B1A6046
:1014300053221A60114A183A126822F0A0020F4B88
:10144000183B1A6000BF0D4A183A126802F02001DA
:10145000009A521C0092009AB2F5003F01D0002978
:10146000F1D0064A183A126802F020020AB10120AF
:1014700000E00020FF22014B1A6008BD2428004034
:1014800008B500220092044A0092009A02EB800202
:101490000092009A116008BD502800400149086080
:1014A00070470000382C014001460020034A1268B2
:1014B0000A400AB1012000E000207047342C0140AE
:1014C00010B500F017F810BD0021094B02681A6032
:1014D0001A1D11686FF30A01D0E901231A43C3688A
:1014E0001A4303691A431143014A121D11607047E0
:1014F000082C014010B54FF48070FFF7D5FF78B38A
:101500004C480078012814D100204B4908600C2079
:101510004860402088600020C8604FF48060086107
:101520000846FFF7D1FF0C20FFF74EF9434908703A
:1015300002E00020414908704148006840F4807092
:101540003F490860081D00684CF23A3188433C4925
:10155000091D086001203B4908703848007810BD1B
:10156000FFE70220FFF7A0FF78B10220FFF796FF08
:101570003348001D00684CF23A3188433049091D58
:10158000086002202D490870E9E70820FFF78CFF6A
:1015900078B10820FFF782FF2948001D00684CF24F
:1015A0003A3188432649091D086004202349087000
:1015B000D5E72020FFF778FF78B12020FFF76EFFF6
:1015C0001F48001D00684CF23A3188431C49091D30
:1015D0000860062019490870C1E71020FFF764FF72
:1015E00078B11020FFF75AFF1548001D00684CF233
:1015F0003A3188431249091D086005200F490870D7
:10160000ADE74FF40070FFF74FFF80B14FF400706B
:10161000FFF744FF0A48001D00684CF23A31884346
:101620000749091D086007200449087097E7002052
:1016300095E70000310000209000002032000020DB
:10164000382C01403300002010B571210B4800F008
:1016500023F8012808D17121084800F013F8084840
:101660000068401C0649086005480068B0F5806FB6
:1016700002D100200249086010BD0000003800407F
:101680001000002010B5002201F00F040123A34038
:101690009AB2D343038110BDF0B502460020002466
:1016A0000023002501F00F070126BE40B4B20B1144
:1016B00001269E40B3B2968806EA030516892640A5
:1016C00016B10DB1012000E00020F0BD0CB50020E6
:1016D000019000903448006840F48030324908603E
:1016E00000BF3148006800F4003000900198401CB1
:1016F0000190009818B90198B0F5A04FF1D12A488F
:10170000006800F4003010B10120009001E00020DA
:1017100000900098012846D123484030006840F0EE
:1017200080502149403108602048006840F4404022
:101730001E4908601C48083000681B4908310860D1
:101740000846006840F4004008600846006840F41D
:10175000A05008601648091F0860081F006840F084
:101760008070091F086000BF0F48006800F000701B
:101770000028F9D040F205700E4908600A48083088
:10178000006820F003000849083108600846006836
:1017900040F00200086000BF03480830006800F015
:1017A0000C000828F8D10CBD003802400070004041
:1017B00019544007003C024010B500BF502080F390
:1017C0001188BFF34F8FBFF36F8F00BF00F096FFFC
:1017D00018B14FF080500449086000BF002080F32A
:1017E000118800BF10BD000004ED00E010B51548E1
:1017F000006840F47000134908601348006840F026
:1018000001001149086000200F49083108600E48A6
:1018100000680E4908400C4908600D48091D086021
:10182000081F006820F48020091F08600020064976
:101830000C310860FFF74AFF4FF000600149803922
:10184000086010BD88ED00E000380240FFFFF6FEA2
:101850001030002410B50121104800F043F8012891
:1018600017D10E48406A4FF47A71B0FBF1F10C4881
:101870000088401C80B20A4A108000EBC00202EBD4
:10188000001001EB4000074908800021034800F0E8
:101890001AF80121014800F013F810BD00100040B3
:1018A000240000202200002021B1028842F08002A2
:1018B000028004E002884FF67F731A40028070476E
:1018C000CA430282704721B1028842F001020280BD
:1018D00004E002884FF6FE731A400280704701460A
:1018E000486A704702460020138A0B400BB1012062
:1018F00000E0002070471AB183890B43838102E026
:1019000083898B438381704700220288184B984259
:101910000ED0184B98420BD0B0F1804F08D0164B28
:10192000984205D0154B984202D0154B984204D1ED
:101930004FF68F731A404B881A43124B984207D0C8
:10194000114B984204D04FF6FF431A400B891A43BB
:1019500002804B68C3620B880385054B984202D016
:10196000044B984201D18B7A03860123838270470E
:101970000000014000040140000400400008004055
:10198000000C0040001000400014004001F4007200
:10199000B2F5007F00D100BFCA430280704721B179
:1019A000828942F40052828104E082894DF6FF73FD
:1019B0001A408281704702460020B1F5007F00D1B5
:1019C00000BF13880B400BB1012000E000207047DE
:1019D000F0B50346002400260025002040F66A17D3
:1019E000B94200D100BF1846C1F3421401F01F06EE
:1019F000012707FA06F5012C01D10C3004E0022C76
:101A000001D1103000E014301AB107682F4307608D
:101A100002E00768AF430760F0BD00002DE9FF4713
:101A200005460E460024A14600BFA046B08900B17D
:101A300000BF2C8A24F44054F08804432C82AC89E3
:101A400041F20C608443B0883189084371890843AE
:101A50000443AC81AC8A24F44074B0890443AC8262
:101A60006846FFF7D5F92048854202D01F488542D5
:101A700002D1DDF80C9001E0DDF80890A88900F4AF
:101A8000004040B109EBC90000EB09103168490082
:101A9000B0FBF1F707E009EBC90000EB0910316872
:101AA0008900B0FBF1F76420B7FBF0F004012009D6
:101AB000642101FB1078A88900F4004040B1322075
:101AC00000EBC800B0FBF1F000F00700044308E0B1
:101AD000322000EB08106421B0FBF1F000F00F00A1
:101AE00004432C81BDE8FF87001001400014014031
:101AF000C1F308028280704700BFFEE70FB4054BB8
:101B000010B503A9044A029800F0DAF810BC5DF899
:101B100014FB0000012400087400002002E008C843
:101B2000121F08C1002AFAD170477047002001E057
:101B300001C1121F002AFBD1704700002DE9FF5F91
:101B400082B00021DDE90430020DDDF840B003432E
:101B500018D044F61050A2F2FF32424315141198E7
:101B600001281FD0A5EB0B00401C5FEA000A4FF0D4
:101B700000064E4FDFF83891B046504615D5CAF1F1
:101B8000000413E0119801244AA3012801D16FEA4F
:101B90000B010298119AC0E90031C0E9024206B077
:101BA000BDE8F09FCBF10000DFE704460021404A8A
:101BB000491842EB0450CDE9001012E0E00707D0CD
:101BC00032463B4640464946FEF703FC804689467E
:101BD00032463B4610461946FEF7FBFB06460F46CB
:101BE0006410002CEAD1DDE90401DDE90023BAF13B
:101BF000000F06DAFEF7EDFB42464B46FEF7E9FB27
:101C000005E0FEF758FC42464B46FEF754FC0446FE
:101C10000E460022284BFEF7ABFD03D84FF0FF30F5
:101C2000014607E00022254B20463146FEF72AFBFD
:101C3000FEF785FD102409E0002C0ADB0A220023B0
:101C4000FEF7BEFC039B30321A55641E50EA0102B7
:101C5000F2D1641C039AC4F111031444119A012AAD
:101C600003D0012208430DD10AE0084304D000202C
:101C70004FF0110B119072E7A3EB0B056D1E0DE0F9
:101C80005B4504DD4FF0000205F1010504E003DAD5
:101C90004FF00002A5F10105002AECD0029811993D
:101CA000C0E90231C0E9004579E7000000001440B6
:101CB0000000F03F300000000000F0430000E03F73
:101CC0002DE9FF4F95B09A46884606460025EEE17D
:101CD000252877D100242746F94A0121039400E002
:101CE000044316F8013F203B01FA03F01042F7D1FC
:101CF00030782A2811D06FF02F033078A0F130020D
:101D0000092A16D8039A44F0020402EB820203EB7C
:101D100042021044761C0390EFE758F8042B03921C
:101D2000002A03DA504244F40054039044F00204C1
:101D3000761C30782E2816D116F8010F44F00404D2
:101D40002A280DD06FF02F023078A0F13003092B34
:101D500009D807EB870302EB4303C718761CF3E7A8
:101D600058F8047B761C30786C280FD006DC4C28A1
:101D700017D068280DD06A2814D104E0742810D038
:101D80007A280FD10DE044F400140AE044F48014E2
:101D900001E044F440147278824202D104F58014C8
:101DA000761C761C307866280BD013DC582877D048
:101DB00009DC002875D04528F6D04628F4D04728FD
:101DC0001AD193E118E0632835D0642879D06528CA
:101DD00012D18BE1702873D008DC6728F1D0692814
:101DE0006FD06E280DD06F2806D1ACE073282CD0B0
:101DF000752874D0782853D05246179990476D1C97
:101E000054E1C4F30250022809D003280DD0D8F8B9
:101E1000001004280DD00D6008F1040846E1D8F840
:101E20000010EA17C1E90052F6E7D8F800100D805B
:101E3000F2E70D70F0E718F8041B8DF80010002091
:101E40008DF80100EB46012003E058F804BB4FF089
:101E5000FF3061074FF0000102D40DE009F10101EC
:101E60008946B9420FDA8145F8DB1BF809100029D1
:101E7000F4D108E009F1010189468142FADB1BF83F
:101E800009100029F6D103985346A0EB0907214613
:101E90003846179A00F080FA284400EB090507E05D
:101EA00044E008E10DE01BF8010B524617999047FA
:101EB000B9F10109F7D2534621463846179AF2E0A4
:101EC00039E00A21C4F302524FF0000B0091022ABC
:101ED00006D058F8040BC117032A09D00AE023E002
:101EE00008F1070020F00702F2E80201904605E041
:101EF00000B2C117042A01D140B2C117002906DA85
:101F00000A460021404261EB02012D2202E0220537
:101F100004D52B228DF80420012203E0E20701D032
:101F20002022F7E7914657E00A2100E010214FF008
:101F3000000B00910BE010214FF0000B44F0040463
:101F40000827009103E008204FF0000B0090C4F335
:101F50000252022A05D058F8040B0021032A08D0A7
:101F600008E008F1070020F00702F2E802019046BD
:101F700003E080B2042A00D1C0B24FF0000922076A
:101F80002AD53278702A07D0DDF800C08CF0100C0A
:101F90005CEA0B0C05D00EE040228DF804200122F3
:101FA00008E050EA010306D030238DF804308DF8A4
:101FB000052002229146009B83F0080353EA0B039D
:101FC0000AD150EA010201D1620705D530228DF80D
:101FD00004204FF001097F1E3278582A04D039A21C
:101FE0000C920CAA02920BE03BA2F9E75B46009A26
:101FF000FEF7E6FA0C9B9B5C029A521E029213704B
:1020000050EA0102F2D1029804A9081A00F1200B4B
:10201000600702D524F4803400E001275F4502DD2B
:10202000A7EB0B0000E0002000EB0B0100900398F1
:102030004944401A0390E00306D453462146179AB8
:10204000039800F0A9F90544002706E001A85246CC
:10205000C05D179990476D1C7F1C4F45F6DBE00370
:102060000CD553462146179A039800F095F905447C
:1020700004E030205246179990476D1C0099481E85
:1020800000900029F5DC08E0029802995246007899
:10209000491C0291179990476D1CBBF10001ABF1EF
:1020A000010BF1DC5BE100F065F90544761C30784A
:1020B00000287FF40DAE19B02846BDE8F08F00006F
:1020C000092801003031323334353637383961620E
:1020D00063646566000000003031323334353637D2
:1020E000383941424344454600000000600700D4AF
:1020F000062708F1070020F00700F0E802238046D9
:1021000003F0004C5FEA0C0001D097A009E0200525
:1021100001D596A005E0E00701D095A001E0AFF25F
:102120004C001390307823F0004365280CD006DC77
:10213000452809D046281DD047287FD13BE0662896
:1021400018D067287AD136E00021112F01DB112049
:1021500000E0781CCDE9000104A90CA8FFF7EEFC13
:10216000DDE90D010C9A4FF0000B07F10109109207
:1021700000914EE04FF000400097CDE9011004A916
:102180000CA8FFF7DBFCDDE90D020C9B0F994FF06B
:10219000000B91461093009211B9791C00EB0109D4
:1021A000B7EB090003D4C0F1FF3B07F10109A9EB2C
:1021B0000700019042E0012F00DA01270021112FD2
:1021C00001DD112000E03846CDE9000104A90CA88A
:1021D000FFF7B4FCDDE90D010C9A00914FF0000B04
:1021E000B946109221070FD4009A4A4503DA914666
:1021F00001E0A9F10109B9F1010F05DD109AA9F17A
:102200000101515C3029F4D0B84202DA10F1040F18
:1022100003DA0121CDE9011010E0002803DC83443A
:10222000A9EB000102E0411C494500DD8946A0EB15
:102230000B00401C01904FF000400290200705D495
:102240000198484502DB4FF0FF30019000208DF8E7
:102250004B0002980DF14B07B0F1004F25D0022042
:102260000C902B200D90029800280CDA404202902E
:102270002D200D9007E00A210298FEF78BF93031EE
:10228000029007F8011D0C99481E0C900029F2DC01
:1022900002980028EFD1791E0D980870307800F070
:1022A000200040F0450007F8020D11A8C01BC01D1A
:1022B00002901398007800B1012000EB0901019809
:1022C00001EBE071029801440398401A401E03900C
:1022D000E00306D453462146179A039800F05CF8B1
:1022E00005441398007818B15246179990476D1C11
:1022F000E00323D553462146179A039800F04CF883
:1023000005441BE0BBF1000F07DB0098584504DDD6
:102310001098179910F80B0001E0179930205246D9
:10232000904701980BF1010B401E05F1010501904A
:1023300004D12E205246179990476D1CB9F1000127
:10234000A9F10109DEDC05E017F8010B52461799E7
:1023500090476D1C0299481E02900029F4DC5346F8
:102360002146179A03989EE62D0000002B000000DE
:10237000200000002DE9F041044600251E461746C6
:10238000880404D405E039462020B0476D1C641E43
:10239000F9D52846BDE8F0812DE9F0410446002535
:1023A0001E469046C80301D5302700E02027880448
:1023B00004D505E041463846B0476D1C641EF9D58A
:1023C0002846BDE8F081014645F208224A434FF015
:1023D000E0235A6100229A6101221A6100BF4FF086
:1023E000E022106900F001021AB100F48032002AE4
:1023F000F5D000224FF0E0231A619A617047000087
:1024000070B504460D4600BF40210748FFF7D3FAD8
:102410000028F9D0E1B20448FFF76AFB40210248E6
:10242000FFF7B4FA204670BD001001401CB5012131
:102430000220FEF7BDFC4FF41870009001208DF8CB
:10244000040002208DF8050000208DF80600012010
:102450008DF8070069460648FEF7AAFB40210448AC
:10246000FEF713FC20210248FEF70FFC1CBD000004
:10247000000402401FB54FF4A060FEF749FC4FF482
:10248000E13000F073F8FFF7D1FFFEF7A9FD31E06E
:102490004FF400711848FEF7F8FBC820FFF793FFD0
:1024A0004FF400711448FEF7EEFBC820FFF78BFFD6
:1024B000FEF746FC1148FEF75DFE1048FEF76DFE84
:1024C000FEF736FC044621460DA0FFF717FB0B482C
:1024D00080790A494979094A1279084BDB78CDE9B4
:1024E0000032CDE90210054883784278017808A0CF
:1024F000FFF704FBCCE700000004024014000020BA
:1025000052756E2054696D653A20256420757300FC
:10251000593A2564204D3A256420443A25642057D1
:102520003A256420483A2564204D3A256420533AE0
:1025300025640D0A000000000A490968096809B904
:10254000012100E0002121B14FF0FF31064A116066
:1025500006E004490968C968C868034A416811600F
:10256000704700003C0000206800002010B588B0D3
:10257000044601211020FEF73BFC01210846FEF72E
:1025800017FC4FF40070069002208DF81C0001200B
:102590008DF81F0006A92448FEF70AFB4FF480605F
:1025A000069002208DF81C0006A91F48FEF700FBCC
:1025B000072209211C48FEF743FB07220A211A487B
:1025C000FEF73EFB02940020ADF80C00ADF80E00C3
:1025D000ADF810000C20ADF812000020ADF814008A
:1025E00002A91248FFF71AFA25208DF804000020EE
:1025F0008DF805008DF8060001208DF8070001A870
:10260000FEF74AFB40F2FF310848FFF7BFF901220D
:1026100040F225510548FFF7DBF901210348FFF798
:10262000BEF908B010BD00000000024000100140DB
:1026300001460A69D1E901309860D1E90103586087
:102640005068884201D18868506000200861106895
:10265000401E10601068704742684A6093688B6043
:10266000936859609160086103685B1C0360704760
:102670001D48006818B101201C49086032E00020A4
:102680001A4908601A480068B0FA80F0C0F11F01CA
:1026900001EB8100174A52F8200008B1012000E048
:1026A000002050B900BF502080F31188BFF34F8F36
:1026B000BFF36F8F00BF00BFFEE701EB81020D4B40
:1026C00003EB820042685268426000F108024368EE
:1026D000934202D14268526842604268D268064B17
:1026E0001A6000BF70470000700000205C000020EE
:1026F000500000202C030020380000202DE9F0417C
:102700004FF0000844480068002877D1434800682B
:10271000451C4248056015BB41480068006808B97F
:10272000012000E0002050B900BF502080F3118844
:10273000BFF34F8FBFF36F8F00BF00BFFEE7384876
:1027400007683848006836490860364807603648E8
:102750000068401C34490860FFF7EEFE00BF3348B4
:10276000006885423CD300BF2D480068006808B966
:10277000012000E0002020B14FF0FF302B4908601D
:102780002DE027480068C068C4686668B54202D278
:102790002648066023E0201DFFF74AFFA06A18B113
:1027A00004F11800FFF744FF94F82C100120884032
:1027B0001F49096808431E490860E16A01EB81016D
:1027C0001C4A02EB8100211DFFF746FF1A49E06A0F
:1027D0000968C96A8842C7D34FF00108C4E700BF3F
:1027E00015480068C06A00EB8000124951F82000CB
:1027F000012801D94FF0010805E0FFE70F48006804
:10280000401C0E4908600E48006808B14FF00108EE
:102810004046BDE8F0810000700000204C00002020
:102820003C000020400000206000002068000020E4
:10283000500000202C030020380000205800002009
:102840005C00002015030501000000006C28000852
:1028500000000020780000001C1B0008E42800088D
:1028600078000020480800002C1B00080000000031
:102870000102030401020304060708090000000026
:1028800000000000000000000019192828000000C6
:102890000000000000000000000000000100000037
:1028A0000000000000000000000000000000000028
:1028B0000000000000000000000000000000000018
:1028C0000000000000000000000000000000000008
:1028D00000000000000000000000000000000000F8
:0428E00000000000F4
:040000050800018965
:00000001FF
