:020000040800F2
:10000000682F002061020008671400085D100008D6
:10001000631400089F090008752C00080000000008
:10002000000000000000000000000000A101000826
:10003000B10B000800000000FD01000821230008AA
:100040007B0200087B0200087B0200087B0200089C
:100050007B0200087B020008F90B00087B02000805
:10006000390C0008ED0C00087B0200087B02000838
:100070007B0200087B0200087B020008350A0008AA
:100080007B0200087B0200087B0200087B0200085C
:100090007B0200087B0200087B0200087B0200084C
:1000A000252500087B0200087B0200087B0200086F
:1000B0007B0200087B0200087B0200087B0200082C
:1000C0007B0200087B0200087B0200087B0200081C
:1000D000BD200008152A0008D92A00087B02000864
:1000E0007B0200087B0200087B0200087B020008FC
:1000F0007B0200084D2600087B0200087B020008F6
:100100007B020008351F00087B0200087B02000804
:100110007B0200087B020008F92500087B0200082A
:100120007B0200087B0200087B0200087B020008BB
:100130007B0200087B0200087B0200087B020008AB
:100140007B0200087B0200087B0200087B0200089B
:10015000850A0008A90A00087B0200087B02000843
:100160007B0200087B0200087B0200087B0200087B
:100170007B0200087B0200087B0200087B0200086B
:100180007B0200087B020008DFF810D000F0CAFBF9
:1001900000480047E5470008AFF30080682F0020C3
:1001A0002C4B19680868B0E8F04F80F30988BFF35A
:1001B0006F8F4FF0000080F311887047000000003F
:1001C00008480068006880F308884FF0000080F35A
:1001D000148862B661B6BFF34F8FBFF36F8F00DF35
:1001E00000BF00BF08ED00E0DFF80C00016841F43B
:1001F00070010160704700BF88ED00E0EFF30980F7
:10020000BFF36F8F134B1A681EF0100F08BF20ED5D
:10021000108A20E9F04F106009B44FF0500080F3CD
:100220001188BFF34F8FBFF36F8F05F03DFB4FF089
:10023000000080F3118809BC19680868B0E8F04F25
:100240001EF0100F08BFB0EC108A80F30988BFF3CE
:100250006F8F704760060020EFF305807047000045
:100260000648804706480047FEE7FEE7FEE7FEE750
:10027000FEE7FEE7FEE7FEE7FEE7FEE755230008A0
:10028000890100082DE9F0410024061B254671F183
:10029000000605DA01240027D0EB070067EB010117
:1002A000161E73F1000605DA0027D2EB07020125BE
:1002B00067EB030300F010FA86460E4617469C468D
:1002C000AC4204D00025D0EB050E65EB010624B14D
:1002D0000020D2EB000760EB030C704631463A4633
:1002E0006346BDE8F081D2B201E000F8012B491E5F
:1002F000FBD270470022F6E710B513460A460446C3
:100300001946FFF7F0FF204610BD30B50446002027
:10031000034600E05B1C934203D2E05CCD5C401BD3
:10032000F8D030BD2DE9FE4F804681EA0300C00FB2
:100330000C46009021F0004123F00045B8EB02008C
:10034000A94105D24046214690461C460B4602462E
:1003500023F00040104347D0270DC7F30A00C3F332
:100360000A510290401A019040286BDAC3F313003F
:1003700040F4801B0098924620B10023D2EB030A80
:1003800063EB0B0B01985946C0F14002504600F058
:10039000D4F906460D4650465946019A00F0ECF94C
:1003A00010EB08006141002487EA115284EAE773E8
:1003B0001A4340D0009A62B3019A012A4FEA0752C9
:1003C00015DC001B61EB02014FF0004202EA07520C
:1003D000CDE90042001C41F5801132462B4600F069
:1003E00023FA03B0BDE8F08F40462146F9E7001B31
:1003F00061EB0201001C41F5801300185B412018DD
:10040000A2F5001747EB030140EAD570B6196D411C
:1004100011E06D084FEA360645EAC0754FEA07520B
:10042000001B61EB0201001C41F5801149084FEAF5
:1004300030000019514132462B4603B0BDE8F04F61
:1004400000F0E3B90098012240000023D0EB020243
:1004500063EBE073009821464FEAE074B8EB0000CC
:1004600061EB0401E9E783F000435BE781F00041C1
:1004700058E72DE9FE4F81EA030404F0004421F01F
:10048000004100944FF0000B23F0004350EA0104B8
:100490005ED052EA03045BD0C3F30A54C1F30A5599
:1004A0002C44A4F2F3340194A0FB0254C1F31301D1
:1004B00041F48011C3F3130343F4801301FB02449E
:1004C00000FB034E840A970A44EA815447EA8357A3
:1004D000A4FB076802958D0A05FB07854FEA932C5C
:1004E00004FB0C542705029D4FEA065847EA1637CD
:1004F000B5EB08056EEB070C870E920E47EA8117E5
:1005000042EA8312A7FB0201B6EB0B0164EB000485
:100510002B0D43EA0C335E1844EB1C50DA4651466F
:10052000E7FB0201C5F313044FEA0B3343EA14530C
:100530004FEA0432019C43EA0603A4F10C0402943E
:10054000009CCDE900B400F06FF903B0BDE8F08F76
:1005500000200146F9E72DE9F04D81EA030404F09B
:10056000004B21F0004514464FF0000A23F00041F3
:1005700050EA050220D054EA01021DD0C5F30A5703
:100580000246C5F31303C1F31300C1F30A5640F446
:10059000801543F48013A7EB0608101BD64608F21B
:1005A000FD3873EB050002D308F1010801E0921851
:1005B0005B41B8F1000F03DA00200146BDE8F08D81
:1005C00000204FF48011064684460EE0171B73EBA3
:1005D000050705D3121B63EB050306434CEA010C28
:1005E00049084FEA300092185B4150EA0107EDD10B
:1005F00052EA030012D082EA040083EA05010843AC
:1006000005D0101BAB4106D20122002306E00022D8
:100610004FF0004302E06FF0010253101AEB0600A6
:100620004CEB085110EB0A0041EB0B01BDE8F04D1B
:1006300000F0EBB80EB540F2334102910021CDE954
:1006400000110A460B4600F0EFF803B000BD00F0C1
:10065000004230F000400AD0C10D01F56071C0F3D6
:10066000160042EA0151C2084007114370470020BA
:100670000146704701F0004330B421F0004150EAD8
:10068000010206D00A0DA2F56072C1F31301002A1F
:1006900002DC30BC00207047440F44EAC104C100B2
:1006A000E01830BC00EBC25000F078B830B50B4613
:1006B000014600202022012409E021FA02F59D4292
:1006C00005D303FA02F5491B04FA02F52844151E66
:1006D000A2F10102F1DC30BD2DE9F05F05460020FA
:1006E00092469B4688460646814640241BE02846A3
:1006F00041464746224600F02FF853465A46C01A54
:10070000914110D311461846224600F016F82D1AD2
:1007100067EB01084F4622460120002100F00DF84A
:1007200017EB00094E41201EA4F10104DFDC48460E
:1007300031462A464346BDE8F09F202A04DB203A92
:1007400000FA02F1002070479140C2F1200320FA24
:1007500003F3194390407047202A04DB203A21FA22
:1007600002F00021704721FA02F3D040C2F12002CA
:100770009140084319467047202A06DBCB17203AE0
:1007800041FA02F043EAE07306E041FA02F3D04096
:10079000C2F1200291400843194670470029A8BFC2
:1007A0007047401C490008BF20F00100704710B49A
:1007B000B0FA80FC00FA0CF050EA010404BF10BC4F
:1007C000704749B1CCF1200421FA04F411FA0CF17C
:1007D00018BF012121430843A3EB0C01CB1D4FEAB5
:1007E00000614FEA102042BF002010BC704700EBB0
:1007F000C35010440029A4BF10BC7047401C4900DE
:1008000008BF20F0010010BC704710B5141E73F132
:10081000000408DA401C41F1000192185B411A43C0
:1008200001D120F0010010BD2DE9F04D92469B460C
:1008300011B1B1FA81F202E0B0FA80F220329046B2
:10084000FFF77BFF04460F4640EA0A0041EA0B012E
:1008500053465A46084313D0114653EA010019D0B3
:10086000C8F140025046FFF777FF05460E46504656
:1008700059464246FFF761FF084305D0012004E0D6
:1008800020463946BDE8F08D0020054346EAE07673
:100890002C4337430A986305E40AA0EB08000022C2
:1008A000FD0A44EA47540A3002D500200146E9E730
:1008B000010510196941DDE9084500196941BDE8E4
:1008C000F04DA2E7C1F30A52C1F3130140F2FF3326
:1008D00041F480119A4202DA00200146704740F24A
:1008E00033439A42A2F2334202DC5242FFF734BF52
:1008F000FFF723BF30B5041E71F1000404DB4FF095
:100900000044404264EB0101141E73F1000405DB56
:100910001C464FF00043524263EB0403994208BF68
:10092000904230BD064C074D06E0E06840F0010300
:1009300094E8070098471034AC42F6D3FFF728FC40
:100940001C6700083C67000870B58C1810F8015B44
:1009500015F0070301D110F8013B2A1106D110F858
:10096000012B03E010F8016B01F8016B5B1EF9D15C
:100970002B0705D40023521E0DD401F8013BFAE7E2
:1009800010F8013BCB1A921C03E013F8015B01F84D
:10099000015B521EF9D5A142D8D3002070BD00BF23
:1009A000FEE7000070B5044605E01648056805F04E
:1009B000450000B100E0F8E700BF042001F0AEFA06
:1009C00020B1042001F0A4FA032070BD012001F041
:1009D000A5FA20B1012001F09BFA0120F5E70948B2
:1009E00024380068A04201D01020EEE740F2FF500A
:1009F00001F08EFA03482038006808210840C0B290
:100A0000E3E70000342C014010B50849084800F025
:100A10005BF80021064800F08BF88021044800F0C4
:100A2000C5F80121024800F083F810BD2000002025
:100A30007060024010B50649064800F085F828B1FC
:100A40000349044800F05AF800F006F810BD000011
:100A5000208000207060024010B50849084800F06E
:100A600033F80021064800F063F88021044800F0C4
:100A70009DF80121024800F05BF810BD000800203D
:100A80008864024010B50649064800F05DF828B1B8
:100A90000349044800F032F8FFF7B6FF10BD00002C
:100AA000008800208864024010B50549054800F020
:100AB0004BF818B10249034800F020F810BD0000BF
:100AC00000802020A06402400246094B9A4201D2D5
:100AD000084801E00648103801F000531BB1064BEE
:100AE0000B40C36002E0044B0B4083607047000082
:100AF00010640240006002407D0F7D0F0246094BEA
:100B00009A4201D2084801E00648103801F000532B
:100B10001BB1064B0B40C36002E0044B0B408360EB
:100B20007047000010640240006002407D0F7D0F9E
:100B300021B1026842F00102026003E0026822F083
:100B4000010202607047000070B5024600200024D8
:100B50000025124EB24201D2114B01E00F4B103B67
:100B6000104E0E4036B11E2606EAD124166806EA5B
:100B7000040502E0566906F0800501F000560EB14A
:100B80005C6800E01C68084E344004EA010616B1B7
:100B90000DB1012000E0002070BD00001064024093
:100BA000006002403C0F3C0F7D0F7D0F416070479D
:100BB000704700000EB50121480400F0C5FE00207A
:100BC000ADF80800ADF8020042F210700190A720C5
:100BD000ADF800006946064801F03AFE00210548DC
:100BE00001F088FD0021024801F096FD0EBD0000D5
:100BF000004401400040014010B5C82002F01AFD39
:100C0000012000F0D9F801280ED14102084800F077
:100C100055F908480078401C0649087008460078D5
:100C2000042801DD00200870012000F0BFF810BD8D
:100C3000000402403706002010B5C82002F0FAFC7C
:100C4000042000F0B9F801283FD14102214800F00A
:100C500033F921480078012806D0022810D0032853
:100C60001AD0042830D123E01C480078401C1B49CE
:100C7000087008460078632801D10020087023E03E
:100C800017480078401C1649087008460078632809
:100C900001D10020087017E012480078401C11496B
:100CA000087008460078632801D1002008700BE026
:100CB0000D480078401C0C490870084600786328ED
:100CC00001D10020087000BF00BF042000F06EF8C2
:100CD00010BD000000040240370600203906002045
:100CE0003A0600203B0600203C06002010B5C82034
:100CF00002F0A0FC082000F05FF8012844D1410276
:100D0000234800F0D9F82348007806283BD2DFE8D2
:100D100000F03A030E19242F1F480078401E1E4988
:100D200008700846007808B9632008702BE01B485B
:100D30000078401E194908700846007808B96320F9
:100D4000087020E016480078401E154908700846D3
:100D5000007808B96320087015E012480078401E3A
:100D6000104908700846007808B9632008700AE046
:100D70000D480078401E0C4908700846007808B9F4
:100D80001E20087000BF00BF082000F00FF810BD43
:100D90000004024037060020390600203A060020F1
:100DA0003B0600203C060020380600200149086070
:100DB00070470000143C014001460020034A1268BD
:100DC0000A400AB1012000E000207047143C0140B5
:100DD000F0B50A4600210023002400BF3DE00125B4
:100DE00005FA01F3156805EA03049C4234D105684D
:100DF0004F000326BE40B543056015794E00B5404F
:100E00000668354305601579012D02D01579022D4C
:100E100016D185684F000326BE40B54385605579DD
:100E20004E00B540866835438560456801268E4092
:100E3000B5434560456896798E40B6B23543456006
:100E4000C5684F000326BE40B543C560D5794E0046
:100E5000B540C6683543C560491C1029BFD3F0BDF5
:100E6000F0B5002300244D07ED0E02FA05F3CE1075
:100E700000F1200555F826504E07F70E0F26BE400C
:100E8000B543CF1000F1200646F82750CE1000F1F0
:100E9000200555F8265045EA0304CE1000F1200540
:100EA00045F82640F0BD0246002013690B400BB107
:100EB000012000E0002070474183704701837047A4
:100EC00070B52DED048B044600F036F8002522E0C5
:100ED0000A2002F0AFFB0821062001F06FFA01287A
:100EE00017D111480088FFF7A5FB41EC190B9FEDC6
:100EF0000F0B53EC102BFFF7BCFA41EC180BFFF76C
:100F0000B9FB20600821062001F06AFABDEC048BD1
:100F100070BD681CC5B2032DDADB9FED060A84EDB7
:100F2000000A00BFF2E700005E060020C3F5285C5F
:100F30008FC2C53F0000000010B510210748FFF721
:100F4000BDFF1E2002F098FB10210448FFF7B4FFFC
:100F50000821062001F044FA10BD00000000024004
:100F600000B589B00121080200F0DEFC012108462D
:100F700000F0CAFC1020079001208DF8200002200C
:100F80008DF8210000208DF8220001208DF823002B
:100F900007A93048FFF71CFF8020079002208DF83A
:100FA00020008DF8210000208DF8220001208DF80E
:100FB000230007A92748FFF70BFF0922072125482F
:100FC000FFF74EFF40F24730ADF810004EF66020BC
:100FD00005900020ADF81200ADF8180004A91E48D5
:100FE00001F036FC0020ADF80400ADF80600012049
:100FF000ADF808000020ADF80A00ADF80C0001A91A
:10100000154801F0AFFB2D208DF8000001208DF870
:10101000030002208DF8010000208DF802006846D0
:1010200000F022FA01210C4801F064FB03210A4878
:1010300001F06FFB01220321074801F0CAFB0021E8
:10104000054801F069FB0221062001F0C9F909B049
:1010500000BD0000000002400020004000BFFEE78D
:1010600070B50024002500F039FC80211648FFF7F8
:1010700025FF022002F000FB00BF19E06006040E0D
:1010800040211148FFF718FF022002F0F5FA402135
:101090000D48FFF713FF022002F0EEFA80210A4804
:1010A000FFF701FF012801D144F00104681CC5B21B
:1010B000082DE3DB40210448FFF7FEFE022002F08A
:1010C000DBFA204670BD0000000402401CB501217F
:1010D000022000F019FCC020009001208DF80400CF
:1010E00002208DF8050001208DF8070000208DF802
:1010F000060069460148FFF76BFE1CBD0004024074
:1011000010B540210E48FFF7D7FE00F0D1FB0120BB
:1011100002F0B2FA80210A48FFF7CEFE012002F069
:10112000ABFA40210648FFF7C9FE012002F0A4FAFD
:1011300040210348FFF7C0FE012002F09DFA10BDD8
:101140000004024010B540210E48FFF7B5FE00F044
:10115000AFFB012002F090FA80210A48FFF7AEFEB3
:10116000012002F089FA40210648FFF7A7FE01207E
:1011700002F082FA40210348FFF79EFE012002F0B0
:101180007BFA10BD0004024070B50446002500F053
:101190008FFB40211748FFF78FFE00BF20E0402162
:1011A0001448FFF789FE022002F066FA04F080007E
:1011B00020B180210F48FFF781FE03E080210D4818
:1011C000FFF77AFE6006040E022002F055FA402175
:1011D0000848FFF773FE022002F04EFA681CC5B201
:1011E000082DDCDB40210348FFF766FE022002F0F9
:1011F00043FA70BD0004024010B5002400F06EFBFD
:1012000080211448FFF75AFE022002F035FA4021EF
:101210001048FFF753FE022002F02EFA0AE0601C8D
:10122000C4B2FA2C03DD01F059F8012010BD0220F0
:1012300002F022FA80210748FFF735FE0128EED0A0
:1012400040210448FFF738FE022002F015FA002082
:10125000ECE700000004024010B50D48007840B1F2
:101260004FF400710B48FFF729FE142002F004FA36
:1012700007E04FF400710748FFF71EFE142002F04C
:10128000D9F903480078C0430149087010BD000037
:10129000360600200004024010B503F0DFFB08B161
:1012A000012010BD782004F089F908B10220F8E788
:1012B000782003F0B9FA08B10320F2E7642004F0C3
:1012C0002FF908B10420ECE702F064FB08B1052017
:1012D000E7E7134803F02EFA044602F0CFFC08B10A
:1012E0000620DEE740F273100E49C880C88802F07D
:1012F000F9F908B10720D4E7642002F0EFFB08B148
:101300000820CEE7012004F007F808B10920C8E75B
:1013100001200449487004F013FA0020C1E70000DE
:1013200054060020A00D002010B5FFF7CFFE0121CC
:101330006B2000F07CF802211A2000F078F80421DC
:10134000192000F074F811211B2000F070F8002122
:101350001C2000F06CF8F821232000F068F8FFF75B
:101360009BFF10BD2DE9F0410746884615461C46F7
:10137000002600F093FF3846FFF706FFFFF73CFF1B
:101380004046FFF701FFFFF737FF00F087FF47F008
:101390000100FFF7F9FEFFF72FFF00BF10E0681E06
:1013A000B04205DDFFF75CFE2070FFF7A9FE04E008
:1013B000FFF756FE2070FFF7C5FE641C701CC6B216
:1013C000AE42ECDB00F08AFF0020BDE8F0812DE9A1
:1013D000F04104460E4617461D464FF0000800F047
:1013E0005DFF2046FFF7D0FEFFF706FF3046FFF710
:1013F000CBFEFFF701FF00BF10E02878FFF7C4FE27
:10140000FFF7FAFE012804D100F068FF0120BDE8D3
:10141000F0816D1C08F1010000F0FF08B845ECDB1D
:1014200000F05CFF012002F027F90020EFE770B523
:1014300005460C4600F032FFD020FFF7A5FEFFF76F
:10144000DBFE2846FFF7A0FEFFF7D6FE2046FFF79B
:101450009BFEFFF7D1FE00F041FF012002F00CF9E6
:1014600070BD00BFFEE7704770B5002100230F225A
:10147000C4781CB3174C246804F4E064C4F5E06439
:10148000C4F30721C1F10404E3B20A4144789C404B
:10149000E1B28478144021430C07210E0E4C0578EC
:1014A0006155047804F01F050124AC4005786D11E6
:1014B000AD0005F1E025C5F8004109E0047804F02D
:1014C0001F050124AC40054D0678761145F82640ED
:1014D00070BD00000CED00E000E400E080E100E001
:1014E00002490143024A1160704700000000FA05FA
:1014F0000CED00E010B5044622464FF4806103482D
:10150000FEF7F1FE00F076F910BD0000EC060020B9
:1015100010B500F06BF84FF480413348FFF7CCFC76
:10152000052002F0A9F84FF480412F48FFF7C6FCD0
:10153000052002F0A1F8A82000F0D8F83F2000F024
:10154000D5F8D32000F0D2F8002000F0CFF84020EA
:1015500000F0CCF8D52000F0C9F8F12000F0C6F872
:10156000A02000F0C3F8C02000F0C0F8DA2000F09E
:10157000BDF8122000F0BAF8812000F0B7F8FF2083
:1015800000F0B4F8D92000F0B1F8F12000F0AEF886
:10159000DB2000F0ABF8302000F0A8F8A42000F029
:1015A000A5F8A62000F0A2F8202000F09FF8002067
:1015B00000F09CF8C02000F099F8A12000F096F807
:1015C000232000F093F8002000F090F88D2000F028
:1015D0008DF8142000F08AF8AF2000F087F8002082
:1015E000FFF788FF10BD00000004024000B587B07F
:1015F0000121880300F098F90121022000F084F90C
:101600004FF42040059002208DF8180003208DF83B
:10161000190000208DF81A0001208DF81B0005A983
:101620002248FFF7D5FB4FF4A040059001208DF82C
:10163000180003208DF8190000208DF81A000120F1
:101640008DF81B0005A91948FFF7C2FB05220D21E3
:101650001648FFF705FC05220F211448FFF700FC90
:101660000020ADF800004FF48270ADF802000020B9
:10167000ADF804000220ADF806000120ADF8080026
:101680004002ADF80A001020ADF80C000720ADF8BC
:1016900010000020ADF80E006946054800F06AFD14
:1016A0000121034800F028FD07B000BD00040240FE
:1016B0000038004010B504464FF480510948FFF748
:1016C000FDFB00BF0221084800F02FFD0028F9D0E3
:1016D0002146054800F04CFD0221034800F018FDAA
:1016E00010BD0000000402400038004010B5044660
:1016F0004FF480510948FFF7DFFB00BF0221084883
:1017000000F013FD0028F9D02146054800F030FD17
:101710000221034800F0FCFC10BD00000004024060
:1017200000380040F0B504460B46002013E00021CD
:101730000DE001EBC005555DC0F10706A6EB4306C1
:10174000064F07EBC6160F19F5554D1CE9B20829CF
:10175000EFDB451CE8B20228E9DBF0BDEC06002017
:101760002DE9F04190B00746884615461E460024F4
:10177000402E00DC16B910B0BDE8F08117E0285DFE
:10178000212808DB285D7E2805DC285D2138C0B2D1
:101790000DF8040009E0285D202803D15E200DF833
:1017A000040002E05F200DF80400601CC4B2B442E3
:1017B000E5DB002418E0782F08DD002708F10100A0
:1017C00000F0FF08B8F1030F00DDB8461DF8040073
:1017D000074901EB001241463846FFF7A3FF07F126
:1017E0000800C7B2601CC4B2B442E4DB00BFC2E769
:1017F0003400002070B52120FFF778FF0020FFF7AC
:1018000075FF7F20FFF772FF052001F035FF2220D2
:10181000FFF76CFF0020FFF769FF0720FFF766FF67
:10182000052001F029FF00240DE0002507E007490D
:1018300001EBC411485DFFF73DFF681CC5B2802D68
:10184000F5DB601CC4B2082CEFDB70BDEC06002099
:101850009FED100A104880ED000A9FED0E0A80ED02
:10186000010A9FED0C0A80ED020A9FED0A0A80ED45
:10187000040A9FED080A80ED030A9FED080A80ED37
:10188000050A9FED060A80ED060A9FED050A80ED28
:10189000070A704700000000CC060020CDCCCC3DEC
:1018A0009A99993E014908627047000000000E4273
:1018B0001CB58020009001208DF8040002208DF8D6
:1018C000050001208DF8070000208DF8060069460C
:1018D0000148FFF77DFA1CBD000402401CB58020C2
:1018E000009000208DF8040002208DF805000120F2
:1018F0008DF8070000208DF8060069460148FFF7C3
:1019000067FA1CBD0004024029B1064A126802436E
:10191000044B1A6004E0034A12688243014B1A60C8
:10192000704700003038024029B1064A126802436D
:10193000044B1A6004E0034A12688243014B1A60A8
:10194000704700004038024029B1064A126802433D
:10195000044B1A6004E0034A12688243014B1A6088
:101960007047000044380240F0B5002100220024F6
:10197000022500260223324F3F6807F00C0121B1F7
:10198000042905D0082937D105E02E4F076036E03D
:101990002D4F076033E02A4F3F1F3F68C7F3805643
:1019A000274F3F1F3F6807F03F036EB1264FB7FB3D
:1019B000F3F7DFF88CC0ACF1040CDCF800C0CCF31A
:1019C000881C07FB0CF40CE01E4FB7FBF3F7DFF8A5
:1019D00070C0ACF1040CDCF800C0CCF3881C07FB31
:1019E0000CF4174F3F1F3F68C7F301477F1C7D0072
:1019F000B4FBF5F7076002E0124F076000BF00BFBD
:101A00000F4F3F6807F0F0010909104F7A5C076833
:101A1000D74047600A4F3F6807F4E051890A0B4FEF
:101A20007A5C4768D7408760054F3F6807F460419C
:101A3000490B064F7A5C4768D740C760F0BD00008D
:101A4000083802400024F40040787D011E00002088
:101A500010B501460022002300204A11012A02D1BC
:101A60000A4C236808E0022A03D1084C703423682A
:101A700002E0064C7434236801F01F0201249440F4
:101A80001C400CB1012000E0002010BD00380240D5
:101A90000021094A11701170012802D0042808D1D0
:101AA00003E00121044A117004E00521024A11708B
:101AB00000E000BF00BF7047703802400149086075
:101AC000704700003C0E4742002100F44072B2F51E
:101AD000407F08D1094A116821F4F811084A0240F0
:101AE0001143064A1160054A68321268C0F30B03BD
:101AF0001A43024B68331A607047000008380240EE
:101B0000FFFCFF0F014600BF080900EB8000420008
:101B100001F00F001044C0B270470146002204E0FB
:101B2000501CC2B2A1F10A00C1B20A29F8DA1007AA
:101B300041EA1060704700003EB5FF24012108070C
:101B4000FFF7F2FE0120FFF7ADFE002000F0A2F843
:101B500045F65A21884235D00120FFF799FF0AE067
:101B60004120FFF775FF012800D106E0022001F0B7
:101B700061FD601EC4B2002CF2D100BF04B93EBDAD
:101B80004FF48070FFF7A0FF0120FFF797FF7F2041
:101B90000190FF20029000200090684600F048F875
:101BA000094B9A795979187900F062F9064DEB786A
:101BB000AA786978287800F049F945F65A2100207A
:101BC00000F098F900BFDAE77C5A000808B5002257
:101BD000009200200021104A126802F04002CAB9A7
:101BE000421E0D4B1A6000BF0B4A126802F0400102
:101BF000009A521C0092009AB2F5803F01D0002951
:101C0000F2D0054A126802F040020AB1012002E057
:101C1000002000E0012008BD0C28004003480068B7
:101C200020F0800001490860704700000C28004047
:101C300030B504460025CA201549086053200860C5
:101C4000FFF7C4FF00B91DE011481C38006820F000
:101C500040000F491C3908600846006821680843A5
:101C60000B491C3908600A491439A0680860084605
:101C70000068A18840EA0140054914390860FFF76F
:101C8000CDFF0125FF2002490860284630BD000035
:101C90002428004008B50146002000900448009028
:101CA000009800EB810000900098006808BD0000DB
:101CB000502800402DE9F04105460C46002600273B
:101CC0004DB9607800F01000102804D1607820F041
:101CD00010000A30607005B908E06078FFF712FF65
:101CE0000646A078FFF70EFF064600BF55B1E07824
:101CF0000004617840EA0120A1780843217840EA95
:101D0000413611E0E078FFF708FF4FEA00486078BD
:101D1000FFF703FF48EA0028A078FFF7FEFE48EA35
:101D20000008207848EA4036CA201249086053204B
:101D30000860FFF74BFF08B9002714E00E48304059
:101D40000C4920390860FFF769FF0A481C38006811
:101D500000F0200030B900F09DF808B9002702E03B
:101D6000012700E00127FF20024908603846BDE84E
:101D7000F0810000242800403FFFFF002DE9F041E2
:101D800005460C46002600274DB92E48006800F095
:101D9000400000B102E00020E07000BF0DE02948E3
:101DA000006800F0400020B12078FFF7ABFE064647
:101DB00002E00020E07000BF00BF55B120780004B1
:101DC000617840EA0120A1780843E17840EA0146C1
:101DD00011E02078FFF7A1FE4FEA00486078FFF796
:101DE0009CFE48EA0028A078FFF797FE48EA000822
:101DF000E07848EA0046CA2012491C3108605320A6
:101E00000860FFF7E3FE08B9002713E00E483040F2
:101E10000C4908390860FFF701FF0A48006800F024
:101E2000200030B900F036F808B9002702E0012799
:101E300000E00127FF2003491C3108603846BDE857
:101E4000F0810000082800407F7F7F00F8B504463D
:101E50000D4616461F468DF803408DF801508DF84B
:101E600002608DF8007069460020FFF723FFF8BD7F
:101E7000F8B506460C4615468DF800608DF8014011
:101E80008DF8025040208DF8030069460020FFF7CE
:101E900075FFF8BD08B50022009200200021CA227B
:101EA000134B1A6053221A60114A183A126822F032
:101EB000A0020F4B183B1A6000BF0D4A183A126877
:101EC00002F02001009A521C0092009AB2F5003FE5
:101ED00001D00029F1D0064A183A126802F0200217
:101EE0000AB1012000E00020FF22014B1A6008BD6A
:101EF0002428004008B500220092044A0092009A6B
:101F000002EB80020092009A116008BD5028004048
:101F10000149086070470000382C0140014600204C
:101F2000034A12680A400AB1012000E0002070470D
:101F3000342C014010B500F017F810BD0021094BFA
:101F400002681A601A1D11686FF30A01D0E90123B3
:101F50001A43C3681A4303691A431143014A121D05
:101F600011607047082C014010B54FF48070FFF7E6
:101F7000D5FF78B34C480078012814D100204B4994
:101F800008600C204860402088600020C8604FF442
:101F9000806008610846FFF7D1FF0C20FEF702FDC4
:101FA0004349087002E00020414908704148006838
:101FB00040F480703F490860081D00684CF23A31D7
:101FC00088433C49091D086001203B490870384896
:101FD000007810BDFFE70220FFF7A0FF78B10220D4
:101FE000FFF796FF3348001D00684CF23A318843F2
:101FF0003049091D086002202D490870E9E70820D2
:10200000FFF78CFF78B10820FFF782FF2948001DF9
:1020100000684CF23A3188432649091D08600420C3
:1020200023490870D5E72020FFF778FF78B12020FA
:10203000FFF76EFF1F48001D00684CF23A318843DD
:102040001C49091D0860062019490870C1E71020C5
:10205000FFF764FF78B11020FFF75AFF1548001D05
:1020600000684CF23A3188431249091D0860052086
:102070000F490870ADE74FF40070FFF74FFF80B1D4
:102080004FF40070FFF744FF0A48001D00684CF24F
:102090003A3188430749091D086007200449087040
:1020A00097E7002095E700004D060020040B002074
:1020B0004E060020382C01404F06002010B571213B
:1020C0000B4800F03BF8012808D17121084800F0C6
:1020D00022F808480068401C064908600548006866
:1020E000B0F5806F02D100200249086010BD0000E9
:1020F000003800403000002021B1028842F0400248
:10210000028004E002884FF6BF731A4002807047D5
:10211000CA430281704710B5002201F00F04012369
:10212000A3409AB2D343038110BD02460020138915
:102130000B400BB1012000E000207047F0B50246D3
:10214000002000240023002501F00F070126BE40D7
:10215000B4B20B1101269E40B3B2968806EA03057D
:102160001689264016B10DB1012000E00020F0BD17
:102170008181704710B50022028802F441520B8819
:102180004C8823438C882343CC8823430C892343E6
:102190004C8923438C892343CC8923431A430280EF
:1021A000838B4FF2FF74234083830B8A038210BD1D
:1021B0000CB50020019000903448006840F4803055
:1021C0003249086000BF3148006800F400300090D8
:1021D0000198401C0190009818B90198B0F5A04FE3
:1021E000F1D12A48006800F4003010B101200090BD
:1021F00001E0002000900098012846D1234840309B
:10220000006840F080502149403108602048006853
:1022100040F440401E4908601C48083000681B49D3
:10222000083108600846006840F40040086008462D
:10223000006840F4A05008601648091F0860081F95
:10224000006840F08070091F086000BF0F480068F8
:1022500000F000700028F9D040F205700E490860C7
:102260000A480830006820F0030008490831086077
:102270000846006840F00200086000BF03480830CC
:10228000006800F00C000828F8D10CBD00380240AE
:102290000070004019544007003C024010B5FFF7A1
:1022A00007FB80210C48FEF709FE40210A48FEF793
:1022B00005FE012001F0E0F980210748FEF7FCFD52
:1022C000012001F0D9F940210348FEF7F5FD012076
:1022D00001F0D2F910BD00000004024010B5FFF774
:1022E000E7FA40210D48FEF7E7FD012001F0C4F9AF
:1022F00080210A48FEF7E0FD012001F0BDF94021F0
:102300000648FEF7DBFD012001F0B6F98021034805
:10231000FEF7D4FD012001F0AFF910BD000402402A
:1023200010B500BF502080F31188BFF34F8FBFF36B
:102330006F8F00BF03F0FEFA18B14FF080500449D0
:10234000086000BF002080F3118800BF10BD0000AE
:1023500004ED00E010B51548006840F47000134922
:1023600008601348006840F001001149086000202F
:102370000F49083108600E4800680E4908400C49B2
:1023800008600D48091D0860081F006820F48020BF
:10239000091F0860002006490C310860FFF708FF9C
:1023A0004FF0006001498039086010BD88ED00E001
:1023B00000380240FFFFF6FE103000240246FF29DD
:1023C00002D10648805C70470448805C084088421F
:1023D00001D00020F7E70120F5E70000AE0D002056
:1023E000024A125C8A43014B1A547047AE0D00201A
:1023F000024A125C0A43014B1A547047AE0D00208A
:10240000F0B50C46154600210022068C4FF6FE77EB
:102410003E400684018B028C4FF60C7631407E1CC8
:1024200006EA03162E4331434FF6F576324044F068
:102430000106324301830284F0BDF0B50C46154617
:10244000002100220026078C4FF6EF7C07EA0C07DC
:102450000784018B028C4FF6FF7707EA041640F6DB
:10246000FF4739404FF6FF7707EA033739434FF606
:10247000FF7707EA052739434FF65F773A4046F082
:1024800010073A4301830284F0BDF0B50C461546AF
:10249000002100220026078C4FF6FF6C07EA0C078C
:1024A0000784818B028C4FF6FF7707EA04264FF6EC
:1024B0000C7739404FF6FF7707EA03172F4339436C
:1024C0004FF2FF573A4046F480773A4381830284C3
:1024D000F0BDF0B50C461546002100220026078C01
:1024E0004EF6FF7C07EA0C070784818B028C4FF6BF
:1024F000FF7707EA043640F6FF4739404FF6FF778B
:1025000007EA052739434FF6FF7707EA03373943D0
:1025100045F6FF773A4046F480573A438183028478
:10252000F0BD000010B50121314800F001F901288B
:1025300058D130480078C82803DD00202D490870A4
:1025400047E02C480078032190FBF1F201FB1200D8
:1025500018B902210020FFF74BFF2648007805211B
:1025600090FBF1F201FB120018B904210020FFF7E3
:102570003FFF204800780A2190FBF1F201FB120096
:1025800018B908210020FFF733FF1A4800781421FA
:1025900090FBF1F201FB120018B910210020FFF7A7
:1025A00027FF14480078322190FBF1F201FB120062
:1025B00018B920210020FFF71BFF0E480078642186
:1025C00090FBF1F201FB120018B940210020FFF747
:1025D0000FFF01210020FFF70BFF06480078401C89
:1025E000044908700121024800F090F810BD000075
:1025F000004001405D06002010B50121104800F0A8
:1026000097F8012817D10E48406A4FF47A71B0FB51
:10261000F1F10C480088401C80B20A4A108000EB9F
:10262000C00202EB001001EB4000074908800021C6
:10263000034800F071F80121014800F067F810BD6F
:1026400000100040400600203E06002010B5082182
:102650000620FFF7B3FE012805D00121234800F032
:1026600070F8012807D100202049486203211F4843
:1026700000F04FF810BD02210620FFF79FFE012851
:1026800014D00221194800F05CF840B30221174829
:1026900000F0A8F80020154948620121134800F015
:1026A0003BF802210620FFF7A3FE18E002210F48A5
:1026B00000F047F898B100210C4800F093F80B485F
:1026C000406A0B4908800021084800F025F80221E3
:1026D0000620FFF785FE08210620FFF789FE03216B
:1026E000024800F016F800BFC4E7000000200040D8
:1026F0005E06002021B1028842F08002028004E0E0
:1027000002884FF67F731A4002807047CA430282E4
:102710007047CA430282704721B1028842F0010229
:10272000028004E002884FF6FE731A400280704770
:1027300002460020138A0B400BB1012000E000206C
:10274000704730B50246002000230024158A05EAB0
:102750000103958905EA010413B10CB1012000E0E1
:10276000002030BD70B505460C46208850B923893D
:10277000A28861882846FFF743FEE188284600F0DA
:102780003AF825E0208804280AD12389A2886188A4
:102790002846FFF752FEE188284600F035F817E09A
:1027A000208808280AD12389A28861882846FFF753
:1027B0006CFEE188284600F034F809E02389A288FD
:1027C00061882846FFF785FEE188284600F032F848
:1027D00070BD1AB183890B43838102E083898B43E7
:1027E000838170470A460021018C4FF6FD73194022
:1027F000114301847047028B4FF6F3731A40028332
:10280000028B0A4302837047028B4FF2FF331A4058
:102810000283028B4FF6FF7303EA01231A430283FC
:102820007047828B4FF6F3731A408283828B0A4380
:1028300082837047828B4FF2FF331A408283828BF0
:102840004FF6FF7303EA01231A43828370470000A7
:1028500000220288184B98420ED0184B98420BD099
:10286000B0F1804F08D0164B984205D0154B9842D6
:1028700002D0154B984204D14FF68F731A404B8803
:102880001A43124B984207D0114B984204D04FF68E
:10289000FF431A400B891A4302804B68C3620B88BE
:1028A0000385054B984202D0044B984201D18B7AA4
:1028B0000386012383827047000001400004014029
:1028C0000004004000080040000C004000100040E0
:1028D000001400401FB501210804FFF735F800205F
:1028E000ADF80C00ADF8060042F210700290A7207F
:1028F000ADF8040001A90F48FFF7AAFF18208DF8D2
:10290000000000208DF801008DF8020001208DF8F4
:1029100003006846FEF7A8FD01210648FFF7EAFE1E
:10292000012211460348FFF754FF01210148FFF738
:10293000F3FE1FBD0040014010B52DED028B0121BB
:102940000020FFF73BFD012803D101210020FFF704
:1029500047FD02210020FFF731FD012806D129485B
:10296000FEF7AEFA02210020FFF73AFD0421002015
:10297000FFF724FD012805D1FEF73CFF04210020CC
:10298000FFF72EFD08210020FFF718FD012815D1C3
:102990001C480068FDF75BFE41EC180B53EC182B4C
:1029A00019A11B4800F078F90623194A00210846AE
:1029B000FEF7D6FE08210020FFF712FD10210020AF
:1029C000FFF7FCFC012803D110210020FFF708FDD0
:1029D00020210020FFF7F2FC012805D1FEF73CFC86
:1029E00020210020FFF7FCFC40210020FFF7E6FC3F
:1029F000012803D140210020FFF7F2FCBDEC028B3F
:102A000010BD00001000002025362E3266000000A8
:102A10001400002010B540F22551024800F06FF874
:102A200010BD000000100140F0B587B006460C460E
:102A300017461D460CB905B1002501211020FEF7EF
:102A400083FF01210846FEF75FFF4FF4C060059049
:102A500002208DF8180005A91D48FEF7B9F90722D4
:102A600009211B48FEF7FCF907220A211848FEF746
:102A7000F7F90196ADF80840ADF80A70ADF80C50C2
:102A80000C20ADF80E000020ADF8100001A911488F
:102A900000F082F825208DF8000001208DF801005B
:102AA0008DF802008DF803006846FEF7DDFC40F269
:102AB000FF31084800F01AF8012240F2255105487C
:102AC00000F045F80121034800F028F807B0F0BDF8
:102AD000000002400010014010B540F2277102488A
:102AE00000F00DF810BD00000044004001F4007239
:102AF000B2F5007F00D100BFCA430280704710B515
:102B00000022002340F66A14A14200D100BF0A123D
:102B100001249440A3B2DC43048010BD21B182891A
:102B200042F40052828104E082894DF6FF731A401C
:102B30008281704702460020B1F5007F00D100BFBE
:102B400013880B400BB1012000E000207047F0B566
:102B50000346002400260025002040F66A17B942EB
:102B600000D100BF1846C1F3421401F01F0601272F
:102B700007FA06F5012C01D10C3004E0022C01D13A
:102B8000103000E014301AB107682F43076002E0EC
:102B90000768AF430760F0BD2DE9FF4705460E46C5
:102BA0000024A14600BFA046B08900B100BF2C8A16
:102BB00024F44054F08804432C82AC8941F20C6028
:102BC0008443B08831890843718908430443AC8148
:102BD000AC8A24F44074B0890443AC826846FEF7A2
:102BE000C3FE2048854202D01F48854202D1DDF84D
:102BF0000C9001E0DDF80890A88900F4004040B195
:102C000009EBC90000EB091031684900B0FBF1F78E
:102C100007E009EBC90000EB091031688900B0FB3F
:102C2000F1F76420B7FBF0F004012009642101FBF7
:102C30001078A88900F4004040B1322000EBC800B1
:102C4000B0FBF1F000F00700044308E0322000EB95
:102C500008106421B0FBF1F000F00F0004432C8158
:102C6000BDE8FF870010014000140140C1F30802D5
:102C70008280704700BFFEE70FB4054B10B503A973
:102C8000044A029800F0EEF810BC5DF814FB000056
:102C9000B1400008C80600200FB4084B10B504A9C5
:102CA00002AA039800F0DEF8044602A9002000F012
:102CB0005CFC204610BC5DF814FB00006B3500087E
:102CC00002E008C8121F08C1002AFAD170477047F5
:102CD000002001E001C1121F002AFBD17047000053
:102CE0002DE9FF5F82B00021DDE90430020DDDF83F
:102CF00040B0034318D044F61050A2F2FF324243D2
:102D00001514119801281FD0A5EB0B00401C5FEA99
:102D1000000A4FF000064E4FDFF83891B04650469B
:102D200015D5CAF1000413E0119801244AA3012823
:102D300001D16FEA0B010298119AC0E90031C0E994
:102D4000024206B0BDE8F09FCBF10000DFE7044689
:102D50000021404A491842EB0450CDE9001012E02E
:102D6000E00707D032463B4640464946FDF781FB27
:102D70008046894632463B4610461946FDF779FBA8
:102D800006460F466410002CEAD1DDE90401DDE9B6
:102D90000023BAF1000F06DAFDF76BFB42464B4603
:102DA000FDF767FB05E0FDF7D6FB42464B46FDF716
:102DB000D2FB04460E460022284BFDF79BFD03D8AC
:102DC0004FF0FF30014607E00022254B20463146F8
:102DD000FDF7A8FAFDF776FD102409E0002C0ADBC8
:102DE0000A220023FDF778FC039B30321A55641E3B
:102DF00050EA0102F2D1641C039AC4F11103144495
:102E0000119A012A03D0012208430DD10AE0084398
:102E100004D000204FF0110B119072E7A3EB0B05CB
:102E20006D1E0DE05B4504DD4FF0000205F101056C
:102E300004E003DA4FF00002A5F10105002AECD00E
:102E400002981199C0E90231C0E9004579E7000014
:102E5000000014400000F03F300000000000F0438C
:102E60000000E03F2DE9FF4F95B09A4688460646A0
:102E70000025EEE1252877D100242746F94A0121D3
:102E8000039400E0044316F8013F203B01FA03F0ED
:102E90001042F7D130782A2811D06FF02F03307804
:102EA000A0F13002092A16D8039A44F0020402EB7A
:102EB000820203EB42021044761C0390EFE758F8BD
:102EC000042B0392002A03DA504244F40054039086
:102ED00044F00204761C30782E2816D116F8010F23
:102EE00044F004042A280DD06FF02F023078A0F1AE
:102EF0003003092B09D807EB870302EB4303C718FC
:102F0000761CF3E758F8047B761C30786C280FD0D9
:102F100006DC4C2817D068280DD06A2814D104E0AC
:102F2000742810D07A280FD10DE044F400140AE080
:102F300044F4801401E044F440147278824202D1D7
:102F400004F58014761C761C307866280BD013DCD0
:102F5000582877D009DC002875D04528F6D04628B7
:102F6000F4D047281AD193E118E0632835D06428BB
:102F700079D0652812D18BE1702873D008DC6728DE
:102F8000F1D069286FD06E280DD06F2806D1ACE043
:102F900073282CD0752874D0782853D052461799AE
:102FA00090476D1C54E1C4F30250022809D0032855
:102FB0000DD0D8F8001004280DD00D6008F10408D9
:102FC00046E1D8F80010EA17C1E90052F6E7D8F850
:102FD00000100D80F2E70D70F0E718F8041B8DF873
:102FE000001000208DF80100EB46012003E058F8A6
:102FF00004BB4FF0FF3061074FF0000102D40DE039
:1030000009F101018946B9420FDA8145F8DB1BF865
:1030100009100029F4D108E009F101018946814233
:10302000FADB1BF809100029F6D103985346A0EBF0
:10303000090721463846179A00F080FA284400EB29
:10304000090507E044E008E10DE01BF8010B5246DA
:1030500017999047B9F10109F7D2534621463846EE
:10306000179AF2E039E00A21C4F302524FF0000B44
:103070000091022A06D058F8040BC117032A09D080
:103080000AE023E008F1070020F00702F2E802015D
:10309000904605E000B2C117042A01D140B2C11721
:1030A000002906DA0A460021404261EB02012D2286
:1030B00002E0220504D52B228DF80420012203E032
:1030C000E20701D02022F7E7914657E00A2100E00D
:1030D00010214FF0000B00910BE010214FF0000B7E
:1030E00044F004040827009103E008204FF0000B8F
:1030F0000090C4F30252022A05D058F8040B0021B4
:10310000032A08D008E008F1070020F00702F2E8DF
:103110000201904603E080B2042A00D1C0B24FF011
:10312000000922072AD53278702A07D0DDF800C0BE
:103130008CF0100C5CEA0B0C05D00EE040228DF8F0
:103140000420012208E050EA010306D030238DF864
:1031500004308DF8052002229146009B83F008037D
:1031600053EA0B030AD150EA010201D1620705D5E7
:1031700030228DF804204FF001097F1E3278582A42
:1031800004D039A20C920CAA02920BE03BA2F9E700
:103190005B46009AFDF7A0FA0C9B9B5C029A521EBC
:1031A0000292137050EA0102F2D1029804A9081A9F
:1031B00000F1200B600702D524F4803400E00127E1
:1031C0005F4502DDA7EB0B0000E0002000EB0B01E8
:1031D000009003984944401A0390E00306D45346F4
:1031E0002146179A039800F0A9F90544002706E044
:1031F00001A85246C05D179990476D1C7F1C4F4532
:10320000F6DBE0030CD553462146179A039800F0ED
:1032100095F9054404E030205246179990476D1CFB
:103220000099481E00900029F5DC08E002980299F8
:1032300052460078491C0291179990476D1CBBF1CA
:103240000001ABF1010BF1DC5BE100F065F9054435
:10325000761C307800287FF40DAE19B02846BDE802
:10326000F08F000009280100303132333435363711
:1032700038396162636465660000000030313233C2
:103280003435363738394142434445460000000062
:10329000600700D4062708F1070020F00700F0E8D7
:1032A0000223804603F0004C5FEA0C0001D097A097
:1032B00009E0200501D596A005E0E00701D095A022
:1032C00001E0AFF24C001390307823F00043652802
:1032D0000CD006DC452809D046281DD047287FD1D0
:1032E0003BE0662818D067287AD136E00021112FFC
:1032F00001DB112000E0781CCDE9000104A90CA835
:10330000FFF7EEFCDDE90D010C9A4FF0000B07F121
:103310000109109200914EE04FF000400097CDE976
:10332000011004A90CA8FFF7DBFCDDE90D020C9BE2
:103330000F994FF0000B91461093009211B9791C30
:1033400000EB0109B7EB090003D4C0F1FF3B07F123
:103350000109A9EB0700019042E0012F00DA0127E3
:103360000021112F01DD112000E03846CDE90001D8
:1033700004A90CA8FFF7B4FCDDE90D010C9A00913B
:103380004FF0000BB946109221070FD4009A4A451E
:1033900003DA914601E0A9F10109B9F1010F05DD58
:1033A000109AA9F10101515C3029F4D0B84202DA37
:1033B00010F1040F03DA0121CDE9011010E000281B
:1033C00003DC8344A9EB000102E0411C494500DD18
:1033D0008946A0EB0B00401C01904FF0004002908A
:1033E000200705D40198484502DB4FF0FF300190DB
:1033F00000208DF84B0002980DF14B07B0F1004F03
:1034000025D002200C902B200D90029800280CDA79
:10341000404202902D200D9007E00A210298FDF70E
:1034200045F93031029007F8011D0C99481E0C90A7
:103430000029F2DC02980028EFD1791E0D9808705F
:10344000307800F0200040F0450007F8020D11A888
:10345000C01BC01D02901398007800B1012000EB42
:103460000901019801EBE071029801440398401AA8
:10347000401E0390E00306D453462146179A039852
:1034800000F05CF805441398007818B1524617997B
:1034900090476D1CE00323D553462146179A0398A5
:1034A00000F04CF805441BE0BBF1000F07DB00986F
:1034B000584504DD1098179910F80B0001E0179992
:1034C00030205246904701980BF1010B401E05F148
:1034D0000105019004D12E205246179990476D1C8A
:1034E000B9F10001A9F10109DEDC05E017F8010BD3
:1034F0005246179990476D1C0299481E0290002968
:10350000F4DC53462146179A03989EE62D000000EE
:103510002B000000200000002DE9F04104460025AA
:103520001E461746880404D405E039462020B047DB
:103530006D1C641EF9D52846BDE8F0812DE9F041E7
:10354000044600251E469046C80301D5302700E0FA
:103550002027880404D505E041463846B0476D1C55
:10356000641EF9D52846BDE8F0810A68531C0B603B
:1035700010707047F0B52DED028B83B006460F46F4
:103580000025684600F0AAFD002447E056F8241004
:1035900057F82420881A002801DB014600E0414248
:1035A00000EE101AB8EEC00ADFED200A80EE208A85
:1035B000684600EB840090ED000AB5EEC00AF1EE1B
:1035C00010FA18D0684600EB8400D0ED000A88EEAF
:1035D000200AF7EE000A70EE608AB0EEE80A14489E
:1035E000D0ED090AB4EEE00AF1EE10FA15DD012083
:1035F000A040054311E00E4890ED070AB4EEC80A5A
:10360000F1EE10FA06DC90ED080AB4EEC80AF1EE0D
:1036100010FA02D20120A0400543641C032CB5DB44
:10362000284603B0BDEC028BF0BD000000008047CF
:10363000AC5A000870B5044600200E49086001210C
:103640000C482438FFF768F800250AE000200949F3
:10365000086000BF07480068B0F57A7FFAD3681C9D
:1036600085B2A542F2DB002102482438FFF754F866
:1036700070BD00002444014010B5044600200949F3
:103680000860012107482438FFF746F800BF0548C5
:103690000068A042FBD3002102482438FFF73CF821
:1036A00010BD00002444014038B5044664B1202018
:1036B0008DF8000028208DF8010030208DF80200E0
:1036C00038208DF8030004E0A32204216846FCF7AB
:1036D0000AFE6A46042140F69E2001F0D7FF01F061
:1036E000C1FB38BD3EB5044602208DF80000CA205B
:1036F0008DF80100E3208DF8020009208DF8030009
:103700006A460421682001F0C1FFA3208DF8000063
:1037100004F0400048B1C0208DF80100C8208DF8A9
:103720000200C2208DF8030006E0A3208DF80100FE
:103730008DF802008DF8030004F4C07048B1C42075
:103740008DF80400CC208DF80500C6208DF8060009
:1037500006E0A3208DF804008DF805008DF8060022
:10376000A3208DF807008DF808008DF809006A463F
:103770000A2140F6A72001F089FF04F0030018B1E8
:1037800020208DF8000002E0D8208DF800006A4665
:10379000012140F6B62001F079FF04F0200018B1B5
:1037A000012000F0ADF802E0002000F0A9F804F4D8
:1037B000C07008B304F4807060B1B2208DF80000CE
:1037C0008B208DF80100B6208DF802009B208DF82B
:1037D00003000BE0B0208DF8000080208DF8010080
:1037E000B4208DF8020090208DF803006A46042171
:1037F00040F6A22001F04AFF04F0010020B3F820B7
:103800008DF800006A4601214FF40B6001F03EFF85
:10381000FA21072000F046FB072000F00DFB0120F5
:1038200000F02DFB642000F01DFC4FF4FA7000F056
:103830002CFCC821304800F0BDFA282000F0D6FA50
:103840000A2000F0E6FA08E0D8208DF800006A4669
:1038500001214FF40B6001F019FF04F0020018B1D0
:10386000D9208DF8000002E0D8208DF800006A46CB
:10387000012140F23D7001F009FF04F0040018B18D
:10388000012000F069F802E0002000F065F804F083
:10389000100018B10120FFF707FF02E00020FFF73A
:1038A00003FF44F008001549488101F0DBFA0020CD
:1038B0001249887304F0400018B10846807B801DCF
:1038C000887304F4C07020B10C48807B801D0B49C4
:1038D000887304F0140020B10848807B1030074939
:1038E000887304F0030020B10448807B001D034965
:1038F000887300203EBD000009E3CA02540F002077
:103900003EB504466CB10EA1D1E900208968CDE92D
:10391000002002916A4609214FF4976001F0B6FE3B
:103920003EBD0AA2D2E900109268CDE901020091E1
:103930006A4609214FF4976001F0A8FEF0E7000005
:10394000B8AAB38DB4980D355D000000B8AAAAAA34
:10395000B088C3C5C700000038B5044664B1C020B4
:103960008DF80000C2208DF80100C4208DF80200FF
:10397000C6208DF8030004E08B2204216846FCF782
:10398000B2FC6A46042140F6982001F07FFE01F067
:1039900069FA38BD10B5C8234FF48062024940F679
:1039A000F63001F053F910BDD45A000870B588B054
:1039B000064601A800F096FFBDF804000021C903E7
:1039C00041EA5045C4034448007A00F0030056F829
:1039D000200005904048007A00F0040010B10598DE
:1039E000404205903C48007AC0F3C10056F82000E0
:1039F00006903948007A00F0200010B10698404245
:103A000006903548007AC0F3811056F820000790E0
:103A10003148008900F4807010B107984042079047
:103A20000598C117A0FB042301FB043100FB05101E
:103A3000810041EA927005900698C117A0FB04230B
:103A400001FB043100FB0510810041EA92700690F1
:103A50000798C117A0FB042301FB043100FB0510EC
:103A6000810041EA927007900598000E8DF80800D9
:103A70000598000C8DF809000598000A8DF80A00D9
:103A80000598C0B28DF80B000698000E8DF80C005A
:103A90000698000C8DF80D000698000A8DF80E00AF
:103AA0000698C0B28DF80F000798000E8DF8100030
:103AB0000798000C8DF811000798000A8DF8120085
:103AC0000798C0B28DF8130002AA0C214FF425709C
:103AD00001F0DCFD08B070BD540F002030B585B09A
:103AE000044616A207CA02AB07C3C82C03DD4FF079
:103AF000FF3005B030BDC82090FBF4F0401E85B209
:103B0000280A8DF80000E8B28DF801006A4602210B
:103B100040F2162001F0BAFD10B14FF0FF30E8E797
:103B200002AA0C2140F6C12001F0B0FD10B14FF007
:103B3000FF30DEE7044884810020DAE7FEF2ABC400
:103B4000AAF1DFDFBBAFDFDF540F00201FB5044653
:103B50004848007A00F0030054F8200001904548DE
:103B6000007A00F0040010B10198404201904148F1
:103B7000007AC0F3C10054F8200002903D48007A5A
:103B800000F0200010B10298404202903948007ABB
:103B9000C0F3811054F8200003903648008900F4E7
:103BA000807010B10398404203903349019880FB24
:103BB0000101800F40EA810001902F49029880FBAB
:103BC0000110820042EA917002902B49039880FB19
:103BD0000110820042EA917003900198000E8DF866
:103BE00000000198000C8DF801000198000A8DF882
:103BF00002000198C0B28DF803006A4604214FF418
:103C0000747001F043FD18B14FF0FF3004B010BDE7
:103C10000298000E8DF800000298000C8DF801004B
:103C20000298000A8DF802000298C0B28DF80300D5
:103C30006A4604214FF4757001F028FD10B14FF071
:103C4000FF30E3E70398000E8DF800000398000CA6
:103C50008DF801000398000A8DF802000398C0B2A5
:103C60008DF803006A4604214FF4767001F00EFDD2
:103C7000CCE70000540F002009E3CA0210B586B05B
:103C8000044647A00068039046A00068029046A042
:103C90000068019045A00068009004F0030003A9AB
:103CA000085C8DF8140003A8C4F3C101405C8DF8D2
:103CB000150003A8C4F38111405C8DF8160004F0D0
:103CC000030002A9085C8DF8100002A8C4F3C1012A
:103CD000405C8DF8110002A8C4F38111405C8DF89E
:103CE000120005AA032140F2264001F0CFFC18B1D2
:103CF0004FF0FF3006B010BD04AA032140F22A4065
:103D000001F0C4FC10B14FF0FF30F3E701980590CB
:103D10000098049004F0040058B19DF8140040F09D
:103D200001008DF814009DF8100040F001008DF89E
:103D3000100004F0200058B19DF8150040F001007B
:103D40008DF815009DF8110040F001008DF811006C
:103D500004F4807058B19DF8160040F001008DF811
:103D600016009DF8120040F001008DF8120005AA1F
:103D700003214FF4886001F089FC10B14FF0FF304F
:103D8000B8E704AA032140F2314001F07FFC10B1F2
:103D90004FF0FF30AEE7064804810020AAE700009C
:103DA0004CCD6C000CC92C003656760026466600B9
:103DB000540F0020F8B505460E464FF47A7095FB77
:103DC000F0F000FB06F4200E8DF80000200C8DF8BA
:103DD0000100200A8DF80200E0B28DF803006A4667
:103DE00004214FF4AE7001F051FCF8BD38B5044623
:103DF000052094FBF0F084B220128DF80000E0B2B0
:103E00008DF801006A4602214FF4AD7001F03EFCCE
:103E100038BD38B50446052094FBF0F084B220127A
:103E20008DF80000E0B28DF801006A4602214FF4DF
:103E3000AC7001F02BFC38BD38B504460020009072
:103E400004F0010020B19DF8000040F03000009027
:103E500004F0020020B19DF8000040F00C0000903A
:103E600004F0040020B19DF8000040F00300009031
:103E70006A4601214FF4A47001F008FC38BD38B542
:103E80000446012C01DA012402E0042C00DD0424A4
:103E9000601EC0B200906A46012140F24F1001F04E
:103EA000F5FB38BDF0B52DED028B83B006460F460D
:103EB00006F0070010B1B7F5C86F05DD4FF0FF3011
:103EC00003B0BDEC028BF0BD00EE107AB8EE400AF4
:103ED000DFED5B0A80EE208A01A800F0DDFC9DF892
:103EE0000400022806D0042817D0082828D010285B
:103EF0004CD138E09FED530A28EE000ABCEEC00A10
:103F000010EE100A84B29FED500A28EE000ABCEEB3
:103F1000C00A10EE100A85B23BE09FED4C0A28EE75
:103F2000000ABCEEC00A10EE100A84B29FED480AE7
:103F300028EE000ABCEEC00A10EE100A85B228E096
:103F40009FED440A28EE000ABCEEC00A10EE100AEB
:103F500084B29FED410A28EE000ABCEEC00A10EEC2
:103F6000100A85B215E09FED3D0A28EE000ABCEE6E
:103F7000C00A10EE100A84B29FED390A28EE000A3A
:103F8000BCEEC00A10EE100A85B202E04FF0FF301E
:103F900096E700BF20128DF80800E0B28DF8090006
:103FA00028128DF80A00E8B28DF80B0006F0010027
:103FB000A0B102AA02214FF4EA7001F067FB10B130
:103FC0004FF0FF307CE70DF10A0202214FF49270AE
:103FD00001F05CFB10B14FF0FF3071E706F002001A
:103FE000A0B102AA02214FF4EC7001F04FFB10B116
:103FF0004FF0FF3064E70DF10A0202214FF4947094
:1040000001F044FB10B14FF0FF3059E706F0040017
:10401000A0B102AA02214FF4EE7001F037FB10B1FB
:104020004FF0FF304CE70DF10A0202214FF4967079
:1040300001F02CFB10B14FF0FF3041E700203FE7CB
:104040000000484300008046000040460000004653
:104050000000C045000080450000404500000045CC
:104060000000C04438B50446052094FBF0F085B24A
:1040700028128DF80000E8B28DF801006A4602218E
:104080004FF4EF7001F002FB38BD38B5044605204F
:1040900094FBF0F085B228128DF80000E8B28DF89C
:1040A00001006A4602214FF4ED7001F0EFFA38BDCD
:1040B00070B504460D4600BF40210748FEF73AFDA3
:1040C0000028F9D0E1B20448FEF7D0FD40210248B3
:1040D000FEF70CFD204670BD001001407CB5054682
:1040E0002E494968087801AB04220D21FDF73AF901
:1040F00008B107207CBD9DF80700C0F301109DF8B2
:10410000041001F0E00140EAE1008DF800009DF8A4
:104110000700C0F381009DF8051001F0E00140EABE
:10412000E1008DF801009DF8070000F003009DF804
:10413000061001F0E00140EAE1008DF802000024E1
:1041400027E01DF8040030B99FED150A05EB840047
:1041500080ED000A1BE09FED130A05EB840080ED63
:10416000000A0BE005EB840090ED000ADFED0E0A7B
:1041700020EE200A05EB840080ED000A1DF8040003
:10418000401EC0B20DF804000028EBD100BF601C37
:10419000C4B2032CD5DB0020ACE700009C06002055
:1041A000000000007B14AE3E1D5A843F2DE9F04F05
:1041B00087B005460C46914601208DF8100000207E
:1041C0008DF81100FE4A1268917CFD4A5268107801
:1041D00004AB0222FDF7FBF820B14FF0FF3007B02F
:1041E000BDE8F08F3220FFF725FA00208DF810008F
:1041F000F34A1268D17BF24A5268107804AB01226C
:10420000FDF7E5F810B14FF0FF30E8E7EC4A12682F
:104210005179EB4A5268107804AB0122FDF7D7F8C8
:1042200010B14FF0FF30DAE7E54A1268917CE44ABA
:104230005268107804AB0122FDF7C9F810B14FF0B5
:10424000FF30CCE7DE4A1268D17DDD4A5268107833
:1042500004AB0122FDF7BBF810B14FF0FF30BEE711
:10426000D74A12681179D64A5268107804AB0122F5
:10427000FDF7ADF810B14FF0FF30B0E70C208DF82E
:104280001000CF4A12681179CD4A5268107804ABF9
:104290000122FDF79CF810B14FF0FF309FE70A2094
:1042A000FFF7C8F9C648806A407A8DF81000C44A02
:1042B00012689178C24A5268107804AB0122FDF767
:1042C00086F810B14FF0FF3089E7BD48806A007A68
:1042D0008DF81000BA4A12685178B94A52681078BD
:1042E00004AB0122FDF773F810B14FF0FF3076E711
:1042F000B9F1000F07D0B248806A807A40F0E00040
:104300008DF8100004E0AE48806A807A8DF81000C5
:10431000AB4A12689179AA4A5268107804AB01221C
:10432000FDF755F810B14FF0FF3058E7B9F1000F25
:1043300007D0A348806AC07A40F0E0008DF81000F2
:1043400003E0A048C07A8DF810009D4A1268D17928
:104350009B4A5268107804AB0122FDF738F810B17F
:104360004FF0FF303BE7B9F1000F02D03220FFF7EA
:1043700061F940208DF81000914A12681179904A35
:104380005268107804AB0122FDF721F810B14FF00C
:10439000FF3024E778208DF81000894A126851799F
:1043A000874A5268107804AB0122FDF710F810B16B
:1043B0004FF0FF3013E783498889FFF73BF900206E
:1043C0008DF810007E4A126851797D4A5268107843
:1043D00004AB0122FCF7FBFF10B14FF0FF30FEE60B
:1043E000774A1268917A764A5268107804AB0222B2
:1043F000FCF7B8FF10B14FF0FF30F0E69DF8110068
:104400009DF8101040EA012B0C209BFBF0F0C6B287
:104410000020A86068602860A0606060206082461C
:1044200065E0674A1268D17A654A5268107804AB31
:104430000C22FCF797FF10B14FF0FF30CFE69DF84C
:1044400011009DF8101040EA012000B2ADF80800FC
:104450009DF813009DF8121040EA012000B2ADF85B
:104460000A009DF815009DF8141040EA012000B2E2
:10447000ADF80C00BDF90810206808442060BDF9B3
:104480000A10606808446060BDF90C10A068084418
:10449000A0609DF817009DF8161040EA012000B2B8
:1044A000ADF800009DF819009DF8181040EA0120B1
:1044B00000B2ADF802009DF81B009DF81A1040EA0A
:1044C000012000B2ADF80400BDF9001028680844CE
:1044D0002860BDF90210686808446860BDF90410DE
:1044E000A8680844A8600AF1010000F0FF0AB2457C
:1044F00097DB3448D0F800C02868C117090441EAA6
:1045000010410704624600233846FBF7BBFE3246E3
:104510000023CDE90201FBF7B5FE28602948D0F859
:1045200000C06868C117090441EA104107046246E7
:1045300000233846FBF7A6FE32460023CDE90201F0
:10454000FBF7A0FE68601F48D0F800C0A868C1173C
:10455000090441EA10410704624600233846FBF78C
:1045600091FE32460023CDE90201FBF78BFEA860E5
:104570001448D0F804C02068C117090441EA10416A
:104580000704624600233846FBF77CFE32460023D0
:10459000CDE90201FBF776FE20600A48D0F804C09E
:1045A0006068C117090441EA10410704624600230C
:1045B0003846FBF767FE32460023CDE9020103E0EF
:1045C0009C060020AC5A0008FBF75CFE60601148B6
:1045D000D0F804C0A068C117090441EA10410704DB
:1045E000624600233846FBF74DFE32460023CDE9F4
:1045F0000201FBF747FEA060A068002804DDA06868
:10460000A0F58030A06003E0A06800F58030A060D5
:104610000020E4E5AC5A0008F0B52DED048B81B024
:1046200006460F4600253E49496808786B46032236
:104630000D21FCF797FE20B1072001B0BDEC048BE3
:10464000F0BD9DF8000000F01F008DF800009DF8FF
:10465000010000F01F008DF801009DF8020000F03D
:104660001F008DF80200002455E056F8241057F87A
:104670002420881A002801DB014600E0414200EEB8
:10468000101AB8EEC00ADFED270A80EE208A1DF866
:10469000040068B3244890ED000AB8EE400ADFED4C
:1046A000230A80EE801AF0EE418A05E09FED200A91
:1046B00028EE800AF0EE408A1DF80400401EC0B2C9
:1046C0000DF804000028F1D188EE280AF7EE000A60
:1046D00030EE609AB0EEC90A1348D0ED060AB4EE87
:1046E000E00AF1EE10FA15DD0120A040054311E0CB
:1046F0000D4890ED040AB4EEC80AF1EE10FA06DC9B
:1047000090ED050AB4EEC80AF1EE10FA02D20120CB
:10471000A0400543641C032CA7DB28468DE700005E
:104720009C06002000008047AC5A000800B04C45B1
:1047300054E3853F70B50546284600F00FF804465F
:10474000E81C00F00BF844EAC00084B2A81D00F099
:1047500005F844EA801084B2204670BD014691F904
:104760000020002A01DD00201EE091F90020002A2F
:1047700001DA042018E091F90120002A01DD01206E
:1047800012E091F90120002A01DA05200CE091F9EC
:104790000220002A01DD022006E091F90220002A11
:1047A00001DA062000E00720704700001CB5012157
:1047B0000220FDF7A9F84FF40070009001208DF859
:1047C000040002208DF8050000208DF8060001206D
:1047D0008DF8070069460248FCF7FAFA1CBD000094
:1047E000000402404FF4A060FCF77AFE00231A4652
:1047F00019464FF4E130FEF717F9FCF7DBF9FFF744
:10480000D5FFFDF799F9FCF783FEFDF795F9FCF765
:104810008BFDFEF75FF8FDF71BF8FCF7A1FB01E04D
:10482000FEF78AF8FCE7000070B50446002624F085
:104830000104184890F8240008B1002070BD154804
:10484000807A10B94FF0FF30F8E71248057C807A83
:104850002040104908740846007CA04202D04FF066
:10486000FF3600E0002614B90A48007D18B1012087
:1048700000F0B2FF02E0002000F0AEFF3CB100F01B
:10488000F1FA20B1034805744FF0FF30D6E7304607
:10489000D4E700009C06002001461148407A30B160
:1048A000012807D0022808D003280CD108E00220F4
:1048B00008700BE00420087008E00820087005E08C
:1048C0001020087002E04FF0FF30704700BF04482E
:1048D000C07C18B108784006000E08700020F4E78C
:1048E0009C06002001461348407A30B1012808D0C8
:1048F00002280AD0032810D10BE04FF48040088032
:104900000EE041F69C7008800AE04FF48050088069
:1049100006E04FF40060088002E04FF0FF3070477F
:1049200000BF0448C07C10B10888401008800020F7
:10493000F5E700009C06002001460248007C087054
:10494000002070479C06002001460F48007A30B1D5
:10495000012807D0022809D003280FD10AE0FA2045
:1049600008800EE04FF4FA7008800AE04FF47A7085
:10497000088006E04FF4FA60088002E0002008801A
:1049800000BF00BF002070479C060020014612486F
:10499000007A30B1012809D002280CD0032814D1A4
:1049A0000EE09FED0E0A81ED000A11E09FED0C0A6A
:1049B00081ED000A0CE09FED0B0A81ED000A07E093
:1049C0009FED090A81ED000A02E04FF0FF307047C9
:1049D00000BF0020FBE700009C060020000003430E
:1049E000000083423333034233338341014612488C
:1049F000C07A082817D2DFE800F01704070A0D1064
:104A00001318BC20088013E06220088010E02A20E0
:104A100008800DE0142008800AE00A20088007E0E2
:104A20000520088004E000BF00BF0020088000BF10
:104A300000BF0020704700009C0600200146064889
:104A400090F8240010B14FF0FF3070470248C08941
:104A500008800020F9E700009C0600201CB580209B
:104A60008DF80000654A1268917C644A526810789B
:104A70006B460122FCF7ABFC10B14FF0FF301CBDC0
:104A80000220FEF7D7FD00208DF800005B4A126877
:104A9000917C5A4A526810786B460122FCF797FCC9
:104AA00010B14FF0FF30EAE7544A1268917D534A43
:104AB000526810786B460622FCF754FC10B14FF098
:104AC000FF30DCE79DF80500C007400F9DF803109C
:104AD00001F0010140EA41009DF8011001F00101DF
:104AE00040EA010494B1012C03D101214348C1746F
:104AF00031E0022C03D100214048C1742BE0214653
:104B00003FA0FEF7B9F84FF0FF30B8E73B4A126814
:104B1000D1783A4A526810786B460122FCF722FCA1
:104B200010B14FF0FF30AAE79DF8000000F00F042D
:104B30002CB93D48FEF7A0F84FF0FF309FE7042C5A
:104B400006D13AA0FEF798F801212C48C17402E082
:104B500000212A48C174FF2128488172FF2027497B
:104B60000872FF2125484172C1724FF6FF71C18161
:104B7000FF21017481740121017380F8221000214A
:104B800080F8231041750175163001604160816025
:104B9000163880F8241080F82510C1844FF4FA608C
:104BA00000F002FC10B14FF0FF3068E7022000F087
:104BB000CBFA10B14FF0FF3061E72A2000F06EFC15
:104BC00010B14FF0FF305AE7322000F0A9FC10B1CD
:104BD0004FF0FF3053E70020FFF726FE10B14FF0F3
:104BE000FF304CE7002000F0F1FA10B14FF0FF3039
:104BF00045E7002000F0E2FC002040E79C06002092
:104C0000556E737570706F7274656420736F66741F
:104C1000776172652070726F647563742072657657
:104C20002025642E0A000000CC66000848616C66EE
:104C30002073656E73697469766974792070617226
:104C40007420666F756E642E0A0000002DE9F04333
:104C500085B005460E4690469946294890F82500AD
:104C600020B14FF0FF3005B0BDE8F08316B94FF02A
:104C7000FF30F8E7002423E0281B102801DD102076
:104C800000E0281B87B232193946204600F0FEFCAE
:104C900010B14FF0FF30E6E701AA3946204600F098
:104CA000A1F810B14FF0FF30DDE730193A4601A905
:104CB000FBF72BFB10B16FF00100D4E7E01984B2D1
:104CC000AC42D9DB4FEA28208DF8000008F0FF0045
:104CD0008DF801000A4A1268917E094A52681078DC
:104CE0006B460222FCF773FB10B14FF0FF30BAE7BE
:104CF0000121034880F82510A0F826900020B2E793
:104D00009C06002038B50446282C02DD4FF0FF3009
:104D100038BDDCB9002000F08BFB00208DF80000CE
:104D200007208DF801002E4A1268917C2C4A5268A7
:104D300010786B460222FCF74AFB10B14FF0FF30AF
:104D4000E6E70021264801750020E1E7012000F098
:104D50006FFB20208DF80000012C06D100208DF87B
:104D60000100052000F09AFB17E0052C06DC01206D
:104D70008DF80100052000F091FB0EE0142C06DCFC
:104D800002208DF801000A2000F088FB05E00320D6
:104D90008DF80100142000F081FB9DF8010007212F
:104DA00001EB8010C0B28DF801000D4A1268917CB1
:104DB0000B4A526810786B460222FCF708FB10B1D0
:104DC0004FF0FF30A4E708210548817200210173EC
:104DD000012101750020FFF727FD002098E7000062
:104DE0009C060020F8B504460D46164616B94FF04D
:104DF000FF30F8BD1A48807A10B94FF0FF30F8E75D
:104E000020128DF80000E0B28DF801009DF801003D
:104E10002844134949684989884202DD4FF0FF3030
:104E2000E7E70F4A1268117E0D4A526810786B4608
:104E30000222FCF7CCFA10B14FF0FF30D9E7EAB20A
:104E4000074B1B68597D064B5B6818783346FCF7A7
:104E500089FA10B14FF0FF30CBE70020C9E700001E
:104E60009C06002008B57048807A10B94FF0FF30DA
:104E700008BD002000906C4A1268D17B6A4A5268D3
:104E800010786B460122FCF7A2FA10B14FF0FF3008
:104E9000EEE7654A12685179634A526810786B46AA
:104EA0000122FCF794FA10B14FF0FF30E0E75E4AC0
:104EB000126811795C4A526810786B460122FCF73F
:104EC00086FA10B14FF0FF30D2E7574890F824002F
:104ED000002853D00C200090534A12681179524A8E
:104EE000526810786B460122FCF771FA10B14FF04E
:104EF000FF30BDE70A20FEF79DFBC02000904A4826
:104F0000807A00F0010020B19DF8000040F0200000
:104F10000090454A12681179434A526810786B46EE
:104F20000122FCF754FA10B14FF0FF30A0E73E48E1
:104F3000407C10B10220009001E0002000903A4A2D
:104F40001268D17B384A526810786B460122FCF710
:104F50003EFA10B14FF0FF308AE700200090324A4D
:104F600012685179304A526810786B460122FCF77A
:104F70002EFA002855D04FF0FF3079E7042000903A
:104F8000294A12681179284A526810786B46012222
:104F9000FCF71DFA10B14FF0FF3069E72248807C22
:104FA00020B92148807A00F0010010B9402000901B
:104FB00001E0602000901C4A126811791A4A526878
:104FC00010786B460122FCF702FA10B14FF0FF3067
:104FD0004EE70A20FEF72EFB1348407C10B101205B
:104FE000009001E0002000900F4A1268D17B0E4A29
:104FF000526810786B460122FCF7E9F910B14FF0C6
:10500000FF3035E7084A12685179074A526810782C
:10501000054B10330122FCF7DAF910B14FF0FF30E5
:1050200026E7002024E700009C0600202DE9F04F31
:105030008DB083460F4602200C90424890F8240021
:1050400020B1002000F068F9012600E0002603A846
:10505000FFF77AFC05A8FFF71FFC01A8FFF7C6FCC5
:1050600002A8FFF7EBFC374890F80AA004A8FFF766
:1050700063FC002407E0002239465846FFF796F803
:1050800000B902E0641C022CF5DB00BF022C01D148
:10509000002528E0002407E0012206A909A8FFF75F
:1050A00085F800B902E0641C022CF5DB00BF022C7D
:1050B00001D1002517E006A93846FEF75BFA00F09B
:1050C000FF0809A95846FFF7A7FA00F0FF090025D5
:1050D000B9F1000F01D145F00105B8F1000F01D180
:1050E00045F0020500BFFF2016490872FF21154850
:1050F0004172C1724FF6FF71C181FF21817201744B
:1051000001210173BDF80C0000F04EF99DF8140068
:1051100000F01AF8BDF8040000F0C0F9BDF808006E
:1051200000F0FEF9504600F049FA9DF81000FFF734
:105130007BFB16B1012000F0EFF828460DB0BDE86A
:10514000F08F00009C06002038B504461E48807A87
:1051500010B94FF0FF3038BD022C06D0042C07D018
:10516000082C08D0102C0CD108E0002000900BE097
:105170000820009008E01020009005E01820009022
:1051800002E04FF0FF30E6E700BF0F48407A9DF89D
:105190000010B0EBE10F01D10020DCE70A4A1268F1
:1051A000D179094A526810786B460122FCF70FF951
:1051B00010B14FF0FF30CEE79DF80000C11002485B
:1051C00041720020C7E700009C06002038B5044665
:1051D0005048807CA04201D1002038BD002C46D030
:1051E0004C4A126811794B4A526810786B4601227A
:1051F000FCF7B8F810B14FF0FF30EEE79DF8000073
:1052000020F020000090434A12681179414A526808
:1052100010786B460122FCF7DAF810B14FF0FF303E
:10522000DBE70320FEF706FA02200090394890F8E9
:10523000220020B19DF8000040F080000090354829
:1052400090F8230020B19DF8000040F0300000905D
:10525000304A1268117D2F4A526810786B4601223D
:10526000FCF7B5F8002851D04FF0FF30B5E7294AD8
:1052700012681179274A526810786B460122FCF7B0
:1052800071F810B14FF0FF30A7E72248807A00F0A4
:10529000010028B19DF8000040F02000009004E0DB
:1052A0009DF8000020F0200000901A4A1268117941
:1052B000184A526810786B460122FCF788F810B142
:1052C0004FF0FF3089E70320FEF7B4F9114890F85A
:1052D000220010B18020009001E0002000900D48D5
:1052E00090F8230020B19DF8000040F030000090BD
:1052F000084A1268117D074A526810786B460122ED
:10530000FCF765F810B14FF0FF3066E70148847490
:10531000002062E79C06002038B50446214890F83A
:105320002400A04201D1002038BD24B31D4890F8CC
:10533000250010B94FF0FF30F6E7002000F04CFADE
:105340000020FFF743FF1749C88C00F0E9F8002060
:1053500000901449496808786B4601222321FCF724
:1053600036F801210F4880F82410012000F034FAAB
:10537000FFF778FD13E0002000F02EFA0948007CCA
:1053800000900849496808786B4601222321FCF700
:105390001EF80021034880F82410FFF763FD002069
:1053A000C2E700009C06002038B504461F48807AFA
:1053B00010B94FF0FF3038BDFA2C09D0B4F5FA7FA0
:1053C00009D0B4F57A7F09D0B4F5FA6F0CD108E0B2
:1053D000002000900BE00820009008E010200090D2
:1053E00005E01820009002E04FF0FF30E3E700BF37
:1053F0000E48007A9DF80010B0EBE10F01D10020BB
:10540000D9E70A4A12689179084A526810786B46BF
:105410000122FBF7DCFF10B14FF0FF30CBE79DF826
:105420000000C010014908720020C4E79C0600205B
:1054300038B50446184890F82300A04201D1002056
:1054400038BD14B13020009001E0002000901248D7
:10545000807C20B19DF8000040F0020000900E48D2
:1054600090F8220020B19DF8000040F080000090EC
:10547000094A1268117D084A526810786B46012269
:10548000FBF7A5FF10B14FF0FF30D9E7024880F8D5
:1054900023400020D4E700009C06002038B50446D5
:1054A0001E48807A10B94FF0FF3038BDBC2C02DBAB
:1054B0000120009015E0622C02DB0220009010E039
:1054C0002A2C02DB032000900BE0142C02DB0420CA
:1054D000009006E00A2C02DB0520009001E0062087
:1054E00000900E48C07A9DF80010884201D100203B
:1054F000DBE70A4A12689178084A526810786B46CE
:105500000122FBF764FF10B14FF0FF30CDE79DF8AB
:1055100000100248C1720020C7E700009C0600206E
:1055200038B504462448807A10B94FF0FF3038BDB2
:10553000214890F8240010B14FF0FF30F7E71E48E3
:10554000007D50B134B1282C04DCE0B2FFF7DAFB67
:105550000020ECE70020FFF7D5FB042C01DA04243F
:1055600004E0B4F57A7F01DD4FF47A744FF47A7079
:1055700090FBF4F0401EC0B200900F4A12685178C0
:105580000D4A526810786B460122FBF720FF10B1DC
:105590004FF0FF30CBE79DF80000401C4FF47A71CC
:1055A00091FBF0F081B20448C1810146C9894810DD
:1055B000FFF774FF0020BAE79C06002038B50446C8
:1055C00004F0700010B10120009005E014B100203B
:1055D000009001E0402000902B4A1268917C2A4AFA
:1055E000526810786B460122FBF7F1FE20B10021D2
:1055F00025488172481E38BD9DF8000020F040010A
:10560000214801730020009004F0400020B99DF86B
:10561000000040F00400009004F0200020B99DF844
:10562000000040F00200009004F0100020B99DF846
:10563000000040F00100009004F0080020B99DF83F
:10564000000040F0380000900F4A1268D17C0E4AEA
:10565000526810786B460122FBF7B9FE20B1002199
:1056600009488172481EC6E724B1082C02D00020E8
:10567000FFF7DEFE04488472002101750A20FDF761
:10568000D9FF0020B7E700009C060020F8B50446CB
:105690000D46164616B94FF0FF30F8BD1A48807A0D
:1056A00010B94FF0FF30F8E720128DF80000E0B29B
:1056B0008DF801009DF80100284413494968498983
:1056C000884202DD4FF0FF30E7E70F4A1268117E93
:1056D0000D4A526810786B460222FBF778FE10B133
:1056E0004FF0FF30D9E7EAB2074B1B68597D064BF4
:1056F0005B6818783346FBF76AFE10B14FF0FF3055
:10570000CBE70020C9E700009C0600200A49096891
:10571000096809B9012100E0002121B14FF0FF31F2
:10572000064A116006E004490968C968C868034A66
:105730004168116070470000640600209006002058
:1057400010B588B002A905A8FFF770FC0446032C29
:105750003FD101A8FFF71AF99DED050AB8EEC00A7E
:10576000DDED010A20EE200ABDEEC00A8DED050A2E
:105770009DED060AB8EEC00ADDED010A20EE200A12
:10578000BDEEC00A8DED060A9DED070AB8EEC00A0F
:10579000DDED010A20EE200ABDEEC00A8DED070AFC
:1057A00005A8FEF7D3F96846FFF79CF8BDF800108E
:1057B000029848430290BDF80010039848430390B4
:1057C000BDF8001004984843049002A8FEF7EEF8D4
:1057D00000BF08B010BD000038B50446214890F85D
:1057E0002400C0B114B10220009001E0002000901C
:1057F0001C4A1268D17B1B4A526810786B46012202
:10580000FBF7E5FD10B14FF0FF3038BD9DF80010FB
:105810001448417423E01348807A10B94FF0FF30E8
:10582000F3E724B10F48407C08B10020EDE714B144
:105830000120009001E0002000900A4A1268D17B0C
:10584000084A526810786B460122FBF7C0FD10B180
:105850004FF0FF30D9E79DF8001002484174002056
:10586000D3E700009C06002001460A69D1E9013017
:105870009860D1E9010358605068884201D1886876
:105880005060002008611068401E1060106870476A
:1058900042684A6093688B609368596091600861C0
:1058A00003685B1C036070471D48006818B1012045
:1058B0001C49086032E000201A4908601A48006854
:1058C000B0FA80F0C0F11F0101EB8100174A52F8D5
:1058D000200008B1012000E0002050B900BF502096
:1058E00080F31188BFF34F8FBFF36F8F00BF00BFEE
:1058F000FEE701EB81020D4B03EB82004268526828
:10590000426000F108024368934202D14268526843
:1059100042604268D268064B1A6000BF70470000C0
:10592000980600208406002078060020C40D002080
:10593000600600202DE9F0414FF00008444800685F
:10594000002877D143480068451C4248056015BBD4
:1059500041480068006808B9012000E0002050B903
:1059600000BF502080F31188BFF34F8FBFF36F8FBC
:1059700000BF00BFFEE7384807683848006836496E
:1059800008603648076036480068401C34490860A3
:10599000FFF7BCFE00BF3348006885423CD300BF20
:1059A0002D480068006808B9012000E0002020B1FF
:1059B0004FF0FF302B4908602DE027480068C06891
:1059C000C4686668B54202D22648066023E0201DFE
:1059D000FFF74AFFA06A18B104F11800FFF744FF6F
:1059E00094F82C10012088401F49096808431E497B
:1059F0000860E16A01EB81011C4A02EB8100211D74
:105A0000FFF746FF1A49E06A0968C96A8842C7D3A6
:105A10004FF00108C4E700BF15480068C06A00EBFA
:105A20008000124951F82000012801D94FF00108E7
:105A300005E0FFE70F480068401C0E4908600E486B
:105A4000006808B14FF001084046BDE8F081000051
:105A500098060020740600206406002068060020D6
:105A6000880600209006002078060020C40D002043
:105A70006006002080060020840600201501010534
:105A80000000000075191A0C6A231B1C1F20727479
:105A9000433B4138393A6B6C376F06246D6E7000AA
:105AA000D000000476005401F7FD000183000000DF
:105AB000000800000001001832000500000020412D
:105AC0000000D242295C0F3E9A99993E3333733FCE
:105AD000295C0F3E0000700000000024000000025E
