:020000040800F2
:100000007011002061020008330D00082B0D00085C
:100010002F0D000861080008D91800080000000032
:10002000000000000000000000000000A101000826
:10003000710A000800000000FD010008D515000845
:100040007B0200087B0200087B0200087B0200089C
:100050007B0200087B020008750A00087B0200088A
:10006000B50A0008690B00087B0200087B02000843
:100070007B0200087B0200087B020008F5080008EC
:100080007B0200087B0200087B0200087B0200085C
:100090007B0200087B0200087B0200087B0200084C
:1000A0007B0200087B0200087B0200087B0200083C
:1000B0007B0200087B0200087B0200087B0200082C
:1000C0007B0200087B0200087B0200087B0200081C
:1000D000F51300087B0200087B0200087B02000881
:1000E0007B0200087B0200087B0200087B020008FC
:1000F0007B0200087B0200087B0200087B020008EC
:100100007B0200086D1200087B0200087B020008D9
:100110007B0200087B020008711600087B020008C1
:100120007B0200087B0200087B0200087B020008BB
:100130007B0200087B0200087B0200087B020008AB
:100140007B0200087B0200087B0200087B0200089B
:1001500045090008690900087B0200087B020008C5
:100160007B0200087B0200087B0200087B0200087B
:100170007B0200087B0200087B0200087B0200086B
:100180007B0200087B020008DFF810D000F05AFA6A
:1001900000480047B5190008AFF300807011002037
:1001A0002C4B19680868B0E8F04F80F30988BFF35A
:1001B0006F8F4FF0000080F311887047000000003F
:1001C00008480068006880F308884FF0000080F35A
:1001D000148862B661B6BFF34F8FBFF36F8F00DF35
:1001E00000BF00BF08ED00E0DFF80C00016841F43B
:1001F00070010160704700BF88ED00E0EFF30980F7
:10020000BFF36F8F134B1A681EF0100F08BF20ED5D
:10021000108A20E9F04F106009B44FF0500080F3CD
:100220001188BFF34F8FBFF36F8F01F08BFC4FF03E
:10023000000080F3118809BC19680868B0E8F04F25
:100240001EF0100F08BFB0EC108A80F30988BFF3CE
:100250006F8F7047F0040020EFF3058070470000B7
:100260000648804706480047FEE7FEE7FEE7FEE750
:10027000FEE7FEE7FEE7FEE7FEE7FEE709160008F9
:1002800089010008D2B201E000F8012B491EFBD21F
:1002900070470022F6E710B513460A460446194691
:1002A000FFF7F0FF204610BD2DE9FE4F804681EAA2
:1002B0000300C00F0C46009021F0004123F00045E0
:1002C000B8EB0200A94105D24046214690461C46A3
:1002D0000B46024623F00040104347D0270DC7F3DA
:1002E0000A00C3F30A510290401A019040286BDAC9
:1002F000C3F3130040F4801B0098924620B1002302
:10030000D2EB030A63EB0B0B01985946C0F1400294
:10031000504600F008F906460D4650465946019AE7
:1003200000F020F910EB08006141002487EA115227
:1003300084EAE7731A4340D0009A62B3019A012A13
:100340004FEA075215DC001B61EB02014FF000423F
:1003500002EA0752CDE90042001C41F58011324605
:100360002B4600F020F903B0BDE8F08F404621464F
:10037000F9E7001B61EB0201001C41F58013001836
:100380005B412018A2F5001747EB030140EAD57046
:10039000B6196D4111E06D084FEA360645EAC075A1
:1003A0004FEA0752001B61EB0201001C41F580116E
:1003B00049084FEA30000019514132462B4603B03C
:1003C000BDE8F04F00F0E0B80098012240000023A3
:1003D000D0EB020263EBE073009821464FEAE07431
:1003E000B8EB000061EB0401E9E783F000435BE751
:1003F00081F0004158E72DE9FE4F81EA030404F043
:10040000004421F0004100944FF0000B23F0004322
:1004100050EA01045ED052EA03045BD0C3F30A54ED
:10042000C1F30A552C44A4F2F3340194A0FB025406
:10043000C1F3130141F48011C3F3130343F4801398
:1004400001FB024400FB034E840A970A44EA8154EC
:1004500047EA8357A4FB076802958D0A05FB0785C9
:100460004FEA932C04FB0C542705029D4FEA0658D3
:1004700047EA1637B5EB08056EEB070C870E920EB0
:1004800047EA811742EA8312A7FB0201B6EB0B0190
:1004900064EB00042B0D43EA0C335E1844EB1C5054
:1004A000DA465146E7FB0201C5F313044FEA0B336A
:1004B00043EA14534FEA0432019C43EA0603A4F1D1
:1004C0000C040294009CCDE900B400F06CF803B079
:1004D000BDE8F08F00200146F9E70EB540F2334148
:1004E00002910021CDE900110A460B4600F05BF8AD
:1004F00003B000BDC1F30A5210B5C1F3130140F2BD
:10050000FF3341F480119A4201DA002010BD40F21D
:1005100033439A42A2F2334203DC524200F012F813
:1005200010BD904010BD202A04DB203A00FA02F1F1
:10053000002070479140C2F1200320FA03F31943D1
:1005400090407047202A04DB203A21FA02F0002173
:10055000704721FA02F3D040C2F1200291400843D3
:1005600019467047202A06DBCB17203A41FA02F0E1
:1005700043EAE07306E041FA02F3D040C2F1200200
:10058000914008431946704710B5141E73F10004DA
:1005900008DA401C41F1000192185B411A4301D175
:1005A00020F0010010BD2DE9F04D92469B4611B19F
:1005B000B1FA81F202E0B0FA80F220329046FFF701
:1005C000B2FF04460F4640EA0A0041EA0B015346D7
:1005D0005A46084313D0114653EA010019D0C8F116
:1005E00040025046FFF7AEFF05460E4650465946BC
:1005F0004246FFF798FF084305D0012004E020465B
:100600003946BDE8F08D0020054346EAE0762C43EC
:1006100037430A986305E40AA0EB08000022FD0AAC
:1006200044EA47540A3002D500200146E9E70105B3
:1006300010196941DDE9084500196941BDE8F04D2F
:10064000A2E70000064C074D06E0E06840F0010319
:1006500094E8070098471034AC42F6D3FFF798FDB2
:10066000181D0008381D000870B58C1810F8015BC3
:1006700015F0070301D110F8013B2A1106D110F83B
:10068000012B03E010F8016B01F8016B5B1EF9D13F
:100690002B0705D40023521E0DD401F8013BFAE7C5
:1006A00010F8013BCB1A921C03E013F8015B01F830
:1006B000015B521EF9D5A142D8D3002070BD0000C5
:1006C00010B52DED068B3F205B4908708BE05A4832
:1006D0000078FFF702FF41EC1A0B9FED580B53EC2B
:1006E000102BFFF788FE41EC190B9FED560B53ECD6
:1006F000102BFFF77DFE41EC180BFFF7FBFEC4B299
:1007000001224D480178204600F066FB4A480078F7
:10071000FFF7E3FE41EC1A0B9FED480B53EC102B57
:10072000FFF769FE41EC190B9FED480B53EC102BC2
:10073000FFF7BAFD41EC180BFFF7DCFEC4B2012253
:100740003D480178204600F047FB3B480078C0F167
:1007500040004049087008460078FFF7BEFE41ECB3
:100760001A0B9FED360B53EC102BFFF744FE41ECB8
:10077000190B9FED390B53EC102BFFF739FE41ECB1
:10078000180BFFF7B7FEC4B20122324801782046A9
:1007900000F022FB2F480078FFF79FFE41EC1A0B78
:1007A0009FED260B53EC102BFFF725FE41EC190BA8
:1007B0009FED290B53EC102BFFF776FD41EC180B46
:1007C000FFF798FEC4B2012222480178204600F0CB
:1007D00003FB142001F091F800F038FC1648007873
:1007E000401E15490870144800781228BFF66FAFF4
:1007F0001E201149087018E00F490978C1F17D01E8
:10080000C8B201222F2100F0E7FA012212210A4882
:10081000007800F0E1FA142001F06FF800F016FC07
:1008200005480078401C04490870034800785E2899
:10083000E2DDBDEC068B10BDD40400206666666662
:100840006666E63F0000000000005B40000000001C
:1008500000003140D504002000000000000050409E
:1008600000BFFEE770B5044605E01648056805F0D0
:10087000450000B100E0F8E700BF042000F0EAFC0A
:1008800020B1042000F0E0FC032070BD012000F046
:10089000E1FC20B1012000F0D7FC0120F5E7094878
:1008A00024380068A04201D01020EEE740F2FF504B
:1008B00000F0CAFC03482038006808210840C0B294
:1008C000E3E70000342C014010B50849084800F067
:1008D0005BF80021064800F08BF88021044800F006
:1008E000C5F80121024800F083F810BD2000002067
:1008F0007060024010B50649064800F085F828B13E
:100900000349044800F05AF800F006F810BD000052
:10091000208000207060024010B50849084800F0AF
:1009200033F80021064800F063F88021044800F005
:100930009DF80121024800F05BF810BD000800207E
:100940008864024010B50649064800F05DF828B1F9
:100950000349044800F032F8FFF7B6FF10BD00006D
:10096000008800208864024010B50549054800F061
:100970004BF818B10249034800F020F810BD000000
:1009800000802020A06402400246094B9A4201D216
:10099000084801E00648103801F000531BB1064B2F
:1009A0000B40C36002E0044B0B40836070470000C3
:1009B00010640240006002407D0F7D0F0246094B2B
:1009C0009A4201D2084801E00648103801F000536D
:1009D0001BB1064B0B40C36002E0044B0B4083602D
:1009E0007047000010640240006002407D0F7D0FE0
:1009F00021B1026842F00102026003E0026822F0C5
:100A0000010202607047000070B502460020002419
:100A10000025124EB24201D2114B01E00F4B103BA8
:100A2000104E0E4036B11E2606EAD124166806EA9C
:100A3000040502E0566906F0800501F000560EB18B
:100A40005C6800E01C68084E344004EA010616B1F8
:100A50000DB1012000E0002070BD000010640240D4
:100A6000006002403C0F3C0F7D0F7D0F41607047DE
:100A70007047000010B5C82000F03FFF012000F0D3
:100A8000D9F801280ED14102084800F04CF9084875
:100A90000078401C0649087008460078042801DDEB
:100AA00000200870012000F0BFF810BD00040240D3
:100AB000D604002010B5C82000F01FFF042000F06D
:100AC000B9F801283FD14102214800F02AF9214814
:100AD0000078012806D0022810D003281AD0042854
:100AE00030D123E01C480078401C1B4908700846A0
:100AF0000078632801D10020087023E017480078AF
:100B0000401C1649087008460078632801D100206F
:100B1000087017E012480078401C11490870084618
:100B20000078632801D1002008700BE00D480078A0
:100B3000401C0C49087008460078632801D1002049
:100B4000087000BF00BF042000F06EF810BD000068
:100B500000040240D6040020D8040020D90400205C
:100B6000DA040020DB04002010B5C82000F0C5FE28
:100B7000082000F05FF8012844D14102234800F02A
:100B8000D0F82348007806283BD2DFE800F03A038B
:100B90000E19242F1F480078401E1E490870084671
:100BA000007808B9632008702BE01B480078401ECD
:100BB000194908700846007808B96320087020E0D9
:100BC00016480078401E154908700846007808B994
:100BD0006320087015E012480078401E1049087024
:100BE0000846007808B9632008700AE00D480078CC
:100BF000401E0C4908700846007808B91E2008708D
:100C000000BF00BF082000F00FF810BD0004024034
:100C1000D6040020D8040020D9040020DA040020E3
:100C2000DB040020D7040020014908607047000061
:100C3000143C014001460020034A12680A400AB1F0
:100C4000012000E000207047143C0140F0B50A4646
:100C500000210023002400BF3DE0012505FA01F337
:100C6000156805EA03049C4234D105684F00032649
:100C7000BE40B543056015794E00B5400668354362
:100C800005601579012D02D01579022D16D18568E0
:100C90004F000326BE40B543856055794E00B540F0
:100CA000866835438560456801268E40B5434560BA
:100CB000456896798E40B6B235434560C5684F00A9
:100CC0000326BE40B543C560D5794E00B540C66821
:100CD0003543C560491C1029BFD3F0BDF0B50023D2
:100CE00000244D07ED0E02FA05F3CE1000F12005A9
:100CF00055F826504E07F70E0F26BE40B543CF10CD
:100D000000F1200646F82750CE1000F1200555F8D6
:100D1000265045EA0304CE1000F1200545F8264090
:100D2000F0BD418370470183704700BFFEE700BFFD
:100D3000FEE7704770B5002100230F22C4781CB372
:100D4000174C246804F4E064C4F5E064C4F307219C
:100D5000C1F10404E3B20A4144789C40E1B28478D2
:100D6000144021430C07210E0E4C05786155047880
:100D700004F01F050124AC4005786D11AD0005F1AC
:100D8000E025C5F8004109E0047804F01F050124BE
:100D9000AC40054D0678761145F8264070BD000040
:100DA0000CED00E000E400E080E100E002490143D6
:100DB000024A1160704700000000FA050CED00E0E7
:100DC00010B5044622464FF480610248FFF75AFAF4
:100DD00010BD00002C050020F0B5144600267F2829
:100DE00001DC3F2900DDF0BD0B46CF1701EB577743
:100DF000C7F3C702CF1701EB5777FF10A1EBC70767
:100E0000FDB20123AB40DEB24CB10A4B03EBC2137F
:100E10001B5C3343074F07EBC2173B5408E0054BFD
:100E200003EBC2131B5CB343024F07EBC2173B54E7
:100E300000BFD8E72C05002010B500F06BF84FF488
:100E400080413348FFF76DFF022000F056FD4FF45C
:100E500080412F48FFF767FF022000F04EFDA820D9
:100E600000F0D8F83F2000F0D5F8D32000F0D2F8F9
:100E7000002000F0CFF8402000F0CCF8D52000F0A2
:100E8000C9F8F12000F0C6F8A02000F0C3F8C02097
:100E900000F0C0F8DA2000F0BDF8122000F0BAF837
:100EA000812000F0B7F8FF2000F0B4F8D92000F05E
:100EB000B1F8F12000F0AEF8DB2000F0ABF8302004
:100EC00000F0A8F8A42000F0A5F8A62000F0A2F8F1
:100ED000202000F09FF8002000F09CF8C82000F0CF
:100EE00099F8A12000F096F8232000F093F8002054
:100EF00000F090F88D2000F08DF8142000F08AF8B2
:100F0000AF2000F087F80020FFF75AFF10BD000067
:100F10000004024000B587B00121880300F0E4F826
:100F20000121022000F0C0F84FF42040059002207B
:100F30008DF8180003208DF8190000208DF81A0094
:100F400001208DF81B0005A92248FFF77FFE4FF412
:100F5000A040059001208DF8180003208DF819009D
:100F600000208DF81A0001208DF81B0005A91948F2
:100F7000FFF76CFE05220D211648FFF7AFFE052294
:100F80000F211448FFF7AAFE0020ADF800004FF42F
:100F90008270ADF802000020ADF804000220ADF828
:100FA00006000120ADF808004002ADF80A0000205C
:100FB000ADF80C000720ADF810000020ADF80E00D1
:100FC0006946054800F072FA0121034800F030FA42
:100FD00007B000BD000402400038004010B50446D0
:100FE0004FF480510948FFF79EFE00BF02210848D8
:100FF00000F037FA0028F9D02146054800F054FAED
:101000000221034800F020FA10BD00000004024055
:101010000038004010B504464FF480510948FFF7EE
:1010200080FE00BF0221084800F01BFA0028F9D01A
:101030002146054800F038FA0221034800F004FA7E
:1010400010BD0000000402400038004070B52120AF
:10105000FFF7E0FF0020FFF7DDFF7F20FFF7DAFF5B
:10106000052000F066FC2220FFF7D4FF0020FFF7E8
:10107000D1FF0720FFF7CEFF052000F05AFC002427
:101080000DE0002507E0074901EBC411485DFFF7BB
:10109000A5FF681CC5B2802DF5DB601CC4B2082C0E
:1010A000EFDB70BD2C05002029B1064A126802430F
:1010B000044B1A6004E0034A12688243014B1A6031
:1010C000704700003038024029B1064A12680243D6
:1010D000044B1A6004E0034A12688243014B1A6011
:1010E000704700003438024029B1064A12680243B2
:1010F000044B1A6004E0034A12688243014B1A60F1
:10110000704700004038024029B1064A1268024385
:10111000044B1A6004E0034A12688243014B1A60D0
:101120007047000044380240F0B50021002200243E
:10113000022500260223324F3F6807F00C0121B13F
:10114000042905D0082937D105E02E4F076036E085
:101150002D4F076033E02A4F3F1F3F68C7F380568B
:10116000274F3F1F3F6807F03F036EB1264FB7FB85
:10117000F3F7DFF88CC0ACF1040CDCF800C0CCF362
:10118000881C07FB0CF40CE01E4FB7FBF3F7DFF8ED
:1011900070C0ACF1040CDCF800C0CCF3881C07FB79
:1011A0000CF4174F3F1F3F68C7F301477F1C7D00BA
:1011B000B4FBF5F7076002E0124F076000BF00BF05
:1011C0000F4F3F6807F0F0010909104F7A5C07687C
:1011D000D74047600A4F3F6807F4E051890A0B4F38
:1011E0007A5C4768D7408760054F3F6807F46041E5
:1011F000490B064F7A5C4768D740C760F0BD0000D6
:10120000083802400024F40040787D0100000020EE
:1012100030B10749096841F00401054A116005E051
:101220000349096821F00401014A11607047000078
:101230000008065010B501214020FFF745FF0120AE
:10124000FFF7E6FF10BD000001490860704700008D
:10125000382C014001460020034A12680A400AB1B6
:10126000012000E000207047342C014010B500F050
:1012700017F810BD0021094B02681A601A1D116889
:101280006FF30A01D0E901231A43C3681A430369C3
:101290001A431143014A121D11607047082C014086
:1012A00010B54FF48070FFF7D5FF78B34C48007845
:1012B000012814D100204B4908600C2048604020D0
:1012C00088600020C8604FF4806008610846FFF71E
:1012D000D1FF0C20FFF7C6FA4349087002E0002056
:1012E000414908704148006840F480703F490860F7
:1012F000081D00684CF23A3188433C49091D0860DA
:1013000001203B4908703848007810BDFFE70220F3
:10131000FFF7A0FF78B10220FFF796FF3348001DCA
:1013200000684CF23A3188433049091D08600220B8
:101330002D490870E9E70820FFF78CFF78B10820F5
:10134000FFF782FF2948001D00684CF23A318843BC
:101350002649091D0860042023490870D5E720208C
:10136000FFF778FF78B12020FFF76EFF1F48001DC0
:1013700000684CF23A3188431C49091D0860062078
:1013800019490870C1E71020FFF764FF78B11020F9
:10139000FFF75AFF1548001D00684CF23A318843A8
:1013A0001249091D086005200F490870ADE74FF488
:1013B0000070FFF74FFF80B14FF40070FFF744FF5C
:1013C0000A48001D00684CF23A3188430749091D5C
:1013D000086007200449087097E7002095E700009F
:1013E000E904002044090020EA040020382C0140D0
:1013F000EB04002010B571210B4800F03BF80128E8
:1014000008D17121084800F022F808480068401C03
:101410000649086005480068B0F5806F02D10020D9
:101420000249086010BD0000003800401000002094
:1014300021B1028842F04002028004E002884FF6A7
:10144000BF731A4002807047CA430281704710B5CB
:10145000002201F00F040123A3409AB2D343038179
:1014600010BD0246002013890B400BB1012000E0A3
:1014700000207047F0B5024600200024002300251C
:1014800001F00F070126BE40B4B20B1101269E40A9
:10149000B3B2968806EA03051689264016B10DB147
:1014A000012000E00020F0BD8181704710B50022CE
:1014B000028802F441520B884C8823438C882343D2
:1014C000CC8823430C8923434C8923438C892343B1
:1014D000CC8923431A430280838B4FF2FF7423404D
:1014E00083830B8A038210BD0CB50020019000900D
:1014F0003448006840F480303249086000BF314809
:10150000006800F4003000900198401C01900098A1
:1015100018B90198B0F5A04FF1D12A48006800F43D
:10152000003010B10120009001E0002000900098F0
:10153000012846D123484030006840F080502149BE
:10154000403108602048006840F440401E4908606F
:101550001C48083000681B490831086008460068CC
:1015600040F4004008600846006840F4A05008605D
:101570001648091F0860081F006840F08070091FA6
:10158000086000BF0F48006800F000700028F9D024
:1015900040F205700E4908600A480830006820F0E3
:1015A00003000849083108600846006840F002005E
:1015B000086000BF03480830006800F00C000828ED
:1015C000F8D10CBD003802400070004019544007AB
:1015D000003C024010B500BF502080F31188BFF3DB
:1015E0004F8FBFF36F8F00BF00F0F2FA18B14FF0CA
:1015F00080500449086000BF002080F3118800BFBC
:1016000010BD000004ED00E010B51548006840F47E
:101610007000134908601348006840F00100114948
:10162000086000200F49083108600E4800680E4924
:1016300008400C4908600D48091D0860081F006833
:1016400020F48020091F0860002006490C31086042
:10165000FFF74AFF4FF0006001498039086010BD74
:1016600088ED00E000380240FFFFF6FE1030002455
:1016700010B50121104800F034F8012817D10E48A8
:10168000406A4FF47A71B0FBF1F10C480088401CBD
:1016900080B20A4A108000EBC00202EB001001EB9E
:1016A0004000074908800021034800F00EF801219E
:1016B000014800F007F810BD00100040DE040020D3
:1016C000DC040020CA430282704721B1028842F044
:1016D0000102028004E002884FF6FE731A40028085
:1016E000704702460020138A0B400BB1012000E036
:1016F0000020704700203AE01E49095C1E4A125C37
:1017000011431C4A115400F10801515C1B4A125C40
:101710001143184B00F1080299541A4600F11001C8
:10172000515C174A125C114300F1100299541A4699
:1017300000F11801515C134A125C114300F11802C8
:1017400099541A4600F12001515C0F4A125C114372
:1017500000F1200299541A4600F12801515C0B4A0D
:10176000125C114300F128029954411CC8B20828A8
:10177000C2DB70472C0500209C000020A400002044
:10178000AC000020B4000020BC000020C4000020F9
:1017900001F40072B2F5007F00D100BFCA4302809D
:1017A000704721B1828942F40052828104E082892B
:1017B0004DF6FF731A4082817047F0B5034600244E
:1017C00000260025002040F66A17B94200D100BF6C
:1017D0001846C1F3421401F01F06012707FA06F567
:1017E000012C01D10C3004E0022C01D1103000E0BA
:1017F00014301AB107682F43076002E00768AF434F
:101800000760F0BD2DE9FF4705460E460024A146BE
:1018100000BFA046B08900B100BF2C8A24F4405418
:10182000F08804432C82AC8941F20C608443B08878
:1018300031890843718908430443AC81AC8A24F49C
:101840004074B0890443AC826846FFF76DFC2048C1
:10185000854202D01F48854202D1DDF80C9001E09C
:10186000DDF80890A88900F4004040B109EBC900F8
:1018700000EB091031684900B0FBF1F707E009EB14
:10188000C90000EB091031688900B0FBF1F7642052
:10189000B7FBF0F004012009642101FB1078A8894E
:1018A00000F4004040B1322000EBC800B0FBF1F082
:1018B00000F00700044308E0322000EB0810642128
:1018C000B0FBF1F000F00F0004432C81BDE8FF876E
:1018D000001001400014014000BFFEE702E008C80C
:1018E000121F08C1002AFAD170477047002001E09A
:1018F00001C1121F002AFBD17047014645F20822A0
:101900004A434FF0E0235A6100229A6101221A6192
:1019100000BF4FF0E022106900F001021AB100F49C
:101920008032002AF5D000224FF0E0231A619A613C
:1019300070470146C1EBC10202EB42024FF0E023C7
:101940005A6100229A6101221A6100BF4FF0E02221
:10195000106900F001021AB100F48032002AF5D0BB
:1019600000224FF0E0231A619A6170471CB50121F3
:101970000220FFF799FB4FF41870009001208DF8BA
:10198000040002208DF8050000208DF806000120DB
:101990008DF8070069460648FFF758F940210448CA
:1019A000FFF7C1F920210248FFF7BDF91CBD000077
:1019B0000004024000BF00BF00BF00BF4FF4A060A2
:1019C000FFF7F4F94FF4E13000F03AF8FFF7CEFFFB
:1019D000FFF732FAFFF72EFCFFF78CFEFEF770FEE2
:1019E000FFF734FB0FE04FF400710748FFF79BF956
:1019F000C820FFF782FF4FF400710348FFF791F909
:101A0000C820FFF77AFFEEE7000402400A490968A0
:101A1000096809B9012100E0002121B14FF0FF312F
:101A2000064A116006E004490968C968C868034AA3
:101A30004168116070470000F40400202005002078
:101A400010B588B0044601211020FFF75DFB01218D
:101A50000846FFF729FB4FF40070069002208DF82E
:101A60001C0001208DF81F0006A92448FFF7EEF89E
:101A70004FF48060069002208DF81C0006A91F48D4
:101A8000FFF7E4F8072209211C48FFF727F907228E
:101A90000A211A48FFF722F902940020ADF80C0041
:101AA000ADF80E00ADF810000C20ADF812000020CB
:101AB000ADF8140002A91248FFF7A4FE25208DF806
:101AC000040000208DF805008DF8060001208DF837
:101AD000070001A8FFF72EF940F2FF310848FFF791
:101AE00057FE012240F225510548FFF766FE01210D
:101AF0000348FFF756FE08B010BD0000000002408A
:101B00000010014001460A69D1E901309860D1E92D
:101B1000010358605068884201D1886850600020F5
:101B200008611068401E10601068704742684A6083
:101B300093688B60936859609160086103685B1CCF
:101B4000036070471D48006818B101201C490860F7
:101B500032E000201A4908601A480068B0FA80F0A4
:101B6000C0F11F0101EB8100174A52F8200008B1B3
:101B7000012000E0002050B900BF502080F3118800
:101B8000BFF34F8FBFF36F8F00BF00BFFEE701EBC6
:101B900081020D4B03EB820042685268426000F103
:101BA00008024368934202D1426852684260426828
:101BB000D268064B1A6000BF70470000280500205D
:101BC0001405002008050020E00B0020F004002090
:101BD0002DE9F0414FF0000844480068002877D113
:101BE00043480068451C4248056015BB41480068F1
:101BF000006808B9012000E0002050B900BF502063
:101C000080F31188BFF34F8FBFF36F8F00BF00BF0A
:101C1000FEE73848076838480068364908603648A3
:101C2000076036480068401C34490860FFF7EEFE44
:101C300000BF3348006885423CD300BF2D48006890
:101C4000006808B9012000E0002020B14FF0FF300B
:101C50002B4908602DE027480068C068C4686668A2
:101C6000B54202D22648066023E0201DFFF74AFF56
:101C7000A06A18B104F11800FFF744FF94F82C1083
:101C8000012088401F49096808431E490860E16A2D
:101C900001EB81011C4A02EB8100211DFFF746FF89
:101CA0001A49E06A0968C96A8842C7D34FF0010837
:101CB000C4E700BF15480068C06A00EB8000124905
:101CC00051F82000012801D94FF0010805E0FFE795
:101CD0000F480068401C0E4908600E48006808B1B3
:101CE0004FF001084046BDE8F081000028050020C3
:101CF00004050020F4040020F8040020180500204A
:101D00002005002008050020E00B0020F004002042
:101D10001005002014050020381D000800000020D8
:101D20002C050000680600081C1F00082C05002078
:101D3000440C0000EC180008412D01020304046566
:101D400006070809367F4141417F4542427F4036C0
:101D50007B4949494F1A63082918360F087E08083D
:101D60001A4F102A793059085E01017D03011029AC
:101D70002811400C1010182828243C444242E75EE9
:101D80007C1211127C2032361A3E685A22704B2285
:101D90001C182A49102C090909482E3E415949327C
:101DA000102C0808085019963341413D3141211F3C
:101DB000682C081422101B7F400119071D0204041F
:101DC000022819082B08103029605A3E503A060F95
:101DD0002B513E2835091929461A4E6E42392D01DC
:101DE000017F01501A3F47323F2E1F2040201F0F16
:101DF0002B2020101F422418182442271E0204788A
:101E0000040229466151494543336666300903039C
:101E10001C6281814244034D60606A800101718FC0
:101E2000E0F0F8FCFEFF011FFEFCF8F0E0C091B905
:101E30009E2AC027112602027E020206487E04085E
:101E4000047E180B7F7FBF9FDFEFE7F7FBF7011FD3
:101E5000EFDF9FBF7F7F8611398B5901599A025559
:101E60007F595C6A3F01197E14FEFEFC4EFDFBF7B4
:101E7000FFEF0119980720F3FBFDFDFEFE0A298004
:101E80001691D61F0F070301180801030707081F43
:101E90001F8B59015D3F3F1F4F2622404BE0200121
:101EA0000A10C0CB091375391633D8D83CC020109E
:101EB00001193B5B80404612FE4AE0151310E09288
:101EC000F06AF0167A20952E0410401004834BFF20
:101ED0000801021207100B0204081020201008024B
:101EE000014B01020B5304022B7F7F0581127F4CB3
:101EF0001F204001123F7A3F0A1B0F10311A0C3885
:101F000013100F3B214201823C297C198431E21FCE
:0C1F1000C51919282829A3014000000071
:040000050800018965
:00000001FF
