:020000040800F2
:10000000B8240020610200087B070008730700087D
:1000100077070008A9020008791600080000000010
:10002000000000000000000000000000A101000826
:10003000B904000800000000FD010008E5110008F7
:100040007B0200087B0200087B0200087B0200089C
:100050007B0200087B020008BD0400087B02000848
:10006000FD040008B10500087B0200087B020008BF
:100070007B0200087B0200087B0200083D030008A9
:100080007B0200087B0200087B0200087B0200085C
:100090007B0200087B0200087B0200087B0200084C
:1000A0007B0200087B0200087B0200087B0200083C
:1000B0007B0200087B0200087B0200087B0200082C
:1000C0007B0200087B0200087B0200087B0200081C
:1000D0007510000835140008FD1400087B020008A4
:1000E0007B0200087B0200087B0200087B020008FC
:1000F0007B0200087B0200087B0200087B020008EC
:100100007B020008ED0E00087B0200087B0200085D
:100110007B0200087B020008811200087B020008B5
:100120007B0200087B0200087B0200087B020008BB
:100130007B0200087B0200087B0200087B020008AB
:100140007B0200087B0200087B0200087B0200089B
:100150008D030008B10300087B0200087B02000841
:100160007B0200087B0200087B0200087B0200087B
:100170007B0200087B0200087B0200087B0200086B
:100180007B0200087B020008DFF810D000F07AF84C
:1001900000480047D5160008AFF30080B8240020BF
:1001A0002C4B19680868B0E8F04F80F30988BFF35A
:1001B0006F8F4FF0000080F311887047000000003F
:1001C00008480068006880F308884FF0000080F35A
:1001D000148862B661B6BFF34F8FBFF36F8F00DF35
:1001E00000BF00BF08ED00E0DFF80C00016841F43B
:1001F00070010160704700BF88ED00E0EFF30980F7
:10020000BFF36F8F134B1A681EF0100F08BF20ED5D
:10021000108A20E9F04F106009B44FF0500080F3CD
:100220001188BFF34F8FBFF36F8F01F0B7FA4FF014
:10023000000080F3118809BC19680868B0E8F04F25
:100240001EF0100F08BFB0EC108A80F30988BFF3CE
:100250006F8F704734000020EFF305807047000077
:100260000648804706480047FEE7FEE7FEE7FEE750
:10027000FEE7FEE7FEE7FEE7FEE7FEE719120008ED
:1002800089010008064C074D06E0E06840F00103D4
:1002900094E8070098471034AC42F6D3FFF778FF94
:1002A000781900089819000800BFFEE770B50446E9
:1002B00005E01648056805F0450000B100E0F8E7E4
:1002C00000BF042000F006FE20B1042000F0FCFD79
:1002D000032070BD012000F0FDFD20B1012000F0E1
:1002E000F3FD0120F5E7094824380068A04201D059
:1002F0001020EEE740F2FF5000F0E6FD0348203802
:10030000006808210840C0B2E3E70000342C014037
:1003100010B50849084800F05BF80021064800F0D5
:100320008BF88021044800F0C5F80121024800F054
:1003300083F810BD200000207060024010B506490F
:10034000064800F085F828B10349044800F05AF83F
:1003500000F006F810BD0000208000207060024010
:1003600010B50849084800F033F80021064800F0AD
:1003700063F88021044800F09DF80121024800F054
:100380005BF810BD000800208864024010B50649E3
:10039000064800F05DF828B10349044800F032F83F
:1003A000FFF7B6FF10BD00000088002088640240FF
:1003B00010B50549054800F04BF818B1024903484B
:1003C00000F020F810BD000000802020A064024052
:1003D0000246094B9A4201D2084801E0064810380B
:1003E00001F000531BB1064B0B40C36002E0044B0D
:1003F0000B408360704700001064024000600240C0
:100400007D0F7D0F0246094B9A4201D2084801E058
:100410000648103801F000531BB1064B0B40C36077
:1004200002E0044B0B408360704700001064024000
:10043000006002407D0F7D0F21B1026842F0010291
:10044000026003E0026822F00102026070470000CF
:1004500070B50246002000240025124EB24201D29F
:10046000114B01E00F4B103B104E0E4036B11E26D3
:1004700006EAD124166806EA040502E0566906F089
:10048000800501F000560EB15C6800E01C68084E63
:10049000344004EA010616B10DB1012000E000204D
:1004A00070BD000010640240006002403C0F3C0F31
:1004B0007D0F7D0F416070477047000010B5C82068
:1004C00001F0EBF8012000F0D9F801280ED141022B
:1004D000084800F04CF908480078401C06490870AC
:1004E00008460078042801DD00200870012000F093
:1004F000BFF810BD000402401800002010B5C8204D
:1005000001F0CBF8042000F0B9F801283FD14102F6
:10051000214800F02AF921480078012806D0022855
:1005200010D003281AD0042830D123E01C480078CA
:10053000401C1B49087008460078632801D1002040
:10054000087023E017480078401C164908700846D8
:100550000078632801D10020087017E01248007865
:10056000401C1149087008460078632801D100201A
:1005700008700BE00D480078401C0C4908700846D4
:100580000078632801D10020087000BF00BF04205C
:1005900000F06EF810BD00000004024018000020BA
:1005A0001A0000201B0000201C0000201D0000205D
:1005B00010B5C82001F071F8082000F05FF801289C
:1005C00044D14102234800F0D0F82348007806289F
:1005D0003BD2DFE800F03A030E19242F1F480078C1
:1005E000401E1E4908700846007808B9632008704C
:1005F0002BE01B480078401E194908700846007817
:1006000008B96320087020E016480078401E15499C
:1006100008700846007808B96320087015E0124891
:100620000078401E104908700846007808B9632019
:1006300008700AE00D480078401E0C490870084612
:10064000007808B91E20087000BF00BF082000F025
:100650000FF810BD00040240180000201A0000200E
:100660001B0000201C0000201D000020190000209D
:100670000149086070470000143C01400146002019
:10068000034A12680A400AB1012000E000207047C6
:10069000143C0140F0B50A4600210023002400BFAD
:1006A0003DE0012505FA01F3156805EA03049C42C3
:1006B00034D105684F000326BE40B5430560157967
:1006C0004E00B5400668354305601579012D02D00E
:1006D0001579022D16D185684F000326BE40B5431B
:1006E000856055794E00B54086683543856045681C
:1006F00001268E40B5434560456896798E40B6B276
:1007000035434560C5684F000326BE40B543C5600C
:10071000D5794E00B540C6683543C560491C1029DF
:10072000BFD3F0BDF0B5002300244D07ED0E02FA53
:1007300005F3CE1000F1200555F826504E07F70EB0
:100740000F26BE40B543CF1000F1200646F82750D3
:10075000CE1000F1200555F8265045EA0304CE10CE
:1007600000F1200545F82640F0BD41837047018324
:10077000704700BFFEE700BFFEE7704770B500217D
:1007800000230F22C4781CB3174C246804F4E064DF
:10079000C4F5E064C4F30721C1F10404E3B20A41E3
:1007A00044789C40E1B28478144021430C07210E28
:1007B0000E4C05786155047804F01F050124AC4007
:1007C00005786D11AD0005F1E025C5F8004109E09F
:1007D000047804F01F050124AC40054D067876111D
:1007E00045F8264070BD00000CED00E000E400E09C
:1007F00080E100E002490143024A116070470000B5
:100800000000FA050CED00E030B58BB004460D4653
:100810000121042000F064F80121022000F050F8CA
:100820004FF40070049002208DF814008DF815002C
:1008300000208DF8160001208DF8170004A9184833
:10084000FFF728FF022209211548FFF76BFF002060
:10085000ADF806005320ADF8040044F61F60029086
:1008600001A9104800F0A4FD6020ADF81800012097
:10087000ADF81A000020ADF8240006A9094800F0E0
:100880004DFD0821074800F085FD0121054800F0D5
:1008900021FD0121034800F02CFD0BB030BD00000C
:1008A00000040240000800404A1EC26270474A1E0F
:1008B00002647047014908627047000000000E4260
:1008C00029B1064A12680243044B1A6004E0034A45
:1008D00012688243014B1A607047000030380240B2
:1008E00029B1064A12680243044B1A6004E0034A25
:1008F00012688243014B1A60704700004038024082
:1009000029B1064A12680243044B1A6004E0034A04
:1009100012688243014B1A6070470000443802405D
:10092000F0B5002100220024022500260223324FC8
:100930003F6807F00C0121B1042905D0082937D1FF
:1009400005E02E4F076036E02D4F076033E02A4F59
:100950003F1F3F68C7F38056274F3F1F3F6807F090
:100960003F036EB1264FB7FBF3F7DFF88CC0ACF155
:10097000040CDCF800C0CCF3881C07FB0CF40CE082
:100980001E4FB7FBF3F7DFF870C0ACF1040CDCF8D6
:1009900000C0CCF3881C07FB0CF4174F3F1F3F68C7
:1009A000C7F301477F1C7D00B4FBF5F7076002E049
:1009B000124F076000BF00BF0F4F3F6807F0F00104
:1009C0000909104F7A5C0768D74047600A4F3F68B3
:1009D00007F4E051890A0B4F7A5C4768D74087607B
:1009E000054F3F6807F46041490B064F7A5C476842
:1009F000D740C760F0BD0000083802400024F40072
:100A000040787D010200002010B50146002200233D
:100A100000204A11012A02D10A4C236808E0022A68
:100A200003D1084C7034236802E0064C7434236808
:100A300001F01F02012494401C400CB1012000E091
:100A4000002010BD003802400021094A11701170C9
:100A5000012802D0042808D103E00121044A1170C2
:100A600004E00521024A117000E000BF00BF70479A
:100A70007038024001490860704700003C0E474250
:100A8000002100F44072B2F5407F08D1094A116894
:100A900021F4F811084A02401143064A1160054A40
:100AA00068321268C0F30B031A43024B68331A60B2
:100AB0007047000008380240FFFCFF0F014600BFEE
:100AC000080900EB8000420001F00F001044C0B2A2
:100AD00070470146002204E0501CC2B2A1F10A0096
:100AE000C1B20A29F8DA100741EA10607047000025
:100AF0003EB5FF2401210807FFF7F2FE0120FFF7B2
:100B0000D9FE002000F0A2F845F65A21884235D0DF
:100B10000120FFF799FF0AE04120FFF775FF012848
:100B200000D106E0022000F0B8FD601EC4B2002C27
:100B3000F2D100BF04B93EBD4FF48070FFF7A0FFB3
:100B40000120FFF797FF7F200190FF2002900020F7
:100B50000090684600F048F8094B9A79597918795D
:100B600000F062F9064DEB78AA786978287800F0F1
:100B700049F945F65A21002000F098F900BFDAE75C
:100B80007019000808B50022009200200021104AC8
:100B9000126802F04002CAB9421E0D4B1A6000BF33
:100BA0000B4A126802F04001009A521C0092009A0F
:100BB000B2F5803F01D00029F2D0054A126802F058
:100BC00040020AB1012002E0002000E0012008BD3F
:100BD0000C2800400348006820F0800001490860AC
:100BE000704700000C28004030B504460025CA209C
:100BF0001549086053200860FFF7C4FF00B91DE0E5
:100C000011481C38006820F040000F491C3908606A
:100C100008460068216808430B491C3908600A49E6
:100C20001439A068086008460068A18840EA0140BD
:100C3000054914390860FFF7CDFF0125FF2002495F
:100C40000860284630BD00002428004008B5014651
:100C50000020009004480090009800EB8100009074
:100C60000098006808BD0000502800402DE9F041C0
:100C700005460C46002600274DB9607800F01000AC
:100C8000102804D1607820F010000A30607005B997
:100C900008E06078FFF712FF0646A078FFF70EFF26
:100CA000064600BF55B1E0780004617840EA0120B3
:100CB000A1780843217840EA413611E0E078FFF757
:100CC00008FF4FEA00486078FFF703FF48EA002872
:100CD000A078FFF7FEFE48EA0008207848EA403690
:100CE000CA201249086053200860FFF74BFF08B97B
:100CF000002714E00E4830400C4920390860FFF707
:100D000069FF0A481C38006800F0200030B900F084
:100D10009DF808B9002702E0012700E00127FF2025
:100D2000024908603846BDE8F081000024280040F0
:100D30003FFFFF002DE9F04105460C460026002745
:100D40004DB92E48006800F0400000B102E00020DC
:100D5000E07000BF0DE02948006800F0400020B1BD
:100D60002078FFF7ABFE064602E00020E07000BFEF
:100D700000BF55B120780004617840EA0120A178D5
:100D80000843E17840EA014611E02078FFF7A1FE30
:100D90004FEA00486078FFF79CFE48EA0028A078F8
:100DA000FFF797FE48EA0008E07848EA0046CA20C4
:100DB00012491C31086053200860FFF7E3FE08B9B0
:100DC000002713E00E4830400C4908390860FFF74F
:100DD00001FF0A48006800F0200030B900F036F842
:100DE00008B9002702E0012700E00127FF2003499E
:100DF0001C3108603846BDE8F0810000082800403A
:100E00007F7F7F00F8B504460D4616461F468DF8D5
:100E100003408DF801508DF802608DF8007069462E
:100E20000020FFF723FFF8BDF8B506460C4615462F
:100E30008DF800608DF801408DF8025040208DF84B
:100E4000030069460020FFF775FFF8BD08B50022D2
:100E5000009200200021CA22134B1A6053221A600C
:100E6000114A183A126822F0A0020F4B183B1A6080
:100E700000BF0D4A183A126802F02001009A521C75
:100E80000092009AB2F5003F01D00029F1D0064A45
:100E9000183A126802F020020AB1012000E0002096
:100EA000FF22014B1A6008BD2428004008B500222B
:100EB0000092044A0092009A02EB80020092009A8B
:100EC000116008BD502800400149086070470000CB
:100ED000382C014001460020034A12680A400AB13A
:100EE000012000E000207047342C014010B500F0D4
:100EF00017F810BD0021094B02681A601A1D11680D
:100F00006FF30A01D0E901231A43C3681A43036946
:100F10001A431143014A121D11607047082C014009
:100F200010B54FF48070FFF7D5FF78B34C480078C8
:100F3000012814D100204B4908600C204860402053
:100F400088600020C8604FF4806008610846FFF7A1
:100F5000D1FF0C20FFF7AAF94349087002E00020F6
:100F6000414908704148006840F480703F4908607A
:100F7000081D00684CF23A3188433C49091D08605D
:100F800001203B4908703848007810BDFFE7022077
:100F9000FFF7A0FF78B10220FFF796FF3348001D4E
:100FA00000684CF23A3188433049091D086002203C
:100FB0002D490870E9E70820FFF78CFF78B1082079
:100FC000FFF782FF2948001D00684CF23A31884340
:100FD0002649091D0860042023490870D5E7202010
:100FE000FFF778FF78B12020FFF76EFF1F48001D44
:100FF00000684CF23A3188431C49091D08600620FC
:1010000019490870C1E71020FFF764FF78B110207C
:10101000FFF75AFF1548001D00684CF23A3188432B
:101020001249091D086005200F490870ADE74FF40B
:101030000070FFF74FFF80B14FF40070FFF744FFDF
:101040000A48001D00684CF23A3188430749091DDF
:10105000086007200449087097E7002095E7000022
:101060002D000020880000202E000020382C014098
:101070002F00002010B571210B4800F023F8012843
:1010800008D17121084800F013F808480068401C96
:101090000649086005480068B0F5806F02D100205D
:1010A0000249086010BD0000003800401400002014
:1010B00010B5002201F00F040123A3409AB2D343DC
:1010C000038110BDF0B50246002000240023002556
:1010D00001F00F070126BE40B4B20B1101269E405D
:1010E000B3B2968806EA03051689264016B10DB1FB
:1010F000012000E00020F0BD0CB500200190009020
:101100003448006840F480303249086000BF3148FC
:10111000006800F4003000900198401C0190009895
:1011200018B90198B0F5A04FF1D12A48006800F431
:10113000003010B10120009001E0002000900098E4
:10114000012846D123484030006840F080502149B2
:10115000403108602048006840F440401E49086063
:101160001C48083000681B490831086008460068C0
:1011700040F4004008600846006840F4A050086051
:101180001648091F0860081F006840F08070091F9A
:10119000086000BF0F48006800F000700028F9D018
:1011A00040F205700E4908600A480830006820F0D7
:1011B00003000849083108600846006840F0020052
:1011C000086000BF03480830006800F00C000828E1
:1011D000F8D10CBD0038024000700040195440079F
:1011E000003C024010B500BF502080F31188BFF3CF
:1011F0004F8FBFF36F8F00BF00F016FB18B14FF099
:1012000080500449086000BF002080F3118800BFAF
:1012100010BD000004ED00E010B51548006840F472
:101220007000134908601348006840F0010011493C
:10123000086000200F49083108600E4800680E4918
:1012400008400C4908600D48091D0860081F006827
:1012500020F48020091F0860002006490C31086036
:10126000FFF74AFF4FF0006001498039086010BD68
:1012700088ED00E000380240FFFFF6FE1030002449
:1012800010B50121104800F040F8012817D10E4890
:10129000406A4FF47A71B0FBF1F10C480088401CB1
:1012A00080B20A4A108000EBC00202EB001001EB92
:1012B0004000074908800021034800F01AF8012186
:1012C000014800F013F810BD00100040200000207D
:1012D0001E00002021B1028842F08002028004E05A
:1012E00002884FF67F731A4002807047CA43028219
:1012F000704721B1028842F00102028004E00288B6
:101300004FF6FE731A400280704702460020138A8F
:101310000B400BB1012000E00020704770B50022A7
:1013200000230024058C4EF6FF7635400584038C9F
:101330008488828B48F6FF752A404FF6FF452A4085
:101340000D884FF6FF7606EA05252A434DF6FF7510
:101350002B408D8906EA05352B434D8806EA053575
:101360002B430A4DA84202D0094DA84208D14BF6A2
:10137000FF752C400D8A4FF6FF7606EA85152C4343
:10138000848082838D680564038470BD0000014001
:10139000000401400A460021818B4FF2FF7319407F
:1013A0004FF6FF7303EA022319438183704700005D
:1013B00000220288184B98420ED0184B98420BD04E
:1013C000B0F1804F08D0164B984205D0154B98428B
:1013D00002D0154B984204D14FF68F731A404B88B8
:1013E0001A43124B984207D0114B984204D04FF643
:1013F000FF431A400B891A4302804B68C3620B8873
:101400000385054B984202D0044B984201D18B7A58
:1014100003860123838270470000014000040140DD
:101420000004004000080040000C00400010004094
:101430000014004010B540F22551024800F071F848
:1014400010BD000000100140F0B587B006460C4604
:1014500017461D460CB905B1002501211020FFF7E4
:101460004FFA01210846FFF72BFA4FF4C0600590B0
:1014700002208DF8180005A91E48FFF70BF9072276
:1014800009211C48FFF74EF907220A211948FFF7E6
:1014900049F90196ADF80840ADF80A70ADF80C5066
:1014A0000C20ADF80E000020ADF8100001A9124884
:1014B00000F078F825208DF8000000208DF801005C
:1014C0008DF8020001208DF803006846FFF756F9F9
:1014D00040F2FF31084800F01BF8012240F225518C
:1014E000054800F039F80121034800F029F807B059
:1014F000F0BD0000000002400010014010B540F2B5
:101500002771024800F00DF810BD000000440040B3
:1015100001F40072B2F5007F00D100BFCA4302801F
:10152000704710B50022002340F66A14A14200D192
:1015300000BF0A1201249440A3B2DC43048010BD12
:1015400021B1828942F40052828104E082894DF601
:10155000FF731A4082817047F0B5034600240026CD
:101560000025002040F66A17B94200D100BF184696
:10157000C1F3421401F01F06012707FA06F5012CFA
:1015800001D10C3004E0022C01D1103000E0143005
:101590001AB107682F43076002E00768AF4307608E
:1015A000F0BD00002DE9FF4705460E460024A14688
:1015B00000BFA046B08900B100BF2C8A24F440547B
:1015C000F08804432C82AC8941F20C608443B088DB
:1015D00031890843718908430443AC81AC8A24F4FF
:1015E0004074B0890443AC826846FFF799F92048FB
:1015F000854202D01F48854202D1DDF80C9001E0FF
:10160000DDF80890A88900F4004040B109EBC9005A
:1016100000EB091031684900B0FBF1F707E009EB76
:10162000C90000EB091031688900B0FBF1F76420B4
:10163000B7FBF0F004012009642101FB1078A889B0
:1016400000F4004040B1322000EBC800B0FBF1F0E4
:1016500000F00700044308E0322000EB081064218A
:10166000B0FBF1F000F00F0004432C81BDE8FF87D0
:10167000001001400014014000BFFEE702E008C86E
:10168000121F08C1002AFAD170477047002001E0FC
:1016900001C1121F002AFBD17047014645F2082202
:1016A0004A434FF0E0235A6100229A6101221A61F5
:1016B00000BF4FF0E022106900F001021AB100F4FF
:1016C0008032002AF5D000224FF0E0231A619A619F
:1016D000704700004FF4A060FFF78CF800231A4613
:1016E00019464FF4E130FFF7AFFEFFF701FA012191
:1016F0000846FFF789F841F288310948FFF7D4F826
:101700000CE0C820FFF7C9FF064801880448FFF72E
:10171000CEF804480088643002490880F1E70000F0
:1017200000080040000000200A490968096809B95A
:10173000012100E0002121B14FF0FF31064A116084
:1017400006E004490968C968C868034A416811602D
:1017500070470000380000206400002001460A693C
:10176000D1E901309860D1E901035860506888429E
:1017700001D188685060002008611068401E106028
:101780001068704742684A6093688B60936859603C
:101790009160086103685B1C036070471D48006826
:1017A00018B101201C49086032E000201A49086085
:1017B0001A480068B0FA80F0C0F11F0101EB810007
:1017C000174A52F8200008B1012000E0002050B96B
:1017D00000BF502080F31188BFF34F8FBFF36F8F8E
:1017E00000BF00BFFEE701EB81020D4B03EB82005F
:1017F00042685268426000F108024368934202D195
:101800004268526842604268D268064B1A6000BF64
:10181000704700006C000020580000204C000020A1
:1018200024030020340000202DE9F0414FF000088F
:1018300044480068002877D143480068451C424866
:10184000056015BB41480068006808B9012000E048
:10185000002050B900BF502080F31188BFF34F8F94
:10186000BFF36F8F00BF00BFFEE7384807683848F6
:101870000068364908603648076036480068401CF2
:1018800034490860FFF750FF00BF334800688542C5
:101890003CD300BF2D480068006808B9012000E073
:1018A000002020B14FF0FF302B4908602DE0274881
:1018B0000068C068C4686668B54202D226480660FF
:1018C00023E0201DFFF74AFFA06A18B104F11800B9
:1018D000FFF744FF94F82C10012088401F49096845
:1018E00008431E490860E16A01EB81011C4A02EBD2
:1018F0008100211DFFF746FF1A49E06A0968C96A9D
:101900008842C7D34FF00108C4E700BF15480068FC
:10191000C06A00EB8000124951F82000012801D96B
:101920004FF0010805E0FFE70F480068401C0E4932
:1019300008600E48006808B14FF001084046BDE855
:10194000F08100006C0000204800002038000020DA
:101950003C0000205C000020640000204C000020BF
:1019600024030020340000205400002058000020F0
:101970001501010500000000981900080000002072
:10198000700000007C160008081A00087000002093
:10199000482400008C1600086400000000000102CA
:1019A0000304010203040607080900000000000008
:1019B00000001919282800000000000000000000A5
:1019C0000000000001000000000000000000000016
:1019D0000000000000000000000000000000000007
:1019E00000000000000000000000000000000000F7
:1019F00000000000000000000000000000000000E7
:081A00000000000000000000DE
:040000050800018965
:00000001FF
