:020000040800F2
:10000000003A00205D020008AF0A0008E907000876
:10001000AB0A0008690300081D1200080000000078
:100020000000000000000000000000009D0100082A
:100030001505000800000000F9010008C90E0008BD
:1000400077020008770200087702000877020008AC
:1000500077020008770200081905000877020008F7
:1000600061050008150600087702000877020008FD
:100070007702000877020008770200089903000859
:10008000770200087702000877020008770200086C
:10009000770200087702000877020008770200085C
:1000A000770200087702000877020008770200084C
:1000B000770200087702000877020008770200083C
:1000C000770200087702000877020008770200082C
:1000D000BD0C000801100008770200087702000834
:1000E000770200087702000877020008770200080C
:1000F00077020008770200087702000877020008FC
:1001000077020008770200087702000877020008EB
:100110007702000877020008650F000877020008E0
:1001200077020008770200087702000877020008CB
:1001300077020008770200087702000877020008BB
:1001400077020008770200087702000877020008AB
:10015000E90300080D040008770200087702000890
:10016000770200087702000877020008770200088B
:10017000770200087702000877020008770200087B
:100180007702000877020008DFF80CD000F0DAF8F8
:1001900000480047F1170008003A00202C4B19686E
:1001A0000868B0E8F04F80F30988BFF36F8F4FF015
:1001B000000080F3118870470000000008480068C4
:1001C000006880F308884FF0000080F3148862B65E
:1001D00061B6BFF34F8FBFF36F8F00DF00BF00BF6B
:1001E00008ED00E0DFF80C00016841F470010160E7
:1001F000704700BF88ED00E0EFF30980BFF36F8F19
:10020000134B1A681EF0100F08BF20ED108A20E96A
:10021000F04F106009B44FF0500080F31188BFF325
:100220004F8FBFF36F8F01F00BFC4FF0000080F396
:10023000118809BC19680868B0E8F04F1EF0100F6B
:1002400008BFB0EC108A80F30988BFF36F8F704746
:1002500030000020EFF3058070470000064880471B
:1002600006480047FEE7FEE7FEE7FEE7FEE7FEE79B
:10027000FEE7FEE7FEE7FEE7FD0E00088901000845
:10028000D2B201E000F8012B491EFBD270470022D8
:10029000F6E710B513460A4604461946FFF7F0FF85
:1002A000204610BD2DE9F05F0546002092469B4692
:1002B00088460646814640241BE02846414647467C
:1002C000224600F02FF853465A46C01A914110D3E7
:1002D00011461846224600F016F82D1A67EB010861
:1002E0004F4622460120002100F00DF817EB0009CF
:1002F0004E41201EA4F10104DFDC484631462A4667
:100300004346BDE8F09F202A04DB203A00FA02F1C0
:10031000002070479140C2F1200320FA03F31943F3
:1003200090407047202A04DB203A21FA02F0002195
:10033000704721FA02F3D040C2F1200291400843F5
:1003400019467047064C074D06E0E06840F001038F
:1003500094E8070098471034AC42F6D3FFF718FF33
:10036000141C0008341C000800BFFEE710B5084943
:10037000084800F05BF80021064800F08BF8802167
:10038000044800F0C5F80121024800F083F810BDD0
:10039000200000207060024010B50649064800F0B9
:1003A00085F828B10349044800F05AF800F006F82F
:1003B00010BD0000208000207060024010B5084988
:1003C000084800F033F80021064800F063F8802167
:1003D000044800F09DF80121024800F05BF810BDD0
:1003E000000800208864024010B50649064800F065
:1003F0005DF828B10349044800F032F8FFF7B6FF72
:1004000010BD0000008800208864024010B5054936
:10041000054800F04BF818B10249034800F020F8F5
:1004200010BD000000802020A06402400246094B5D
:100430009A4201D2084801E00648103801F0005302
:100440001BB1064B0B40C36002E0044B0B408360C2
:100450007047000010640240006002407D0F7D0F75
:100460000246094B9A4201D2084801E0064810387A
:1004700001F000531BB1064B0B40C36002E0044B7C
:100480000B4083607047000010640240006002402F
:100490007D0F7D0F21B1026842F00102026003E08E
:1004A000026822F0010202607047000070B5024647
:1004B000002000240025124EB24201D2114B01E06F
:1004C0000F4B103B104E0E4036B11E2606EAD124CB
:1004D000166806EA040502E0566906F0800501F098
:1004E00000560EB15C6800E01C68084E344004EA17
:1004F000010616B10DB1012000E0002070BD000022
:1005000010640240006002403C0F3C0F7D0F7D0FE5
:10051000416070477047000010B5C82001F0F4F842
:10052000012000F0DDF8012811D141020A4800F055
:1005300059F90A480078401C0849087001F0C1F8D0
:1005400006480078042802DD0020044908700120D4
:1005500000F0C0F810BD00000004024020000020A0
:1005600010B5C82001F0D0F8042000F0B9F8012837
:100570003FD14102214800F033F921480078012899
:1005800006D0022810D003281AD0042830D123E046
:100590001C480078401C1B490870084600786328F6
:1005A00001D10020087023E017480078401C16494C
:1005B000087008460078632801D10020087017E011
:1005C00012480078401C11490870084600786328DA
:1005D00001D1002008700BE00D480078401C0C4948
:1005E000087008460078632801D10020087000BF19
:1005F00000BF042000F06EF810BD000000040240AF
:1006000020000020220000202300002024000020E1
:100610002500002010B5C82001F076F8082000F071
:100620005FF8012844D14102234800F0D9F823485B
:10063000007806283BD2DFE800F03A030E19242F99
:100640001F480078401E1E4908700846007808B907
:10065000632008702BE01B480078401E1949087081
:100660000846007808B96320087020E01648007832
:10067000401E154908700846007808B963200870C4
:1006800015E012480078401E1049087008460078AE
:1006900008B9632008700AE00D480078401E0C4934
:1006A00008700846007808B91E20087000BF00BF17
:1006B000082000F00FF810BD0004024020000020C8
:1006C000220000202300002024000020250000201C
:1006D000210000200149086070470000143C0140DF
:1006E00001460020034A12680A400AB1012000E0D6
:1006F00000207047143C0140F0B50A460021002359
:10070000002400BF3DE0012505FA01F3156805EA64
:1007100003049C4234D105684F000326BE40B54314
:10072000056015794E00B5400668354305601579BA
:10073000012D02D01579022D16D185684F000326B0
:10074000BE40B543856055794E00B5408668354357
:100750008560456801268E40B543456045689679B9
:100760008E40B6B235434560C5684F000326BE4093
:10077000B543C560D5794E00B540C6683543C56000
:10078000491C1029BFD3F0BDF0B5002300244D074C
:10079000ED0E02FA05F3CE1000F1200555F82650B3
:1007A0004E07F70E0F26BE40B543CF1000F12006CE
:1007B00046F82750CE1000F1200555F8265045EA9E
:1007C0000304CE1000F1200545F82640F0BD024696
:1007D000002013690B400BB1012000E0002070479E
:1007E000418370470183704700BFFEE770B5002466
:1007F000002540211848FFF7F3FF022000F0A0FF7A
:1008000000F0B2F900BF19E06006040E022000F00B
:1008100097FF40211048FFF7E5FF022000F090FF0E
:1008200080210D48FFF7D3FF012801D144F00104D6
:1008300040210948FFF7D4FF681CC5B2082DE3DB4F
:1008400040210548FFF7CCFF00F078F9022000F0C6
:1008500077FF204670BD0000000402401CB5012156
:10086000022000F097F9C020009001208DF80400CC
:1008700002208DF8050001208DF807008DF8060094
:1008800069460248FFF738FF1CBD00000004024023
:100890002DE9F0410446884616461D46002700F023
:1008A000D3FA204600F068F800F09CF8404600F0CB
:1008B00063F800F097F800F0C7FA44F0010000F088
:1008C0005BF800F08FF800BF10E0701EB84205DD45
:1008D000FFF78CFF287000F00FF804E0FFF786FFA9
:1008E000287000F029F86D1C781CC7B2B742ECDB09
:1008F00000F0CAFABDE8F08110B540210D48FFF7BD
:100900006FFF022000F01CFF80210A48FFF768FFFC
:10091000022000F015FF40210648FFF763FF022088
:1009200000F00EFF40210348FFF75AFF022000F0BD
:1009300007FF10BD0004024010B540210D48FFF72D
:100940004FFF022000F0FCFE80210A48FFF74AFF1B
:10095000022000F0F5FE40210648FFF743FF022089
:1009600000F0EEFE40210348FFF73AFF022000F0BE
:10097000E7FE10BD0004024070B50446002540218A
:100980001748FFF72DFF00BF20E040211448FFF774
:1009900027FF022000F0D4FE04F0800020B1802167
:1009A0000F48FFF71FFF03E080210D48FFF718FFF6
:1009B0006006040E022000F0C3FE40210848FFF745
:1009C00011FF022000F0BCFE681CC5B2082DDCDB64
:1009D00040210348FFF704FF022000F0B1FE70BD84
:1009E0000004024010B5002440211A48FFF7F8FE29
:1009F000022000F0A5FE80211648FFF7F3FE00F06C
:100A0000B3F8022000F09CFE40211248FFF7EAFEF6
:100A1000022000F095FE09E0601CC4B2FA2C05DD4E
:100A200000F08CF800F030FA012010BD8021094858
:100A3000FFF7CDFE0128EFD040210648FFF7D0FE9A
:100A4000022000F07DFE00F079F8022000F078FE30
:100A50000020EAE7000402402DE9F04104460E467A
:100A600017461D464FF0000800F0EEF92046FFF74C
:100A700083FFFFF7B7FF3046FFF77EFFFFF7B2FFB8
:100A800000BF09E02878FFF777FFFFF7ABFF6D1C89
:100A900008F1010000F0FF08B845F3DB00F0F4F9BD
:100AA000022000F031FEBDE8F08100BFFEE7704794
:100AB00070B5002100230F22C4781CB3174C2468A2
:100AC00004F4E064C4F5E064C4F30721C1F1040454
:100AD000E3B20A4144789C40E1B284781440214357
:100AE0000C07210E0E4C05786155047804F01F05A3
:100AF0000124AC4005786D11AD0005F1E025C5F885
:100B0000004109E0047804F01F050124AC40054DC4
:100B10000678761145F8264070BD00000CED00E027
:100B200000E400E080E100E002490143024A116074
:100B3000704700000000FA050CED00E01CB58020B5
:100B4000009001208DF8040002208DF8050001209E
:100B50008DF807008DF8060069460248FFF7CCFDC6
:100B60001CBD0000000402401CB580200090002045
:100B70008DF8040002208DF8050001208DF8070093
:100B80008DF8060069460248FFF7B6FD1CBD00005F
:100B90000004024029B1064A12680243044B1A605D
:100BA00004E0034A12688243014B1A607047000058
:100BB0003038024029B1064A12680243044B1A60D9
:100BC00004E0034A12688243014B1A607047000038
:100BD00044380240F0B500210022002402250026FE
:100BE0000223324F3F6807F00C0121B1042905D0E0
:100BF000082937D105E02E4F076036E02D4F0760FA
:100C000033E02A4F3F1F3F68C7F38056274F3F1FEF
:100C10003F6807F03F036EB1264FB7FBF3F7DFF8ED
:100C20008CC0ACF1040CDCF800C0CCF3881C07FBD2
:100C30000CF40CE01E4FB7FBF3F7DFF870C0ACF11B
:100C4000040CDCF800C0CCF3881C07FB0CF4174F35
:100C50003F1F3F68C7F301477F1C7D00B4FBF5F7DA
:100C6000076002E0124F076000BF00BF0F4F3F68F0
:100C700007F0F0010909104F7A5C0768D740476018
:100C80000A4F3F6807F4E051890A0B4F7A5C4768C6
:100C9000D7408760054F3F6807F46041490B064F16
:100CA0007A5C4768D740C760F0BD00000838024052
:100CB0000024F40040787D011000002010B571215F
:100CC0000B4800F02FF8012808D17121084800F0E6
:100CD00016F808480068401C064908600548006886
:100CE000B0F5806F02D100200249086010BD0000FD
:100CF000003800400C000020CA430281704710B544
:100D0000002201F00F040123A3409AB2D3430381D0
:100D100010BD0246002013890B400BB1012000E0FA
:100D200000207047F0B50246002000240023002573
:100D300001F00F070126BE40B4B20B1101269E4000
:100D4000B3B2968806EA03051689264016B10DB19E
:100D5000012000E00020F0BD818170470CB500202B
:100D6000019000903448006840F4803032490860B7
:100D700000BF3148006800F4003000900198401C2A
:100D80000190009818B90198B0F5A04FF1D12A4808
:100D9000006800F4003010B10120009001E0002054
:100DA00000900098012846D123484030006840F068
:100DB00080502149403108602048006840F440409C
:100DC0001E4908601C48083000681B49083108604B
:100DD0000846006840F4004008600846006840F497
:100DE000A05008601648091F0860081F006840F0FE
:100DF0008070091F086000BF0F48006800F0007095
:100E00000028F9D040F205700E4908600A48083001
:100E1000006820F0030008490831086008460068AF
:100E200040F00200086000BF03480830006800F08E
:100E30000C000828F8D10CBD0038024000700040BA
:100E400019544007003C024010B540210D48FFF7FF
:100E5000C9FC022000F074FC80210A48FFF7C2FCA4
:100E6000022000F06DFC80210648FFF7B9FC02204B
:100E700000F066FC40210348FFF7B2FC022000F0BE
:100E80005FFC10BD0004024010B540210D48FFF783
:100E9000A7FC022000F054FC80210A48FFF7A0FCC8
:100EA000022000F04DFC40210648FFF79BFC022089
:100EB00000F046FC80210348FFF794FC022000F07C
:100EC0003FFC10BD0004024010B500BF502080F36D
:100ED0001188BFF34F8FBFF36F8F00BF00F0F6FD97
:100EE00018B14FF080500449086000BF002080F323
:100EF000118800BF10BD000004ED00E010B51548DA
:100F0000006840F47000134908601348006840F01E
:100F100001001149086000200F49083108600E489F
:100F200000680E4908400C4908600D48091D08601A
:100F3000081F006820F48020091F0860002006496F
:100F40000C310860FFF70AFF4FF00060014980395B
:100F5000086010BD88ED00E000380240FFFFF6FE9B
:100F60001030002410B50121144800F040F8012889
:100F70001FD113480068401C1149086011480068DF
:100F8000401C104908601048007800EBC00101EBDC
:100F900000100B490968B1EB800F0AD940210B48BA
:100FA000FFF720FC0020064908600021034800F0FC
:100FB00012F80121014800F00BF810BD00100040AC
:100FC000280000202C000020210000200004024006
:100FD000CA430282704721B1028842F001020280B6
:100FE00004E002884FF6FE731A4002807047024602
:100FF0000020138A0B400BB1012000E00020704755
:1010000010B540F225510C4800F04BF8012809D1E9
:1010100040F22551084800F01CF808480068401CC0
:101020000649086005480068B0F5806F02D10020CD
:101030000249086010BD00000010014008000020B7
:1010400001F40072B2F5007F00D100BFCA430280F4
:10105000704710B50022002340F66A14A14200D167
:1010600000BF0A1201249440A3B2DC43048010BDE7
:1010700021B1828942F40052828104E082894DF6D6
:10108000FF731A408281704702460020B1F5007F4D
:1010900000D100BF13880B400BB1012000E00020FD
:1010A000704770B50246002400230025002040F65A
:1010B0006A16B14200D100BFC1F3421501F01F030F
:1010C000012606FA03F3012D02D19689334006E08A
:1010D000022D02D1168A334001E0968A33400C1269
:1010E000012606FA04F41688344013B10CB101202D
:1010F00000E0002070BDF0B5034600240026002566
:10110000002040F66A17B94200D100BF1846C1F36B
:10111000421401F01F06012707FA06F5012C01D140
:101120000C3004E0022C01D1103000E014301AB170
:1011300007682F43076002E00768AF430760F0BD10
:101140002DE9FF4705460E460024A14600BFA046F4
:10115000B08900B100BF2C8A24F44054F0880443C5
:101160002C82AC8941F20C608443B08831890843F9
:10117000718908430443AC81AC8A24F44074B0897B
:101180000443AC826846FFF725FD2048854202D023
:101190001F48854202D1DDF80C9001E0DDF808908F
:1011A000A88900F4004040B109EBC90000EB091028
:1011B00031684900B0FBF1F707E009EBC90000EB2B
:1011C000091031688900B0FBF1F76420B7FBF0F03B
:1011D00004012009642101FB1078A88900F4004073
:1011E00040B1322000EBC800B0FBF1F000F0070086
:1011F000044308E0322000EB08106421B0FBF1F05A
:1012000000F00F0004432C81BDE8FF87001001406F
:1012100000140140C1F308028280704700BFFEE75E
:101220000FB4054B10B503A9044A029800F018F852
:1012300010BC5DF814FB00007D1700086C00002056
:1012400002E008C8121F08C1002AFAD1704770478F
:10125000002001E001C1121F002AFBD170470000ED
:101260002DE9FF4F8DB00F460546002606E02528E4
:101270000BD0DDE90F1290476D1C761C28780028F2
:10128000F5D111B03046BDE8F08F0024A246A1464A
:101290000122EC4900E0044315F8013F203B02FA2B
:1012A00003F00842F7D128782A2810D06FF02F02D7
:1012B0002878A0F13001092914D80AEB8A0102EB41
:1012C000410144F0020400EB010A6D1CF0E701CF7C
:1012D0005FEA000A03D544F40054CAF1000A44F05E
:1012E00002046D1C28782E2817D115F8010F44F040
:1012F00004042A280ED06FF02F022878A0F13001C4
:1013000009290AD809EB890102EB410100EB010927
:101310006D1CF2E757F8049B6D1C28786C280FD0E1
:1013200006DC4C2817D068280DD06A2814D104E0B8
:10133000742810D07A280FD10DE044F400140AE08C
:1013400044F4801401E044F440146978814202D1ED
:1013500004F580146D1C6D1C2A786E2A1FD00CDCDD
:10136000632A31D004DC002A8BD0582A11D1A3E0A3
:10137000642A68D0692A0CD165E0732A2ED004DC77
:101380006F2A73D0702A04D19BE0752A6FD0782A17
:101390006ED01046DDE90F129047761C50E1C4F381
:1013A0000250022806D0032809D0042801CF09D012
:1013B000066045E101CFF117C0E9006140E101CFCE
:1013C00006803DE106703BE117F8040B8DF8000044
:1013D00000208DF80100EB46012003E057F804BB24
:1013E0004FF0FF3061074FF0000102D40DE008F12B
:1013F0000101884649450FDA8045F8DB1BF80810E3
:101400000029F4D108E008F1010188468142FADBA5
:101410001BF808100029F6D1DDE90F23AAEB08001C
:101420008146214600F036F9304400EB080604E01E
:10143000DDE90F121BF8010B9047B8F10108F7D254
:1014400021464846F7E00A21C4F302534FF0000B4F
:101450000891022B04D001CFC117032B09D00AE059
:10146000FF1D27F00707F7E8020108E032E01FE060
:1014700020E000B2C117042B01D140B2C117031EF6
:1014800071F1000307DA4FF0000CD0EB0C006CEBAD
:1014900001012D2302E0230504D52B238DF82430F0
:1014A000012303E0E30701D02023F7E7984658E043
:1014B0000A2110E010210EE010204FF0000B0890E0
:1014C0000CE010214FF0000B44F004044FF0080929
:1014D000089103E008214FF0000B0891C4F3025378
:1014E000022B04D001CF0021032B06D006E0FF1D04
:1014F00027F00707F7E8020103E080B2042B00D1D0
:10150000C0B24FF0000823072BD5702A07D0DDF8B2
:1015100020C08CF0100C5CEA0B0C05D00EE04023D0
:101520008DF82430012308E050EA010306D030236F
:101530008DF824308DF8252002239846DDF820C050
:101540008CF0080C5CEA0B0C0BD150EA010301D1C2
:10155000630706D530238DF824304FF00108A9F138
:101560000109582A04D038A20B9208AA0A920BE06B
:101570003AA2F9E75B46089AFEF794FE0B9B9B5C48
:101580000A9A521E0A92137050EA0102F2D10A9886
:10159000ADEB000000F1200B600702D524F480348D
:1015A00001E04FF00109D94502DDA9EB0B0000E095
:1015B000002000EB0B0141440890AAEB010AE00374
:1015C00006D4DDE90F232146504600F063F80644B7
:1015D0004FF0000908E009A911F80900DDE90F1230
:1015E000904709F10109761CC145F4DBE0030CD5F5
:1015F000DDE90F232146504600F04CF8064404E094
:10160000DDE90F1230209047761C0899481E08909B
:101610000029F5DC08E00A980A990078491C0A912B
:10162000DDE90F129047761CBBF10001ABF1010B15
:10163000F1DC21465046DDE90F2300F019F806449D
:101640006D1C1BE609280100303132333435363742
:1016500038396162636465660000000030313233FE
:10166000343536373839414243444546000000009E
:101670002DE9F041044600251E461746880404D48F
:1016800005E039462020B0476D1C641EF9D5284678
:10169000BDE8F0812DE9F041044600251E46904644
:1016A000C80301D5302700E02027880404D505E0D1
:1016B00041463846B0476D1C641EF9D52846BDE842
:1016C000F08110B5212000F001F9002000F0FEF8B3
:1016D0007F2000F0FBF8322000F032F8222000F0EA
:1016E000F5F8002000F0F2F8072000F0EFF83220C3
:1016F00000F026F8002403E0002000F0C9F8641C84
:10170000B4F5806FF8D310BD014645F208224A4374
:101710004FF0E0235A6100229A6101221A6100BF52
:101720004FF0E022106900F001021AB100F480329B
:10173000002AF5D000224FF0E0231A619A61704729
:101740000146C1EBC10202EB42024FF0E0235A61B5
:1017500000229A6101221A6100BF4FF0E022106955
:1017600000F001021AB100F48032002AF5D0002204
:101770004FF0E0231A619A617047000070B504468B
:101780000D4600BF40210748FFF77EFC0028F9D036
:10179000E1B20448FFF73EFD40210248FFF750FC4C
:1017A000204670BD001001401CB501210220FFF74A
:1017B000F1F94FF41870009001208DF80400022018
:1017C0008DF8050000208DF8060001208DF8070037
:1017D00069460648FEF790FF40210448FFF702F8EB
:1017E00020210248FEF7FEFF1CBD0000000402405D
:1017F0004FF48060FFF798F94FF4E13000F09EF865
:10180000FFF72CF8FFF7D0FF4FF4FA70FFF77CFFDB
:1018100011224FF400711748FEF732FD154B0A22D2
:1018200000210846FFF718F9134B0A220021084649
:10183000FFF72EF8002406E00F48025D21460FA0B6
:10184000FFF7EEFC641C0A2CF6D311E04FF4007194
:101850000E48FEF7C7FF4FF49670FFF755FF4FF4A1
:1018600000710A48FEF7BCFF4FF49670FFF74CFF7B
:10187000ECE7000070000020700200202534643A7C
:10188000307825327820202000000000000402403B
:1018900010B504464FF480510A48FEF7A3FF00BF7D
:1018A00002210948FFF735FA0028F9D021460648F9
:1018B000FFF752FA02210448FFF71EFA0A20FFF749
:1018C0003FFF10BD000402400038004010B5044640
:1018D0004FF480510A48FEF783FF00BF02210948F8
:1018E000FFF717FA0028F9D021460648FFF734FA27
:1018F00002210448FFF700FA0A20FFF721FF10BD7C
:1019000000040240003800400A490968096809B922
:10191000012100E0002121B14FF0FF31064A1160A2
:1019200006E004490968C968C868034A416811604B
:1019300070470000340000206000002010B588B01F
:10194000044601211020FFF735F901210846FFF771
:1019500021F94FF40070069002208DF81C00012040
:101960008DF81F0006A92448FEF7C6FE4FF48060DC
:10197000069002208DF81C0006A91F48FEF7BCFE49
:10198000072209211C48FEF7FFFE07220A211A48F8
:10199000FEF7FAFE02940020ADF80C00ADF80E0040
:1019A000ADF810000C20ADF812000020ADF81400C6
:1019B00002A91248FFF7C4FB25208DF8040000207F
:1019C0008DF805008DF8060001208DF8070001A8AC
:1019D000FFF76EF840F2FF310848FFF731FB0122B4
:1019E00040F225510548FFF786FB01210348FFF728
:1019F0003FFB08B010BD0000000002400010014095
:101A000001460A69D1E901309860D1E901035860C3
:101A10005068884201D188685060002008611068D1
:101A2000401E10601068704742684A6093688B607F
:101A3000936859609160086103685B1C036070479C
:101A40001D48006818B101201C49086032E00020E0
:101A50001A4908601A480068B0FA80F0C0F11F0106
:101A600001EB8100174A52F8200008B1012000E084
:101A7000002050B900BF502080F31188BFF34F8F72
:101A8000BFF36F8F00BF00BFFEE701EB81020D4B7C
:101A900003EB820042685268426000F1080243682A
:101AA000934202D14268526842604268D268064B53
:101AB0001A6000BF7047000068000020540000203A
:101AC0004800002070340020300000202DE9F04153
:101AD0004FF0000844480068002877D14348006868
:101AE000451C4248056015BB41480068006808B9BC
:101AF000012000E0002050B900BF502080F3118881
:101B0000BFF34F8FBFF36F8F00BF00BFFEE73848B2
:101B10000768384800683649086036480760364824
:101B20000068401C34490860FFF7EEFE00BF3348F0
:101B3000006885423CD300BF2D480068006808B9A2
:101B4000012000E0002020B14FF0FF302B49086059
:101B50002DE027480068C068C4686668B54202D2B4
:101B60002648066023E0201DFFF74AFFA06A18B14F
:101B700004F11800FFF744FF94F82C10012088406E
:101B80001F49096808431E490860E16A01EB8101A9
:101B90001C4A02EB8100211DFFF746FF1A49E06A4B
:101BA0000968C96A8842C7D34FF00108C4E700BF7B
:101BB00015480068C06A00EB8000124951F8200007
:101BC000012801D94FF0010805E0FFE70F48006840
:101BD000401C0E4908600E48006808B14FF001082B
:101BE0004046BDE8F081000068000020440000206D
:101BF0003400002038000020580000206000002041
:101C000048000020703400203000002050000020E8
:101C100054000020341C0008000000207000000068
:101C200040120008A41C0008700000209039000039
:101C3000501200080000000000000000000000003A
:101C40000000000000000000010203040102030480
:101C500006070809000019192828000000000000E4
:101C60000000000000000000000000000000000074
:101C70000000000000000000000000000000000064
:101C80000000000000000000000000000000000054
:101C90000000000000000000000000000000000044
:041CA0000000000040
:040000050800018965
:00000001FF
