:020000040800F2
:10000000802F0020610200087F120008B111000853
:100010007D1200080D080008593300080000000098
:10002000000000000000000000000000A101000826
:10003000010D000800000000FD010008192D000856
:100040007B0200087B0200087B0200087B0200089C
:100050007B0200087B020008490D00087B020008B3
:10006000890D00080D0E00087B0200087B020008C5
:100070007B0200087B0200087B020008F1090008EF
:100080007B0200087B0200087B0200087B0200085C
:100090007B0200087B0200087B0200087B0200084C
:1000A000D92D00087B0200087B0200087B020008B3
:1000B0007B0200087B0200087B0200087B0200082C
:1000C0007B0200087B0200087B0200087B0200081C
:1000D0008D2B000869310008313200087B020008CE
:1000E0007B0200087B0200087B0200087B020008FC
:1000F0007B020008E92E00087B0200087B02000852
:100100007B020008751700087B0200087B020008CC
:100110007B0200087B0200089D2E00087B0200087D
:100120007B0200087B0200087B0200087B020008BB
:100130007B0200087B0200087B0200087B020008AB
:100140007B0200087B0200087B0200087B0200089B
:100150004D0A0008790A00087B0200087B020008AB
:100160007B0200087B0200087B0200087B0200087B
:100170007B0200087B0200087B0200087B0200086B
:100180007B0200087B020008DFF810D000F02CFB97
:100190000048004775540008AFF30080802F00200E
:1001A0002C4B19680868B0E8F04F80F30988BFF35A
:1001B0006F8F4FF0000080F311887047000000003F
:1001C00008480068006880F308884FF0000080F35A
:1001D000148862B661B6BFF34F8FBFF36F8F00DF35
:1001E00000BF00BF08ED00E0DFF80C00016841F43B
:1001F00070010160704700BF88ED00E0EFF30980F7
:10020000BFF36F8F134B1A681EF0100F08BF20ED5D
:10021000108A20E9F04F106009B44FF0500080F3CD
:100220001188BFF34F8FBFF36F8F05F02DFB4FF099
:10023000000080F3118809BC19680868B0E8F04F25
:100240001EF0100F08BFB0EC108A80F30988BFF3CE
:100250006F8F704738000020EFF305807047000073
:100260000648804706480047FEE7FEE7FEE7FEE750
:10027000FEE7FEE7FEE7FEE7FEE7FEE7452D0008A6
:100280008901000840EA01039B0703D009E008C97F
:10029000121F08C0042AFAD203E011F8013B00F84B
:1002A000013B521EF9D27047D2B201E000F8012B97
:1002B000491EFBD270470022F6E710B513460A46E6
:1002C00004461946FFF7F0FF204610BD2DE9FE4F0A
:1002D000804681EA0300C00F0C46009021F00041E7
:1002E00023F00045B8EB0200A94105D24046214663
:1002F00090461C460B46024623F00040104347D070
:10030000270DC7F30A00C3F30A510290401A019067
:1003100040286BDAC3F3130040F4801B0098924628
:1003200020B10023D2EB030A63EB0B0B0198594673
:10033000C0F14002504600F098F906460D4650467E
:100340005946019A00F0B0F910EB08006141002411
:1003500087EA115284EAE7731A4340D0009A62B3E5
:10036000019A012A4FEA075215DC001B61EB0201DA
:100370004FF0004202EA0752CDE90042001C41F56D
:10038000801132462B4600F0B0F903B0BDE8F08F83
:1003900040462146F9E7001B61EB0201001C41F5D4
:1003A000801300185B412018A2F5001747EB0301EA
:1003B00040EAD570B6196D4111E06D084FEA360676
:1003C00045EAC0754FEA0752001B61EB0201001CB1
:1003D00041F5801149084FEA300000195141324679
:1003E0002B4603B0BDE8F04F00F070B90098012231
:1003F00040000023D0EB020263EBE073009821463B
:100400004FEAE074B8EB000061EB0401E9E783F028
:1004100000435BE781F0004158E72DE9FE4F81EA98
:10042000030404F0004421F0004100944FF0000B5D
:1004300023F0004350EA01045ED052EA03045BD08B
:10044000C3F30A54C1F30A552C44A4F2F3340194C3
:10045000A0FB0254C1F3130141F48011C3F3130351
:1004600043F4801301FB024400FB034E840A970A05
:1004700044EA815447EA8357A4FB076802958D0A32
:1004800005FB07854FEA932C04FB0C542705029DBE
:100490004FEA065847EA1637B5EB08056EEB070C2E
:1004A000870E920E47EA811742EA8312A7FB0201E8
:1004B000B6EB0B0164EB00042B0D43EA0C335E1822
:1004C00044EB1C50DA465146E7FB0201C5F3130426
:1004D0004FEA0B3343EA14534FEA0432019C43EAD8
:1004E0000603A4F10C040294009CCDE900B400F0D2
:1004F000FCF803B0BDE8F08F00200146F9E72DE9D4
:10050000F04D81EA030404F0004B21F0004514464D
:100510004FF0000A23F0004150EA050220D054EACF
:1005200001021DD0C5F30A570246C5F31303C1F3F8
:100530001300C1F30A5640F4801543F48013A7EB6F
:100540000608101BD64608F2FD3873EB050002D3EF
:1005500008F1010801E092185B41B8F1000F03DADD
:1005600000200146BDE8F08D00204FF480110646C2
:1005700084460EE0171B73EB050705D3121B63EBD4
:10058000050306434CEA010C49084FEA3000921873
:100590005B4150EA0107EDD152EA030012D082EA32
:1005A000040083EA0501084305D0101BAB4106D2C5
:1005B0000122002306E000224FF0004302E06FF02A
:1005C000010253101AEB06004CEB085110EB0A0025
:1005D00041EB0B01BDE8F04D00F078B830B50B46AB
:1005E000014600202022012409E021FA02F59D4263
:1005F00005D303FA02F5491B04FA02F52844151E37
:10060000A2F10102F1DC30BD2DE9F05F05460020CA
:1006100092469B4688460646814640241BE0284673
:1006200041464746224600F02FF853465A46C01A24
:10063000914110D311461846224600F016F82D1AA3
:1006400067EB01084F4622460120002100F00DF81B
:1006500017EB00094E41201EA4F10104DFDC4846DF
:1006600031462A464346BDE8F09F202A04DB203A63
:1006700000FA02F1002070479140C2F1200320FAF5
:1006800003F3194390407047202A04DB203A21FAF3
:1006900002F00021704721FA02F3D040C2F120029B
:1006A0009140084319467047202A06DBCB17203AB1
:1006B00041FA02F043EAE07306E041FA02F3D04067
:1006C000C2F12002914008431946704710B5141E2C
:1006D00073F1000408DA401C41F1000192185B41FB
:1006E0001A4301D120F0010010BD2DE9F04D9246D2
:1006F0009B4611B1B1FA81F202E0B0FA80F22032E9
:100700009046FFF7B2FF04460F4640EA0A0041EA6E
:100710000B0153465A46084313D0114653EA0100D1
:1007200019D0C8F140025046FFF7AEFF05460E460D
:10073000504659464246FFF798FF084305D001202E
:1007400004E020463946BDE8F08D0020054346EA26
:10075000E0762C4337430A986305E40AA0EB0800CF
:100760000022FD0A44EA47540A3002D5002001461F
:10077000E9E7010510196941DDE9084500196941FA
:10078000BDE8F04DA2E7C1F30A52C1F3130140F2F4
:10079000FF3341F480119A4202DA0020014670478B
:1007A00040F233439A42A2F2334202DC5242FFF754
:1007B0006BBFFFF75ABF000030B5041E71F1000493
:1007C00004DB4FF00044404264EB0101141E73F15E
:1007D000000405DB1C464FF00043524263EB040368
:1007E000994208BF904230BD064C074D06E0E068D4
:1007F00040F0010394E8070098471034AC42F6D368
:10080000FFF7C6FCC0050308E0050308FEE770B566
:1008100000254FF4803405E0802000F099FF08B1F6
:1008200044B101E0641EF7D240F2FF5000F068FFCF
:10083000284670BD032070BD10B5044613480168FA
:1008400011F0450FFBD0042000F082FF20B10420FE
:1008500000F056FF032010BD012000F079FF20B109
:10086000012000F04DFF012010BD08482438006829
:10087000A04201D0102010BD40F2FF5000F040FF18
:1008800002482038006800F0080010BD342C0140F8
:1008900010B500244FF480310E4809E0026812F0D0
:1008A000450F05D009B1500705D5032404200CE0FD
:1008B000491EF3D2F7E7012000F04AFF18B10124E6
:1008C000204600F01DFF40F2FF5000F019FF2046C7
:1008D00010BD0000342C014010B50A49086810F022
:1008E000450FFBD0042000F033FF20B1042000F0BE
:1008F00007FF032010BD40F2FF5000F001FF002071
:1009000010BD0000342C014070B506461C480D4651
:100910000024026812F0450FFBD0042000F018FFFD
:1009200020B1042000F0ECFE032070BD012000F097
:100930000FFF20B1012000F0E3FE012070BD104840
:1009400024380068B04212D140F2FF5000F0D8FEC7
:100950000B482038026812F4604F03D0900404D58D
:10096000132070BD100C288007E0500401D5102022
:1009700070BD100401D50F2070BD204670BD000071
:10098000342C014010B500244FF480320B4809E0AC
:10099000016811F0450F05D00AB1480705D50324B9
:1009A000042006E0521EF3D2F7E7480603D50024E0
:1009B000402000F0A5FE204610BD0000342C014070
:1009C00010B50A4C0849204600F06AF8002120467C
:1009D00000F092F88021204600F090F92046BDE812
:1009E0001040012100F088B8200000207060024013
:1009F00070B5084C084D2146284600F02BF9002818
:100A000007D02146284600F061F8BDE8704000F0AC
:100A100005B870BD208000207060024010B50A4CFF
:100A20000849204600F03CF80021204600F064F818
:100A30008021204600F062F92046BDE810400121E7
:100A400000F05AB8000800208864024070B5084CD5
:100A5000084D2146284600F0FDF8002807D0214621
:100A6000284600F033F8BDE87040FFF7A9BF70BD1D
:100A7000008800208864024070B5074C074D21466D
:100A8000284600F0E7F8002805D021462846BDE8B2
:100A9000704000F01BB870BD00802020A0640240B0
:100AA000074A904201D2074801E005481038064A3B
:100AB0008B0001EA020101D5C16070478160704777
:100AC00010640240006002407D0F7D0F074A904293
:100AD00001D2074801E005481038064A8B0001EAB8
:100AE000020101D5C1607047816070471064024007
:100AF000006002407D0F7D0F0029016802D041F0A7
:100B0000010101E021F00101016070472DE9F0438E
:100B1000016821F0010101600021016041608160F4
:100B2000C1600161212141613C493C4A3D251039A8
:100B3000904202D18D60BDE8F083384A4FF474666C
:100B40001832904201D18E60F5E7344A4FF47417A1
:100B50003032904201D18F60EDE7304A4FF0746C33
:100B60004832904202D1C1F808C0E4E72B4B2C4A2E
:100B70006033984201D1CA60DDE7284C294B7834B4
:100B8000A04201D1CB60D6E7DFF89080264C08F177
:100B90009008404501D1CC60CDE7DFF880804FF070
:100BA0003D5908F1A808404502D1C1F80C90C2E7B0
:100BB0001E49DFF878800839404501D10D60BAE759
:100BC0001A4D1835A84201D10E60B4E7174D3035E3
:100BD000A84201D10F60AEE7144D4835A84202D1BA
:100BE000C1F800C0A7E7114D10496035091FA842A0
:100BF00001D10A609FE70D4A7832904201D10B6023
:100C000099E70A4A9032904201D10C6093E7074A73
:100C1000A83290428FD1C1F800908CE7106002405A
:100C20003D000020400F002000003D2010640240E5
:100C30000029016802D041F0200101E021F02001EB
:100C400001607047014600200968C90700D00120F3
:100C50007047000030B5104A0024904201D20F4A7C
:100C600001E00D4A103A0E4B194205D01E2303EA4B
:100C7000D12503682B4002E0406900F08003880022
:100C800001D5506800E01068064A1040084201D0C3
:100C900003B10124204630BD1064024000600240D0
:100CA0003C0F3C0F7D0F7D0F30B50368124ACC68B6
:100CB00013400A682243D1E905452C432243CC69FD
:100CC00022430C6A22434C6A22438C6A22434C6BB7
:100CD00022438C6B22431A430260426922F00703CD
:100CE000D1E90B2422431A4342610A6942604A68EF
:100CF00082608968C16030BD3F801CF041607047F0
:100D0000704700003EB50121480400F051FC00206E
:100D1000ADF80800ADF8020042F210700190A72073
:100D2000074CADF800006946204602F061F9002149
:100D3000044802F021F90021204602F02DF93EBDC1
:100D4000004401400040014010B5C82003F092F972
:100D5000012000F0A9F801280CD14102084800F058
:100D600025FA08490878401CC0B20870042801D947
:100D700000200870BDE81040012000F08FB800008E
:100D8000000402401500002010B5C82003F072F9DD
:100D9000042000F089F801282ED14102194800F002
:100DA00003FA194900220878012806D002280CD03D
:100DB000032812D004281FD117E08878401CC0B245
:100DC0008870632818D18A7016E0C878401CC0B2B9
:100DD000C870632810D1CA700EE00879401CC0B2F8
:100DE0000871632808D10A7106E04879401CC0B236
:100DF0004871632800D14A71BDE81040042000F01A
:100E00004DB80000000402401500002010B5C820B5
:100E100003F030F9082000F047F8012835D14102ED
:100E20001C4800F0C1F91C486322017806292CD225
:100E3000DFE801F02B030B131B238178491E11F00F
:100E4000FF01817021D182701FE0C178491E11F02D
:100E5000FF01C17019D1C27017E00179491E11F06C
:100E6000FF01017111D102710FE04179491E11F0AA
:100E7000FF01417109D1427107E04178491E11F02B
:100E8000FF01417001D11E214170BDE810400820D2
:100E900000F004B800040240150000200149086079
:100EA00070470000143C0140034A014600201268CC
:100EB0000A4200D001207047143C0140014803F071
:100EC0008FBB00007C09002010B501460E220548AA
:100ED00003F03AFD040002D1024803F081FB2046F2
:100EE00010BD00007C0900201CB50121084600F05F
:100EF00047FB4FF48070009000208DF80400012122
:100F00008DF807108DF8060002208DF8050069465F
:100F1000034800F0FDF8012003F0F3FA1CBD0000C7
:100F20000000024003F06ABC01460122014803F0C0
:100F3000E7BC0000480700200146014803F0D5BD8A
:100F4000A80B00202DE9F0410F46164601461D462C
:100F500001220B4803F0F8FC04461DB1294608485D
:100F600003F04DFB34B9074B32463946044803F0D1
:100F7000EDFD0446024803F033FB2046BDE8F08156
:100F80007C090020340000202DE9F0410F46164670
:100F900001461D4602220B4803F0D6FC04461DB153
:100FA0002946084803F02BFB34B9074B3246394633
:100FB000044803F0B3FE0446024803F011FB204648
:100FC000BDE8F0817C090020340000202DE9FC5FA1
:100FD00000244C4F00944FF4806801944025C7F8DA
:100FE0001080C7E902540E464FF0080B1021C7E9E4
:100FF00000B1A146384600F0F1FB1020FFF71CFCC1
:10100000002853D14048AA464D4600890004386064
:101010003720C7E9010AC7E90398384600F0DEFB2C
:101020003720FFF709FC002840D1411E07F11400CA
:10103000C0E9001B302181600221C0E903150121B4
:10104000416100F06DFB3320C7F808A0C7E90050EC
:10105000C7E90358384600F0C1FB3320FFF7ECFB2B
:10106000050023D1DFF8A490DFF8A0804FF4001B27
:101070006F46A9F14C0940F22A6AD9F8000010EA3B
:101080000A0F0BD1584600F063FB0028F5D0D8F8C2
:10109000000047F82400641C022CEED3082000F066
:1010A00057FB28B1082000F02BFB0420BDE8FC9F73
:1010B000022000F04DFB20B1022000F021FB0220B5
:1010C000F4E7202000F044FB20B1202000F018FBC2
:1010D0000620EBE74FF40074204600F039FB20B106
:1010E000204600F00DFB0720E0E740F2FF5000F043
:1010F00007FB009800BA7060019800BA306028467B
:10110000D4E700009404002020000020802C01403F
:10111000F0B5002201274FF0030C0B6807FA02F527
:101120002B40AB422CD1066853000CFA03F4A643C3
:1011300006600E79D0F800E09E4046EA0E06066092
:101140000E79012E01D0022E12D18668A643866048
:101150004E79D0F808E09E4046EA0E068660466862
:10116000AE43466045688E799640B6B235434560D9
:10117000C568A543C560CC799C40C3681C43C46066
:10118000521C102AC9D3F0BD4B07DB0E9A40C90888
:1011900010B500EB8100016A0F249C40A14301625D
:1011A000016A1143016210BD41837047018370479A
:1011B000FEE700001CB50446002120480091019183
:1011C000008902041E4802600D2242604022C0E9EC
:1011D00002211101016100F001FB1A490868019028
:1011E000024601E00A68019212F0450FFAD0012090
:1011F00000F0AEFA20B1012000F082FA01201CBDFF
:10120000042000F0A5FA20B1042000F079FA0320B0
:101210001CBD0C48243800680D2801D010201CBDCE
:1012200040F2FF5000F06CFA064820380068009049
:10123000C0F34320207000201CBD000020000020CF
:1012400094040020342C014010B50A4C0A484FF495
:10125000007122782AB1FFF7A9FF142002F02AFFBB
:1012600004E0FFF7A1FF142002F004FF2078C04340
:10127000207010BD1400002000040240FEE77047FB
:1012800030B50F23C27801780125FAB1144A1268EB
:1012900001F1E02102F4E062C2F5E062C2F307224C
:1012A000C2F10404D3404278A24084781C40144325
:1012B000220181F80024007800F01F018D404009D0
:1012C000800000F1E020C0F8005130BD01F01F00A7
:1012D00085404809800000F1E020C0F8805130BD11
:1012E0000CED00E002490843024908607047000025
:1012F0000000FA050CED00E010B502464FF48061E5
:101300000348FEF7D1FFBDE8104000F00BB9000024
:101310007C00002070B500F06DF8354D4FF480442E
:1013200021462846FFF740FF052002F0C3FE214674
:101330002846FFF73BFF052002F0BCFEA82000F086
:10134000D5F83F2000F0D2F8D32000F0CFF80020ED
:1013500000F0CCF8402000F0C9F8D52000F0C6F825
:10136000F12000F0C3F8A02000F0C0F8C02000F089
:10137000BDF8DA2000F0BAF8122000F0B7F88120AA
:1013800000F0B4F8FF2000F0B1F8D92000F0AEF87A
:10139000F12000F0ABF8DB2000F0A8F8302000F0DE
:1013A000A5F8A42000F0A2F8A62000F09FF82020C5
:1013B00000F09CF8002000F099F8C02000F096F8AA
:1013C000A12000F093F8232000F090F8002000F016
:1013D0008DF88D2000F08AF8142000F087F8AF20F7
:1013E00000F084F8BDE870400020FFF785BF0000E2
:1013F000000402402DE9F041012188B0880300F08B
:10140000CBF80121022000F0BBF802268DF8046021
:1014100003274FF420408DF805700024DFF88C80FE
:1014200000908DF8064001258DF80750694640462A
:10143000FFF76EFE8DF804504FF4A0408DF8057054
:1014400000908DF806408DF8075069464046FFF73A
:101450005FFE05220D214046FFF796FE05220F2173
:101460004046FFF791FEADF808404FF48270ADF8AA
:101470000A00ADF810506802ADF812001020ADF867
:101480001400ADF80C40ADF816400720084CADF83C
:101490001800ADF80E6002A9204601F0C6FB01213C
:1014A000204601F08FFB08B0BDE8F0810004024047
:1014B0000038004070B505464FF480510948FFF7E9
:1014C00075FE094C0221204601F090FB0028F9D05E
:1014D0002946204601F0A7FB2046BDE870400221C6
:1014E00001F07ABB000402400038004070B50546A8
:1014F0004FF480510948FFF757FE094C022120465E
:1015000001F074FB0028F9D02946204601F08BFB3E
:101510002046BDE87040022101F05EBB000402409D
:10152000003800402DE9F0412120FFF7DFFF0020C7
:10153000FFF7DCFF7F20FFF7D9FF052002F0BAFD9F
:101540002220FFF7D3FF0020FFF7D0FF0720FFF78F
:10155000CDFF052002F0AEFD084F0025002407EB6B
:10156000C516305DFFF7A6FF641CE4B2802CF8D3EB
:101570006D1CEDB2082DF1D3BDE8F0817C00002098
:10158000044A0029116801D0014300E08143116041
:101590007047000030380240044A0029116801D029
:1015A000014300E081431160704700004038024071
:1015B000044A0029116801D0014300E08143116011
:1015C0007047000044380240044A0029116801D0E5
:1015D000014300E08143116070470000243802405D
:1015E00070B5204B1968204C11F00C0104D01F4E2F
:1015F000042903D0082903D004601BE0066019E029
:10160000184A121F1168C1F38055116801F03F019B
:1016100015B1B6FBF1F101E0B4FBF1F11468126809
:10162000C4F388146143C2F30142521C5200B1FB5F
:10163000F2F1016019680F2202EA11110C4A545CA0
:101640000168E14041601C68072505EA9424145DA7
:1016500021FA04F484601B6805EA5333D25CD1405C
:10166000C16070BD083802400024F40040787D015C
:10167000000000202DE9FC41002600963546019629
:1016800000B102251B480068800102D50E20BDE88C
:10169000FC81194C6946208980B2FFF797FC00282D
:1016A000F5D10198400322D52089144C00044FF055
:1016B000400820603720C4E901084FF480672046C5
:1016C000C4E9036700F08AF83720FFF7B5F800286F
:1016D000DDD10620C4F80880C4E90050C4E90367DE
:1016E000204600F07BF80620FFF7A6F8CFE725207C
:1016F000CDE70000142C01402000002094040020BD
:101700000149086070470000382C0140034A116805
:1017100021F0FF010143116070470000042C0140DB
:1017200010B50A4A01681160121D41681160131D4D
:101730001968D0E902242243D0E90440044321F08F
:10174000F70122430A431A6010BD0000242C014017
:10175000034A0146002012680A4200D00120704767
:10176000342C01400248006800F00300704700007C
:10177000002C014000F096BB30B5094B1A6847F6C3
:10178000FF618A43017D8468C568214344682C4316
:10179000214304680069214301431143196030BDAE
:1017A000042C01400B4900200860091D0860091D38
:1017B0000860091D0860074924310860091D086098
:1017C000091D0860034A044938321160111D086080
:1017D00070470000002C0140FF07C00010B5084A08
:1017E00001681160131D1968D0E901242243D0E972
:1017F000034004436FF30A0122430A431A6010BDF9
:10180000082C01400149086070470000002C01408D
:1018100070B51B4E90B0154604463046FFF712FADD
:101820000028FAD13046FFF771F94FF000600090C0
:10183000144801A981E8310000204FF48061049030
:10184000CDE90501890007918900CDE908104FF421
:1018500040300A9004200B9003200C9048020D9019
:1018600080100E9069463046FFF71EFA2021304660
:10187000FFF7DEF901213046FFF73EF910B070BDE9
:1018800058640240802C014010B5104904460020E5
:101890000978032917D019B1012901D0022911D1E2
:1018A000B4F5805F0FD0E0B2FFF7E4FE002809D165
:1018B00007490A6822F4C0520A600A6822430A6093
:1018C0000A680A6010BD272010BD0000200000201B
:1018D000042C01402DE9F0477A49DFF8EC814FF004
:1018E00000090B7880F84E300989A0F84C10D8F820
:1018F00000104FF0010A0A0E94090470C2F3830429
:10190000447002F0030282700A0CC2700A0A02716B
:101910004171D8F80420110E0C01C2F3074144EACA
:10192000111401F00F0CC480C2F3072180F808C025
:10193000CC094472C1F380148472C1F34014C472A0
:10194000C1F300140473444680F80D90A468260E79
:10195000C4F30745C4F3072733B1012B04D0032B8D
:1019600002D0022B22D02EE08907090DD2B241EA23
:10197000820141EA96120261C6F3C201017506F0C6
:101980000701417569098175C5F38201C175A90710
:101990004B0F394643EAD1130376521C9B1C9A40E5
:1019A0000AFA0CF35A43C0E911230CE09106890AA4
:1019B00041EA06222A430261521CD20442644FF4D7
:1019C000007239468264C1F38012427689064A0E5B
:1019D000E1B242EAD11200F81A2F01F07F01417002
:1019E000D8F80C20110ECB098370C1F34113C370DA
:1019F000C1F38203037189070B0FC2F3074143EA66
:101A000091134371C1F34013837180F8079001F083
:101A100001010172C2F30721CC094472C1F38014A1
:101A20008472C1F34014C472C1F300140473C1F38F
:101A30008104447301F003018173C2F34601224A19
:101A4000C173103280F810A011684B460D0E8574DA
:101A50000D0CC1F3072646EA052585820D0651685F
:101A600054460E0E45EA0645C1F3074645EA0625EB
:101A7000C1F307263543C0F8165000F81A1F9168C5
:101A80000D0E45700D0CC1F307262D0645EA0645DF
:101A9000C9B245EA0125D16845EA11654560057A74
:101AA000C1F3074245EA12150572C1F30725120773
:101AB00045EA12524281C1F346010173447318464C
:101AC000BDE8F08720000020C00400202DE9FE437F
:101AD00001213F48FFF754FD0121CD022846FFF7C1
:101AE00067FD01212846FFF76FFD4FF4F850009085
:101AF00002208DF804008DF805000024DFF8D48062
:101B00008DF8064001268DF8076069464046FFF7CC
:101B1000FFFA0420304F009069463846FFF7F8FA84
:101B20000C2208214046FFF72FFB0C2209214046DA
:101B3000FFF72AFB0C220A214046FFF725FB0C2267
:101B40000B214046FFF720FB0C2211464046FFF7D1
:101B50001BFB0C2202213846FFF716FB002128460A
:101B6000FFF732FDFFF71EFE31208DF808008DF8DB
:101B700009408DF80A408DF80B6002A8FFF780FB42
:101B800000F0BEF8154C80B900F02CF868B920467A
:101B9000FFF7A0FE48B9B4F84C00000400F072FC56
:101BA00018B92846FFF770FE18B10D4909780329C6
:101BB0000AD194F84E0048B1012807D00820FFF759
:101BC000A5FD002000F074FCBDE8FE830A20F6E7C6
:101BD0000C00400000080240000C0240E00400201D
:101BE000200000202DE9F84F0120ADF80000FFF79C
:101BF000B9FDB0B33F4F3878042878D03E4C00256B
:101C00000220E4E80250C0204FF4806684E86100BE
:101C10003948083CFFF7E2FDFEF73AFE002822D1E2
:101C2000DFF8D8A0DAF8001033480AF1040B3C3092
:101C30000160DBF8001041600BF10401096881606C
:101C40002E490C310968C16038784FF003084FF015
:101C5000400950B1012808D0062806D0022804D037
:101C600010E0FFE72520BDE8F88F84E82003C4E9F1
:101C700003562148FFF7B2FD69460320FEF744FEF4
:101C80000028F0D1387803280DD1BDF800000004F9
:101C900084E80103C4E903561748FFF79FFDFEF7E8
:101CA000F7FD0028DFD13878042820D0BDF80000E7
:101CB000B860000401C4092001C4C02084E86100A8
:101CC0000D48FFF78BFDFEF7E3FD0028CBD1DAF8D6
:101CD000001009482C300160DBF800104160074912
:101CE00008310968816005490C310968C16000202C
:101CF000B9E700002000002094040020142C0140CB
:101D00002DE9F05F0027624876213E4601750760A5
:101D100047608760C7603C463D46B946B8460761A4
:101D2000FFF72AFD0320FFF76DFD5A48016841F4D3
:101D300080710160DFF858A14FF4806B0AF1180A36
:101D40005348CAF80080CAF80480CAF80880CAE973
:101D5000038B1830FFF742FDFEF759FD28B17F1CB9
:101D6000FFB24A2FECD3BDE8F09F4FF4D570CAF80C
:101D7000000008205746CAF804004020C7E90208BE
:101D80000001CAF8100042481830FFF727FDFEF79F
:101D9000F9FD20B9404901204FF080490870BA464A
:101DA000384641463722402780E88600C0F80C803C
:101DB00037483901C3461830CAF81010FFF70EFD36
:101DC0003720FEF739FD4FF6FF78A0B35646DFF80F
:101DD000C490BA464FF4806B012709F11009C5B3CE
:101DE0004DE055463720C5E900B04FF48068CAF889
:101DF00010802748C5E9027B5E461830FFF7EEFCED
:101E00003720FEF719FD0028ADD1244949EA010029
:101E100028602920C5E90107C5E903681C48183076
:101E2000FFF7DCFCFEF758FD00289CD11949103162
:101E30000E68F50F641C1DB94FF6FF718C42D0D3AC
:101E40004FF6FF718C421CD216F0804F8BD00222CD
:101E50001AE012E0124886E881040020C6E9030B6C
:101E60000B481830FFF7BAFCFEF736FD0028CBD13F
:101E7000D9F80010CD0F641CB1E74445EAD34445BE
:101E800001D31B206FE7032203490A706BE70000B0
:101E90007C040020042C0140200000200000108061
:101EA0000080FF802DE9F0414FF48070FFF750FC77
:101EB000354C364D4CF23A3610B3A8780021012843
:101EC0000ED0E9703048001F016841F48071016054
:101ED0002068B043206001202871E878BDE8F081D7
:101EE0002B480C22C0E900124022C0E90221110156
:101EF0000161FFF773FC0C20FEF79EFCE870E1E740
:101F00000220FFF725FC40B10220FFF7F9FB206813
:101F1000B04320600220E870E0E70820FFF718FCDB
:101F200040B10820FFF7ECFB2068B043206004209C
:101F3000E870D3E72020FFF70BFC40B12020FFF72B
:101F4000DFFB2068B04320600620E870C6E7102061
:101F5000FFF7FEFB40B11020FFF7D2FB2068B04333
:101F600020600520E870B9E74FF400773846FFF7A6
:101F7000EFFB0028B2D03846FFF7C2FB2068B04321
:101F800020600720E870A9E73C2C014020000020D9
:101F9000940400202DE9F84F17460A9E05004FF0E3
:101FA000FF3472D0DFF8F0A10020CAF800007B49AE
:101FB0000978022903D10E02570A47EAC357DFF80E
:101FC000E091014601224846C9F81420C9F80810DA
:101FD000C0E90041C9F80C10A046C9F81010FFF77D
:101FE0009FFB6D4818380068800102D50E20BDE8BF
:101FF000F88F701EB0F5006F47D2064245D13046CB
:1020000001F0B0FE00906648102114384FF4806B48
:10201000C0E90061402181600021C0E9031BFFF796
:10202000DDFB1020FEF708FC0028E0D10098C9F87D
:10203000008001014846C0E901610121C9F814107E
:102040004FF000090221C0E90319C8465448FFF7C0
:1020500067FB534811211438E0E80271402180E801
:1020600002094F481438FFF7B9FB1120FEF7E4FBD3
:102070000700BCD14949DFF82081487808F15408AD
:10208000C0B1012859D080E0FFE72620AFE75846CD
:10209000FFF75EFB50B10020D8F8001045F8201083
:1020A000401C0828F8D3344620350CE0002C70D0B2
:1020B000641E08E0DFF8E0903A4E4FF4004B09F15F
:1020C000080940F22A6AD9F8000010EA0A0FDED0A7
:1020D0000820FFF73DFB18B10820FFF711FB58E07F
:1020E0000220FFF735FB20B10220FFF709FB022099
:1020F0007DE72020FFF72CFB20B12020FFF700FB1D
:10210000062074E74FF400742046FFF721FB40B12E
:102110002046FFF7F5FA072069E7D8F8000001C567
:1021200001E04FF400142046FFF712FB0028F4D121
:1021300040F2FF50FFF7E4FA27E0884681F8039069
:1021400081F8029081F8049013481030016840F241
:102150002A3211430160DAF8001041F00801CAF890
:102160000010002231462846FFF752FB0E49404638
:1021700000E0641E0A68120103D402790AB9C27829
:102180002AB134B1C17801B1C77838462FE7002CA5
:10219000EFD104202BE700002C2C01402000002070
:1021A000A8040020FFFF7F00006402402DE9FC47E7
:1021B0000027CD0D4E028046810791464FF40070F6
:1021C00018D00024824612E06002821945EBE073C9
:1021D000CDF800A01248FFF7DDFE07465246104931
:1021E0004046FEF74FF8641C08F50078E4B24C4511
:1021F000EAD30AE0B9F1010F0AD0CDE9000932466D
:102200002B46404600F00EF807463846BDE8FC87EE
:10221000009032462B464046FFF7BCFEF4E7000034
:10222000300500202DE9F84F9149DDE90A6817468D
:1022300082464FF0FF34C860B8F1010F07D08D48D7
:102240000025056008460078022806D00AE05046BE
:102250000096FFF79FFEBDE8F88F570A4FF400760F
:1022600047EAC35784480121A1468560C0E900457B
:10227000C560C0E90451FFF753FA7E48183800687A
:10228000800101D50E20E6E7701EB0F5006F20D268
:1022900006421ED1304601F065FD009076481021BF
:1022A0001438AB46C0E900614021C0E902150901BC
:1022B0000161FFF793FA1020FEF7BEFA0500CAD1BC
:1022C0004046B8F1010F34D900FB06F8B8F1007FA1
:1022D00001D32620BFE700985D4601016648C0F89B
:1022E0000090C0E90181012141610221C0E9031B85
:1022F000D946FFF715FADFF880B11221ABF1140BC4
:102300005846C0E900714021CBE902150901CBF81C
:102310001010FFF763FA1220FEF78EFA05009AD12B
:10232000534E544F40F22A3170785437B8B10128D7
:1023300073D09BE04FF40040FFF70AFA58B1F16800
:1023400000203A6841F82020401C0828F9D32031A9
:102350005446F16006E0002C7ED0641E02E0DFF8F7
:102360001CA1884643480830006810EA080FE1D0F5
:102370000820FFF7EDF918B10820FFF7C1F96BE06D
:102380000220FFF7E5F920B10220FFF7B9F902209A
:1023900061E72020FFF7DCF920B12020FFF7B0F93A
:1023A000062058E74FF400742046FFF7D1F948B1F2
:1023B0002046FFF7A5F907204DE73968F06802C00D
:1023C000F06001E04FF400142046FFF7C1F9002847
:1023D000F3D14FF48070FFF7BBF9C0B1307818B17A
:1023E000012801D0022812D158460C22C0E90092DF
:1023F0004022CBE90229204811011438CBF81010F3
:10240000FFF7ECF90C20FEF717FA0500C0D140F2F7
:10241000FF50FFF775F929E0FFE786F803900122E6
:10242000B27086F804901348103002680A430260C4
:102430001048016841F00801016041460022504601
:10244000FFF7E6F90E4800E0641E0168090102D4B6
:10245000002CF9D100E00CB90420FCE6307910B969
:10246000F0780028FAD0F07800B1F5782846F2E646
:10247000200000202C2C0140A8040020FFFF7F003A
:1024800000640240094910B50860072048604020F8
:1024900088600020C8604FF4806008610846FFF73C
:1024A0009DF9BDE810400720FEF7C6B9940400204E
:1024B0000021012803D010B1262108467047014AA7
:1024C0005070FAE72000002000B585B0FEF70CFD43
:1024D00010A0FEF729FD10A0FEF724FD0EA0FEF7C8
:1024E0002BFD0FA0FEF7F0FC00230A2210A10CA088
:1024F000FEF74AFD0A23092210A109A0FEF744FDB8
:102500000A231A46694606A0FEF71CFDFEF7D6FC14
:1025100005B000BD313A0000313A2F5344000000AD
:10252000313A2F53442F446174612E630000000040
:10253000576F726B696E672121000000616464202F
:1025400054657374000000002DE9FC5F4FF0000536
:102550000C9F90469B4604008DF800502E46B946CD
:1025600061D0A9480560A948691E8560C0E90015C9
:102570000121C560C0E90451FFF7D2F8A24818381C
:102580000068800102D50E20BDE8FC9FDFF880A224
:102590009AF80000022804D107024FEA582040EAC6
:1025A000CB58781EB0F5006F3DD207423BD138467C
:1025B00001F0D8FBDFF854B20190ABF1140B584690
:1025C0001021C0E900714021CBE902150901CBF8C7
:1025D0001010FFF703F91020FEF72EF90028D3D1D1
:1025E0008B48DA4600890104CBF800100D215846CB
:1025F000CBF804104021C0E9021584480901AB461C
:102600001438CAF81010FFF7E9F80D20FEF714F996
:102610000028B9D17C4918390868DA464FF0FF35EF
:10262000DFF8ECB119E02620AEE7BBF808006D1E1C
:1026300001047648143801600D2141604021C0E951
:10264000021A09010161FFF7C9F80D20FEF7F4F83D
:10265000002899D16C4818380068C00502D4002DB4
:10266000E3D131E07DB3694818211438C0E9008115
:102670004021C0E9021A09010161FFF7AFF81820F3
:10268000FEF7DAF80028CFD100218BF8021001986C
:102690004FF0FF3A02015D48D8465546C0F800A009
:1026A000C0E901720122C160C0E90412FFF738F8E5
:1026B00098F80100DFF8508108F1540870B35E46C5
:1026C00001285ED08FE0FFE729205DE74FF48040CE
:1026D000FFF73EF8F8B1A9EB060020280ED28107DB
:1026E0004FEA900100D0491C0020424603E008CC8C
:1026F0001360401C361D8842F9D309E00020414692
:1027000054F820200A60401C0828F9D320342036D1
:102710006FF0404506E075B36D1E03E03A4F40F29E
:102720001A6A0837386810EA0A0FCFD00820FFF776
:102730000FF818B10820FEF7E3FF52E00220FFF780
:1027400007F820B10220FEF7DBFF02201CE7102073
:10275000FEF7FEFF20B11020FEF7D2FF052013E7A1
:102760004FF400742046FEF7F3FF28B12046FEF731
:10277000C7FF072008E734E040F2FF50FEF7C0FF34
:1027800031E00020F070B07030711F4810300168E7
:1027900040F21A3211430160402239462046FFF7C9
:1027A00037F81948016841F008010160194800E054
:1027B0006D1E0168090102D4002DF9D102E00DB1AE
:1027C000504603E0FFF782F90BE0401E317909B96A
:1027D000F17821B128B1F07828B1F078D4E600285A
:1027E000F3D10420D0E640F2FF50FEF789FF68469F
:1027F000FEF7E0FC0028A9D19DF800100729F6D0CB
:102800000629F4D0C0E600002C2C0140A8040020CA
:1028100020000020006402402DE9FC470746CD0D52
:102820004E0290460020BA074FF4007118D00024E1
:10283000894611E04A4639461248FDF723FD6002F9
:10284000821945EBE073CDF800900E48FFF77CFE4F
:10285000641CE4B207F500774445EBD3BDE8FC8780
:10286000B8F1010F07D0CDE9001832462B463846A3
:1028700000F00AF8F2E732462B4638460091FFF79F
:1028800063FEEBE7300500202DE9FC5F4FF000010F
:10289000DDE90C679146984604008DF804100D465A
:1028A00007FB06FA4ED0012F14D0B4480160B4489B
:1028B0004A1E8160C0E900210122C160C0E9041202
:1028C000FEF72EFFAD4818380068800107D50E20AE
:1028D000BDE8FC9F20460096FFF736FEF8E7A948C2
:1028E0000078022804D106024FEA592040EAC8596C
:1028F000701EB0F5006F25D2064223D1304601F09C
:1029000031FADFF87CB20090ABF1140B584610217D
:10291000C0E900614021CBF808100021CBF80C1071
:102920004FF48061CBF81010FEF758FF1020FDF730
:1029300083FF0028CCD1012F67D907FB06F8B8F137
:10294000007F01D32620C3E78E48007818B1012804
:1029500001D002282DD18B48402600890104584619
:10296000CBF800103721C0E901160021CBF80C107C
:10297000834831011438CBF81010FEF72FFF3720B1
:10298000FDF75AFF0028A3D158461721CBF8007055
:10299000C0E901160021CBF80C1079483101143838
:1029A000CBF81010FEF71AFF1720FDF745FF00289F
:1029B0008ED1734819211438C0E9009140214FF09D
:1029C0000009C0E9021909010161FEF707FF19209A
:1029D000FDF732FF0028B6D100984FF0FF36010115
:1029E000674801270660C0E90181C0F80C90C0E982
:1029F0000497FEF795FEDFF88CB140F21A319BF890
:102A0000010018B15D46012878D0A7E05B4F8846E9
:102A1000543725E04FF48040FEF79AFEE8B1AAEB68
:102A2000050020280DD281074FEA900100D0491CF3
:102A3000002003E004CC3A60401C2D1D8842F9D3ED
:102A400008E0002054F820103960401C0828F9D311
:102A5000203420356FF0404602E0002E7CD0761EF8
:102A600046480830006810EA080FD3D00820FEF767
:102A70006FFE18B10820FEF743FE6DE00220FEF75E
:102A800067FE20B10220FEF73BFE022020E7102067
:102A9000FEF75EFE20B11020FEF732FE052017E79C
:102AA0004FF400742046FEF753FE20B12046FEF797
:102AB00027FE07200CE74FF48070FEF749FEB8B1FF
:102AC0009BF8000018B1012801D0022810D12C4831
:102AD0000C221438C0E900924022C0E902291101F9
:102AE0000161FEF77BFE0C20FDF7A6FE0028CDD18C
:102AF00040F2FF50FEF704FE30E0FFE785F8039058
:102B0000AF7085F804901D48103002680A430260D7
:102B1000414640222046FEF77BFE1848016841F0FE
:102B2000080101603046184900E0401E0A681201A1
:102B300002D40028F9D100E018B9FEF7C7FF0BE076
:102B4000761E287908B9E87820B12EB1E87828B146
:102B5000E878BDE6002EF3D10420B9E640F2FF503C
:102B6000FEF7CEFD01A8FEF725FB00288ED19DF8CB
:102B700004100729F6D00629F4D0A9E62C2C014030
:102B8000A8040020200000200064024070B50B4D16
:102B90007121284600F031F8094C012801D0206845
:102BA00006E07121284600F01AF82068401C2060D9
:102BB000B0F5806F01D10020206070BD003800406A
:102BC000100000200029018802D041F0400101E0FE
:102BD00021F0400101807047C9430181704701F035
:102BE0000F0201219140C943018170470246002034
:102BF00012890A4200D00120704730B501F00F035E
:102C00000125024605FA03F40020A3B2090905FADA
:102C100001F49188A4B2128921401A4202D00029FD
:102C200000D0012030BD8181704730B502884C88CA
:102C300002F441530A88CD8822438C882C432243D6
:102C40000C8922434C8922438C892243CC8922431C
:102C50001A430280828B22F400628283098A0182F5
:102C600030BD00000CB5002227490092019208688F
:102C700040F4803008604FF4A043086800F400304E
:102C800001900098401C0090019810B9009898425B
:102C9000F3D10868800334D5012001901A484030F0
:102CA000026842F0805202601848026842F44042D2
:102CB00002601548083002680260026842F400426F
:102CC0000260026842F4A0520260031F104A1A60B8
:102CD0000A6842F080720A600A689201FCD50D49C8
:102CE00040F205720A60016821F003010160016889
:102CF00041F0020101600168C1F381010229FAD1AA
:102D00000CBD01920CBD0000003802400070004074
:102D100019544007003C024010B5502080F3118840
:102D2000BFF34F8FBFF36F8F02F0F6FD18B1044968
:102D30004FF080500860002080F3118810BD000023
:102D400004ED00E0124810B5016841F47001016023
:102D50001048016841F0010101600E4A002108326B
:102D6000116002680C4B1A400260031D0B4A1A6086
:102D7000026822F48022026006480C300160FFF7EE
:102D800071FF03494FF000608039086010BD0000FA
:102D900088ED00E000380240FFFFF6FE103000240E
:102DA000044AFF29105C02D0814301D00020704703
:102DB0000120704730070020024A135C8B431354F4
:102DC0007047000030070020024A135C0B43135485
:102DD000704700003007002070B52E4D01212846B5
:102DE00000F0E4F801284ED12B4C2178C82902D9F3
:102DF0000020207040E00320B1FBF0F200FB121035
:102E000018B902210020FFF7DFFF20780521B0FB71
:102E1000F1F201FB120018B904210020FFF7D4FFE2
:102E200020780A21B0FBF1F201FB120018B9082149
:102E30000020FFF7C9FF20781421B0FBF1F201FB5D
:102E4000120018B910210020FFF7BEFF20783221B0
:102E5000B0FBF1F201FB120018B920210020FFF7AE
:102E6000B3FF20786421B0FBF1F201FB120018B926
:102E700040210020FFF7A8FF01210020FFF7A4FF59
:102E80002078401C20702846BDE87040012100F0E9
:102E90007DB80000004001403000002070B5104CAB
:102EA0000121204600F082F8012813D1616A2046F2
:102EB0004FF47A72B1FBF2F30A4A1188491C11806F
:102EC00001EBC10505EB011103EB4101518000212C
:102ED00000F062F82046BDE87040012100F056B8CD
:102EE000001000401C00002070B508210620FFF7EC
:102EF00057FF00251E4C01281CD00121204600F060
:102F00005CF8012816D002210620FFF749FF0128AE
:102F10004FF0020120460FD000F04FF810B302210D
:102F2000204600F05EF865620121204600F034F88A
:102F3000022114E0656215E000F03FF890B1002135
:102F4000204600F04EF8616A0A4A204611800021AE
:102F500000F022F802210620FFF72EFF08210620AC
:102F6000FFF732FF2046BDE87040032100F011B8A2
:102F700000200040320000200029018802D041F0EA
:102F8000800101E021F0800101807047C943018286
:102F90007047C943018270470029018802D041F07F
:102FA000010101E021F0010101807047024600208B
:102FB000128A0A4200D00120704702460020138A7C
:102FC00092890B4202EA010202D0002A00D00120BD
:102FD0007047002A828901D00A4300E08A43828137
:102FE0007047028C22F002020A43028470470000FC
:102FF00030B50288164C174DA0420DD0A8420BD018
:10300000B0F1804F08D0144B984205D0134B984232
:1030100002D0134B984203D122F070034A881A431E
:10302000104B984206D0104B984203D022F44073C4
:103030000A891A4302804A68C2620A880285A0424D
:1030400001D0A84201D1897A01860121818230BD57
:10305000000001400004014000040040000800405E
:10306000000C004000100040001400407FB501211A
:103070000804FEF79DFA002442F210700190ADF8AA
:103080000240A720114DADF80000ADF80840694698
:103090002846FFF7ADFF18208DF80C008DF80D4085
:1030A0008DF80E4001208DF80F0003A8FEF7E8F818
:1030B00001212846FFF760FF012211462846FFF74D
:1030C00088FF01212846FFF767FF7FBD00400140D0
:1030D00010B501210020FFF763FE012803D1012173
:1030E0000020FFF769FE02210020FFF759FE0128AA
:1030F00003D102210020FFF75FFE04210020FFF72B
:103100004FFE012803D104210020FFF755FE0821BE
:103110000020FFF745FE012803D108210020FFF71A
:103120004BFE10210020FFF73BFE012803D11021A8
:103130000020FFF741FE20210020FFF731FE01288B
:1031400005D1FEF781F820210020FFF735FE402150
:103150000020FFF725FE012805D14021BDE81040E1
:103160000020FFF729BE10BD40F22771014800F092
:103170006AB80000001001402DE9F04188B01C46FB
:1031800090460D00064601D104B100240121102013
:10319000FEF70EFA01210846FEF7F2F94FF4C0607F
:1031A00005900220204F8DF8180005A93846FDF73C
:1031B000AFFF072209213846FDF7E6FF07220A2163
:1031C0003846FDF7E1FFADF808400C20ADF80A00E5
:1031D0000020164CADF80450ADF80C000096ADF888
:1031E00006806946204600F05DF825208DF8100025
:1031F00001218DF811108DF812108DF8131004A80C
:10320000FEF73EF840F2FF31204600F019F80122A7
:1032100040F22551204600F02DF80121204600F013
:1032200018F808B0BDE8F08100000240001001402D
:1032300040F22771014800F006B800000044004049
:10324000C943018070470A0A01219140C9430180A6
:1032500070470029818902D041F4005101E021F436
:103260000051818170470246002012880A4200D036
:103270000120704710B5C1F3421301F01F04012172
:10328000A140012B07D0022B07D01430002A02687E
:1032900005D00A4304E00C30F8E71030F6E78A4323
:1032A000026010BD7FB50446008A0D46C98820F42F
:1032B000405001432182A08941F20C618843A988D2
:1032C0002A8911436A8902431143A181A08A20F40B
:1032D0004071A8890843A0826846FEF781F91A4820
:1032E000844202D01948844201D1039800E0029838
:1032F000A189090400EBC00101EB0010296801D588
:10330000490000E08900B0FBF1F06422B0FBF2F16B
:1033100009010B096FF018056B4300EB8300A389CB
:103320001D044FF0320306D503EBC000B0FBF2F0F2
:1033300000F0070005E003EB0010B0FBF2F000F036
:103340000F00084320817FBD0010014000140140A0
:10335000C1F3080181807047FEE700000FB4054B00
:1033600010B503A9044A029800F0DAF810BC5DF821
:1033700014FB0000495200087800002002E008C851
:10338000121F08C1002AFAD170477047002001E0DF
:1033900001C1121F002AFBD1704700002DE9FF5F19
:1033A00082B00021DDE90430020DDDF840B00343B6
:1033B00018D044F61050A2F2FF324243151411986F
:1033C00001281FD0A5EB0B00401C5FEA000A4FF05C
:1033D00000064E4FDFF83891B046504615D5CAF179
:1033E000000413E0119801244AA3012801D16FEAD7
:1033F0000B010298119AC0E90031C0E9024206B0FF
:10340000BDE8F09FCBF10000DFE704460021404A11
:10341000491842EB0450CDE9001012E0E00707D054
:1034200032463B4640464946FCF7F7FF8046894610
:1034300032463B4610461946FCF7EFFF06460F465C
:103440006410002CEAD1DDE90401DDE90023BAF1C2
:10345000000F06DAFCF7E1FF42464B46FCF7DDFFC2
:1034600005E0FDF74CF842464B46FDF748F80446A8
:103470000E460022284BFDF79FF903D84FF0FF308E
:10348000014607E00022254B20463146FCF71EFF8F
:10349000FDF779F9102409E0002C0ADB0A22002349
:1034A000FDF7B2F8039B30321A55641E50EA010250
:1034B000F2D1641C039AC4F111031444119A012A35
:1034C00003D0012208430DD10AE0084304D00020B4
:1034D0004FF0110B119072E7A3EB0B056D1E0DE081
:1034E0005B4504DD4FF0000205F1010504E003DA5D
:1034F0004FF00002A5F10105002AECD002981199C5
:10350000C0E90231C0E9004579E70000000014403D
:103510000000F03F300000000000F0430000E03FFA
:103520002DE9FF4F95B09A46884606460025EEE104
:10353000252877D100242746F94A0121039400E089
:10354000044316F8013F203B01FA03F01042F7D183
:1035500030782A2811D06FF02F033078A0F1300294
:10356000092A16D8039A44F0020402EB820203EB04
:1035700042021044761C0390EFE758F8042B0392A4
:10358000002A03DA504244F40054039044F0020449
:10359000761C30782E2816D116F8010F44F004045A
:1035A0002A280DD06FF02F023078A0F13003092BBC
:1035B00009D807EB870302EB4303C718761CF3E730
:1035C00058F8047B761C30786C280FD006DC4C2829
:1035D00017D068280DD06A2814D104E0742810D0C0
:1035E0007A280FD10DE044F400140AE044F480146A
:1035F00001E044F440147278824202D104F5801450
:10360000761C761C307866280BD013DC582877D0CF
:1036100009DC002875D04528F6D04628F4D0472884
:103620001AD193E118E0632835D0642879D0652851
:1036300012D18BE1702873D008DC6728F1D069289B
:103640006FD06E280DD06F2806D1ACE073282CD037
:10365000752874D0782853D05246179990476D1C1E
:1036600054E1C4F30250022809D003280DD0D8F841
:10367000001004280DD00D6008F1040846E1D8F8C8
:103680000010EA17C1E90052F6E7D8F800100D80E3
:10369000F2E70D70F0E718F8041B8DF80010002019
:1036A0008DF80100EB46012003E058F804BB4FF011
:1036B000FF3061074FF0000102D40DE009F1010174
:1036C0008946B9420FDA8145F8DB1BF80910002959
:1036D000F4D108E009F1010189468142FADB1BF8C7
:1036E00009100029F6D103985346A0EB090721469B
:1036F0003846179A00F080FA284400EB090507E0E5
:1037000044E008E10DE01BF8010B52461799904781
:10371000B9F10109F7D2534621463846179AF2E02B
:1037200039E00A21C4F302524FF0000B0091022A43
:1037300006D058F8040BC117032A09D00AE023E089
:1037400008F1070020F00702F2E80201904605E0C8
:1037500000B2C117042A01D140B2C117002906DA0C
:103760000A460021404261EB02012D2202E02205BF
:1037700004D52B228DF80420012203E0E20701D0BA
:103780002022F7E7914657E00A2100E010214FF090
:10379000000B00910BE010214FF0000B44F00404EB
:1037A0000827009103E008204FF0000B0090C4F3BD
:1037B0000252022A05D058F8040B0021032A08D02F
:1037C00008E008F1070020F00702F2E80201904645
:1037D00003E080B2042A00D1C0B24FF000092207F2
:1037E0002AD53278702A07D0DDF800C08CF0100C92
:1037F0005CEA0B0C05D00EE040228DF8042001227B
:1038000008E050EA010306D030238DF804308DF82B
:10381000052002229146009B83F0080353EA0B0324
:103820000AD150EA010201D1620705D530228DF894
:1038300004204FF001097F1E3278582A04D039A2A3
:103840000C920CAA02920BE03BA2F9E75B46009AAD
:10385000FCF7DAFE0C9B9B5C029A521E02921370DC
:1038600050EA0102F2D1029804A9081A00F1200BD3
:10387000600702D524F4803400E001275F4502DDB3
:10388000A7EB0B0000E0002000EB0B010090039879
:103890004944401A0390E00306D453462146179A40
:1038A000039800F0A9F90544002706E001A8524654
:1038B000C05D179990476D1C7F1C4F45F6DBE003F8
:1038C0000CD553462146179A039800F095F9054404
:1038D00004E030205246179990476D1C0099481E0D
:1038E00000900029F5DC08E0029802995246007821
:1038F000491C0291179990476D1CBBF10001ABF177
:10390000010BF1DC5BE100F065F90544761C3078D1
:1039100000287FF40DAE19B02846BDE8F08F0000F6
:103920000928010030313233343536373839616295
:103930006364656600000000303132333435363759
:10394000383941424344454600000000600700D436
:10395000062708F1070020F00700F0E80223804660
:1039600003F0004C5FEA0C0001D097A009E02005AD
:1039700001D596A005E0E00701D095A001E0AFF2E7
:103980004C001390307823F0004365280CD006DCFF
:10399000452809D046281DD047287FD13BE066281E
:1039A00018D067287AD136E00021112F01DB1120D1
:1039B00000E0781CCDE9000104A90CA8FFF7EEFC9B
:1039C000DDE90D010C9A4FF0000B07F1010910928F
:1039D00000914EE04FF000400097CDE9011004A99E
:1039E0000CA8FFF7DBFCDDE90D020C9B0F994FF0F3
:1039F000000B91461093009211B9791C00EB01095C
:103A0000B7EB090003D4C0F1FF3B07F10109A9EBB3
:103A10000700019042E0012F00DA01270021112F59
:103A200001DD112000E03846CDE9000104A90CA811
:103A3000FFF7B4FCDDE90D010C9A00914FF0000B8B
:103A4000B946109221070FD4009A4A4503DA9146ED
:103A500001E0A9F10109B9F1010F05DD109AA9F101
:103A60000101515C3029F4D0B84202DA10F1040FA0
:103A700003DA0121CDE9011010E0002803DC8344C2
:103A8000A9EB000102E0411C494500DD8946A0EB9D
:103A90000B00401C01904FF000400290200705D41D
:103AA0000198484502DB4FF0FF30019000208DF86F
:103AB0004B0002980DF14B07B0F1004F25D00220CA
:103AC0000C902B200D90029800280CDA40420290B6
:103AD0002D200D9007E00A210298FCF77FFD303180
:103AE000029007F8011D0C99481E0C900029F2DC89
:103AF00002980028EFD1791E0D980870307800F0F8
:103B0000200040F0450007F8020D11A8C01BC01DA1
:103B100002901398007800B1012000EB0901019890
:103B200001EBE071029801440398401A401E039093
:103B3000E00306D453462146179A039800F05CF838
:103B400005441398007818B15246179990476D1C98
:103B5000E00323D553462146179A039800F04CF80A
:103B600005441BE0BBF1000F07DB0098584504DD5E
:103B70001098179910F80B0001E017993020524661
:103B8000904701980BF1010B401E05F101050190D2
:103B900004D12E205246179990476D1CB9F10001AF
:103BA000A9F10109DEDC05E017F8010B524617996F
:103BB00090476D1C0299481E02900029F4DC534680
:103BC0002146179A03989EE62D0000002B00000066
:103BD000200000002DE9F041044600251E4617464E
:103BE000880404D405E039462020B0476D1C641ECB
:103BF000F9D52846BDE8F0812DE9F04104460025BD
:103C00001E469046C80301D5302700E020278804CF
:103C100004D505E041463846B0476D1C641EF9D511
:103C20002846BDE8F081000010B504460020E07091
:103C3000401E2063204601F050FC08B1042010BD56
:103C400004F2322001F0F6FBA0F52A41553901D0EB
:103C5000032010BD94F83400E92803D0EB2801D0EC
:103C6000E8280FD1032208A104F16A0001F01AFC30
:103C70000028EED0052205A104F1860001F012FC17
:103C80000028E6D0022010BD46415400464154337E
:103C90003200000000E0401C02780AB18A42FAD1EA
:103CA000D0B270470368826A480A5989B0FBF1F0C4
:103CB000121D02CA19B1884203D3401AF8E7002046
:103CC00070471168084470478269891E921E8A42B3
:103CD00001D800207047C26A408900FB012070476C
:103CE0002DE9F05F8146884601F11A0001F0A2FB40
:103CF00088BB98F80000012700F03F00401E00EB51
:103D00008001DFF85CA001EBC00400254FF6FF7BCB
:103D10001AF8051001EB080001F08CFB06466FB1A4
:103D2000FF2C18D201F0E0F8074639F81400641CA3
:103D300001F0DAF887420ED1374601E05E450AD13C
:103D40006D1C0D2DE4D398F80000400606D52FB168
:103D500039F8140010B10020BDE8F09F0120FBE706
:103D6000E0590008002102E04008491CC9B20128BE
:103D7000FAD1084670472DE9F04105680F008046EA
:103D800006D001F0BFFA022809D20120BDE8F08177
:103D90002E6916B1A869B04207D8012605E0411C7A
:103DA000F4D0A9698142F1D83E4668690028EDD077
:103DB000BE4216D1A869741CA04200D80224214634
:103DC000404601F09FFA0128E0D0411CDED038B116
:103DD0002869022805D3A969814202D9064600E074
:103DE000A4B93446A869641CA04202D80224022E59
:103DF0000AD32146404601F085FA38B10128C5D0E2
:103E0000411CC3D0B442EDD10020BFE74FF0FF36D4
:103E100032462146284601F089FB30B957B1224687
:103E20003946284601F082FB20B101280FD0012439
:103E30002046ABE72C61D5E90501891E884201D8EF
:103E4000401E6861287940F001002871F0E734468F
:103E5000EEE700002DE9F34F81B00868009001986B
:103E60000E46002400684FF48037D0F80CA0684656
:103E700001F0A0FC411C39D0B84203D3020C2AF84F
:103E80001420641C85B2202D12D32F2D10D05C2D50
:103E90000ED0802D04D229466DA0FFF7FBFE28BB73
:103EA000FF2C23D22AF81450641CE0E7491C00912F
:103EB000009908782F28F9D05C28F7D03160202DA0
:103EC00001D204250AE0002508E00AEB440030F89E
:103ED000020C202801D02E2802D1641E002CF4D11F
:103EE00000212AF814100CB1002703E00620BDE8D9
:103EF000FE8F7F1C3AF817002028FAD01FB9BAF8B5
:103F000000002E2803D145F0030500E0641E2CB10B
:103F10000AEB440030F8020C2E28F7D101980B224E
:103F20002021203001F0D3FA4FF00009C8464FF0AD
:103F3000080B3AF817607F1C06B3202E03D02E2EF4
:103F400004D1A74202D045F00305F2E7D84501D2DB
:103F5000A74219D1BBF10B0F0ED0A74201D045F0FB
:103F600003050BD84FEA896027464FF008084FF049
:103F70000B0B4FEA1069DCE745F00305019890F858
:103F80002000E5283DD040E0802E09D345F0020511
:103F9000304600F0A9FF4FF46A7100F07DFF06463D
:103FA000FF2E0FD9ABF10100804503D345F0030587
:103FB000D846BEE70198320A404408F1010880F86B
:103FC000202017E026B1314624A0FFF763FE18B188
:103FD0005F2645F003050DE0A6F14100192801D840
:103FE00049F00209A6F16100192803D8203E49F0E2
:103FF0000109B6B20198404408F1010880F8206038
:1040000097E70198052180F82010BBF1080F03D134
:104010004FEA89604FEA1069C9F38100032803D091
:104020006FEA0900800701D145F00205A80709D40D
:104030005FEAC97001D045F010055FEA497001D50B
:1040400045F00805019880F82B5000204FE700004C
:10405000222A3A3C3E3F7C7F000000002B2C3B3D57
:104060005B5D0000812803D3FE2801D80120704742
:10407000002070472DE9F0410D4D002604462E60CA
:104080000B4F0121243F3846FEF786FF00204FF4F6
:104090007A7205E02E6029689142FCD3401C80B200
:1040A000A042F7D33846BDE8F0410021FEF774BFC7
:1040B0002444014070B5094C054600202060074E9D
:1040C0000121243E3046FEF767FF2068A842FCD35A
:1040D0003046BDE870400021FEF75EBF2444014039
:1040E0002DE9F0410C46054601F040FB00BB21469E
:1040F0002846FFF7E9FD0646286305F134004FF432
:1041000000720021044601F0E2F9A04601270024D4
:1041100000E03C446889A04207D9321968783B46E0
:10412000414600F048FA0028F3D06889A04202D046
:104130000120BDE8F0810020FBE72DE9F0470446AF
:104140000021D0F8009000F09BF9002854D1FF2501
:104150004FF0FF382F46C4F82C804846A16901F083
:10416000BCF9060047D1E169087850B1CA7AE52860
:1041700002F03F02A27135D0130704D50F2A31D1C6
:1041800005E0042637E00F2A01D0DDB11FE094F8E6
:104190002B20520629D4420605D54F7B00F0BF00E4
:1041A00022690546E262A84209D1487BB84206D19D
:1041B000D9F80C00FFF794FD08B16D1E00E0FF2553
:1041C000EDB212E0084601F080FAB84213D094F83C
:1041D0002B00C00706D10B2204F12001E06901F099
:1041E00061F940B1FF25C4F82C800021204600F081
:1041F00005F80600B1D03046BDE8F0872DE9F0475C
:1042000004460768066980698946203610B1B6F50C
:10421000001F02D30420BDE8F087F1053CD1401C0B
:10422000A06161694FF0000829B17889401E10EA49
:10423000562F05D030E03889B0EB561F1FD92BE040
:10424000204601F05FF8054601281DD9681C14D0EE
:10425000B869A8421AD8B9F1000F10D02046616998
:10426000FFF789FD05000DD0012D0DD0681C04D08D
:1042700029463846FFF734FF40B10120CBE7C4F8A8
:104280001880C7E70720C6E70220C4E7294638465A
:104290006561FFF719FDA061C6F3080038443430AA
:1042A0002661E0610020B6E72DE9F04F0446D0F822
:1042B00000A090F82B0087B010F0A00F03D00620CC
:1042C00007B0BDE8F08F0025DAF80C0000E06D1CA7
:1042D00030F815100029FAD104F120010C226846AB
:1042E000039101F0EBF89DF80B00C00719D04020B6
:1042F00084F82B00012633466946DAF80C2003982F
:1043000000F0B8FF2046FFF718FF10B9761C642EA6
:10431000F1D3642E0FD00428D2D19DF80B0084F87D
:104320002B009DF80B00800707D50D200C35B5FB41
:10433000F0F6761C02E00720C2E7012600212046A5
:10434000276800F09DF888B900253846A16901F07A
:10435000C4F858B9E1690978E5290AD049B10025BE
:1043600001212046FFF74AFF0028EED0042804D0A0
:1043700004E06D1CB54201D0F2E707205FEA0008B7
:104380007AD1761E5FEA060B5CD02169CBF1000082
:1043900001EB4011204600F073F85FEA00086BD192
:1043A000039801F092F905905046A16901F095F843
:1043B0005FEA000860D1DAF80C000490E66905981D
:1043C0000BF0FF0970730F20F0720020307301466C
:1043D00006F11A0001F075F9A9F1010000EB800166
:1043E00001EBC008002701E0854204D0049830F8B2
:1043F000185008F1010821482946C05D304401F0F9
:1044000060F90DB94FF6FF757F1C0D2F4FF6FF7049
:10441000EAD3854203D0049830F8180008B949F06F
:10442000400986F8009001208AF803000021204608
:10443000FFF7E4FE5FEA00081ED1ABF101005FEA7E
:10444000000BB1D15046A16901F047F85FEA0008BE
:1044500012D120220021E06901F039F80B22E06935
:10446000039901F02BF894F82B00E16900F0180093
:10447000087301208AF80300404621E7E05900084C
:104480002DE9F04107680D460646B1F5001F36D20A
:10449000E80634D13561B46824B93878032805D3E7
:1044A000BC6A1CB178894FEA402812E03889B0EB29
:1044B000551F24D9B86A12E0304600F023FF0446A5
:1044C000401C1AD0022C1AD3B869A04217D9A5EB08
:1044D000080545452146EFD23846FFF7F5FBC6E90A
:1044E000054060B100EB5520B061C5F308003844C9
:1044F0003430F0610020BDE8F0810120FBE70220AC
:10450000F9E710B550B1012802D0022804D105E026
:10451000FDF7DCFA002800D0012010BD084610BDD0
:1045200010B5030003D0012B02D0022807D110BD23
:10453000A1B1012909D002290DD0032910D01946B3
:1045400008A0FEF70BFF042010BD0A48D0E91110A7
:10455000B1FBF0F001E04FF400701060002010BDDE
:104560000120FAE74E6F2064657669636520256453
:104570002E0A0000E004002070B514460D4628B154
:10458000012805D002280AD0042070BD032070BD88
:10459000DAB221462846FDF709FE0028F7D00120AF
:1045A00070BD01004FF0000004D0012902D00229A3
:1045B00000D00120704770B514460D4670B1012837
:1045C00003D002280AD0042070BDDAB22146284662
:1045D000FEF722F90028F7D0012070BD032070BD3E
:1045E00038B5044600F055FB002807D1694620463F
:1045F00001F078F9002801D10021216038BD2DE9B2
:10460000FC5F0D460446694601F06CF95FEA00095B
:104610005CD194F811905FEA0900F9D1A66A4FF0D5
:10462000010A04F12C08002E63D0681C29D0E06830
:10463000A84200D205466561002D47D02046691E7C
:10464000FFF730FB0146A0610098FFF73DFB002813
:104650007BD000996D1E4A89521E02EA5522151818
:10466000A08AC005E9D0E269AA42E6D0207C000613
:1046700034D5487801234146FFF79DFF002873D1C8
:1046800028E056F804BBA1680227C9B10025BF1C69
:104690000191884620466D1C00F034FE0146012839
:1046A00053D9481C60D008F101008142F1D05F4528
:1046B00002D820C6019801C6009880698842E5D8D2
:1046C000A06A5F45076002D80020306094E04FF098
:1046D000110991E0207C00F07F00207400980123F4
:1046E0002A4640784146FFF747FF00287FD1E56121
:1046F00082E0E068A84203D2217C890700D4054605
:10470000002760696761FDB1009949894E0268B16F
:10471000691E401EB1FBF6F1B0FBF6F2914205D3E3
:10472000711E884360612D1AA1690CE0A16849B926
:1047300000212046FFF71FFB0146012847D0481CF7
:1047400055D0A160A161E1B928E040E06069AD1BEE
:1047500030446061207C8007204606D5FFF70BFBC4
:10476000010005D100250EE041E000F0CBFD01463F
:10477000481C3CD001292AD900988069884226D952
:10478000A161B542E2D8606928446061E80505D0BE
:104790000098FFF799FAD0B100EB5527E1686069FE
:1047A000884204D9E060217C41F040012174C005B9
:1047B00022D0E269BA421FD0207C00060FD50098B3
:1047C000012341464078FFF7F6FE80B903E002205E
:1047D0006074BDE8FC9F207C00F07F00207400988E
:1047E00001233A4640784146FFF7C6FE18B184F8E7
:1047F00011A00120EDE7E7614846EAE72DE9F14322
:104800008EB002220DA90EA800F0B2FB040061D107
:104810000D98009068460E9900F0DAFC040002D072
:10482000042C02D056E0082454E000216846FFF72B
:10483000A2FA05000D984FF0000441894FEA41218A
:10484000039102D0012D02D002E0072400E00224EF
:10485000691C01D014B104E0012402E000F086FFDD
:1048600004464FF0000984BB29460D98FFF738FC39
:1048700004002AD10D9C0B2234342021204600F064
:1048800026FE2E2727701026E672494604F11600F0
:1048900000F00FFF2A4621460D9800F0F6FE04F1C5
:1048A000200020222146804600F008FE84F8217076
:1048B0004146029A0D9800F0E8FE0D980127C77056
:1048C0006846FFF7F1FC040008D00022294668463C
:1048D00000F0A1FE0FB02046BDE8F083079C4946DA
:1048E00004F1160000F0E5FE2A4621460D9800F07E
:1048F000CCFEE6720D98C77000F0F4FE0446E9E7BE
:1049000017B581B0144602980090684600F059FD32
:10491000002802DA0B2004B010BD0A4B002253F825
:10492000201001B10A70019901B10A7043F82010FA
:104930002CB1002201A902A800F01AFBEBE700202D
:10494000E9E700006C0D00202DE9F74390B0050069
:104950000BD002F03F06324601A911A800F008FB77
:1049600004004FF0000804D0B9E0092013B0BDE8FE
:10497000F0830198029002A8119900F029FC04002C
:1049800004D19DF83300000600D5062416F01C0F54
:1049900046D04CB1042C03D102A8FFF785FC044695
:1049A00046F008065CB19AE09DF80E0010F0110F79
:1049B00001D0072493E0700701D508248FE0300769
:1049C0003DD50999019800F017FD07460998002187
:1049D0000E3000F06EFE099920200022C87209995D
:1049E000019800F052FE099800211C3000F061FE91
:1049F00001980121C17007B3D0F8309000223946E8
:104A000002A800F008FE040069D14946019800F0B0
:104A100064FD04000198A7F1010707610BD05EE077
:104A2000DCBB9DF80E00C10601D5042457E0B10798
:104A300001D5C007BDD1300701D546F04006019829
:104A4000016B296209996962099900F0D5FCA86097
:104A500009981C3000F0E3FCC5F82880E860019953
:104A60002960019905F12C004FF40072C988A980D2
:104A70002E7485F81180C5F81C8000218146C5F888
:104A8000148000F024FDB0062BD5EE684EB36E61A5
:104A90000198A968408947020CE020E0284600F010
:104AA00031FC0146012800D80224481C00D1012411
:104AB000F61B0CB9BE42F1D8A96184B9F00510D03B
:104AC0000198FFF701F970B100EB5622EA610198F5
:104AD000012349464078FFF74FFD10B10124C5F886
:104AE0000080204642E70224F9E713B582B00400B3
:104AF00006D00022694603A800F03AFA18B120E077
:104B0000092004B010BD009820602046039900F0F1
:104B10005FFB90B994F82B00000607D4A079C0067B
:104B200012D5E169009800F067FCA06000980021B0
:104B3000C088A0802046FFF7A3FC042804D00028EA
:104B4000DFD000212160DCE70520FAE72DE9FC5FDA
:104B50008946002119609A4616460446694600F0C7
:104B6000C1FE002812D1607C00280FD1207CC00734
:104B70000BD06169E0684FF0010B401A04F12C0181
:104B80000191864200D906467FE00720BDE8FC9FE0
:104B90006169C80561D100984089401E10EA51251D
:104BA00011D129B1A06A28B12046FFF77BF805E0B2
:104BB000A06803E02046A16900F0A4FB022819D3F5
:104BC000411C44D0A061A1690098FFF77DF888B12D
:104BD00000EB0508770A21D00098EA1941898A423A
:104BE00000D94F1B40783B4642464946FFF7C4FC7C
:104BF00068BB02E002206074C8E7207C00060BD589
:104C0000E169A1EB0800B84206D209EB40204FF45D
:104C10000072019900F052FC7D022CE0E2694245ED
:104C200019D0207C00060AD500980123019940780C
:104C3000FFF7C1FC58B9207C00F07F002074009879
:104C40000123424640780199FFF796FC18B184F899
:104C500011B001209AE7C4F81C80A08AC0F30800B4
:104C6000C0F50075B54200D9354601192A464846B7
:104C70002C3100F023FCDAF80000761B4119CAF849
:104C800000106069A94428446061002E80D1002092
:104C90007CE7F8B50446694600F024FE00280ED1F2
:104CA000217C4A060BD508060ED50098E26901233F
:104CB000407804F12C01FFF77EFC08B10120F8BD1B
:104CC000207C00F07F0020740026216A009800F00C
:104CD00004FC0028F3D1656A2946E87A40F02000F8
:104CE000E872A268206800F0D0FC05F11C00E168C1
:104CF00000F0DFFC314605F1160000F0DAFC00217F
:104D000005F1120000F0DDFC00980121C17000F0F7
:104D1000E9FC217C01F0BF012174F8BD2DE9FC5FA5
:104D20008946002119609A4616460446694600F0F5
:104D3000D9FD002806D1607C002803D1207C8007A3
:104D400002D40720BDE8FC9F606904F12C018219A0
:104D50004FF0010B0191824200D2C64393E061699A
:104D6000C8056FD100984089401E10EA512518D11E
:104D700029B1A06A38B12046FEF794FF07E0A06889
:104D800038B9002100E0A1692046FEF7F4FF0028B1
:104D90007CD001282BD0411C4ED0A061A16801B964
:104DA000A060207C00060BD50098E26901234078C2
:104DB0000199FFF700FC78BB207C00F07F00207495
:104DC000A1690098FEF780FF88B100EB0508770A1B
:104DD00023D00098EA1941898A4200D94F1B4078B4
:104DE0003B4642464946FFF7E6FBA8B902E00220EF
:104DF0006074A7E7E169A1EB0800B8420AD209EBA9
:104E000040214FF40072019800F058FB207C00F024
:104E10007F0020747D0227E00EE0E16941450FD05C
:104E2000E168606988420BD20098012342464078CD
:104E30000199FFF7A1FB18B184F811B0012081E7B7
:104E4000C4F81C80A08AC0F30800C0F50075B54204
:104E500000D9354620442A4649462C3000F02EFB26
:104E6000207C40F080002074DAF80000761B4119A5
:104E7000CAF800106069A94428446061E16888426A
:104E800000D80846E060002E7FF469AF207C40F037
:104E900040002074002055E7F0B50024802801D29E
:104EA00084B21DE0B0F5803F1AD2B1F56A7F17D108
:104EB0000C4D002286B245F220531021981A02EBC5
:104EC000500035F82070B74206D001D2024600E00B
:104ED0000346491EF2D103E011B105EB800044887E
:104EE0002046F0BD0A5A000830B5B0F5803F20D208
:104EF00080B2B0F5805F01D21B4900E01B4931F858
:104F0000022B002A15D0904213D331F8023B1C0A21
:104F1000DDB252FA83F3834221D9092C09D2DFE8AA
:104F200004F005090E10121416181A00801A31F830
:104F3000100030BD811A01F00101401A0DE0103857
:104F40000BE0203809E0303807E01A3805E0083077
:104F500003E0503801E0A0F5E35080B230BD002CF2
:104F6000CDD101EB4501CAE712030308040503088C
:104F70002DE9FF41002790460E460F6000F021FA10
:104F8000050003D50B2004B0BDE8F0818B4850F834
:104F900025409CB13460207808F0FE0620B160788E
:104FA000FFF7FFFAC1070BD02770E8B2B846607070
:104FB000FFF7A7FAC10708D00320E4E70C20E2E7D7
:104FC0000EB1400704D40020DDE71EB1400701D533
:104FD0000A20D8E7002631462046FEF725FE0228A3
:104FE00021D100256F4604EB051090F8F61100F56D
:104FF000F97019B1083000F012FA00E0002047F80B
:1050000025006D1C042DEED3002557F8256026B130
:1050100031462046FEF708FE00E00320022802D3B6
:105020006D1C042DF1D3042809D0022872D204F19A
:105030003F0000F0FFF9B0F5007F6BD101E00120E7
:10504000A1E704F14A0000F0F5F918B904F158009D
:1050500000F0E5F9E06194F84470A770012F01D0E9
:10506000022F57D1474394F841006081B0B3411EED
:1050700008424FD104F1450000F0DCF9208100071F
:1050800048D104F1470000F0D5F9050004D104F13E
:10509000540000F0C4F9054604F1420000F0CAF9DA
:1050A000010037D02389C81900EB1312954231D380
:1050B000A81A6589B0FBF5F080B1DFF804C10025BE
:1050C000604500D803254FF6F57C604500D80225E1
:1050D00040F6F57C604502D8012501E01AE0CDB12B
:1050E000801C3244E2623144A061C4E90861032DAE
:1050F00012D07BB13944A162022D1ED000F0010113
:1051000000EB400001EB5000E16900F2FF10B1EB51
:10511000502F14D20D2036E704F15E0000F08AF91A
:105120000028F7D120890028F4D104F1600000F0B4
:1051300076F9A062A0698000E6E74000E4E74FF05E
:10514000FF306061206180202071032D2CD104F19B
:10515000640000F06FF9012826D1711C204600F090
:10516000BCF908BB84F8048004F2322000F062F934
:10517000A0F52A41553917D104F1340000F04FF958
:105180001049884210D104F5067000F048F90E4924
:10519000884209D104F5077000F041F9606104F517
:1051A000087000F03CF92061084925700888401C0F
:1051B0000880E08001481430E06004E76C0D0020B6
:1051C000F5FFFF0F5252614172724161740000207D
:1051D00073B504460568019801E0401C0190017810
:1051E0002F29FAD05C29F8D00020A060019800781F
:1051F000202807D2802084F82B0000212046FFF7CA
:105200003FF97CBD01A92046FEF724FE0028F8D115
:105210002046FEF792FF94F82B1028B10428F0D115
:105220004907EED405207CBD4907FCD4A079C0060F
:10523000F8D5208AC0F3080041192846343100F01F
:10524000DBF8A060DEE7000070B5094C05464021A0
:105250002046FEF708F80028F9D0E9B22046FEF70C
:1052600077F840212046FDF7EBFF284670BD00008F
:10527000001001402DE9FC4115461C4606460B2254
:1052800000F01CF9052C11D91D4A0CE00021AD1CC1
:105290002346044663F35F044008E30300D554400B
:1052A000491C1029F4D328880028EFD10725694626
:1052B00004F00F003030392800D9C01D48556D1E4C
:1052C0002409F5D17E2288464A556F1E06E0FEF776
:1052D000C9FE10B1BC4206D0641C641CAC4202D2B0
:1052E000305D2028F3D14146082D02D2485D6D1C67
:1052F00000E020203055641C082CF5D3BDE8FC816B
:10530000211001002DE9F04104680D4602290BD35C
:10531000A069A84208D920784FF0FF36012807D0AD
:1053200002282BD0032839D001263046BDE8F08171
:10533000606A05EB550700EB5721204600F0CDF8D9
:105340000028F2D1C7F3080020447F1C90F8348075
:10535000606A00EB5721204600F0BFF80028E4D136
:10536000C7F30800204490F8341048EA0120E90708
:1053700001D00609D9E7C0F30B06D6E7606A00EB57
:105380001521204600F0A9F80028CED1E8B204EBA0
:105390004000343000F04EF80646C6E7606A00EB85
:1053A000D511204600F099F80028BED140F2FF1038
:1053B00000EA85002044343000F031F820F07046D7
:1053C000B3E710B504464FF0FF302368190010D042
:1053D00011F8012B202A0DD33A2AF9D11A78303A44
:1053E000092A06D89B1C8B4203D1052A01DA1046F4
:1053F000216010BD002010BD70B506460D4601F1BC
:105400001A0000F017F804463078032805D105F19A
:10541000140000F00FF844EA0044204670BDC17843
:10542000827842EA01214278007842EA012140EA8A
:10543000012070474178007840EA01207047000061
:105440001CB501210220FCF79BF84FF4007000907E
:1054500001208DF8040002218DF8051000218DF83F
:1054600006108DF8070069460148FBF751FE1CBD88
:10547000000402404FF4A060FBF734FF00231A46FB
:1054800019464FF4E130FDF777FEFBF73BFCFFF7E1
:10549000D7FFFBF73FFFFDF7E9FDFDF715F8FDF737
:1054A00017FEFCE710B510F8013B11F8014B1B1B70
:1054B000521E01D0002BF6D0184610BD002A05D090
:1054C00011F8013B00F8013B521EF9D17047C9B2F7
:1054D00000F8011B521EFBD1704770B50446006BEB
:1054E0000E460025B0420FD0204600F03FF90500DF
:1054F0000AD160780123324604F13401FFF73CF809
:1055000008B16E1E01252663284670BD0648416B12
:10551000096829B1416BC968C968496881627047E7
:105520004FF0FF31FAE70000380000202DE9F04786
:10553000022617460D460446022969D3A069A842EF
:1055400066D920784FF00109012804D0022836D00E
:1055500003285DD143E0616A05EB550801EB582152
:105560002046FFF7BAFF060052D1C8F308002044D6
:10557000343008F10108E90704D00178FAB262F387
:105580001F1100E03946017084F80390616A2046DB
:1055900001EB5821FFF7A1FF060039D1C8F308003D
:1055A00020443430E90702D0C7F3071105E0017841
:1055B000C7F3032201F0F0011143017026E0606A95
:1055C00000EB15212046FFF788FF060020D1E8B246
:1055D00004EB4000B9B2343000F073F816E0606AB2
:1055E00000EBD5112046FFF778FF060010D140F2FE
:1055F000FF1000EA8500204434300546FFF70FFF16
:1056000067F31B000146284600F053F884F8039026
:105610003046BDE8F0872DE9F041046813460E4698
:10562000074602292DD3A069B0422AD93BB14FF0D9
:10563000FF3219462046FFF779FF00281FD1314677
:105640003846FFF75FFE050018D0012D19D0681C01
:1056500019D0002231462046FFF768FF00280ED1FE
:10566000D4E90510821E914205D2491C616121795D
:1056700041F0010121712E46B042E0D80020BDE882
:10568000F0810220FBE70120F9E770B50C460646E1
:10569000154691B204F11A0000F013F8307803288F
:1056A00006D1290C04F11400BDE8704000F009B8DF
:1056B00070BD0170090A4170090A8170090AC17040
:1056C00070470170090A41707047014600200B22A3
:1056D000430803EBC01011F8013B521E1844C0B23E
:1056E000F6D1704770B5044600F040F8050036D199
:1056F000207803282CD12079012829D1420204F1F5
:10570000340000210646FFF7E2FE4AF6552104F276
:105710003220FFF7D6FF13493046FFF7CAFF124980
:1057200004F50670FFF7C5FF04F507706169FFF720
:10573000C0FF04F508702169FFF7BBFF226A01234F
:10574000521C226360783146FEF735FF002020713D
:10575000002260781146FEF7E3FE00B101252846DD
:1057600070BD0000525261417272416170B50446D1
:10577000C078002548B104F13401607801230E4659
:10578000226BFEF718FF10B10125284670BD0020DE
:10579000E070616A206B421AE1698A42F5D2A27810
:1057A000022AF2D14218607801233146FEF703FF46
:1057B000EBE70000F0B50168054611F8010B0206A1
:1057C0003BD542094FF0FF34062A06D002090E2AC3
:1057D00007D0C2081E2A08D020E000F01F000122D6
:1057E00006E000F00F00022202E000F007000322B2
:1057F000022611F8013BB6EB931F0FD1074618465E
:1058000067F39F10521EF4D1802807D3A0F55842A9
:10581000B2F5006F02D3B0F5881F01D32046F0BD6A
:10582000B0F5803F09D38201054BA2F580021A40F2
:10583000C0F309000243034810432960F0BD000093
:105840000000FF0300DC00D8D0E9013201699A6052
:10585000D0E901235A604A68824201D182684A60D5
:10586000002202610868401E0860086870474268AC
:105870004A6093688B609368596091600861016821
:10588000491C016070470000144A106B10B10120E0
:10589000D06170470020D06110691149B0FA80F0E2
:1058A000C0F11F0000EB800051F820306BB101EB1C
:1058B000800000F10803416849684160994201D1C4
:1058C00049684160C86810607047502080F31188B3
:1058D000BFF34F8FBFF36F8FFEE70000380000204B
:1058E000DC0B002070B50E4604004FF009050CD00B
:1058F000206850B1017841B1A188C288914204D199
:105900004078FEF74EFEC00703D0002030602846E6
:1059100070BD00252068F9E72DE9F0412E4F0026E3
:10592000386B40B1B869401CB861F86900B1012614
:105930003046BDE8F081FD686D1CFD6013D1786BC9
:10594000006838B1502080F31188BFF34F8FBFF348
:105950006F8FFEE7786BB96B7963B863386A401C68
:105960003862FFF7D3FDB86ADFF87080854209D34B
:10597000786B006880B1786BC068C46860688542E5
:105980000DD2B8623868C06A00EB800158F8210077
:105990000128CAD90126C8E74FF0FF30F1E7201DE2
:1059A000FFF752FFA06A18B104F11800FFF74CFF8F
:1059B000E06A01213A6981401143396100EB8001BD
:1059C00008EB8100211DFFF752FFE06A3968C96AC0
:1059D0008842CDD30126CBE738000020DC0B002025
:1059E00001030507090E10121416181C1E000100F1
:1059F000040010004000000100020000010002004D
:105A000004000800100020000000A400E8A1A70086
:105A1000ECA1A800A7A1B000E3A1B100C0A1B7000C
:105A2000A4A1D700C1A1E000A4A8E100A2A8E800B9
:105A3000A8A8E900A6A8EA00BAA8EC00ACA8ED0066
:105A4000AAA8F200B0A8F300AEA8F700C2A1F9001E
:105A5000B4A8FA00B2A8FC00B9A80101A1A81301DA
:105A6000A5A81B01A7A82B01A9A84401BDA848010E
:105A7000BEA84D01ADA86B01B1A8CE01A3A8D0016D
:105A8000ABA8D201AFA8D401B3A8D601B5A8D8015C
:105A9000B6A8DA01B7A8DC01B8A85102BBA8610218
:105AA000C0A8C702A6A1C902A5A1CA0240A8CB02EC
:105AB00041A8D90242A89103A1A69203A2A69303EA
:105AC000A3A69403A4A69503A5A69603A6A697034A
:105AD000A7A69803A8A69903A9A69A03AAA69B031A
