:020000040800F2
:10000000602E0020610200081B150008350F000853
:1000100017150008570A0008852100080000000095
:10002000000000000000000000000000A101000826
:10003000690C000800000000FD010008F91E00081E
:100040007B0200087B0200087B0200087B0200089C
:100050007B0200087B0200086D0C00087B02000890
:10006000AD0C0008610D00087B0200087B0200084F
:100070007B0200087B0200087B020008ED0A0008F2
:100080007B0200087B0200087B0200087B0200085C
:100090007B0200087B0200087B0200087B0200084C
:1000A0007B0200087B0200087B0200087B0200083C
:1000B0007B0200087B0200087B0200087B0200082C
:1000C0007B0200087B0200087B0200087B0200081C
:1000D000951C00087B0200087B0200087B020008D8
:1000E0007B0200087B0200087B0200087B020008FC
:1000F0007B0200087B0200087B0200087B020008EC
:100100007B0200080D1B00087B0200087B02000830
:100110007B0200087B020008951F00087B02000894
:100120007B0200087B0200087B0200087B020008BB
:100130007B0200087B0200087B0200087B020008AB
:100140007B0200087B0200087B0200087B0200089B
:100150003D0B0008610B00087B0200087B020008D1
:100160007B0200087B0200087B0200087B0200087B
:100170007B0200087B0200087B0200087B0200086B
:100180007B0200087B020008DFF810D000F026FC9C
:1001900000480047FD480008AFF30080602E0020B3
:1001A0002C4B19680868B0E8F04F80F30988BFF35A
:1001B0006F8F4FF0000080F311887047000000003F
:1001C00008480068006880F308884FF0000080F35A
:1001D000148862B661B6BFF34F8FBFF36F8F00DF35
:1001E00000BF00BF08ED00E0DFF80C00016841F43B
:1001F00070010160704700BF88ED00E0EFF30980F7
:10020000BFF36F8F134B1A681EF0100F08BF20ED5D
:10021000108A20E9F04F106009B44FF0500080F3CD
:100220001188BFF34F8FBFF36F8F05F003FD4FF0C1
:10023000000080F3118809BC19680868B0E8F04F25
:100240001EF0100F08BFB0EC108A80F30988BFF3CE
:100250006F8F70478C050020EFF30580704700001A
:100260000648804706480047FEE7FEE7FEE7FEE750
:10027000FEE7FEE7FEE7FEE7FEE7FEE72D1F0008CC
:10028000890100082DE9F0410024061B254671F183
:10029000000605DA01240027D0EB070067EB010117
:1002A000161E73F1000605DA0027D2EB07020125BE
:1002B00067EB030300F003FA86460E4617469C469A
:1002C000AC4204D00025D0EB050E65EB010624B14D
:1002D0000020D2EB000760EB030C704631463A4633
:1002E0006346BDE8F081D2B201E000F8012B491E5F
:1002F000FBD270470022F6E710B513460A460446C3
:100300001946FFF7F0FF204610BD30B50446002027
:10031000034600E05B1C934203D2E05CCD5C401BD3
:10032000F8D030BD2DE9FE4F804681EA0300C00FB2
:100330000C46009021F0004123F00045B8EB02008C
:10034000A94105D24046214690461C460B4602462E
:1003500023F00040104347D0270DC7F30A00C3F332
:100360000A510290401A019040286BDAC3F313003F
:1003700040F4801B0098924620B10023D2EB030A80
:1003800063EB0B0B01985946C0F14002504600F058
:10039000C7F906460D4650465946019A00F0DFF966
:1003A00010EB08006141002487EA115284EAE773E8
:1003B0001A4340D0009A62B3019A012A4FEA0752C9
:1003C00015DC001B61EB02014FF0004202EA07520C
:1003D000CDE90042001C41F5801132462B4600F069
:1003E00016FA03B0BDE8F08F40462146F9E7001B3E
:1003F00061EB0201001C41F5801300185B412018DD
:10040000A2F5001747EB030140EAD570B6196D411C
:1004100011E06D084FEA360645EAC0754FEA07520B
:10042000001B61EB0201001C41F5801149084FEAF5
:1004300030000019514132462B4603B0BDE8F04F61
:1004400000F0D6B90098012240000023D0EB020250
:1004500063EBE073009821464FEAE074B8EB0000CC
:1004600061EB0401E9E783F000435BE781F00041C1
:1004700058E72DE9FE4F81EA030404F0004421F01F
:10048000004100944FF0000B23F0004350EA0104B8
:100490005ED052EA03045BD0C3F30A54C1F30A5599
:1004A0002C44A4F2F3340194A0FB0254C1F31301D1
:1004B00041F48011C3F3130343F4801301FB02449E
:1004C00000FB034E840A970A44EA815447EA8357A3
:1004D000A4FB076802958D0A05FB07854FEA932C5C
:1004E00004FB0C542705029D4FEA065847EA1637CD
:1004F000B5EB08056EEB070C870E920E47EA8117E5
:1005000042EA8312A7FB0201B6EB0B0164EB000485
:100510002B0D43EA0C335E1844EB1C50DA4651466F
:10052000E7FB0201C5F313044FEA0B3343EA14530C
:100530004FEA0432019C43EA0603A4F10C0402943E
:10054000009CCDE900B400F062F903B0BDE8F08F83
:1005500000200146F9E72DE9F04D81EA030404F09B
:10056000004B21F0004514464FF0000A23F00041F3
:1005700050EA050220D054EA01021DD0C5F30A5703
:100580000246C5F31303C1F31300C1F30A5640F446
:10059000801543F48013A7EB0608101BD64608F21B
:1005A000FD3873EB050002D308F1010801E0921851
:1005B0005B41B8F1000F03DA00200146BDE8F08D81
:1005C00000204FF48011064684460EE0171B73EBA3
:1005D000050705D3121B63EB050306434CEA010C28
:1005E00049084FEA300092185B4150EA0107EDD10B
:1005F00052EA030012D082EA040083EA05010843AC
:1006000005D0101BAB4106D20122002306E00022D8
:100610004FF0004302E06FF0010253101AEB0600A6
:100620004CEB085110EB0A0041EB0B01BDE8F04D1B
:1006300000F0DEB800F0004230F000400AD0C10DFA
:1006400001F56071C0F3160042EA0151C20840078B
:100650001143704700200146704701F0004330B459
:1006600021F0004150EA010206D00A0DA2F56072A5
:10067000C1F31301002A02DC30BC00207047440F94
:1006800044EAC104C100E01830BC00EBC25000F0E5
:1006900078B830B50B46014600202022012409E03D
:1006A00021FA02F59D4205D303FA02F5491B04FA2B
:1006B00002F52844151EA2F10102F1DC30BD2DE93E
:1006C000F05F0546002092469B46884606468146D6
:1006D00040241BE0284641464746224600F02FF8BA
:1006E00053465A46C01A914110D311461846224625
:1006F00000F016F82D1A67EB01084F46224601203C
:10070000002100F00DF817EB00094E41201EA4F166
:100710000104DFDC484631462A464346BDE8F09FE7
:10072000202A04DB203A00FA02F1002070479140B1
:10073000C2F1200320FA03F3194390407047202AA6
:1007400004DB203A21FA02F00021704721FA02F37B
:10075000D040C2F120029140084319467047202A38
:1007600006DBCB17203A41FA02F043EAE07306E0D9
:1007700041FA02F3D040C2F12002914008431946E9
:1007800070470029A8BF7047401C490008BF20F0EF
:100790000100704710B4B0FA80FC00FA0CF050EA87
:1007A000010404BF10BC704749B1CCF1200421FA08
:1007B00004F411FA0CF118BF012121430843A3EB03
:1007C0000C01CB1D4FEA00614FEA102042BF002010
:1007D00010BC704700EBC35010440029A4BF10BCEC
:1007E0007047401C490008BF20F0010010BC704752
:1007F00010B5141E73F1000408DA401C41F1000129
:1008000092185B411A4301D120F0010010BD2DE97F
:10081000F04D92469B4611B1B1FA81F202E0B0FA76
:1008200080F220329046FFF77BFF04460F4640EAF5
:100830000A0041EA0B0153465A46084313D01146B9
:1008400053EA010019D0C8F140025046FFF777FF84
:1008500005460E46504659464246FFF761FF08439B
:1008600005D0012004E020463946BDE8F08D002087
:10087000054346EAE0762C4337430A986305E40AC9
:10088000A0EB08000022FD0A44EA47540A3002D5D2
:1008900000200146E9E7010510196941DDE9084535
:1008A00000196941BDE8F04DA2E72DE9F04D0023A4
:1008B0001A461B1A8A4103DB00200146BDE8F08D71
:1008C000C1F30A52C1F3130141F480154FF0000B3C
:1008D000D10702D100186D41521E0027044640F294
:1008E000FF11384601EB620A3E4680460246002070
:1008F0004FF48011FFF723FFC2197141BB1846EB7B
:100900000100B4EB030C75EB000C04D3E41A65EBA7
:10091000000517460E46241908F101006D41804676
:100920003428E3DDF91946EB0600091BA84103D280
:100930004FF0FF32134601E0002213461BEB070085
:1009400046EB0A51BDE8F04DFFF752BFC1F30A5222
:10095000C1F3130140F2FF3341F480119A4202DAED
:1009600000200146704740F233439A42A2F23342DC
:1009700002DC5242FFF7E3BEFFF7D2BE30B5041EE1
:1009800071F1000404DB4FF00044404264EB0101CC
:10099000141E73F1000405DB1C464FF00043524265
:1009A00063EB04038B4208BF824230BD30B5041EA6
:1009B00071F1000404DB4FF00044404264EB01019C
:1009C000141E73F1000405DB1C464FF00043524235
:1009D00063EB0403994208BF904230BD064C074DBB
:1009E00006E0E06840F0010394E8070098471034FF
:1009F000AC42F6D3FFF7CCFB906B0008B06B00085D
:100A000070B58C1810F8015B15F0070301D110F8D0
:100A1000013B2A1106D110F8012B03E010F8016BFD
:100A200001F8016B5B1EF9D12B0705D40023521E80
:100A30000DD401F8013BFAE710F8013BCB1A921CE8
:100A400003E013F8015B01F8015B521EF9D5A142E6
:100A5000D8D3002070BD00BFFEE7000070B504468B
:100A600005E01648056805F0450000B100E0F8E72C
:100A700000BF042001F03EF820B1042001F034F85A
:100A8000032070BD012001F035F820B1012001F0F4
:100A90002BF80120F5E7094824380068A04201D06E
:100AA0001020EEE740F2FF5001F01EF80348203816
:100AB000006808210840C0B2E3E70000342C014080
:100AC00010B50849084800F05BF80021064800F01E
:100AD0008BF88021044800F0C5F80121024800F09D
:100AE00083F810BD200000207060024010B5064958
:100AF000064800F085F828B10349044800F05AF888
:100B000000F006F810BD0000208000207060024058
:100B100010B50849084800F033F80021064800F0F5
:100B200063F88021044800F09DF80121024800F09C
:100B30005BF810BD000800208864024010B506492B
:100B4000064800F05DF828B10349044800F032F887
:100B5000FFF7B6FF10BD0000008800208864024047
:100B600010B50549054800F04BF818B10249034893
:100B700000F020F810BD000000802020A06402409A
:100B80000246094B9A4201D2084801E00648103853
:100B900001F000531BB1064B0B40C36002E0044B55
:100BA0000B40836070470000106402400060024008
:100BB0007D0F7D0F0246094B9A4201D2084801E0A1
:100BC0000648103801F000531BB1064B0B40C360C0
:100BD00002E0044B0B408360704700001064024049
:100BE000006002407D0F7D0F21B1026842F00102DA
:100BF000026003E0026822F0010202607047000018
:100C000070B50246002000240025124EB24201D2E7
:100C1000114B01E00F4B103B104E0E4036B11E261B
:100C200006EAD124166806EA040502E0566906F0D1
:100C3000800501F000560EB15C6800E01C68084EAB
:100C4000344004EA010616B10DB1012000E0002095
:100C500070BD000010640240006002403C0F3C0F79
:100C60007D0F7D0F416070477047000010B5C820B0
:100C700002F074FC012000F0D9F801280ED14102E5
:100C8000084800F055F908480078401C06490870EB
:100C900008460078042801DD00200870012000F0DB
:100CA000BFF810BD000402406605002010B5C82042
:100CB00002F054FC042000F0B9F801283FD14102B1
:100CC000214800F033F921480078012806D0022895
:100CD00010D003281AD0042830D123E01C48007813
:100CE000401C1B49087008460078632801D1002089
:100CF000087023E017480078401C16490870084621
:100D00000078632801D10020087017E012480078AD
:100D1000401C1149087008460078632801D1002062
:100D200008700BE00D480078401C0C49087008461C
:100D30000078632801D10020087000BF00BF0420A4
:100D400000F06EF810BD00000004024066050020AF
:100D500068050020690500206A0500206B05002059
:100D600010B5C82002F0FAFB082000F05FF8012857
:100D700044D14102234800F0D9F8234800780628DE
:100D80003BD2DFE800F03A030E19242F1F48007809
:100D9000401E1E4908700846007808B96320087094
:100DA0002BE01B480078401E19490870084600785F
:100DB00008B96320087020E016480078401E1549E5
:100DC00008700846007808B96320087015E01248DA
:100DD0000078401E104908700846007808B9632062
:100DE00008700AE00D480078401E0C49087008465B
:100DF000007808B91E20087000BF00BF082000F06E
:100E00000FF810BD000402406605002068050020B0
:100E1000690500206A0500206B0500206705002099
:100E20000149086070470000143C01400146002061
:100E3000034A12680A400AB1012000E0002070470E
:100E4000143C0140F0B50A4600210023002400BFF5
:100E50003DE0012505FA01F3156805EA03049C420B
:100E600034D105684F000326BE40B54305601579AF
:100E70004E00B5400668354305601579012D02D056
:100E80001579022D16D185684F000326BE40B54363
:100E9000856055794E00B540866835438560456864
:100EA00001268E40B5434560456896798E40B6B2BE
:100EB00035434560C5684F000326BE40B543C56055
:100EC000D5794E00B540C6683543C560491C102928
:100ED000BFD3F0BDF0B5002300244D07ED0E02FA9C
:100EE00005F3CE1000F1200555F826504E07F70EF9
:100EF0000F26BE40B543CF1000F1200646F827501C
:100F0000CE1000F1200555F8265045EA0304CE1016
:100F100000F1200545F82640F0BD02460020136987
:100F20000B400BB1012000E0002070474183704767
:100F30000183704700BFFEE770B50024002500F074
:100F400019FD80211648FFF7F3FF022002F022FB73
:100F500000BF19E06006040E40211148FFF7E6FFCC
:100F6000022002F017FB40210D48FFF7E1FF0220AD
:100F700002F010FB80210A48FFF7CFFF012801D1C2
:100F800044F00104681CC5B2082DE3DB402104488D
:100F9000FFF7CCFF022002F0FDFA204670BD0000F2
:100FA000000402401CB50121022000F0F9FCC02021
:100FB000009001208DF8040002208DF8050001202A
:100FC0008DF8070000208DF8060069460148FFF7FC
:100FD00039FF1CBD0004024010B540210E48FFF748
:100FE000A5FF00F0B1FC012002F0D4FA80210A48EC
:100FF000FFF79CFF012002F0CDFA40210648FFF7E1
:1010000097FF012002F0C6FA40210348FFF78EFF48
:10101000012002F0BFFA10BD0004024010B54021CB
:101020000E48FFF783FF00F08FFC012002F0B2FAB8
:1010300080210A48FFF77CFF012002F0ABFA402133
:101040000648FFF775FF012002F0A4FA402103488B
:10105000FFF76CFF012002F09DFA10BD0004024072
:1010600070B50446002500F06FFC40211748FFF7DB
:101070005DFF00BF20E040211448FFF757FF02202A
:1010800002F088FA04F0800020B180210F48FFF7B9
:101090004FFF03E080210D48FFF748FF6006040E74
:1010A000022002F077FA40210848FFF741FF0220B2
:1010B00002F070FA681CC5B2082DDCDB4021034841
:1010C000FFF734FF022002F065FA70BD0004024011
:1010D00010B5002400F04EFC80211448FFF728FFD3
:1010E000022002F057FA40211048FFF721FF0220AA
:1010F00002F050FA0AE0601CC4B2FA2C03DD00F0E2
:10110000D9FE012010BD022002F044FA80210748D8
:10111000FFF703FF0128EED040210448FFF706FF48
:10112000022002F037FA0020ECE700000004024041
:1011300010B503F05FFD08B1012010BD782004F068
:1011400069FB08B10220F8E7782003F039FC08B108
:101150000320F2E7642004F00FFB08B10420ECE761
:1011600002F0ACFB08B10520E7E7134803F066FB8B
:10117000044602F0FBFD08B10620DEE740F27310E2
:101180000E49C880C88802F041FA08B10720D4E7A8
:10119000642002F01BFD08B10820CEE7012004F016
:1011A000E7F908B10920C8E701200449487004F0B4
:1011B000F3FB0020C1E7000080050020B00C0020F8
:1011C000F0B52DED0C8B8DB004460D46164600276C
:1011D000B7EE000AF0EE409A9FED7D0AB0EE408A2D
:1011E0009FED7B0AF0EE408A9FED790AB0EE409ABF
:1011F00004E0781CC7B2022002F0CCF902A804A9CE
:1012000003AB09AACDE9001005A907A802F062FB0B
:1012100008B11E2FEDDBBDF8100000F4807000282F
:101220007ED09DED090AB8EEC00ADFED6A0A80EEB5
:10123000201AF0EE419A9DED0A0AB8EEC00ADFEDE1
:10124000650A80EE201AB0EE418A9DED0B0AB8EED9
:10125000C00ADFED600A80EE201AF0EE418A9DEDB3
:101260000C0AB8EEC00ADFED5B0A80EE201AB0EE81
:10127000419AB8EE000A28EE000A20EE090AF0EEC4
:10128000000A69EEA00A00EEA80A10EE101A08463D
:10129000FFF7D0F941EC1C0BB0EE4C0AF0EE6C0AF3
:1012A00000F09AFFB0EE40BAF0EE60BA9FED4A0B44
:1012B00053EC102B51EC1B0BFFF7DBF841EC1A0B36
:1012C000FFF7CBF92060B8EE000A28EE000A20EE06
:1012D000080AF0EE000A68EEA00A00EEE80AF7EE4F
:1012E000000A30EE200A10EE101A0846FFF7A2F9A5
:1012F00041EC1C0BB0EE000A28EE800A20EE090A31
:10130000F0EE000A69EEA00A00EE880A10EE101A4C
:101310000846FFF78FF941EC1D0BB0EE4C1A00E0C8
:1013200051E0F0EE6C1AB0EE4D0AF0EE6D0A01F0ED
:101330006FFAB0EE40BAF0EE60BA9FED270B53ECB7
:10134000102B51EC1B0BFFF794F841EC1A0BFFF735
:1013500084F9306029EEA90A08EE080A08EEE80AC6
:1013600009EE490A10EE101A0846FFF763F941EC3E
:101370001C0B28EE280A09EE290AF0EE000A20EEDE
:10138000200A10EE101A0846FFF754F941EC1D0B25
:10139000B0EE4C1AF0EE6C1AB0EE4D0AF0EE6D0A9B
:1013A00001F036FAB0EE40BAF0EE60BA9FED0A0BEB
:1013B00053EC102B51EC1B0BFFF75BF841EC1A0BB5
:1013C000FFF74BF9286000200DB0BDEC0C8BF0BD91
:1013D000000000000000804E6666666666A64C400F
:1013E00010B501216B2000F07CF802211A2000F0DA
:1013F00078F80421192000F074F811211B2000F066
:1014000070F800211C2000F06CF8F821232000F077
:1014100068F8FFF78DFE10BD2DE9F04107468846BC
:1014200015461C46002600F025FD3846FFF718FE3D
:10143000FFF74EFE4046FFF713FEFFF749FE00F0B0
:1014400019FD47F00100FFF70BFEFFF741FE00BF5B
:1014500010E0681EB04205DDFFF76EFD2070FFF75B
:10146000BBFD04E0FFF768FD2070FFF7D7FD641CAB
:10147000701CC6B2AE42ECDB00F01CFD0020BDE8E3
:10148000F0812DE9F04104460E4617461D464FF007
:10149000000800F0EFFC2046FFF7E2FDFFF718FE22
:1014A0003046FFF7DDFDFFF713FE00BF10E02878A0
:1014B000FFF7D6FDFFF70CFE012804D100F0FAFC7F
:1014C0000120BDE8F0816D1C08F1010000F0FF086B
:1014D000B845ECDB00F0EEFC012002F05BF80020E8
:1014E000EFE770B505460C4600F0C4FCD020FFF7CE
:1014F000B7FDFFF7EDFD2846FFF7B2FDFFF7E8FD6A
:101500002046FFF7ADFDFFF7E3FD00F0D3FC01201F
:1015100002F040F870BD00BFFEE7704770B50021D3
:1015200000230F22C4781CB3174C246804F4E06431
:10153000C4F5E064C4F30721C1F10404E3B20A4135
:1015400044789C40E1B28478144021430C07210E7A
:101550000E4C05786155047804F01F050124AC4059
:1015600005786D11AD0005F1E025C5F8004109E0F1
:10157000047804F01F050124AC40054D067876116F
:1015800045F8264070BD00000CED00E000E400E0EE
:1015900080E100E002490143024A11607047000007
:1015A0000000FA050CED00E010B5044622464FF4A9
:1015B00080610348FEF797FE00F098F910BD000027
:1015C000FC05002010B500F06BF84FF48041334863
:1015D000FFF7ACFC022001F0C1FF4FF480412F481F
:1015E000FFF7A6FC022001F0B9FFA82000F0D8F810
:1015F0003F2000F0D5F8D32000F0D2F8002000F012
:10160000CFF8402000F0CCF8D52000F0C9F8F12048
:1016100000F0C6F8A02000F0C3F8C02000F0C0F829
:10162000DA2000F0BDF8122000F0BAF8812000F0B6
:10163000B7F8FF2000F0B4F8D92000F0B1F8F1209D
:1016400000F0AEF8DB2000F0ABF8302000F0A8F896
:10165000A42000F0A5F8A62000F0A2F8202000F0B9
:101660009FF8002000F09CF8C02000F099F8A1201D
:1016700000F096F8232000F093F8002000F090F896
:101680008D2000F08DF8142000F08AF8AF2000F0D3
:1016900087F80020FFF788FF10BD0000000402401B
:1016A00000B587B00121880300F08AF901210220EA
:1016B00000F076F94FF42040059002208DF81800D4
:1016C00003208DF8190000208DF81A0001208DF8F4
:1016D0001B0005A92248FFF7B5FB4FF4A040059079
:1016E00001208DF8180003208DF8190000208DF8D6
:1016F0001A0001208DF81B0005A91948FFF7A2FB6D
:1017000005220D211648FFF7E5FB05220F2114489D
:10171000FFF7E0FB0020ADF800004FF48270ADF859
:1017200002000020ADF804000220ADF80600012000
:10173000ADF808004002ADF80A000020ADF80C003A
:101740000720ADF810000020ADF80E0069460548EE
:1017500000F0FCFA0121034800F0BAFA07B000BD1E
:10176000000402400038004010B504464FF4805198
:101770000948FFF7DDFB00BF0221084800F0C1FA6D
:101780000028F9D02146054800F0DEFA022103487E
:1017900000F0AAFA10BD000000040240003800402A
:1017A00010B504464FF480510948FFF7BFFB00BF56
:1017B0000221084800F0A5FA0028F9D02146054882
:1017C00000F0C2FA0221034800F08EFA10BD0000BA
:1017D0000004024000380040F0B504460B460020EB
:1017E00013E000210DE001EBC005555DC0F10706D7
:1017F000A6EB4306064F07EBC6160F19F5554D1C11
:10180000E9B20829EFDB451CE8B20228E9DBF0BDAC
:10181000FC0500202DE9F04190B0074688461546AA
:101820001E460024402E00DC16B910B0BDE8F08141
:101830003CE0285D302808DB285D392805DC285D80
:101840003038C0B20DF804002EE0285D412808DBD6
:10185000285D5A2805DC285D3738C0B20DF8040031
:1018600022E0285D612808DB285D7A2805DC285DF8
:101870003D38C0B20DF8040016E0285D212808DBD1
:10188000285D2F2805DC285D1D30C0B20DF804004E
:101890000AE0285D3A2807DB285D402804DC285D43
:1018A0001330C0B20DF80400601CC4B2B442C0DBF7
:1018B000002414E0772F04DD002708F1010000F078
:1018C000FF081DF80400084901EB001241463846A4
:1018D000FFF782FF07F10800C7B2601CC4B2B44230
:1018E000E8DB00BFA1E700002400002070B5212044
:1018F000FFF756FF0020FFF753FF7F20FFF750FF51
:10190000052001F047FE2220FFF74AFF0020FFF7E5
:1019100047FF0720FFF744FF052001F03BFE0024AE
:101920000DE0002507E0074901EBC411485DFFF712
:101930001BFF681CC5B2802DF5DB601CC4B2082CEF
:10194000EFDB70BDFC0500201CB58020009001205D
:101950008DF8040002208DF8050001208DF80700A5
:1019600000208DF8060069460148FFF76BFA1CBDA0
:10197000000402401CB58020009000208DF8040077
:1019800002208DF8050001208DF8070000208DF859
:10199000060069460148FFF755FA1CBD00040240E5
:1019A00029B1064A12680243044B1A6004E0034A54
:1019B00012688243014B1A607047000030380240C1
:1019C00029B1064A12680243044B1A6004E0034A34
:1019D00012688243014B1A60704700004038024091
:1019E00029B1064A12680243044B1A6004E0034A14
:1019F00012688243014B1A6070470000443802406D
:101A0000F0B5002100220024022500260223324FD7
:101A10003F6807F00C0121B1042905D0082937D10E
:101A200005E02E4F076036E02D4F076033E02A4F68
:101A30003F1F3F68C7F38056274F3F1F3F6807F09F
:101A40003F036EB1264FB7FBF3F7DFF88CC0ACF164
:101A5000040CDCF800C0CCF3881C07FB0CF40CE091
:101A60001E4FB7FBF3F7DFF870C0ACF1040CDCF8E5
:101A700000C0CCF3881C07FB0CF4174F3F1F3F68D6
:101A8000C7F301477F1C7D00B4FBF5F7076002E058
:101A9000124F076000BF00BF0F4F3F6807F0F00113
:101AA0000909104F7A5C0768D74047600A4F3F68C2
:101AB00007F4E051890A0B4F7A5C4768D74087608A
:101AC000054F3F6807F46041490B064F7A5C476851
:101AD000D740C760F0BD0000083802400024F40081
:101AE00040787D0110000020014908607047000027
:101AF000382C014001460020034A12680A400AB10E
:101B0000012000E000207047342C014010B500F0A7
:101B100017F810BD0021094B02681A601A1D1168E0
:101B20006FF30A01D0E901231A43C3681A4303691A
:101B30001A431143014A121D11607047082C0140DD
:101B400010B54FF48070FFF7D5FF78B34C4800789C
:101B5000012814D100204B4908600C204860402027
:101B600088600020C8604FF4806008610846FFF775
:101B7000D1FF0C20FEF772FF4349087002E00020FD
:101B8000414908704148006840F480703F4908604E
:101B9000081D00684CF23A3188433C49091D086031
:101BA00001203B4908703848007810BDFFE702204B
:101BB000FFF7A0FF78B10220FFF796FF3348001D22
:101BC00000684CF23A3188433049091D0860022010
:101BD0002D490870E9E70820FFF78CFF78B108204D
:101BE000FFF782FF2948001D00684CF23A31884314
:101BF0002649091D0860042023490870D5E72020E4
:101C0000FFF778FF78B12020FFF76EFF1F48001D17
:101C100000684CF23A3188431C49091D08600620CF
:101C200019490870C1E71020FFF764FF78B1102050
:101C3000FFF75AFF1548001D00684CF23A318843FF
:101C40001249091D086005200F490870ADE74FF4DF
:101C50000070FFF74FFF80B14FF40070FFF744FFB3
:101C60000A48001D00684CF23A3188430749091DB3
:101C7000086007200449087097E7002095E70000F6
:101C800079050020140A00207A050020382C014034
:101C90007B05002010B571210B4800F03BF80128AE
:101CA00008D17121084800F022F808480068401C5B
:101CB0000649086005480068B0F5806F02D1002031
:101CC0000249086010BD00000038004020000020DC
:101CD00021B1028842F04002028004E002884FF6FF
:101CE000BF731A4002807047CA430281704710B523
:101CF000002201F00F040123A3409AB2D3430381D1
:101D000010BD0246002013890B400BB1012000E0FA
:101D100000207047F0B50246002000240023002573
:101D200001F00F070126BE40B4B20B1101269E4000
:101D3000B3B2968806EA03051689264016B10DB19E
:101D4000012000E00020F0BD8181704710B5002225
:101D5000028802F441520B884C8823438C88234329
:101D6000CC8823430C8923434C8923438C89234308
:101D7000CC8923431A430280838B4FF2FF742340A4
:101D800083830B8A038210BD0CB500200190009064
:101D90003448006840F480303249086000BF314860
:101DA000006800F4003000900198401C01900098F9
:101DB00018B90198B0F5A04FF1D12A48006800F495
:101DC000003010B10120009001E000200090009848
:101DD000012846D123484030006840F08050214916
:101DE000403108602048006840F440401E490860C7
:101DF0001C48083000681B49083108600846006824
:101E000040F4004008600846006840F4A0500860B4
:101E10001648091F0860081F006840F08070091FFD
:101E2000086000BF0F48006800F000700028F9D07B
:101E300040F205700E4908600A480830006820F03A
:101E400003000849083108600846006840F00200B5
:101E5000086000BF03480830006800F00C00082844
:101E6000F8D10CBD00380240007000401954400702
:101E7000003C024010B5FFF767FD80210C48FFF7DA
:101E800057F840210A48FFF753F8012001F082FB80
:101E900080210748FFF74AF8012001F07BFB402131
:101EA0000348FFF743F8012001F074FB10BD000068
:101EB0000004024010B5FFF747FD40210D48FFF731
:101EC00035F8012001F066FB80210A48FFF72EF863
:101ED000012001F05FFB40210648FFF729F80120AF
:101EE00001F058FB80210348FFF722F8012001F0A0
:101EF00051FB10BD0004024010B500BF502080F31C
:101F00001188BFF34F8FBFF36F8F00BF03F0D8FE70
:101F100018B14FF080500449086000BF002080F3E2
:101F2000118800BF10BD000004ED00E010B5154899
:101F3000006840F47000134908601348006840F0DE
:101F400001001149086000200F49083108600E485F
:101F500000680E4908400C4908600D48091D0860DA
:101F6000081F006820F48020091F0860002006492F
:101F70000C310860FFF708FF4FF00060014980391D
:101F8000086010BD88ED00E000380240FFFFF6FE5B
:101F90001030002410B50121104800F034F8012859
:101FA00017D10E48406A4FF47A71B0FBF1F10C483A
:101FB0000088401C80B20A4A108000EBC00202EB8D
:101FC000001001EB4000074908800021034800F0A1
:101FD0000EF80121014800F007F810BD0010004084
:101FE0006E0500206C050020CA430282704721B1B3
:101FF000028842F00102028004E002884FF6FE737C
:102000001A400280704702460020138A0B400BB131
:10201000012000E00020704701F40072B2F5007F5B
:1020200000D100BFCA430280704721B1828942F4C7
:102030000052828104E082894DF6FF731A4082814A
:10204000704702460020B1F5007F00D100BF138821
:102050000B400BB1012000E000207047F0B50346B3
:10206000002400260025002040F66A17B94200D15E
:1020700000BF1846C1F3421401F01F06012707FAFA
:1020800006F5012C01D10C3004E0022C01D11030F6
:1020900000E014301AB107682F43076002E00768B8
:1020A000AF430760F0BD00002DE9FF4705460E462F
:1020B0000024A14600BFA046B08900B100BF2C8A11
:1020C00024F44054F08804432C82AC8941F20C6023
:1020D0008443B08831890843718908430443AC8143
:1020E000AC8A24F44074B0890443AC826846FFF79C
:1020F00087FC2048854202D01F48854202D1DDF886
:102100000C9001E0DDF80890A88900F4004040B18F
:1021100009EBC90000EB091031684900B0FBF1F789
:1021200007E009EBC90000EB091031688900B0FB3A
:10213000F1F76420B7FBF0F004012009642101FBF2
:102140001078A88900F4004040B1322000EBC800AC
:10215000B0FBF1F000F00700044308E0322000EB90
:1021600008106421B0FBF1F000F00F0004432C8153
:10217000BDE8FF870010014000140140C1F30802D0
:102180008280704700BFFEE70FB4054B10B503A96E
:10219000044A029800F0C4FD10BC5DF814FB000076
:1021A000B9410008F405002003B4019841000098EB
:1021B00050EAC12018BF04204A0D18BF40F00100AA
:1021C00040F2FF72B2EB515F08BF40F002000128FD
:1021D00008BF052002B0704770B5C1482DED020B55
:1021E0002DED0E8B82B0119D25F000449FEDBEDBDE
:1021F0009FEDBFEB84423EDBA4F140511098A1F16A
:102200007F6108430FD0BC48844202DC28D110987B
:1022100030B39DED100B02B0BDEC0E8B02B0BDE8EB
:10222000704000F071BC9DED100B53EC1D2B51EC78
:10223000100BFEF71EF99DED100B41EC180B53EC43
:102240001E2B51EC100BFEF714F953EC182BFEF774
:1022500069F841EC100B02B0BDEC0E8B02B070BD02
:10226000012000F095FC02B0BDEC0E8B02B0BDE881
:10227000704000F05DBCA1489FEDA18B844256DA0E
:102280009DED100BB4F1795F0ADA51EC100BFFF7FA
:102290008BFF042808BF00F05BFC9DED100BDAE714
:1022A00053EC102B51EC100BFEF7E3F841EC190B3B
:1022B00095480621B0EE490AF0EE690A784400F02C
:1022C000A7FB53EC192B51EC100BFEF7D2F841ECA5
:1022D0001A0B8E48B0EE490AF0EE690A04217844E0
:1022E00000F096FB53EC192B51EC100BFEF7C1F8E4
:1022F00053EC182BFEF716F841EC100B51EC1A0BAF
:1023000053EC102BFEF727F9CDE900019DED000BF2
:1023100053EC102B9DED100B51EC100BFEF7A9F8B0
:102320009DED101B53EC112BFDF7FCFFD2E09DED52
:10233000100B51EC100B01F033FF53EC182BFEF790
:1023400095F89FED730BCDE9000153EC102B9DED3B
:10235000000B51EC100BFEF78CF841EC190B6E489A
:102360000621B0EE490AF0EE690A784400F050FB0D
:1023700053EC192B51EC100BFEF77BF841EC1B0BC7
:102380006648B0EE490AF0EE690A0421784400F08C
:102390003FFB53EC192B51EC100BFEF76AF853EC92
:1023A000182BFDF7BFFF41EC1C0B51EC190B03F090
:1023B00087FB41EC180B5A489FED5BABA04222DC37
:1023C00053EC1C2B51EC1B0BFEF7C5F8CDE90001BB
:1023D0009DED000B51EC180B53EC102BFEF749F858
:1023E00053EC182BFDF79EFF53EC1A2BFEF741F828
:1023F00053EC1D2BFEF737F853EC1E2BFEF736F887
:1024000041EC100B5FE08DED008B002000909DED06
:10241000000B51EC180B53EC102BFDF783FF9DEDD7
:10242000000B41EC1E0B53EC102B51EC100BFEF784
:1024300020F853EC192BFEF719F853EC1E2BFEF77E
:102440008AF841EC190B53EC1C2B51EC1B0BFEF7DB
:1024500082F841EC1B0B53EC1A2B51EC190BFEF7D5
:1024600008F853EC1D2BFEF701F841EC190B53EC67
:102470001A2B51EC180BFDF7FCFF53EC1B2BFDF74F
:10248000F8FF53EC192BFDF7EEFF9DED000B41EC2F
:10249000180B53EC1A2B51EC100BFDF7EAFF9FEDD4
:1024A000249B53EC192BFDF7E1FF41EC100B51EC91
:1024B000180B53EC102BFDF7D6FF53EC192BFDF73F
:1024C000D5FF41EC100B002D3FF7C5AE51EC100BC2
:1024D00081F0004141EC100BBDE60000000000005F
:1024E0000000F03F00000000075C143326A6913C7A
:1024F000182D4454FB21F93F0000F07F0000E03F1D
:10250000000000000000F03F904700009E470000E0
:10251000000000000000E03FE2460000F04600003E
:102520003333EF3F000000000000000000000040D7
:10253000182D4454FB21E93F70B59B482DED020B4B
:102540002DED068B079D25F00044A04218DC97482E
:10255000844202DC0AD1069840B19DED060BBDEC29
:10256000068B02B0BDE8704000F0CEBA002DCCBFA3
:102570009FED8F0B9FED900BBDEC068B02B070BDF5
:102580008F48A04215DD8F48A042D8BF4FF0FF34DE
:1025900058DD9DED060B51EC100BFFF705FE0428EE
:1025A00008BF00F0D5FA9DED060BBDEC068B02B01E
:1025B00070BD9DED060B51EC100B01F0F1FDCDE966
:1025C000060181489FED828BA0423CDD8248A042FB
:1025D0001FDD00249FED82AB9DED060B53EC1A2B03
:1025E00051EC100BFDF79EFE9DED060B41EC190B17
:1025F00053EC1A2B51EC100BFDF73BFF53EC182B4F
:10260000FDF731FF53EC192BFDF7A5FFCDE90601CE
:1026100049E09DED060B012453EC182B51EC100BF7
:10262000FDF780FE9DED060B41EC190B53EC182BCA
:1026300051EC100BFDF717FF53EC192BFDF78BFF37
:10264000CDE906012FE06848A0421FDD02249FED7E
:10265000689B9DED060B53EC192B51EC100BFDF70D
:1026600008FF53EC182BFDF75DFE9DED060B41ECCA
:10267000180B53EC192B51EC100BFDF7F4FE53EC37
:10268000182BFDF768FFCDE906010CE09DED060B68
:10269000032453EC102B9FED580B51EC100BFDF75E
:1026A0005AFFCDE906019DED060B53EC102B51ECC2
:1026B000100BFDF7DEFE41EC180B53EC182BFDF769
:1026C000D8FE41EC190B4E480621B0EE490AF0EE57
:1026D000690A784400F09CF953EC182B51EC100B6C
:1026E000FDF7C7FE41EC180B4648B0EE490AF0EE84
:1026F000690A0521784400F08BF953EC192B51EC51
:10270000100BFDF7B6FE41EC100B51EC180B53EC1F
:10271000102B002C0EDAFDF705FE9DED061B53EC89
:10272000112BFDF7A6FE9DED061B53EC112BFDF7BB
:102730009DFE35E0FDF7F6FD9DED061B53EC112BDC
:10274000FDF797FE41EC100B2F48784400EBC400D6
:1027500090ED001B51EC100B53EC112BFDF783FE99
:102760009DED061B53EC112BFDF77DFE41EC100B8C
:102770002648784400EBC40090ED001B51EC100B90
:1027800053EC112BFDF772FE41EC100B002DA2BF94
:10279000BDEC068B02B070BD51EC100B81F0004116
:1027A00041EC100B01E70000000010440000F07F36
:1027B000182D4454FB21F93F182D4454FB21F9BF37
:1027C0000000DC3F0000203E0000F33F000000005E
:1027D000000000000000F03F0000E63F00000000A5
:1027E00000000000000000400080034000000000E6
:1027F000000000000000F83F000000000000F0BFF3
:1028000032440000E8430000724300002A43000005
:1028100070B56F4E2DED040B2DED048B82B0DDF8FD
:1028200024C0DDE907235C422CF000411C4341EA4F
:10283000D474069D22F00040B44205D86C422C436B
:1028400040EAD474B4420BD99DED081B9DED060BF4
:1028500002B0BDEC048B04B0BDE8704000F05EB97E
:10286000ACF14054A4F17F641C430BD0022404EA71
:10287000AC7444EAD27405439FED578B9FED582BFF
:1028800007D015E09DED060B51EC100B00F02CFE6F
:1028900042E0002C11BF012C9DED060B02B0BDECF7
:1028A000048B04BF04B070BD022C38D0032C3BD085
:1028B0000B439FED4D1B9FED4E0B0AD0B14218D13B
:1028C000B04209D121F0804120F080400991079069
:1028D0000FE0002A15DA10E0474B7B44002C08BFBC
:1028E00093ED000B0DD0012C10D0022C17D0032C2F
:1028F0001AD0B0421DD1002A03DAB0EE410AF0EE40
:10290000610A02B0BDEC048B04B070BD93ED000B06
:1029100051EC100B81F0004141EC100BF1E7B0EEEF
:10292000480AF0EE680AECE7B0EE420AF0EE620AFE
:10293000E7E7401A00159FED329B3C28C8BF8DED9C
:10294000000B17DCBCF1000FBCBF10F13C0F8DED8C
:10295000009B0FDB9DED080B53EC102B9DED060B40
:1029600051EC100BFDF7F7FD01F01AFC00F0BCFD77
:10297000CDE90001B4B1012C10D0022C9FED220B47
:1029800053EC102B9DED000B51EC100B19D0FDF703
:102990006AFD53EC182BFDF766FDBDE7019880F04A
:1029A000004001909DED000B53EC192B51EC100BE6
:1029B000FDF7E4FF04BF022000F0EAF89DED000BF4
:1029C0009FE7FDF750FD53EC182BFDF74FFDA3E7F4
:1029D0000000F07F00000000182D4454FB21094046
:1029E000182D4454FB2109C0182D4454FB21F9BF74
:1029F000182D4454FB21F93F5A420000000000000A
:102A00000000000000000000075C143326A6A13C73
:102A100070B504462DED028B4D1E00EBC500B0EEE7
:102A2000408AF0EE608A90ED000B35F0060017D07A
:102A300053EC182B51EC100BFDF71BFD41EC100B68
:102A40006D1E04EBC50090ED001B51EC100B53EC18
:102A5000112BFDF767FC41EC100B35F00600E7D1B8
:102A6000022D36D0042D1CD0062D1CBFBDEC028BD0
:102A700070BD53EC182B51EC100BFDF7FAFC94EDE4
:102A80000A1B53EC112BFDF74DFC53EC182BFDF7F3
:102A9000F0FC94ED081B53EC112BFDF743FC41ECCB
:102AA000100B53EC182B51EC100BFDF7E2FC94EDDE
:102AB000061B53EC112BFDF735FC53EC182BFDF7DF
:102AC000D8FC94ED040B53EC102BFDF72BFC41ECE0
:102AD000100B53EC182B51EC100BFDF7CAFC94EDC6
:102AE000021B53EC112BFDF71DFC53EC182BFDF7CB
:102AF000C0FC94ED001B53EC112BFDF713FCBDEC57
:102B0000028B41EC100B70BD10B553EC102B51EC47
:102B1000100BFDF707FC41EC100B10BD10B553EC8A
:102B2000112B51EC100BFDF7FDFB41EC100B10BD10
:102B30009FED050B10B553EC102B51EC100BFDF76E
:102B40000AFD41EC100B10BD000000000000000069
:102B50009FED050B10B553EC102B51EC100BFDF74E
:102B600088FC41EC100B10BD0000000000000010BC
:102B700002E008C8121F08C1002AFAD17047704746
:102B8000002001E001C1121F002AFBD170470000A4
:102B90000149086070470000F80500202DE9FF5F3B
:102BA00082B00021DDE90430020DDDF840B00343BE
:102BB00018D044F61050A2F2FF3242431514119877
:102BC00001281FD0A5EB0B00401C5FEA000A4FF064
:102BD00000064E4FDFF83891B046504615D5CAF181
:102BE000000413E0119801244AA3012801D16FEADF
:102BF0000B010298119AC0E90031C0E9024206B007
:102C0000BDE8F09FCBF10000DFE704460021404A19
:102C1000491842EB0450CDE9001012E0E00707D05C
:102C200032463B4640464946FDF723FC80468946EE
:102C300032463B4610461946FDF71BFC06460F463A
:102C40006410002CEAD1DDE90401DDE90023BAF1CA
:102C5000000F06DAFDF70DFC42464B46FDF709FC76
:102C600005E0FDF778FC42464B46FDF774FC044650
:102C70000E460022284BFDF799FE03D84FF0FF3097
:102C8000014607E00022254B20463146FDF74AFB6E
:102C9000FDF75CFE102409E0002C0ADB0A22002369
:102CA000FDF70DFD039B30321A55641E50EA0102F8
:102CB000F2D1641C039AC4F111031444119A012A3D
:102CC00003D0012208430DD10AE0084304D00020BC
:102CD0004FF0110B119072E7A3EB0B056D1E0DE089
:102CE0005B4504DD4FF0000205F1010504E003DA65
:102CF0004FF00002A5F10105002AECD002981199CD
:102D0000C0E90231C0E9004579E700000000144045
:102D10000000F03F300000000000F0430000E03F02
:102D20002DE9FF4F95B09A46884606460025EEE10C
:102D3000252877D100242746F94A0121039400E091
:102D4000044316F8013F203B01FA03F01042F7D18B
:102D500030782A2811D06FF02F033078A0F130029C
:102D6000092A16D8039A44F0020402EB820203EB0C
:102D700042021044761C0390EFE758F8042B0392AC
:102D8000002A03DA504244F40054039044F0020451
:102D9000761C30782E2816D116F8010F44F0040462
:102DA0002A280DD06FF02F023078A0F13003092BC4
:102DB00009D807EB870302EB4303C718761CF3E738
:102DC00058F8047B761C30786C280FD006DC4C2831
:102DD00017D068280DD06A2814D104E0742810D0C8
:102DE0007A280FD10DE044F400140AE044F4801472
:102DF00001E044F440147278824202D104F5801458
:102E0000761C761C307866280BD013DC582877D0D7
:102E100009DC002875D04528F6D04628F4D047288C
:102E20001AD193E118E0632835D0642879D0652859
:102E300012D18BE1702873D008DC6728F1D06928A3
:102E40006FD06E280DD06F2806D1ACE073282CD03F
:102E5000752874D0782853D05246179990476D1C26
:102E600054E1C4F30250022809D003280DD0D8F849
:102E7000001004280DD00D6008F1040846E1D8F8D0
:102E80000010EA17C1E90052F6E7D8F800100D80EB
:102E9000F2E70D70F0E718F8041B8DF80010002021
:102EA0008DF80100EB46012003E058F804BB4FF019
:102EB000FF3061074FF0000102D40DE009F101017C
:102EC0008946B9420FDA8145F8DB1BF80910002961
:102ED000F4D108E009F1010189468142FADB1BF8CF
:102EE00009100029F6D103985346A0EB09072146A3
:102EF0003846179A00F080FA284400EB090507E0ED
:102F000044E008E10DE01BF8010B52461799904789
:102F1000B9F10109F7D2534621463846179AF2E033
:102F200039E00A21C4F302524FF0000B0091022A4B
:102F300006D058F8040BC117032A09D00AE023E091
:102F400008F1070020F00702F2E80201904605E0D0
:102F500000B2C117042A01D140B2C117002906DA14
:102F60000A460021404261EB02012D2202E02205C7
:102F700004D52B228DF80420012203E0E20701D0C2
:102F80002022F7E7914657E00A2100E010214FF098
:102F9000000B00910BE010214FF0000B44F00404F3
:102FA0000827009103E008204FF0000B0090C4F3C5
:102FB0000252022A05D058F8040B0021032A08D037
:102FC00008E008F1070020F00702F2E8020190464D
:102FD00003E080B2042A00D1C0B24FF000092207FA
:102FE0002AD53278702A07D0DDF800C08CF0100C9A
:102FF0005CEA0B0C05D00EE040228DF80420012283
:1030000008E050EA010306D030238DF804308DF833
:10301000052002229146009B83F0080353EA0B032C
:103020000AD150EA010201D1620705D530228DF89C
:1030300004204FF001097F1E3278582A04D039A2AB
:103040000C920CAA02920BE03BA2F9E75B46009AB5
:10305000FDF735FB0C9B9B5C029A521E029213708B
:1030600050EA0102F2D1029804A9081A00F1200BDB
:10307000600702D524F4803400E001275F4502DDBB
:10308000A7EB0B0000E0002000EB0B010090039881
:103090004944401A0390E00306D453462146179A48
:1030A000039800F0A9F90544002706E001A852465C
:1030B000C05D179990476D1C7F1C4F45F6DBE00300
:1030C0000CD553462146179A039800F095F905440C
:1030D00004E030205246179990476D1C0099481E15
:1030E00000900029F5DC08E0029802995246007829
:1030F000491C0291179990476D1CBBF10001ABF17F
:10310000010BF1DC5BE100F065F90544761C3078D9
:1031100000287FF40DAE19B02846BDE8F08F0000FE
:10312000092801003031323334353637383961629D
:103130006364656600000000303132333435363761
:10314000383941424344454600000000600700D43E
:10315000062708F1070020F00700F0E80223804668
:1031600003F0004C5FEA0C0001D097A009E02005B5
:1031700001D596A005E0E00701D095A001E0AFF2EF
:103180004C001390307823F0004365280CD006DC07
:10319000452809D046281DD047287FD13BE0662826
:1031A00018D067287AD136E00021112F01DB1120D9
:1031B00000E0781CCDE9000104A90CA8FFF7EEFCA3
:1031C000DDE90D010C9A4FF0000B07F10109109297
:1031D00000914EE04FF000400097CDE9011004A9A6
:1031E0000CA8FFF7DBFCDDE90D020C9B0F994FF0FB
:1031F000000B91461093009211B9791C00EB010964
:10320000B7EB090003D4C0F1FF3B07F10109A9EBBB
:103210000700019042E0012F00DA01270021112F61
:1032200001DD112000E03846CDE9000104A90CA819
:10323000FFF7B4FCDDE90D010C9A00914FF0000B93
:10324000B946109221070FD4009A4A4503DA9146F5
:1032500001E0A9F10109B9F1010F05DD109AA9F109
:103260000101515C3029F4D0B84202DA10F1040FA8
:1032700003DA0121CDE9011010E0002803DC8344CA
:10328000A9EB000102E0411C494500DD8946A0EBA5
:103290000B00401C01904FF000400290200705D425
:1032A0000198484502DB4FF0FF30019000208DF877
:1032B0004B0002980DF14B07B0F1004F25D00220D2
:1032C0000C902B200D90029800280CDA40420290BE
:1032D0002D200D9007E00A210298FDF7DAF9303130
:1032E000029007F8011D0C99481E0C900029F2DC91
:1032F00002980028EFD1791E0D980870307800F000
:10330000200040F0450007F8020D11A8C01BC01DA9
:1033100002901398007800B1012000EB0901019898
:1033200001EBE071029801440398401A401E03909B
:10333000E00306D453462146179A039800F05CF840
:1033400005441398007818B15246179990476D1CA0
:10335000E00323D553462146179A039800F04CF812
:1033600005441BE0BBF1000F07DB0098584504DD66
:103370001098179910F80B0001E017993020524669
:10338000904701980BF1010B401E05F101050190DA
:1033900004D12E205246179990476D1CB9F10001B7
:1033A000A9F10109DEDC05E017F8010B5246179977
:1033B00090476D1C0299481E02900029F4DC534688
:1033C0002146179A03989EE62D0000002B0000006E
:1033D000200000002DE9F041044600251E46174656
:1033E000880404D405E039462020B0476D1C641ED3
:1033F000F9D52846BDE8F0812DE9F04104460025C5
:103400001E469046C80301D5302700E020278804D7
:1034100004D505E041463846B0476D1C641EF9D519
:103420002846BDE8F0810000F0B52DED028B83B099
:1034300006460F460025684600F0D4FE002447E00B
:1034400056F8241057F82420881A002801DB01467A
:1034500000E0414200EE101AB8EEC00ADFED200A8B
:1034600080EE208A684600EB840090ED000AB5EEFD
:10347000C00AF1EE10FA18D0684600EB8400D0EDD7
:10348000000A88EE200AF7EE000A70EE608AB0EEBD
:10349000E80A1448D0ED090AB4EEE00AF1EE10FA99
:1034A00015DD0120A040054311E00E4890ED070A0C
:1034B000B4EEC80AF1EE10FA06DC90ED080AB4EE9C
:1034C000C80AF1EE10FA02D20120A0400543641CA4
:1034D000032CB5DB284603B0BDEC028BF0BD000029
:1034E00000008047305E000810B541EC100BFFF77C
:1034F00023F851EC100B10BD2DE9F0410446E078A3
:1035000000F0C006E07800F03F05607800F00100B0
:1035100098B1EF102846E91705EB5171C910A5EBDA
:10352000C101491C01F0FF080B48006820B10A489E
:10353000414602683846904700BF607800F00800B6
:1035400030B10548406818B1B011034A5168884746
:103550000020BDE8F0810000500E0020014645F239
:1035600008224A434FF0E0235A6100229A61012267
:103570001A6100BF4FF0E022106900F001021AB199
:1035800000F48032002AF5D000224FF0E0231A61C7
:103590009A6170470146C1EBC10202EB42024FF053
:1035A000E0235A6100229A6101221A6100BF4FF0A4
:1035B000E022106900F001021AB100F48032002A02
:1035C000F5D000224FF0E0231A619A61704738B5B8
:1035D000044664B120208DF8000028208DF80100F9
:1035E00030208DF8020038208DF8030004E0A3227B
:1035F00004216846FCF777FE6A46042140F69E20C7
:1036000002F070F901F05AFD38BD00003EB50446E5
:1036100002208DF80000CA208DF80100E3208DF80B
:10362000020009208DF803006A460421682002F098
:1036300059F9A3208DF8000004F0400048B1C020E3
:103640008DF80100C8208DF80200C2208DF803001B
:1036500006E0A3208DF801008DF802008DF803002C
:1036600004F4C07048B1C4208DF80400CC208DF85B
:103670000500C6208DF8060006E0A3208DF80400A2
:103680008DF805008DF80600A3208DF807008DF851
:1036900008008DF809006A460A2140F6A72002F0CA
:1036A00021F904F0030018B120208DF8000002E099
:1036B000D8208DF800006A46012140F6B62002F0BD
:1036C00011F904F0200018B1012000F0ADF802E07B
:1036D000002000F0A9F804F4C07008B304F480706E
:1036E00060B1B2208DF800008B208DF80100B6206B
:1036F0008DF802009B208DF803000BE0B0208DF8C0
:10370000000080208DF80100B4208DF80200902088
:103710008DF803006A46042140F6A22002F0E2F888
:1037200004F0010020B3F8208DF800006A46012162
:103730004FF40B6002F0D6F8FA21072000F02AFCC3
:10374000072000F0F1FB012000F011FC642000F0E4
:1037500001FD4FF4FA7000F010FDC821304800F070
:10376000A1FB282000F0BAFB0A2000F0CAFB08E009
:10377000D8208DF800006A4601214FF40B6002F05A
:10378000B1F804F0020018B1D9208DF8000002E071
:10379000D8208DF800006A46012140F23D7002F009
:1037A000A1F804F0040018B1012000F069F802E06B
:1037B000002000F065F804F0100018B10120FFF7B8
:1037C00006FF02E00020FFF702FF44F00800154961
:1037D000488101F073FC00201249887304F0400016
:1037E00018B10846807B801D887304F4C07020B136
:1037F0000C48807B801D0B49887304F0140020B1B5
:103800000848807B10300749887304F0030020B11A
:103810000448807B001D0349887300203EBD0000E2
:1038200009E3CA02500E00203EB504466CB10EA159
:10383000D1E900208968CDE9002002916A4609217A
:103840004FF4976002F04EF83EBD0AA2D2E9001094
:103850009268CDE9010200916A4609214FF4976010
:1038600002F040F8F0E70000B8AAB38DB4980D3527
:103870005D000000B8AAAAAAB088C3C5C7000000AE
:1038800038B5044664B1C0208DF80000C2208DF820
:103890000100C4208DF80200C6208DF8030004E06A
:1038A0008B2204216846FCF71EFD6A46042140F67F
:1038B000982002F017F801F001FC38BD10B5C823BC
:1038C0004FF48062024940F6F63001F08BFA10BDE9
:1038D000585E00082DE9F04F8DB007468846154622
:1038E0009B46DDE9166A0024002030806A49887B07
:1038F000524605A901F042FB18B1601E0DB0BDE8AB
:10390000F08F6548807A00F01400002867D09DF899
:10391000140000069DF8151040EA01409DF81610AD
:1039200040EA01209DF81710084328609DF8180010
:1039300000069DF8191040EA01409DF81A1040EA6F
:1039400001209DF81B10084368609DF81C000006CC
:103950009DF81D1040EA01409DF81E1040EA01202C
:103960009DF81F100843A8609DF8200000069DF8F0
:10397000211040EA01409DF8221040EA01209DF804
:1039800023100843E86004F11000C4B22868001452
:103990000190686800140290A86800140390E86819
:1039A0000014049001984043029901FB010003991F
:1039B00001FB0100049901FB0109B9F1706F02DB01
:1039C000B9F1885F05DD01F079FB00203080401EF1
:1039D00094E7B6F9000040F48070308000BF2E48B4
:1039E000807A00F0400020B305A9601C085C095DE6
:1039F00040EA012000B2A8F8000005A9E01C095C1B
:103A000005AAA01C105C41EA002000B2A8F8020040
:103A100005A9601D095C201D105C41EA002000B270
:103A2000A8F80400A01DC4B2B6F9000040F00800D8
:103A300030801948408900F4C07008B305A9601CA3
:103A4000085C095D40EA012000B2388005A9E01C4D
:103A5000095C05AAA01C105C41EA002000B2788035
:103A600005A9601D095C201D105C41EA002000B220
:103A7000B880A01DC4B2B6F9000040F070003080DC
:103A80000548807A00F0030018B105A90819FFF76E
:103A900033FD002032E70000500E002070B588B0E2
:103AA000064601A800F0EAFFBDF804000021C903A2
:103AB00041EA5045C4034448007A00F0030056F838
:103AC000200005904048007A00F0040010B10598ED
:103AD000404205903C48007AC0F3C10056F82000EF
:103AE00006903948007A00F0200010B10698404254
:103AF00006903548007AC0F3811056F820000790F0
:103B00003148008900F4807010B107984042079056
:103B10000598C117A0FB042301FB043100FB05102D
:103B2000810041EA927005900698C117A0FB04231A
:103B300001FB043100FB0510810041EA9270069000
:103B40000798C117A0FB042301FB043100FB0510FB
:103B5000810041EA927007900598000E8DF80800E8
:103B60000598000C8DF809000598000A8DF80A00E8
:103B70000598C0B28DF80B000698000E8DF80C0069
:103B80000698000C8DF80D000698000A8DF80E00BE
:103B90000698C0B28DF80F000798000E8DF810003F
:103BA0000798000C8DF811000798000A8DF8120094
:103BB0000798C0B28DF8130002AA0C214FF42570AB
:103BC00001F090FE08B070BD500E002030B585B0F9
:103BD000044616A207CA02AB07C3C82C03DD4FF088
:103BE000FF3005B030BDC82090FBF4F0401E85B218
:103BF000280A8DF80000E8B28DF801006A4602211B
:103C000040F2162001F06EFE10B14FF0FF30E8E7F1
:103C100002AA0C2140F6C12001F064FE10B14FF061
:103C2000FF30DEE7044884810020DAE7FEF2ABC40F
:103C3000AAF1DFDFBBAFDFDF500E00201FB5044667
:103C40004848007A00F0030054F8200001904548ED
:103C5000007A00F0040010B1019840420190414800
:103C6000007AC0F3C10054F8200002903D48007A69
:103C700000F0200010B10298404202903948007ACA
:103C8000C0F3811054F8200003903648008900F4F6
:103C9000807010B10398404203903349019880FB33
:103CA0000101800F40EA810001902F49029880FBBA
:103CB0000110820042EA917002902B49039880FB28
:103CC0000110820042EA917003900198000E8DF875
:103CD00000000198000C8DF801000198000A8DF891
:103CE00002000198C0B28DF803006A4604214FF427
:103CF000747001F0F7FD18B14FF0FF3004B010BD43
:103D00000298000E8DF800000298000C8DF801005A
:103D10000298000A8DF802000298C0B28DF80300E4
:103D20006A4604214FF4757001F0DCFD10B14FF0CC
:103D3000FF30E3E70398000E8DF800000398000CB5
:103D40008DF801000398000A8DF802000398C0B2B4
:103D50008DF803006A4604214FF4767001F0C2FD2D
:103D6000CCE70000500E002009E3CA0210B586B06F
:103D7000044647A00068039046A00068029046A051
:103D80000068019045A00068009004F0030003A9BA
:103D9000085C8DF8140003A8C4F3C101405C8DF8E1
:103DA000150003A8C4F38111405C8DF8160004F0DF
:103DB000030002A9085C8DF8100002A8C4F3C10139
:103DC000405C8DF8110002A8C4F38111405C8DF8AD
:103DD000120005AA032140F2264001F083FD18B12C
:103DE0004FF0FF3006B010BD04AA032140F22A4074
:103DF00001F078FD10B14FF0FF30F3E70198059026
:103E00000098049004F0040058B19DF8140040F0AC
:103E100001008DF814009DF8100040F001008DF8AD
:103E2000100004F0200058B19DF8150040F001008A
:103E30008DF815009DF8110040F001008DF811007B
:103E400004F4807058B19DF8160040F001008DF820
:103E500016009DF8120040F001008DF8120005AA2E
:103E600003214FF4886001F03DFD10B14FF0FF30A9
:103E7000B8E704AA032140F2314001F033FD10B14C
:103E80004FF0FF30AEE7064804810020AAE70000AB
:103E90004CCD6C000CC92C003656760026466600C8
:103EA000500E0020F8B505460E464FF47A7095FB8B
:103EB000F0F000FB06F4200E8DF80000200C8DF8C9
:103EC0000100200A8DF80200E0B28DF803006A4676
:103ED00004214FF4AE7001F005FDF8BD38B504467D
:103EE000052094FBF0F084B220128DF80000E0B2BF
:103EF0008DF801006A4602214FF4AD7001F0F2FC2A
:103F000038BD38B50446052094FBF0F084B2201289
:103F10008DF80000E0B28DF801006A4602214FF4EE
:103F2000AC7001F0DFFC38BD38B5044600200090CD
:103F300004F0010020B19DF8000040F03000009036
:103F400004F0020020B19DF8000040F00C00009049
:103F500004F0040020B19DF8000040F00300009040
:103F60006A4601214FF4A47001F0BCFC38BD38B59D
:103F70000446012C01DA012402E0042C00DD0424B3
:103F8000601EC0B200906A46012140F24F1001F05D
:103F9000A9FC38BDF0B52DED028B83B006460F4667
:103FA00006F0070010B1B7F5C86F05DD4FF0FF3020
:103FB00003B0BDEC028BF0BD00EE107AB8EE400A03
:103FC000DFED5B0A80EE208A01A800F031FD9DF84C
:103FD0000400022806D0042817D0082828D010286A
:103FE0004CD138E09FED530A28EE000ABCEEC00A1F
:103FF00010EE100A84B29FED500A28EE000ABCEEC3
:10400000C00A10EE100A85B23BE09FED4C0A28EE84
:10401000000ABCEEC00A10EE100A84B29FED480AF6
:1040200028EE000ABCEEC00A10EE100A85B228E0A5
:104030009FED440A28EE000ABCEEC00A10EE100AFA
:1040400084B29FED410A28EE000ABCEEC00A10EED1
:10405000100A85B215E09FED3D0A28EE000ABCEE7D
:10406000C00A10EE100A84B29FED390A28EE000A49
:10407000BCEEC00A10EE100A85B202E04FF0FF302D
:1040800096E700BF20128DF80800E0B28DF8090015
:1040900028128DF80A00E8B28DF80B0006F0010036
:1040A000A0B102AA02214FF4EA7001F01BFC10B18A
:1040B0004FF0FF307CE70DF10A0202214FF49270BD
:1040C00001F010FC10B14FF0FF3071E706F0020074
:1040D000A0B102AA02214FF4EC7001F003FC10B170
:1040E0004FF0FF3064E70DF10A0202214FF49470A3
:1040F00001F0F8FB10B14FF0FF3059E706F0040073
:10410000A0B102AA02214FF4EE7001F0EBFB10B156
:104110004FF0FF304CE70DF10A0202214FF4967088
:1041200001F0E0FB10B14FF0FF3041E700203FE726
:104130000000484300008046000040460000004662
:104140000000C045000080450000404500000045DB
:104150000000C04438B50446052094FBF0F085B259
:1041600028128DF80000E8B28DF801006A4602219D
:104170004FF4EF7001F0B6FB38BD38B504460520AA
:1041800094FBF0F085B228128DF80000E8B28DF8AB
:1041900001006A4602214FF4ED7001F0A3FB38BD27
:1041A00082B0CDE9000121F0004001909DED000BAF
:1041B00002B051EC100B704770B504460D4600BFBD
:1041C00040210748FDF73DFF0028F9D0E1B204483F
:1041D000FDF7D4FF40210248FDF71EFF204670BDC9
:1041E000001001407CB505462E494968087801ABAE
:1041F00004220D21FDF710F908B107207CBD9DF8C0
:104200000700C0F301109DF8041001F0E00140EA3E
:10421000E1008DF800009DF80700C0F381009DF8D3
:10422000051001F0E00140EAE1008DF801009DF881
:10423000070000F003009DF8061001F0E00140EADD
:10424000E1008DF80200002427E01DF8040030B9D9
:104250009FED150A05EB840080ED000A1BE09FED41
:10426000130A05EB840080ED000A0BE005EB8400E7
:1042700090ED000ADFED0E0A20EE200A05EB840027
:1042800080ED000A1DF80400401EC0B20DF80400C5
:104290000028EBD100BF601CC4B2032CD5DB00208A
:1042A000ACE70000C8050020000000007B14AE3E13
:1042B0001D5A843F2DE9F04F87B005460C469146C4
:1042C00001208DF8100000208DF81100FE4A1268C0
:1042D000917CFD4A5268107804AB0222FDF7D1F8B8
:1042E00020B14FF0FF3007B0BDE8F08F3220FFF76C
:1042F00035F900208DF81000F34A1268D17BF24A9C
:104300005268107804AB0122FDF7BBF810B14FF0F2
:10431000FF30E8E7EC4A12685179EB4A52681078AE
:1043200004AB0122FDF7ADF810B14FF0FF30DAE732
:10433000E54A1268917CE44A5268107804AB012285
:10434000FDF79FF810B14FF0FF30CCE7DE4A12685E
:10435000D17DDD4A5268107804AB0122FDF791F857
:1043600010B14FF0FF30BEE7D74A12681179D64A34
:104370005268107804AB0122FDF783F810B14FF0BA
:10438000FF30B0E70C208DF81000CF4A1268117989
:10439000CD4A5268107804AB0122FDF772F810B1D3
:1043A0004FF0FF309FE70A20FFF7D8F8C648806A31
:1043B000407A8DF81000C44A12689178C24A526857
:1043C000107804AB0122FDF75CF810B14FF0FF301C
:1043D00089E7BD48806A007A8DF81000BA4A1268F1
:1043E0005178B94A5268107804AB0122FDF749F8B8
:1043F00010B14FF0FF3076E7B9F1000F07D0B248A7
:10440000806A807A40F0E0008DF8100004E0AE4849
:10441000806A807A8DF81000AB4A12689179AA4AB6
:104420005268107804AB0122FDF72BF810B14FF061
:10443000FF3058E7B9F1000F07D0A348806AC07A6F
:1044400040F0E0008DF8100003E0A048C07A8DF83D
:1044500010009D4A1268D1799B4A5268107804ABCB
:104460000122FDF70EF810B14FF0FF303BE7B9F134
:10447000000F02D03220FFF771F840208DF81000B5
:10448000914A12681179904A5268107804AB01225F
:10449000FCF7F7FF10B14FF0FF3024E778208DF8DC
:1044A0001000894A12685179874A5268107804AB23
:1044B0000122FCF7E6FF10B14FF0FF3013E783490C
:1044C0008889FFF74BF800208DF810007E4A1268AB
:1044D00051797D4A5268107804AB0122FCF7D1FF74
:1044E00010B14FF0FF30FEE6774A1268917A764AB3
:1044F0005268107804AB0222FCF78EFF10B14FF027
:10450000FF30F0E69DF811009DF8101040EA012BF5
:104510000C209BFBF0F0C6B20020A8606860286009
:10452000A06060602060824665E0674A1268D17AC8
:10453000654A5268107804AB0C22FCF76DFF10B18D
:104540004FF0FF30CFE69DF811009DF8101040EAC3
:10455000012000B2ADF808009DF813009DF812107C
:1045600040EA012000B2ADF80A009DF815009DF860
:10457000141040EA012000B2ADF80C00BDF908109B
:10458000206808442060BDF90A1060680844606033
:10459000BDF90C10A0680844A0609DF817009DF8B4
:1045A000161040EA012000B2ADF800009DF8190095
:1045B0009DF8181040EA012000B2ADF802009DF805
:1045C0001B009DF81A1040EA012000B2ADF804006B
:1045D000BDF90010286808442860BDF90210686819
:1045E00008446860BDF90410A8680844A8600AF18E
:1045F000010000F0FF0AB24597DB3448D0F800C054
:104600002868C117090441EA1041070462460023E3
:104610003846FBF737FE32460023CDE90201FBF7AF
:1046200031FE28602948D0F800C06868C117090425
:1046300041EA10410704624600233846FBF722FE98
:1046400032460023CDE90201FBF71CFE68601F48DB
:10465000D0F800C0A868C117090441EA1041070456
:10466000624600233846FBF70DFE32460023CDE9B3
:104670000201FBF707FEA8601448D0F804C02068C8
:10468000C117090441EA1041070462460023384675
:10469000FBF7F8FD32460023CDE90201FBF7F2FDFE
:1046A00020600A48D0F804C06068C117090441EAD4
:1046B00010410704624600233846FBF7E3FD32460B
:1046C0000023CDE9020103E0C8050020305E0008A8
:1046D000FBF7D8FD60601148D0F804C0A068C1178E
:1046E000090441EA10410704624600233846FBF7FB
:1046F000C9FD32460023CDE90201FBF7C3FDA060EE
:10470000A068002804DDA068A0F58030A06003E068
:10471000A06800F58030A0600020E4E5305E00086D
:10472000F0B52DED048B81B006460F4600253E49BD
:10473000496808786B4603220D21FCF76DFE20B115
:10474000072001B0BDEC048BF0BD9DF8000000F027
:104750001F008DF800009DF8010000F01F008DF88B
:1047600001009DF8020000F01F008DF802000024F7
:1047700055E056F8241057F82420881A002801DB49
:10478000014600E0414200EE101AB8EEC00ADFED2B
:10479000270A80EE208A1DF8040068B3244890EDB3
:1047A000000AB8EE400ADFED230A80EE801AF0EE30
:1047B000418A05E09FED200A28EE800AF0EE408A4B
:1047C0001DF80400401EC0B20DF804000028F1D10D
:1047D00088EE280AF7EE000A30EE609AB0EEC90AB9
:1047E0001348D0ED060AB4EEE00AF1EE10FA15DD3A
:1047F0000120A040054311E00D4890ED040AB4EEFD
:10480000C80AF1EE10FA06DC90ED050AB4EEC80A0B
:10481000F1EE10FA02D20120A0400543641C032CE3
:10482000A7DB28468DE70000C80500200000804770
:10483000305E000800B04C4554E3853F70B5054636
:10484000284600F00FF80446E81C00F00BF844EA94
:10485000C00084B2A81D00F005F844EA801084B2BC
:10486000204670BD014691F90020002A01DD00209C
:104870001EE091F90020002A01DA042018E091F9E5
:104880000120002A01DD012012E091F90120002A17
:1048900001DA05200CE091F90220002A01DD022056
:1048A00006E091F90220002A01DA062000E0072044
:1048B000704700001CB501210220FDF771F84FF48C
:1048C0001870009001208DF8040002208DF805007A
:1048D00000208DF8060001208DF807006946064883
:1048E000FCF7B0FA40210448FCF722FB20210248E3
:1048F000FCF71EFB1CBD0000000402402DED068BE2
:1049000084B04FF4A060FCF745FE4FF4E13001F0B5
:104910000FF9FFF7CFFFFCF745FBFCF753FEFCF761
:104920005FFD1D4A1D491E48FCF74AFC1A480068F5
:10493000FBF780FE41EC1A0B18480068FBF77AFE83
:1049400041EC180B16480068FBF774FE41EC190B9C
:104950008DED02AB8DED008B53EC192B11A0FDF703
:1049600013FC0123144A00210846FCF753FFFCF70F
:10497000BDFF0FE04FF400711048FCF7D9FAC820D2
:10498000FEF7ECFD4FF400710C48FCF7CFFAC8209D
:10499000FEF7E4FDEEE700000C0000200800002018
:1049A00004000020503A256620593A256620523AE4
:1049B00025660D0A000000000100002000040240EE
:1049C00070B50446002624F00104184890F824002D
:1049D00008B1002070BD1548807A10B94FF0FF3043
:1049E000F8E71248057C807A204010490874084690
:1049F000007CA04202D04FF0FF3600E0002614B940
:104A00000A48007D18B1012001F012F802E00020F0
:104A100001F00EF83CB100F051FB20B103480574E1
:104A20004FF0FF30D6E73046D4E70000C80500203D
:104A300001461148407A30B1012807D0022808D039
:104A400003280CD108E0022008700BE00420087055
:104A500008E00820087005E01020087002E04FF020
:104A6000FF30704700BF0448C07C18B1087840068A
:104A7000000E08700020F4E7C80500200146134826
:104A8000407A30B1012808D002280AD0032810D17A
:104A90000BE04FF4804008800EE041F69C700880E7
:104AA0000AE04FF48050088006E04FF40060088070
:104AB00002E04FF0FF30704700BF0448C07C10B1E7
:104AC0000888401008800020F5E70000C805002095
:104AD00001460248007C087000207047C80500208D
:104AE00001460F48007A30B1012807D0022809D0CA
:104AF00003280FD10AE0FA2008800EE04FF4FA7084
:104B000008800AE04FF47A70088006E04FF4FA60FB
:104B1000088002E00020088000BF00BF002070472E
:104B2000C805002001461248007A30B1012809D09A
:104B300002280CD0032814D10EE09FED0E0A81ED5F
:104B4000000A11E09FED0C0A81ED000A0CE09FEDD8
:104B50000B0A81ED000A07E09FED090A81ED000ACA
:104B600002E04FF0FF30704700BF0020FBE700007D
:104B7000C805002000000343000083423333034292
:104B80003333834101461248C07A082817D2DFE840
:104B900000F01704070A0D101318BC20088013E05A
:104BA0006220088010E02A2008800DE01420088090
:104BB0000AE00A20088007E00520088004E000BF22
:104BC00000BF0020088000BF00BF00207047000029
:104BD000C80500200146064890F8240010B14FF0A7
:104BE000FF3070470248C08908800020F9E70000C4
:104BF000C80500201CB580208DF80000654A1268A9
:104C0000917C644A526810786B460122FCF739FCAB
:104C100010B14FF0FF301CBD0220FEF79FFC0020BA
:104C20008DF800005B4A1268917C5A4A52681078ED
:104C30006B460122FCF725FC10B14FF0FF30EAE78C
:104C4000544A1268917D534A526810786B46062286
:104C5000FCF7E2FB10B14FF0FF30DCE79DF80500F8
:104C6000C007400F9DF8031001F0010140EA410028
:104C70009DF8011001F0010140EA010494B1012CFA
:104C800003D101214348C17431E0022C03D100213A
:104C90004048C1742BE021463FA0FDF775FA4FF064
:104CA000FF30B8E73B4A1268D1783A4A5268107828
:104CB0006B460122FCF7B0FB10B14FF0FF30AAE7C2
:104CC0009DF8000000F00F042CB93D48FDF75CFA98
:104CD0004FF0FF309FE7042C06D13AA0FDF754FABD
:104CE00001212C48C17402E000212A48C174FF212F
:104CF00028488172FF2027490872FF212548417208
:104D0000C1724FF6FF71C181FF21017481740121CD
:104D1000017380F82210002180F82310417501757D
:104D20001630016041608160163880F8241080F8E8
:104D30002510C1844FF4FA6000F062FC10B14FF00E
:104D4000FF3068E7022000F02BFB10B14FF0FF307E
:104D500061E72A2000F0CEFC10B14FF0FF305AE797
:104D6000322000F009FD10B14FF0FF3053E7002072
:104D7000FFF726FE10B14FF0FF304CE7002000F0A7
:104D800051FB10B14FF0FF3045E7002000F042FD2D
:104D9000002040E7C8050020556E737570706F7273
:104DA00074656420736F6674776172652070726FCA
:104DB00064756374207265762025642E0A000000F5
:104DC000406B000848616C662073656E7369746996
:104DD00076697479207061727420666F756E642EC6
:104DE0000A0000002DE9F04385B005460E469046C6
:104DF0009946294890F8250020B14FF0FF3005B0C2
:104E0000BDE8F08316B94FF0FF30F8E7002423E047
:104E1000281B102801DD102000E0281B87B2321962
:104E20003946204600F05EFD10B14FF0FF30E6E756
:104E300001AA3946204600F001F910B14FF0FF30C9
:104E4000DDE730193A4601A9FBF75FFA10B16FF0C0
:104E50000100D4E7E01984B2AC42D9DB4FEA282044
:104E60008DF8000008F0FF008DF801000A4A126872
:104E7000917E094A526810786B460222FCF701FBCA
:104E800010B14FF0FF30BAE70121034880F8251038
:104E9000A0F826900020B2E7C805002038B50446E7
:104EA000282C02DD4FF0FF3038BDDCB9002000F0C7
:104EB000EBFB00208DF8000007208DF801002E4A42
:104EC0001268917C2C4A526810786B460222FCF7DB
:104ED000D8FA10B14FF0FF30E6E7002126480175FF
:104EE0000020E1E7012000F0CFFB20208DF800003A
:104EF000012C06D100208DF80100052000F0FAFBFE
:104F000017E0052C06DC01208DF80100052000F0DB
:104F1000F1FB0EE0142C06DC02208DF801000A20C3
:104F200000F0E8FB05E003208DF80100142000F0FC
:104F3000E1FB9DF80100072101EB8010C0B28DF864
:104F400001000D4A1268917C0B4A526810786B463A
:104F50000222FCF796FA10B14FF0FF30A4E70821C7
:104F60000548817200210173012101750020FFF7BE
:104F700027FD002098E70000C8050020F8B504468A
:104F80000F4616462C4890F8240010B94FF0FF3019
:104F9000F8BD2948807A10B94FF0FF30F8E7264A6B
:104FA0001268917A244A526810786B460222FCF704
:104FB00033FA10B14FF0FF30EAE79DF801009DF899
:104FC000001040EA0125A54203DA00203070401E9F
:104FD000DEE7194840684088B5EB600F17DD164AD8
:104FE0001268517C144A526810786B460122FCF713
:104FF00013FA10B14FF0FF30CAE79DF8000000F03F
:10500000100020B100F05AF86FF00100C0E7E2B2E2
:10501000094B1B68D97A084B5B6818783B46FCF74C
:10502000FBF910B14FF0FF30B2E795FBF4F0401EF2
:1050300030700020ACE70000C8050020F8B5044639
:105040000D46164616B94FF0FF30F8BD1A48807A63
:1050500010B94FF0FF30F8E720128DF80000E0B2F1
:105060008DF801009DF801002844134949684989D9
:10507000884202DD4FF0FF30E7E70F4A1268117EE9
:105080000D4A526810786B460222FCF7FAF910B10B
:105090004FF0FF30D9E7EAB2074B1B68597D064B4A
:1050A0005B6818783346FCF7B7F910B14FF0FF3062
:1050B000CBE70020C9E70000C805002008B570480C
:1050C000807A10B94FF0FF3008BD002000906C4A84
:1050D0001268D17B6A4A526810786B460122FCF74D
:1050E000D0F910B14FF0FF30EEE7654A1268517900
:1050F000634A526810786B460122FCF7C2F910B17E
:105100004FF0FF30E0E75E4A126811795C4A52685E
:1051100010786B460122FCF7B4F910B14FF0FF3064
:10512000D2E7574890F82400002853D00C20009074
:10513000534A12681179524A526810786B4601221C
:10514000FCF79FF910B14FF0FF30BDE70A20FEF7E2
:1051500005FAC02000904A48807A00F0010020B192
:105160009DF8000040F020000090454A1268117937
:10517000434A526810786B460122FCF782F910B15D
:105180004FF0FF30A0E73E48407C10B10220009075
:1051900001E0002000903A4A1268D17B384A5268F8
:1051A00010786B460122FCF76CF910B14FF0FF301C
:1051B0008AE700200090324A12685179304A5268DA
:1051C00010786B460122FCF75CF9002855D04FF0AF
:1051D000FF3079E704200090294A12681179284AA3
:1051E000526810786B460122FCF74BF910B14FF072
:1051F000FF3069E72248807C20B92148807A00F09E
:10520000010010B94020009001E0602000901C4A8D
:10521000126811791A4A526810786B460122FCF71D
:1052200030F910B14FF0FF304EE70A20FEF796F943
:105230001348407C10B10120009001E00020009054
:105240000F4A1268D17B0E4A526810786B460122D1
:10525000FCF717F910B14FF0FF3035E7084A126834
:105260005179074A52681078054B10330122FCF738
:1052700008F910B14FF0FF3026E7002024E70000C6
:10528000C80500202DE9F04F8DB083460F4602205F
:105290000C90424890F8240020B1002000F068F9FA
:1052A000012600E0002603A8FFF71AFC05A8FFF777
:1052B000BFFB01A8FFF766FC02A8FFF78BFC37488D
:1052C00090F80AA004A8FFF703FC002407E00022DE
:1052D00039465846FEF7EEFF00B902E0641C022C86
:1052E000F5DB00BF022C01D1002528E0002407E0F7
:1052F000012206A909A8FEF7DDFF00B902E0641C3F
:10530000022CF5DB00BF022C01D1002517E006A915
:105310003846FEF789F800F0FF0809A95846FFF75C
:10532000FFF900F0FF090025B9F1000F01D145F0A8
:105330000105B8F1000F01D145F0020500BFFF20C3
:1053400016490872FF2115484172C1724FF6FF716C
:10535000C181FF218172017401210173BDF80C002C
:1053600000F04EF99DF8140000F01AF8BDF80400A2
:1053700000F0C0F9BDF8080000F0FEF9504600F05A
:1053800049FA9DF81000FFF71BFB16B1012000F051
:10539000EFF828460DB0BDE8F08F0000C8050020EA
:1053A00038B504461E48807A10B94FF0FF3038BD3A
:1053B000022C06D0042C07D0082C08D0102C0CD1BD
:1053C00008E0002000900BE00820009008E010208A
:1053D000009005E01820009002E04FF0FF30E6E773
:1053E00000BF0F48407A9DF80010B0EBE10F01D1EB
:1053F0000020DCE70A4A1268D179094A526810781D
:105400006B460122FCF73DF810B14FF0FF30CEE7BC
:105410009DF80000C110024841720020C7E700005B
:10542000C805002038B504465048807CA04201D110
:10543000002038BD002C46D04C4A126811794B4AE6
:10544000526810786B460122FBF7E6FF10B14FF06F
:10545000FF30EEE79DF8000020F020000090434A66
:1054600012681179414A526810786B460122FCF7A4
:1054700008F810B14FF0FF30DBE70320FEF76EF8BD
:1054800002200090394890F8220020B19DF80000D9
:1054900040F080000090354890F8230020B19DF83E
:1054A000000040F030000090304A1268117D2F4A11
:1054B000526810786B460122FBF7E3FF002851D0B9
:1054C0004FF0FF30B5E7294A12681179274A526830
:1054D00010786B460122FBF79FFF10B14FF0FF30B1
:1054E000A7E72248807A00F0010028B19DF800006B
:1054F00040F02000009004E09DF8000020F0200023
:1055000000901A4A12681179184A526810786B464E
:105510000122FBF7B6FF10B14FF0FF3089E70320FF
:10552000FEF71CF8114890F8220010B1802000907E
:1055300001E0002000900D4890F8230020B19DF874
:10554000000040F030000090084A1268117D074AC0
:10555000526810786B460122FBF793FF10B14FF0B1
:10556000FF3066E701488474002062E7C805002028
:1055700038B50446214890F82400A04201D100200B
:1055800038BD24B31D4890F8250010B94FF0FF3006
:10559000F6E7002000F04CFA0020FFF743FF174920
:1055A000C88C00F0E9F80020009014494968087898
:1055B0006B4601222321FBF764FF01210F4880F88D
:1055C0002410012000F034FAFFF778FD13E00020EA
:1055D00000F02EFA0948007C0090084949680878D4
:1055E0006B4601222321FBF74CFF0021034880F882
:1055F0002410FFF763FD0020C2E70000C80500206B
:1056000038B504461F48807A10B94FF0FF3038BDD6
:10561000FA2C09D0B4F5FA7F09D0B4F57A7F09D015
:10562000B4F5FA6F0CD108E0002000900BE00820E0
:10563000009008E01020009005E01820009002E0A3
:105640004FF0FF30E3E700BF0E48007A9DF80010EE
:10565000B0EBE10F01D10020D9E70A4A1268917935
:10566000084A526810786B460122FBF70AFF10B116
:105670004FF0FF30CBE79DF80000C01001490872E1
:105680000020C4E7C805002038B50446184890F843
:105690002300A04201D1002038BD14B13020009079
:1056A00001E0002000901248807C20B19DF80000AD
:1056B00040F0020000900E4890F8220020B19DF8C2
:1056C000000040F080000090094A1268117D084AED
:1056D000526810786B460122FBF7D3FE10B14FF0F1
:1056E000FF30D9E7024880F823400020D4E70000CB
:1056F000C805002038B504461E48807A10B94FF01E
:10570000FF3038BDBC2C02DB0120009015E0622C7C
:1057100002DB0220009010E02A2C02DB0320009024
:105720000BE0142C02DB0420009006E00A2C02DBC4
:105730000520009001E0062000900E48C07A9DF8F8
:105740000010884201D10020DBE70A4A12689178F4
:10575000084A526810786B460122FBF792FE10B19E
:105760004FF0FF30CDE79DF800100248C1720020D5
:10577000C7E70000C805002038B504462448807AF1
:1057800010B94FF0FF3038BD214890F8240010B117
:105790004FF0FF30F7E71E48007D50B134B1282CA0
:1057A00004DCE0B2FFF77AFB0020ECE70020FFF713
:1057B00075FB042C01DA042404E0B4F57A7F01DDE2
:1057C0004FF47A744FF47A7090FBF4F0401EC0B23C
:1057D00000900F4A126851780D4A526810786B4653
:1057E0000122FBF74EFE10B14FF0FF30CBE79DF8E2
:1057F0000000401C4FF47A7191FBF0F081B2044834
:10580000C1810146C9894810FFF774FF0020BAE73B
:10581000C805002038B5044604F0700010B101201E
:10582000009005E014B10020009001E040200090BD
:105830002B4A1268917C2A4A526810786B460122E2
:10584000FBF71FFE20B1002125488172481E38BD9C
:105850009DF8000020F040012148017300200090D5
:1058600004F0400020B99DF8000040F004000090D2
:1058700004F0200020B99DF8000040F002000090E4
:1058800004F0100020B99DF8000040F001000090E5
:1058900004F0080020B99DF8000040F038000090A6
:1058A0000F4A1268D17C0E4A526810786B4601226A
:1058B000FBF7E7FD20B1002109488172481EC6E7C9
:1058C00024B1082C02D00020FFF7DEFE04488472C9
:1058D000002101750A20FDF741FE0020B7E7000016
:1058E000C8050020F8B504460D46164616B94FF017
:1058F000FF30F8BD1A48807A10B94FF0FF30F8E752
:1059000020128DF80000E0B28DF801009DF8010032
:105910002844134949684989884202DD4FF0FF3025
:10592000E7E70F4A1268117E0D4A526810786B46FD
:105930000222FBF7A6FD10B14FF0FF30D9E7EAB223
:10594000074B1B68597D064B5B6818783346FBF79D
:1059500098FD10B14FF0FF30CBE70020C9E7000001
:10596000C80500200A490968096809B9012100E051
:10597000002121B14FF0FF31064A116006E00449D1
:105980000968C968C868034A416811607047000027
:1059900090050020BC05002010B588B002A905A81C
:1059A000FFF770FC0446032C3FD101A8FFF7BAF8BB
:1059B0009DED050AB8EEC00ADDED010A20EE200AD1
:1059C000BDEEC00A8DED050A9DED060AB8EEC00ACF
:1059D000DDED010A20EE200ABDEEC00A8DED060ABB
:1059E0009DED070AB8EEC00ADDED010A20EE200A9F
:1059F000BDEEC00A8DED070A05A8FEF71FF968463F
:105A0000FFF73CF8BDF80010029848430290BDF83B
:105A10000010039848430390BDF8001004984843D1
:105A2000049002A8FEF73AF800BF08B010BD0000CD
:105A300038B50446214890F82400C0B114B10220C2
:105A4000009001E0002000901C4A1268D17B1B4AA4
:105A5000526810786B460122FBF713FD10B14FF02E
:105A6000FF3038BD9DF800101448417423E01348FE
:105A7000807A10B94FF0FF30F3E724B10F48407C33
:105A800008B10020EDE714B10120009001E00020F2
:105A900000900A4A1268D17B084A526810786B4617
:105AA0000122FBF7EEFC10B14FF0FF30D9E79DF873
:105AB0000010024841740020D3E70000C805002010
:105AC00000B52DED048B83B041EC190BFAF7EDFE18
:105AD00041EC180B18EE100A18EE901A8DED008BA1
