:020000040800F2
:10000000F82D002061020008F7070008EF0700083C
:10001000F307000823030008611300080000000034
:10002000000000000000000000000000A101000826
:100030003505000800000000FD010008F910000867
:100040007B0200087B0200087B0200087B0200089C
:100050007B0200087B020008390500087B020008CB
:10006000790500082D0600087B0200087B020008C5
:100070007B0200087B0200087B020008B90300082D
:100080007B0200087B0200087B0200087B0200085C
:100090007B0200087B0200087B0200087B0200084C
:1000A0007B0200087B0200087B0200087B0200083C
:1000B0007B0200087B0200087B0200087B0200082C
:1000C0007B0200087B0200087B0200087B0200081C
:1000D000190F00087B0200087B0200087B02000861
:1000E0007B0200087B0200087B0200087B020008FC
:1000F0007B0200087B0200087B0200087B020008EC
:100100007B020008910D00087B0200087B020008BA
:100110007B0200087B020008951100087B020008A2
:100120007B0200087B0200087B0200087B020008BB
:100130007B0200087B0200087B0200087B020008AB
:100140007B0200087B0200087B0200087B0200089B
:10015000090400082D0400087B0200087B02000847
:100160007B0200087B0200087B0200087B0200087B
:100170007B0200087B0200087B0200087B0200086B
:100180007B0200087B020008DFF810D000F08CF83A
:10019000004800473D140008AFF30080F82D002010
:1001A0002C4B19680868B0E8F04F80F30988BFF35A
:1001B0006F8F4FF0000080F311887047000000003F
:1001C00008480068006880F308884FF0000080F35A
:1001D000148862B661B6BFF34F8FBFF36F8F00DF35
:1001E00000BF00BF08ED00E0DFF80C00016841F43B
:1001F00070010160704700BF88ED00E0EFF30980F7
:10020000BFF36F8F134B1A681EF0100F08BF20ED5D
:10021000108A20E9F04F106009B44FF0500080F3CD
:100220001188BFF34F8FBFF36F8F01F0D9F94FF0F3
:10023000000080F3118809BC19680868B0E8F04F25
:100240001EF0100F08BFB0EC108A80F30988BFF3CE
:100250006F8F704774050020EFF305807047000032
:100260000648804706480047FEE7FEE7FEE7FEE750
:10027000FEE7FEE7FEE7FEE7FEE7FEE72D110008DA
:1002800089010008D2B201E000F8012B491EFBD21F
:1002900070470022F6E710B513460A460446194691
:1002A000FFF7F0FF204610BD064C074D06E0E06862
:1002B00040F0010394E8070098471034AC42F6D3AD
:1002C000FFF766FFB4170008D417000870B58C1844
:1002D00010F8015B15F0070301D110F8013B2A115A
:1002E00006D110F8012B03E010F8016B01F8016B47
:1002F0005B1EF9D12B0705D40023521E0DD401F843
:10030000013BFAE710F8013BCB1A921C03E013F80B
:10031000015B01F8015B521EF9D5A142D8D3002040
:1003200070BD00BFFEE7000070B5044605E016484A
:10033000056805F0450000B100E0F8E700BF0420C3
:1003400000F01AFD20B1042000F010FD032070BD64
:10035000012000F011FD20B1012000F007FD012077
:10036000F5E7094824380068A04201D01020EEE7E4
:1003700040F2FF5000F0FAFC0348203800680821E2
:100380000840C0B2E3E70000342C014010B5084932
:10039000084800F05BF80021064800F08BF8802147
:1003A000044800F0C5F80121024800F083F810BDB0
:1003B000200000207060024010B50649064800F099
:1003C00085F828B10349044800F05AF800F006F80F
:1003D00010BD0000208000207060024010B5084968
:1003E000084800F033F80021064800F063F8802147
:1003F000044800F09DF80121024800F05BF810BDB0
:10040000000800208864024010B50649064800F044
:100410005DF828B10349044800F032F8FFF7B6FF51
:1004200010BD0000008800208864024010B5054916
:10043000054800F04BF818B10249034800F020F8D5
:1004400010BD000000802020A06402400246094B3D
:100450009A4201D2084801E00648103801F00053E2
:100460001BB1064B0B40C36002E0044B0B408360A2
:100470007047000010640240006002407D0F7D0F55
:100480000246094B9A4201D2084801E0064810385A
:1004900001F000531BB1064B0B40C36002E0044B5C
:1004A0000B4083607047000010640240006002400F
:1004B0007D0F7D0F21B1026842F00102026003E06E
:1004C000026822F0010202607047000070B5024627
:1004D000002000240025124EB24201D2114B01E04F
:1004E0000F4B103B104E0E4036B11E2606EAD124AB
:1004F000166806EA040502E0566906F0800501F078
:1005000000560EB15C6800E01C68084E344004EAF6
:10051000010616B10DB1012000E0002070BD000001
:1005200010640240006002403C0F3C0F7D0F7D0FC5
:10053000416070477047000010B5C82000F021FFEF
:10054000012000F0D9F801280ED14102084800F03E
:100550004CF908480078401C0649087008460078A5
:10056000042801DD00200870012000F0BFF810BD54
:10057000000402405A05002010B5C82000F001FF19
:10058000042000F0B9F801283FD14102214800F0D1
:100590002AF921480078012806D0022810D0032823
:1005A0001AD0042830D123E01C480078401C1B4995
:1005B000087008460078632801D10020087023E005
:1005C00017480078401C16490870084600786328D0
:1005D00001D10020087017E012480078401C114932
:1005E000087008460078632801D1002008700BE0ED
:1005F0000D480078401C0C490870084600786328B4
:1006000001D10020087000BF00BF042000F06EF888
:1006100010BD0000000402405A0500205C050020C7
:100620005D0500205E0500205F05002010B5C82094
:1006300000F0A7FE082000F05FF8012844D1410235
:10064000234800F0D0F82348007806283BD2DFE8A2
:1006500000F03A030E19242F1F480078401E1E494F
:1006600008700846007808B9632008702BE01B4822
:100670000078401E194908700846007808B96320C0
:10068000087020E016480078401E1549087008469A
:10069000007808B96320087015E012480078401E01
:1006A000104908700846007808B9632008700AE00D
:1006B0000D480078401E0C4908700846007808B9BB
:1006C0001E20087000BF00BF082000F00FF810BD0A
:1006D000000402405A0500205C0500205D05002052
:1006E0005E0500205F0500205B05002001490860D1
:1006F00070470000143C014001460020034A126884
:100700000A400AB1012000E000207047143C01407B
:10071000F0B50A4600210023002400BF3DE001257A
:1007200005FA01F3156805EA03049C4234D1056813
:100730004F000326BE40B543056015794E00B54015
:100740000668354305601579012D02D01579022D13
:1007500016D185684F000326BE40B54385605579A4
:100760004E00B540866835438560456801268E4059
:10077000B5434560456896798E40B6B235434560CD
:10078000C5684F000326BE40B543C560D5794E000D
:10079000B540C6683543C560491C1029BFD3F0BDBC
:1007A000F0B5002300244D07ED0E02FA05F3CE103C
:1007B00000F1200555F826504E07F70E0F26BE40D3
:1007C000B543CF1000F1200646F82750CE1000F1B7
:1007D000200555F8265045EA0304CE1000F1200507
:1007E00045F82640F0BD418370470183704700BF44
:1007F000FEE700BFFEE7704770B5002100230F221F
:10080000C4781CB3174C246804F4E064C4F5E064B5
:10081000C4F30721C1F10404E3B20A4144789C40C7
:10082000E1B28478144021430C07210E0E4C057868
:100830006155047804F01F050124AC4005786D1162
:10084000AD0005F1E025C5F8004109E0047804F0A9
:100850001F050124AC40054D0678761145F8264069
:1008600070BD00000CED00E000E400E080E100E07D
:1008700002490143024A1160704700000000FA0576
:100880000CED00E010B5044622464FF480610348A9
:10089000FFF7F8FC00F098F910BD0000B00500204B
:1008A00010B500F06BF84FF480413348FFF79BFF21
:1008B000022000F066FD4FF480412F48FFF795FFBE
:1008C000022000F05EFDA82000F0D8F83F2000F0E4
:1008D000D5F8D32000F0D2F8002000F0CFF8402067
:1008E00000F0CCF8D52000F0C9F8F12000F0C6F8EF
:1008F000A02000F0C3F8C02000F0C0F8DA2000F01B
:10090000BDF8122000F0BAF8812000F0B7F8FF20FF
:1009100000F0B4F8D92000F0B1F8F12000F0AEF802
:10092000DB2000F0ABF8302000F0A8F8A42000F0A5
:10093000A5F8A62000F0A2F8202000F09FF80020E3
:1009400000F09CF8C02000F099F8A12000F096F883
:10095000232000F093F8002000F090F88D2000F0A4
:100960008DF8142000F08AF8AF2000F087F80020FE
:10097000FFF788FF10BD00000004024000B587B0FB
:100980000121880300F05EF90121022000F04AF9FC
:100990004FF42040059002208DF8180003208DF8B8
:1009A000190000208DF81A0001208DF81B0005A900
:1009B0002248FFF7ADFE4FF4A040059001208DF8CE
:1009C000180003208DF8190000208DF81A0001206E
:1009D0008DF81B0005A91948FFF79AFE05220D2185
:1009E0001648FFF7DDFE05220F211448FFF7D8FE59
:1009F0000020ADF800004FF48270ADF80200002036
:100A0000ADF804000220ADF806000120ADF80800A2
:100A10004002ADF80A000020ADF80C000720ADF848
:100A200010000020ADF80E006946054800F0D0FA2D
:100A30000121034800F08EFA07B000BD0004024017
:100A40000038004010B504464FF480510948FFF7C4
:100A5000CCFE00BF0221084800F095FA0028F9D02A
:100A60002146054800F0B2FA0221034800F07EFA60
:100A700010BD0000000402400038004010B50446DC
:100A80004FF480510948FFF7AEFE00BF022108482D
:100A900000F079FA0028F9D02146054800F096FACE
:100AA0000221034800F062FA10BD00000004024079
:100AB00000380040F0B504460B46002013E000214A
:100AC0000DE001EBC005555DC0F10706A6EB43063E
:100AD000064F07EBC6160F19F5554D1CE9B208294C
:100AE000EFDB451CE8B20228E9DBF0BDB0050020D1
:100AF0002DE9F04190B00746884615461E46002471
:100B0000402E00DC16B910B0BDE8F0813CE0285D55
:100B1000302808DB285D392805DC285D3038C0B274
:100B20000DF804002EE0285D412808DB285D5A28D6
:100B300005DC285D3738C0B20DF8040022E0285DDE
:100B4000612808DB285D7A2805DC285D3D38C0B2C5
:100B50000DF8040016E0285D212808DB285D2F2809
:100B600005DC285D1D30C0B20DF804000AE0285DE8
:100B70003A2807DB285D402804DC285D1330C0B22A
:100B80000DF80400601CC4B2B442C0DB002414E0C1
:100B9000772F04DD002708F1010000F0FF081DF8A1
:100BA0000400084901EB001241463846FFF782FF76
:100BB00007F10800C7B2601CC4B2B442E8DB00BF52
:100BC000A1E700001800002070B52120FFF756FFB4
:100BD0000020FFF753FF7F20FFF750FF052000F0B4
:100BE000ECFB2220FFF74AFF0020FFF747FF07201A
:100BF000FFF744FF052000F0E0FB00240DE0002596
:100C000007E0074901EBC411485DFFF71BFF681CB3
:100C1000C5B2802DF5DB601CC4B2082CEFDB70BDC3
:100C2000B005002029B1064A12680243044B1A603D
:100C300004E0034A12688243014B1A6070470000C7
:100C40003038024029B1064A12680243044B1A6048
:100C500004E0034A12688243014B1A6070470000A7
:100C60004038024029B1064A12680243044B1A6018
:100C700004E0034A12688243014B1A607047000087
:100C800044380240F0B5002100220024022500264D
:100C90000223324F3F6807F00C0121B1042905D02F
:100CA000082937D105E02E4F076036E02D4F076049
:100CB00033E02A4F3F1F3F68C7F38056274F3F1F3F
:100CC0003F6807F03F036EB1264FB7FBF3F7DFF83D
:100CD0008CC0ACF1040CDCF800C0CCF3881C07FB22
:100CE0000CF40CE01E4FB7FBF3F7DFF870C0ACF16B
:100CF000040CDCF800C0CCF3881C07FB0CF4174F85
:100D00003F1F3F68C7F301477F1C7D00B4FBF5F729
:100D1000076002E0124F076000BF00BF0F4F3F683F
:100D200007F0F0010909104F7A5C0768D740476067
:100D30000A4F3F6807F4E051890A0B4F7A5C476815
:100D4000D7408760054F3F6807F46041490B064F65
:100D50007A5C4768D740C760F0BD000008380240A1
:100D60000024F40040787D01020000200149086061
:100D700070470000382C014001460020034A1268E9
:100D80000A400AB1012000E000207047342C0140E5
:100D900010B500F017F810BD0021094B02681A6069
:100DA0001A1D11686FF30A01D0E901231A43C368C1
:100DB0001A4303691A431143014A121D1160704717
:100DC000082C014010B54FF48070FFF7D5FF78B3C1
:100DD0004C480078012814D100204B4908600C20B1
:100DE0004860402088600020C8604FF4806008613F
:100DF0000846FFF7D1FF0C20FFF796FA4349087029
:100E000002E00020414908704148006840F48070C9
:100E10003F490860081D00684CF23A3188433C495C
:100E2000091D086001203B4908703848007810BD52
:100E3000FFE70220FFF7A0FF78B10220FFF796FF3F
:100E40003348001D00684CF23A3188433049091D8F
:100E5000086002202D490870E9E70820FFF78CFFA1
:100E600078B10820FFF782FF2948001D00684CF286
:100E70003A3188432649091D086004202349087037
:100E8000D5E72020FFF778FF78B12020FFF76EFF2D
:100E90001F48001D00684CF23A3188431C49091D67
:100EA0000860062019490870C1E71020FFF764FFA9
:100EB00078B11020FFF75AFF1548001D00684CF26A
:100EC0003A3188431249091D086005200F4908700E
:100ED000ADE74FF40070FFF74FFF80B14FF40070A3
:100EE000FFF744FF0A48001D00684CF23A3188437E
:100EF0000749091D086007200449087097E700208A
:100F000095E700006D050020C80900206E0500204F
:100F1000382C01406F05002010B571210B4800F0FE
:100F20003BF8012808D17121084800F022F8084850
:100F30000068401C0649086005480068B0F5806FED
:100F400002D100200249086010BD000000380040B6
:100F50001400002021B1028842F04002028004E027
:100F600002884FF6BF731A4002807047CA4302815D
:100F7000704710B5002201F00F040123A3409AB27C
:100F8000D343038110BD0246002013890B400BB1EF
:100F9000012000E000207047F0B502460020002448
:100FA0000023002501F00F070126BE40B4B20B114B
:100FB00001269E40B3B2968806EA030516892640AC
:100FC00016B10DB1012000E00020F0BD8181704715
:100FD00010B50022028802F441520B884C8823434A
:100FE0008C882343CC8823430C8923434C89234397
:100FF0008C892343CC8923431A430280838B4FF28D
:10100000FF74234083830B8A038210BD0CB500203C
:10101000019000903448006840F480303249086004
:1010200000BF3148006800F4003000900198401C77
:101030000190009818B90198B0F5A04FF1D12A4855
:10104000006800F4003010B10120009001E00020A1
:1010500000900098012846D123484030006840F0B5
:1010600080502149403108602048006840F44040E9
:101070001E4908601C48083000681B490831086098
:101080000846006840F4004008600846006840F4E4
:10109000A05008601648091F0860081F006840F04B
:1010A0008070091F086000BF0F48006800F00070E2
:1010B0000028F9D040F205700E4908600A4808304F
:1010C000006820F0030008490831086008460068FD
:1010D00040F00200086000BF03480830006800F0DC
:1010E0000C000828F8D10CBD003802400070004008
:1010F00019544007003C024010B500BF502080F357
:101100001188BFF34F8FBFF36F8F00BF00F0AEFAAF
:1011100018B14FF080500449086000BF002080F3F0
:10112000118800BF10BD000004ED00E010B51548A7
:10113000006840F47000134908601348006840F0EC
:1011400001001149086000200F49083108600E486D
:1011500000680E4908400C4908600D48091D0860E8
:10116000081F006820F48020091F0860002006493D
:101170000C310860FFF74AFF4FF0006001498039E9
:10118000086010BD88ED00E000380240FFFFF6FE69
:101190001030002410B50121104800F034F8012867
:1011A00017D10E48406A4FF47A71B0FBF1F10C4848
:1011B0000088401C80B20A4A108000EBC00202EB9B
:1011C000001001EB4000074908800021034800F0AF
:1011D0000EF80121014800F007F810BD0010004092
:1011E0006205002060050020CA430282704721B1D9
:1011F000028842F00102028004E002884FF6FE738A
:101200001A400280704702460020138A0B400BB13F
:10121000012000E00020704701F40072B2F5007F69
:1012200000D100BFCA430280704721B1828942F4D5
:101230000052828104E082894DF6FF731A40828158
:101240007047F0B50346002400260025002040F634
:101250006A17B94200D100BF1846C1F3421401F029
:101260001F06012707FA06F5012C01D10C3004E016
:10127000022C01D1103000E014301AB107682F435E
:10128000076002E00768AF430760F0BD2DE9FF4744
:1012900005460E460024A14600BFA046B08900B115
:1012A00000BF2C8A24F44054F08804432C82AC897B
:1012B00041F20C608443B088318908437189084346
:1012C0000443AC81AC8A24F44074B0890443AC82FA
:1012D0006846FFF7D7FC2048854202D01F48854268
:1012E00002D1DDF80C9001E0DDF80890A88900F447
:1012F000004040B109EBC90000EB0910316849001A
:10130000B0FBF1F707E009EBC90000EB0910316809
:101310008900B0FBF1F76420B7FBF0F0040120096D
:10132000642101FB1078A88900F4004040B132200C
:1013300000EBC800B0FBF1F000F00700044308E048
:10134000322000EB08106421B0FBF1F000F00F0038
:1013500004432C81BDE8FF870010014000140140C8
:1013600000BFFEE702E008C8121F08C1002AFAD138
:1013700070477047002001E001C1121F002AFBD115
:101380007047014645F208224A434FF0E0235A6174
:1013900000229A6101221A6100BF4FF0E022106919
:1013A00000F001021AB100F48032002AF5D00022C8
:1013B0004FF0E0231A619A6170470146C1EBC10208
:1013C00002EB42024FF0E0235A6100229A610122AF
:1013D0001A6100BF4FF0E022106900F001021AB15B
:1013E00000F48032002AF5D000224FF0E0231A6189
:1013F0009A6170471CB501210220FFF713FC4FF4DE
:101400001870009001208DF8040002208DF805006E
:1014100000208DF8060001208DF807006946064877
:10142000FFF776F940210448FFF7DFF92021024851
:10143000FFF7DBF91CBD0000000402404FF4A06080
:10144000FFF716FA4FF4E13000F048F8FFF7D2FF4B
:10145000FFF726FA21E04FF400711048FFF7C5F9B5
:10146000C820FFF78EFF4FF400710C48FFF7BBF95F
:10147000C820FFF786FF0123094A00210846FFF72D
:1014800037FBFFF7A1FB0748007806490978491C9C
:10149000044A1170213002490870DCE70004024060
:1014A00001000020000000200A490968096809B904
:1014B000012100E0002121B14FF0FF31064A116007
:1014C00006E004490968C968C868034A41681160B0
:1014D0007047000078050020A405002010B588B0F2
:1014E000044601211020FFF7BDFB01210846FFF74C
:1014F00099FB4FF40070069002208DF81C0001202B
:101500008DF81F0006A92448FFF702F94FF4806008
:10151000069002208DF81C0006A91F48FFF7F8F876
:10152000072209211C48FFF73BF907220A211A4824
:10153000FFF736F902940020ADF80C00ADF80E006C
:10154000ADF810000C20ADF812000020ADF814002A
:1015500002A91248FFF79AFE25208DF8040000200A
:101560008DF805008DF8060001208DF8070001A810
:10157000FFF742F940F2FF310848FFF74DFE012224
:1015800040F225510548FFF75CFE01210348FFF7B3
:101590004CFE08B010BD00000000024000100140E9
:1015A00001460A69D1E901309860D1E90103586028
:1015B0005068884201D18868506000200861106836
:1015C000401E10601068704742684A6093688B60E4
:1015D000936859609160086103685B1C0360704701
:1015E0001D48006818B101201C49086032E0002045
:1015F0001A4908601A480068B0FA80F0C0F11F016B
:1016000001EB8100174A52F8200008B1012000E0E8
:10161000002050B900BF502080F31188BFF34F8FD6
:10162000BFF36F8F00BF00BFFEE701EB81020D4BE0
:1016300003EB820042685268426000F1080243688E
:10164000934202D14268526842604268D268064BB7
:101650001A6000BF70470000AC050020980500200C
:101660008C050020640C0020740500202DE9F04159
:101670004FF0000844480068002877D143480068CC
:10168000451C4248056015BB41480068006808B920
:10169000012000E0002050B900BF502080F31188E5
:1016A000BFF34F8FBFF36F8F00BF00BFFEE7384817
:1016B0000768384800683649086036480760364889
:1016C0000068401C34490860FFF7EEFE00BF334855
:1016D000006885423CD300BF2D480068006808B907
:1016E000012000E0002020B14FF0FF302B490860BE
:1016F0002DE027480068C068C4686668B54202D219
:101700002648066023E0201DFFF74AFFA06A18B1B3
:1017100004F11800FFF744FF94F82C1001208840D2
:101720001F49096808431E490860E16A01EB81010D
:101730001C4A02EB8100211DFFF746FF1A49E06AAF
:101740000968C96A8842C7D34FF00108C4E700BFDF
:1017500015480068C06A00EB8000124951F820006B
:10176000012801D94FF0010805E0FFE70F480068A4
:10177000401C0E4908600E48006808B14FF001088F
:101780004046BDE8F0810000AC050020880500203F
:10179000780500207C0500209C050020A405002081
:1017A0008C050020640C00207405002094050020A6
:1017B00098050020D417000800000020B0050000A4
:1017C000CC020008141B0008B005002048280000C7
:1017D00074130008612D010203040475060708094B
:1017E0002707081010080737F008040408F0540809
:1017F000081F260404FC04041B0E1001220F1F0CFA
:10180000142444840C08190F23110E3F18048484F7
:101810004438542A0C31100860A02424FC242427C6
:101820001F11111110102F980404048870602B11DF
:10183000116C1BF088111AF838193F431618437CB5
:10184000801A0E2E29504B3844501A0F6029902EC2
:101850008048444488901B031C0E11280A043CC491
:101860004040E41C041060192F299D29602A039030
:1018700013101C1BE018101308104B101F403920C8
:1018800019D029303C17100810ACC4041810112AC4
:10189000C05E2940221C29402C4478404021190573
:1018A0001F04FC84808084252A105229812942410A
:1018B00049112E03010101FE0E2F1F1103141810F0
:1018C000501C80641C2F2940292F29801B040C10D8
:1018D000121F1A1F142E04FC807C804F4C1F0C0317
:1018E000601A047412FC4B0708B06BF008B029D0E2
:1018F0001A0F301980228089203E14140C0AF2C07D
:101900004C11110EC014300C044B0E11C1171C04E5
:10191000848444383A189F4A188239A049D0112A41
:10192000F89012F824101E111B131C151CE01C70DB
:10193000601A109F1129241EC07C807CC01048139F
:1019400018160101161810040C34C0C0340C041011
:101950001C132F5950298F29102F041C6484040450
:1019600068440101011D98242448221B080F1141DD
:1019700047FC880404887049211A70104B04880FB2
:1019800023090F29902A0853191029201BF8240134
:101990002AE80F1C070909171A0470297139201940
:1019A000214FD6292929C90660190F4C04FC8493BC
:1019B00054011919793059121A03271AFEB0196BFC
:1019C00029311F04FC2460940C21AC08081F303915
:1019D0005E392012042903190BC96079A019B02BB4
:1019E00004F8DD390F8C01FF89E011191229E03B61
:1019F00089FF2D3950194112048A80C02ACCE03A5F
:101A000098E0394139525A084D190529606C08FC93
:101A10000440114EC0300C30C05D2903380980707D
:101A20000C30E01C60801D39A14E8C70748C042C2D
:101A300029051D81611E181F59D12147840C34448A
:101A4000840C49F01982511C08304003A11C020388
:101A50001E03211C20FC2003211E0E11113F1038F3
:101A600017180404FF8478370F100F0106181D8C17
:101A700030C07810191133110E10097884C43498CD
:101A8000E48408031048703C0718206025E018041F
:101A9000023D40201807682C0418E0071702010FC8
:101AA0000102024F404080F080408839201B808036
:101AB000111A80C1712A0966B1191CA91F113A0CAB
:101AC000DC511B031CB83A065F390FCA03226A01B6
:101AD00098590F1D02040810502E40201008049140
:101AE000290119A839012119152A023219251B20AB
:101AF00040704C0E1210F2112B0CEC5D1F0C1314E5
:101B0000170807DD56E414F414E8C51919282869E4
:041B100071013C0023
:040000050800018965
:00000001FF
