:020000040800F2
:10000000B81000205D0200086D120008C31100083E
:1000100069120008E5070008012D00080000000033
:100020000000000000000000000000009D0100082A
:100030006D0D000800000000F9010008D929000832
:1000400077020008770200087702000877020008AC
:100050007702000877020008710D00087702000897
:10006000B90D00086D0E000877020008770200083D
:10007000770200087702000877020008150A0008D6
:10008000770200087702000877020008770200086C
:10009000770200087702000877020008770200085C
:1000A000770200087702000877020008770200084C
:1000B000770200087702000877020008770200083C
:1000C000770200087702000877020008770200082C
:1000D0004D28000877020008770200087702000820
:1000E000770200087702000877020008770200080C
:1000F00077020008770200087702000877020008FC
:100100007702000805160008770200087702000849
:100110007702000877020008752A000877020008B5
:1001200077020008770200087702000877020008CB
:1001300077020008770200087702000877020008BB
:1001400077020008770200087702000877020008AB
:10015000650A0008890A000877020008770200088B
:10016000770200087702000877020008770200088B
:10017000770200087702000877020008770200087B
:100180007702000877020008DFF80CD000F018FBB7
:100190000048004735370008B81000202C4B19687C
:1001A0000868B0E8F04F80F30988BFF36F8F4FF015
:1001B000000080F3118870470000000008480068C4
:1001C000006880F308884FF0000080F3148862B65E
:1001D00061B6BFF34F8FBFF36F8F00DF00BF00BF6B
:1001E00008ED00E0DFF80C00016841F470010160E7
:1001F000704700BF88ED00E0EFF30980BFF36F8F19
:10020000134B1A681EF0100F08BF20ED108A20E96A
:10021000F04F106009B44FF0500080F31188BFF325
:100220004F8FBFF36F8F03F07FFB4FF0000080F321
:10023000118809BC19680868B0E8F04F1EF0100F6B
:1002400008BFB0EC108A80F30988BFF36F8F704746
:1002500030000020EFF3058070470000064880471B
:1002600006480047FEE7FEE7FEE7FEE7FEE7FEE79B
:10027000FEE7FEE7FEE7FEE70D2A00088901000819
:10028000D2B201E000F8012B491EFBD270470022D8
:10029000F6E710B513460A4604461946FFF7F0FF85
:1002A000204610BD2DE9FE4F804681EA0300C00FB5
:1002B0000C46009021F0004123F00045B8EB02000D
:1002C000A94105D24046214690461C460B460246AF
:1002D00023F00040104347D0270DC7F30A00C3F3B3
:1002E0000A510290401A019040286BDAC3F31300C0
:1002F00040F4801B0098924620B10023D2EB030A01
:1003000063EB0B0B01985946C0F14002504600F0D8
:1003100098F906460D4650465946019A00F0B0F944
:1003200010EB08006141002487EA115284EAE77368
:100330001A4340D0009A62B3019A012A4FEA075249
:1003400015DC001B61EB02014FF0004202EA07528C
:10035000CDE90042001C41F5801132462B4600F0E9
:10036000B0F903B0BDE8F08F40462146F9E7001B25
:1003700061EB0201001C41F5801300185B4120185D
:10038000A2F5001747EB030140EAD570B6196D419D
:1003900011E06D084FEA360645EAC0754FEA07528C
:1003A000001B61EB0201001C41F5801149084FEA76
:1003B00030000019514132462B4603B0BDE8F04FE2
:1003C00000F070B90098012240000023D0EB020237
:1003D00063EBE073009821464FEAE074B8EB00004D
:1003E00061EB0401E9E783F000435BE781F0004142
:1003F00058E72DE9FE4F81EA030404F0004421F0A0
:10040000004100944FF0000B23F0004350EA010438
:100410005ED052EA03045BD0C3F30A54C1F30A5519
:100420002C44A4F2F3340194A0FB0254C1F3130151
:1004300041F48011C3F3130343F4801301FB02441E
:1004400000FB034E840A970A44EA815447EA835723
:10045000A4FB076802958D0A05FB07854FEA932CDC
:1004600004FB0C542705029D4FEA065847EA16374D
:10047000B5EB08056EEB070C870E920E47EA811765
:1004800042EA8312A7FB0201B6EB0B0164EB000406
:100490002B0D43EA0C335E1844EB1C50DA465146F0
:1004A000E7FB0201C5F313044FEA0B3343EA14538D
:1004B0004FEA0432019C43EA0603A4F10C040294BF
:1004C000009CCDE900B400F0FCF803B0BDE8F08F6B
:1004D00000200146F9E72DE9F04D81EA030404F01C
:1004E000004B21F0004514464FF0000A23F0004174
:1004F00050EA050220D054EA01021DD0C5F30A5784
:100500000246C5F31303C1F31300C1F30A5640F4C6
:10051000801543F48013A7EB0608101BD64608F29B
:10052000FD3873EB050002D308F1010801E09218D1
:100530005B41B8F1000F03DA00200146BDE8F08D01
:1005400000204FF48011064684460EE0171B73EB23
:10055000050705D3121B63EB050306434CEA010CA8
:1005600049084FEA300092185B4150EA0107EDD18B
:1005700052EA030012D082EA040083EA050108432C
:1005800005D0101BAB4106D20122002306E0002259
:100590004FF0004302E06FF0010253101AEB060027
:1005A0004CEB085110EB0A0041EB0B01BDE8F04D9C
:1005B00000F078B830B50B46014600202022012417
:1005C00009E021FA02F59D4205D303FA02F5491B21
:1005D00004FA02F52844151EA2F10102F1DC30BD37
:1005E0002DE9F05F0546002092469B468846064668
:1005F000814640241BE0284641464746224600F0FB
:100600002FF853465A46C01A914110D31146184646
:10061000224600F016F82D1A67EB01084F462246D5
:100620000120002100F00DF817EB00094E41201EBB
:10063000A4F10104DFDC484631462A464346BDE8C2
:10064000F09F202A04DB203A00FA02F100207047D4
:100650009140C2F1200320FA03F319439040704700
:10066000202A04DB203A21FA02F00021704721FA07
:1006700002F3D040C2F1200291400843194670476E
:10068000202A06DBCB17203A41FA02F043EAE07356
:1006900006E041FA02F3D040C2F120029140084343
:1006A0001946704710B5141E73F1000408DA401C97
:1006B00041F1000192185B411A4301D120F0010081
:1006C00010BD2DE9F04D92469B4611B1B1FA81F271
:1006D00002E0B0FA80F220329046FFF7B2FF044603
:1006E0000F4640EA0A0041EA0B0153465A460843C6
:1006F00013D0114653EA010019D0C8F14002504608
:10070000FFF7AEFF05460E46504659464246FFF7F4
:1007100098FF084305D0012004E020463946BDE893
:10072000F08D0020054346EAE0762C4337430A98D3
:100730006305E40AA0EB08000022FD0A44EA4754DE
:100740000A3002D500200146E9E701051019694188
:10075000DDE9084500196941BDE8F04DA2E7C1F3A4
:100760000A52C1F3130140F2FF3341F480119A425F
:1007700002DA00200146704740F233439A42A2F267
:10078000334202DC5242FFF76BBFFFF75ABF000053
:1007900030B5041E71F1000404DB4FF00044404208
:1007A00064EB0101141E73F1000405DB1C464FF0DD
:1007B0000043524263EB0403994208BF904230BDAC
:1007C000064C074D06E0E06840F0010394E807009E
:1007D00098471034AC42F6D3FFF7DAFCFC3A000835
:1007E0001C3B000800BFFEE770B500254FF48034C5
:1007F00004E0802000F0F2FE00B103E0201EA4F12E
:100800000104F6D100BF0CB9032070BD40F2FF50C7
:1008100000F0BAFE2846F8E770B5044605E0164831
:10082000056805F0450000B100E0F8E700BF0420CE
:1008300000F0D4FE20B1042000F0A6FE032070BD1D
:10084000012000F0CBFE20B1012000F09DFE012030
:10085000F5E7094824380068A04201D01020EEE7EF
:1008600040F2FF5000F090FE034820380068082155
:100870000840C0B2E3E70000342C014070B5002608
:100880004FF4803505E01148046804F0450000B1DC
:1008900003E0281EA5F10105F5D100BF15B104F054
:1008A000040028B10326042000F06EFE304670BD1F
:1008B000012000F093FE18B10126012000F064FE33
:1008C00040F2FF5000F060FE3046F0E7342C01406B
:1008D00010B505E00B48046804F0450000B100E0E5
:1008E000F8E700BF042000F079FE20B1042000F0FA
:1008F0004BFE032010BD40F2FF5000F045FE0020EB
:10090000F8E70000342C01402DE9F04105460E4681
:100910004FF0000805E02048076807F0450000B1E7
:1009200000E0F8E700BF042000F058FE28B10420E2
:1009300000F02AFE0320BDE8F081012000F04EFE09
:1009400020B1012000F020FE0120F4E712482438F5
:100950000068A84201D01020EDE740F2FF5000F0FF
:1009600013FE0D482038046804F4604018B9200CC8
:1009700030804046DFE704F4005008B11320DAE786
:1009800004F4804008B11020D5E704F4004008B119
:100990000F20D0E74046CEE7342C014070B500264A
:1009A0004FF4803505E00F48046804F0450000B1BD
:1009B00003E0281EA5F10105F5D100BF15B104F033
:1009C000040028B10326042000F0DEFD304670BD8F
:1009D00004F0400018B10026402000F0D5FD30465C
:1009E000F5E70000342C014010B50849084800F034
:1009F0005BF80021064800F08BF88021044800F0E5
:100A0000B3F90121024800F083F810BD2000002056
:100A10007060024010B50649064800F047F928B159
:100A20000349044800F05AF800F006F810BD000031
:100A3000208000207060024010B50849084800F08E
:100A400033F80021064800F063F88021044800F0E4
:100A50008BF90121024800F05BF810BD000800206E
:100A60008864024010B50649064800F01FF928B115
:100A70000349044800F032F8FFF7B6FF10BD00004C
:100A8000008800208864024010B50549054800F040
:100A90000DF918B10249034800F020F810BD00001C
:100AA00000802020A06402400246094B9A4201D2F5
:100AB000084801E00648103801F000531BB1064B0E
:100AC0000B40C36002E0044B0B40836070470000A2
:100AD00010640240006002407D0F7D0F0246094B0A
:100AE0009A4201D2084801E00648103801F000534C
:100AF0001BB1064B0B40C36002E0044B0B4083600C
:100B00007047000010640240006002407D0F7D0FBE
:100B100021B1026842F00102026003E0026822F0A3
:100B20000102026070470000016821F001010160CC
:100B30000021016041608160C1600161212141614A
:100B40004A49884204D13D21484A103A91608CE0DC
:100B500046491831884205D14FF47461434A103A2E
:100B6000916082E041493031884205D14FF47411DF
:100B70003E4A103A916078E03C494831884205D1BC
:100B80004FF07461394A103A91606EE03749603134
:100B9000884204D13649354A103AD16065E033497C
:100BA0007831884204D13349304A103AD1605CE050
:100BB0002E499031884204D12F492C4A103AD160F5
:100BC00053E02A49A831884205D14FF03D51274AC8
:100BD000103AD16049E02949884204D13D21274A91
:100BE000083A116041E025491831884205D14FF497
:100BF0007461224A083A116037E020493031884256
:100C000005D14FF474111D4A083A11602DE01B49BB
:100C10004831884205D14FF07461184A083A116092
:100C200023E016496031884204D11149134A121F4A
:100C300011601AE011497831884204D10D490F4AF8
:100C4000121F116011E00D499031884204D10A4908
:100C50000A4A121F116008E00849A831884204D1ED
:100C60004FF03D51054A121F11607047106002405D
:100C70003D000020400F002000003D201064024095
:100C800021B1026842F02002026003E0026822F013
:100C9000200202607047014600200A6802F001024B
:100CA0000AB1012000E000207047000070B5024644
:100CB000002000240025124EB24201D2114B01E067
:100CC0000F4B103B104E0E4036B11E2606EAD124C3
:100CD000166806EA040502E0566906F0800501F090
:100CE00000560EB15C6800E01C68084E344004EA0F
:100CF000010616B10DB1012000E0002070BD00001A
:100D000010640240006002403C0F3C0F7D0F7D0FDD
:100D100010B500220268134B1A40CC680B682343BD
:100D20004C6923438C692343CC6923430C6A2343D6
:100D30004C6A23438C6A23434C6B23438C6B2343C1
:100D40001A430260426922F00702D1E90B342343BF
:100D50001A4342610B6943604B6883608B68C360D0
:100D600010BD00003F801CF04160704770470000DC
:100D700010B5C82002F06BFC012000F0DDF801285E
:100D800011D141020A4800F01AFA0A480078401CC2
:100D90000849087002F02FFC06480078042802DD9C
:100DA000002004490870012000F0C0F810BD0000C8
:100DB000000402401400002010B5C82002F047FCD7
:100DC000042000F0B9F801283FD14102214800F089
:100DD000F4F921480078012806D0022810D0032811
:100DE0001AD0042830D123E01C480078401C1B494D
:100DF000087008460078632801D10020087023E0BD
:100E000017480078401C1649087008460078632887
:100E100001D10020087017E012480078401C1149E9
:100E2000087008460078632801D1002008700BE0A4
:100E30000D480078401C0C4908700846007863286B
:100E400001D10020087000BF00BF042000F06EF840
:100E500010BD000000040240140000201600002015
:100E600017000020180000201900002010B5C8202D
:100E700002F0EDFB082000F05FF8012844D14102A8
:100E8000234800F09AF92348007806283BD2DFE88F
:100E900000F03A030E19242F1F480078401E1E4907
:100EA00008700846007808B9632008702BE01B48DA
:100EB0000078401E194908700846007808B9632078
:100EC000087020E016480078401E15490870084652
:100ED000007808B96320087015E012480078401EB9
:100EE000104908700846007808B9632008700AE0C5
:100EF0000D480078401E0C4908700846007808B973
:100F00001E20087000BF00BF082000F00FF810BDC1
:100F100000040240140000201600002017000020EA
:100F20001800002019000020150000200149086069
:100F300070470000143C014001460020034A12683B
:100F40000A400AB1012000E000207047143C014033
:100F50002DE9FC4107460D460026002400200090A4
:100F6000019008205B49086010204860402088609C
:100F70000020C8604FF480600861084600F07AFBEA
:100F80001020FFF749FC044614B12046BDE8FC815F
:100F90005148008800044F490860372048604020CD
:100FA00088600020C8604FF480600861084600F047
:100FB00061FB3720FFF730FC04460CB12046E5E723
:100FC0004FF0FF30454908600820486030208860B5
:100FD0000220C8600020086101204861084600F036
:100FE000E3FA00203B4908603320486040208860D5
:100FF0000020C8604FF480600861084600F03AFBAA
:101000003320FFF709FC04460CB12046BEE70CE094
:101010004FF4001000F0E2FA38B1314800684DF8A2
:101020002600761C022E00D307E02D484C380068BD
:1010300040F22A6108400028EAD000BF082000F0F2
:10104000CDFA20B1082000F09FFA04209EE702208C
:1010500000F0C4FA20B1022000F096FA022095E7D1
:10106000202000F0BBFA20B1202000F08DFA0620ED
:101070008CE74FF4007000F0B1FA28B14FF4007023
:1010800000F082FA072081E740F2FF5000F07CFA7E
:1010900000980006009901F47F4140EA0120009980
:1010A00001F47F0140EA1120009940EA1160686074
:1010B00001980006019901F47F4140EA012001995D
:1010C00001F47F0140EA1120019940EA1160286093
:1010D00020465BE788080020240000209C080020B0
:1010E000802C0140F0B50A4600210023002400BFF7
:1010F0003DE0012505FA01F3156805EA03049C4269
:1011000034D105684F000326BE40B543056015790C
:101110004E00B5400668354305601579012D02D0B3
:101120001579022D16D185684F000326BE40B543C0
:10113000856055794E00B5408668354385604568C1
:1011400001268E40B5434560456896798E40B6B21B
:1011500035434560C5684F000326BE40B543C560B2
:10116000D5794E00B540C6683543C560491C102985
:10117000BFD3F0BDF0B5002300244D07ED0E02FAF9
:1011800005F3CE1000F1200555F826504E07F70E56
:101190000F26BE40B543CF1000F1200646F8275079
:1011A000CE1000F1200555F8265045EA0304CE1074
:1011B00000F1200545F82640F0BD418370470183CA
:1011C000704700BFFEE700001CB5044600200190F8
:1011D0000090224800880004214908600D204860E2
:1011E000402088600020C8604FF480600861084695
:1011F00000F040FA1B480068009002E019480068BF
:101200000090009800F045000028F7D0012000F081
:10121000E5F920B1012000F0B7F901201CBD042040
:1012200000F0DCF920B1042000F0AEF90320F5E76E
:101230000C48243800680D2801D01020EEE740F259
:10124000FF5000F0A1F9074820380068019001988C
:10125000C0F3432020700020E0E7000024000020BD
:1012600088080020342C014000BFFEE770470000D2
:1012700070B5002100230F22C4781CB3174C2468DA
:1012800004F4E064C4F5E064C4F30721C1F104048C
:10129000E3B20A4144789C40E1B28478144021438F
:1012A0000C07210E0E4C05786155047804F01F05DB
:1012B0000124AC4005786D11AD0005F1E025C5F8BD
:1012C000004109E0047804F01F050124AC40054DFD
:1012D0000678761145F8264070BD00000CED00E060
:1012E00000E400E080E100E002490143024A1160AD
:1012F000704700000000FA050CED00E010B5024850
:1013000001F0F1FB10BD0000001000401FB50121ED
:10131000102000F03FF80020ADF80C004CF24F30E8
:1013200002905320ADF8040001A9114801F0F0FB30
:1013300036208DF8000001208DF8030009208DF87B
:10134000010000208DF802006846FFF791FF00229F
:101350000121074801F0D3FB0121054801F0A8FB5A
:101360000020034948620121014801F0B0FB1FBD84
:101370000010004029B1064A12680243044B1A606B
:1013800004E0034A12688243014B1A607047000070
:101390003038024029B1064A12680243044B1A60F1
:1013A00004E0034A12688243014B1A607047000050
:1013B0004038024029B1064A12680243044B1A60C1
:1013C00004E0034A12688243014B1A607047000030
:1013D0004438024029B1064A12680243044B1A609D
:1013E00004E0034A12688243014B1A607047000010
:1013F00024380240F0B500210022002402250026F6
:101400000223324F3F6807F00C0121B1042905D0B7
:10141000082937D105E02E4F076036E02D4F0760D1
:1014200033E02A4F3F1F3F68C7F38056274F3F1FC7
:101430003F6807F03F036EB1264FB7FBF3F7DFF8C5
:101440008CC0ACF1040CDCF800C0CCF3881C07FBAA
:101450000CF40CE01E4FB7FBF3F7DFF870C0ACF1F3
:10146000040CDCF800C0CCF3881C07FB0CF4174F0D
:101470003F1F3F68C7F301477F1C7D00B4FBF5F7B2
:10148000076002E0124F076000BF00BF0F4F3F68C8
:1014900007F0F0010909104F7A5C0768D7404760F0
:1014A0000A4F3F6807F4E051890A0B4F7A5C47689E
:1014B000D7408760054F3F6807F46041490B064FEE
:1014C0007A5C4768D740C760F0BD0000083802402A
:1014D0000024F40040787D01000000207CB5054622
:1014E000002400200090019000260DB1022600E0AB
:1014F00000262248006800F0007008B10E207CBD74
:101500001F49098888B26946FFF722FD04460CB1DD
:101510002046F4E7019800F4802060B31848008862
:101520000004184908603720486040208860002087
:10153000C8604FF480600861084600F09BF83720CF
:10154000FFF76AF904460CB12046D8E70D4806605B
:1015500006200C494860402088600020C8604FF495
:1015600080600861084600F085F80620FFF754F90E
:1015700004462046C3E72520C1E70000142C0140A3
:1015800024000020880800200149086070470000FE
:10159000382C01400146034A106820F0FF00084340
:1015A00010607047042C014000210B4B02681A6048
:1015B0001B1D42681A601A1D116821F0F701D0E95D
:1015C00002231A4303691A4343691A431143024A27
:1015D0000832116070470000242C014001460020B1
:1015E000034A12680A400AB1012000E00020704757
:1015F000342C01400248006800F0030070470000EE
:10160000002C014010B500F0C3FC10BD00210A4AB7
:10161000116847F6FF629143027D83681A4343686D
:101620001A43C3681A4303681A4303691A431143F0
:10163000014A116070470000042C014000200B4952
:101640000860091D0860091D0860091D0860074938
:1016500024310860091D0860091D08600448034919
:10166000383108600020091D08607047002C0140D7
:10167000FF07C0000021094B02681A601A1D11689B
:101680006FF30A01D0E901231A43C3681A430369BF
:101690001A431143014A121D11607047082C014082
:1016A0000149086070470000002C01407CB500F043
:1016B000B3FE51224FF480611A48FEF7E1FDFFF7B7
:1016C00025FE0220010200221346CDE90010154834
:1016D00000F0D8FEFFF712FE0546294612A001F0E1
:1016E00011FBFFF713FE0220010200221346CDE991
:1016F0000010114800F0F6FCFFF700FE05462946F1
:1017000009A001F0FFFA002407E00B48025D214622
:101710000AA001F0F7FA601C84B2B4F5806FF4D32C
:101720007CBD00007000002054696D65733A25642B
:101730002075732000000000700400204461746173
:10174000202564203A202578200D0A0070B590B03D
:1017500004460E46154600BF1A48FFF79CFA0028BB
:10176000FAD11848FFF7E0F94FF0006001901648F1
:101770000290039404950020059006904FF4806039
:101780000790800008908000099000200A904FF494
:1017900040300B9004200C9003200D904FF400007B
:1017A0000E9080100F9001A90648FFF7B1FA202192
:1017B0000448FFF765FA01210248FFF7A9F910B0C4
:1017C00070BD000058640240802C014070B5044692
:1017D000002516480078032802D12725284670BD29
:1017E0001248007838B111480078012803D00F481A
:1017F0000078022817D1B4F5805F02D1272528464A
:10180000EDE7E0B2FFF76AFE054665B908480068F3
:1018100020F4C0500649086008460068204308606C
:101820000846006808602846D9E70000200000202C
:10183000042C014030B5014600200022B24B1B7839
:1018400081F84E30B14B1B88A1F84C30B04B1B686F
:101850001A0E93090B70C2F383034B7002F003035B
:101860008B70AB4B1B68C3F30742CA70A84B1B8835
:10187000C3F307220A71A64B1A784A715B681A0EE5
:101880001301CB80A24B5B68C3F30742CB8843EACA
:101890001213CB8002F00F030B729D4B9B88C3F396
:1018A0000722D3094B72C2F380138B72C2F3401329
:1018B000CB72C2F300130B7300234B73924B1B7854
:1018C0003BB1914B1B78012B03D08F4B1B78032B23
:1018D0003CD193071B0D0B618D4B1A790B6943EAC1
:1018E00082030B618A4B9B681A0E0B6943EA9213C1
:1018F0000B61C2F3C2030B7502F007034B75844BF7
:101900009B68C3F3074253098B75C2F38203CB75FF
:1019100093075B0F0B767E4B1B89C3F307220B7E6D
:1019200043EAD2130B760B695B1C4B640C7EA41C40
:101930000125A5404B6C6B434B640C7A0123A340FB
:101940008B64D1E9113463434B6428E06E4B1B7800
:10195000022B24D16E4B1A7993069B0A0B616C4BB8
:101960009B681A0E0B6943EA02230B61684B9B6864
:10197000C3F307420B6913430B61654B1B89C3F328
:1019800007220B695B1C4FF40074A3FB04434FF464
:101990008063A4FB03344B644FF400738B64C2F385
:1019A000801301F8193F93065B0E4B70584B1A7A5F
:1019B0004B7843EAD2134B7002F07F038B70544B89
:1019C000DB681A0ED309CB70C2F341130B71C2F35B
:1019D00082034B7193071B0F8B714D4BDB68C3F375
:1019E00007428B7943EA92138B71C2F34013CB7198
:1019F00000230B7202F001034B72454B9B89C3F32A
:101A00000722D3098B72C2F38013CB72C2F3401347
:101A10000B73C2F300134B73C2F381038B7302F099
:101A20000303CB733A4B1A7B53080B7401234B749B
:101A3000384B1B681A0ECA741939364B1B68C3F32E
:101A400007421402CC85334B1B88C3F30722CB8D8E
:101A50001343CB852F4B1A7814060C635B681A0E60
:101A60000B6B43EA02440C632A4B5B68C3F30742E7
:101A70000B6B43EA02240C63264B9B88C3F30722BB
:101A80000B6B13430B63234B1A7934235A54214BAA
:101A90009B681A0E35235A541E4B9B68C3F30742AA
:101AA00014068C631B4B1B89C3F307228B6B43EA21
:101AB00002448C63174B1A7A8B6B43EA02248C63C3
:101AC000144BDB681A0E8B6B13438B63114BDB6873
:101AD000C3F307423C235B5C43EA12143C235C548F
:101AE00013071C0DCC870B4B9B89C3F30722CB8FAD
:101AF0001343CB87074B1A7B540840235C540124C3
:101B000041235C5430BD0000200000202400002050
:101B1000B4080020C40800203EB50024002501219F
:101B20004448FFF727FC0121C802FFF743FC0121CD
:101B3000C802FFF74FFC4FF4F850019002208DF8D7
:101B400008008DF8090000208DF80A0001208DF8AA
:101B50000B0001A93848FFF7C5FA0420019001A93C
:101B60003648FFF7BFFA0C2208213348FFF702FB83
:101B70000C2209213048FFF7FDFA0C220A212E48D9
:101B8000FFF7F8FA0C220B212B48FFF7F3FA0C228F
:101B900011462948FFF7EEFA0C2202212748FFF7E9
:101BA000E9FA00214FF40060FFF714FCFFF746FD4F
:101BB00031208DF8000000208DF801008DF8020022
:101BC00001208DF803006846FFF752FB00F0EEF8A5
:101BD000044614B900F038F804461CB91848FFF759
:101BE00029FE044634B91649B1F84C10080400F037
:101BF000EFFB044624B94FF40060FFF7E7FD04460D
:101C00001CB110480078032812D10D4890F84E00FE
:101C100020B10B4890F84E00012801D1022500E0C8
:101C200000252846FFF7B6FC002000F0E9FB04463B
:101C300020463EBD0C00400000080240000C02405F
:101C4000D40800202000002038B500240120009096
:101C5000FFF7D0FC10B92524204638BD4D48007848
:101C6000042824D000204C49086002204860C0208D
:101C700088600020C8604FF4806008610846FFF764
:101C8000F9FCFEF7FBFD04460CB12046E5E74348AE
:101C90000068434908604148001D006848603F48AB
:101CA0000830006888603D480C300068C8603948DA
:101CB000007858B137480078012807D035480078B7
:101CC000062803D033480078022816D10020324974
:101CD000086003204860402088600020C8604FF4FE
:101CE000806008610846FFF7C5FC69460320FEF7DF
:101CF0000BFE04460CB12046AFE7264800780328C7
:101D000016D1BDF800000004234908600320486094
:101D1000402088600020C8604FF480600861084659
:101D2000FFF7A8FCFEF7AAFD04460CB1204694E795
:101D30001848007804282AD0BDF800001949086026
:101D4000BDF8000000041449086009204860C02064
:101D500088600020C8604FF4806008610846FFF783
:101D600089FCFEF78BFD04460CB1204675E70B4855
:101D700000680D4908600948001D00684860074870
:101D800008300068886005480C300068C860002092
:101D900063E700002000002088080020142C014088
:101DA000C408002024000020B40800202DE9F047DA
:101DB0000027002400260025A046A14676206E4973
:101DC00008750020086048608860C860086108469F
:101DD000FFF71CFC0320FFF763FC6848006840F431
:101DE00080706649086000BF12E000206449086006
:101DF00048608860C8604FF4806008610846FFF75B
:101E000039FCFEF7F1FC044604B903E0781CC7B2C4
:101E10004A2FEADB00BF14B12046BDE8F0874FF43B
:101E2000D57057490860082048604020886000202D
:101E3000C8604FF4806008610846FFF71BFCFEF79E
:101E4000ADFD044624B901204E4908704FF0804989
:101E500000204B49086037204860402088600020FF
:101E6000C8604FF4806008610846FFF703FC372024
:101E7000FEF7D2FC0446002C4CD135E0002040494E
:101E8000086037204860402088600020C8604FF418
:101E9000806008610846FFF7EDFB3720FEF7BCFCC9
:101EA00004460CB12046B8E7374849EA00003449F7
:101EB000086029204860402088600020C8604FF4F6
:101EC000806008610846FFF7D5FBFEF701FD044678
:101ED0000CB12046A1E7294810300668012080EAAD
:101EE000D67080F001086D1CB8F1000F03D14FF6D9
:101EF000FF708542C2D34FF6FF70854202D31B2488
:101F000020468AE706F08040061E33D002201D4995
:101F100008702FE01DE01D48194908600120486045
:101F2000402088600020C8604FF480600861084647
:101F3000FFF7A0FBFEF7CCFC04460CB120466CE793
:101F40000E4810300668012080EAD67080F0010843
:101F50006D1CB8F1000F03D14FF6FF708542DAD344
:101F60004FF6FF70854202D31B24204655E703201D
:101F700004490870204650E770080020042C0140F6
:101F80008808002020000020000010800080FF80D2
:101F900010B54FF48070FFF721FB78B34C48007800
:101FA000012814D100204B4908600C2048604020D3
:101FB00088600020C8604FF4806008610846FFF721
:101FC00059FB0C20FEF728FC4349087002E0002072
:101FD000414908704148006840F480703F490860FA
:101FE000081D00684CF23A3188433C49091D0860DD
:101FF00001203B4908703848007810BDFFE70220F7
:10200000FFF7ECFA78B10220FFF7BEFA3348001D63
:1020100000684CF23A3188433049091D08600220BB
:102020002D490870E9E70820FFF7D8FA78B10820B1
:10203000FFF7AAFA2948001D00684CF23A3188439C
:102040002649091D0860042023490870D5E720208F
:10205000FFF7C4FA78B12020FFF796FA1F48001D59
:1020600000684CF23A3188431C49091D086006207B
:1020700019490870C1E71020FFF7B0FA78B11020B5
:10208000FFF782FA1548001D00684CF23A31884388
:102090001249091D086005200F490870ADE74FF48B
:1020A0000070FFF79BFA80B14FF40070FFF76CFAF5
:1020B0000A48001D00684CF23A3188430749091D5F
:1020C000086007200449087097E7002095E70000A2
:1020D00029000020880800202A000020382C014018
:1020E0002B0000202DE9FF5F17469846DDE90E46DC
:1020F0004FF00009CA464FF0FF35AA490098086022
:102100000020A9490860A9480078022805D10402E6
:10211000780A40EAC8574FEA68280020A449886036
:102120004860401E0860012048610020C8600861C6
:102130000846FFF739FA9C481838006800F000702C
:1021400018B10E2004B0BDE8F09F002C21DDB4F5DD
:10215000006F1EDC601E2040D8B9204601F06EFAE8
:10216000834694480460102092494860402088606B
:102170000020C8604FF4806008610846FFF77AFAD3
:102180001020FEF749FB8146B9F1000F03D0484605
:10219000D8E72620D6E7012E6FD906FB04F0B0F170
:1021A000007F01D32620CDE74FEA0B1080498860DD
:1021B00006FB04F048604FF0FF30086001204861E2
:1021C0000220C860002008610846FFF7EDF9794851
:1021D0000760122077494860402088600020C8606E
:1021E0004FF4806008610846FFF744FA1220FEF7BA
:1021F00013FB8146B9F1000F01D04846A2E76E48B3
:10220000007800287ED11EE04FF40040FFF7E6F989
:10221000A8B14FF0000A08E06348543000686149F3
:10222000096841F82A000AF1010ABAF1080FF3D34C
:102230005C48006820305B490860604D03E00DB9E0
:1022400004207FE76D1E58480830006840F22A31AC
:1022500008400028D8D00820FFF7C0F920B1082096
:10226000FFF792F904206DE70220FFF7B7F928B1D4
:102270000220FFF789F9022064E790E02020FFF7B1
:10228000ADF920B12020FFF77FF906205AE74FF47F
:102290000070FFF7A3F928B14FF40070FFF774F94D
:1022A00007204FE70AE04048543000683D4909687C
:1022B00008603C480068001D3A4908604FF400106F
:1022C000FFF78CF90028EED14FF48070FFF786F904
:1022D00020B33648007838B134480078012803D05C
:1022E00032480078022819D10020324908600C20B9
:1022F0004860402088600020C8604FF4806008611A
:10230000084600E00FE0FFF7B5F90C20FEF784FA6D
:102310008146B9F1000F01D0484613E740F2FF5063
:10232000FFF732F93BE024480078012837D100203C
:1023300023490870012023490870002022490870B1
:1023400019481030006840F22A310843164910310C
:1023500008601548006840F008001349086006FB53
:1023600004F100220098FFF7F1F900E06D1E174814
:10237000006800F0006008B9002DF7D10DB9042005
:10238000E0E600BF1048007818B90D480078002832
:10239000F8D00B48007810B1094890F800904846F2
:1023A000D0E600002C0000202C2C01402000002052
:1023B0009C0800208808002028000020FFFF7F00E4
:1023C0002A000020290000202B0000200064024089
:1023D00010B50446094804600720084948604020B9
:1023E00088600020C8604FF4806008610846FFF7ED
:1023F00041F90720FEF710FA10BD00008808002000
:1024000001460020012900D011B9024B197000E0EB
:10241000262070472800002010B50948406C010DA7
:1024200008A000F06FFC0648816C0BA000F06AFC6D
:102430000348B0F84C100FA000F064FC10BD000081
:10244000D40800205344206D656D6D6F72793A2574
:1024500064204D420D0A00005344204361726442DF
:102460006C6F636B53697A652073697A653A25648A
:102470000D0A0000534420524341203A3078255839
:102480000D0A00002DE9FF5F84B0DDE91247002648
:10249000002003900290002580468146019007FBB2
:1024A00004FBDDF810A0DDF810A0BAF1000F03D195
:1024B000262008B0BDE8F09F0020DA490860DA491C
:1024C00088604860401E0860012048610020C860A4
:1024D00008610846FFF768F8D2481838006800F02D
:1024E000007008B10E20E4E7D0480078022808D137
:1024F0000402DDE90601400A40EAC1504912CDE973
:102500000601002C1FDDB4F5006F1CDC601E2040AE
:10251000C8B9204601F092F80390C5480460102025
:10252000C3494860402088600020C8604FF4806044
:1025300008610846FFF79EF81020FEF76DF9064681
:102540001EB13046B5E72620B3E7012F7ED907FB41
:1025500004F0B0F1007F01D32620AAE7B348007849
:1025600038B1B2480078012803D0B048007802287A
:102570002DD1B04800880004AD490860372048607C
:10258000402088600020C8604FF4806008610846E1
:10259000FFF770F83720FEF73FF906460EB13046D8
:1025A00087E7A34807601720A1494860402088605A
:1025B0000020C8604FF4806008610846FFF75AF8B1
:1025C0001720FEF729F906460EB1304671E7984903
:1025D0000698086019204860402088600020C86084
:1025E0004FF4806008610846FFF744F81920FEF7B1
:1025F00013F906460EB130465BE7039800018A499D
:10260000886007FB04F048604FF0FF30086001204D
:1026100048610020C86008610846FEF7C5FF86488B
:102620000078002873D1451E43E04FF48040FEF748
:10263000D5FFC8B3ABEB0800202821D2ABEB0800D4
:1026400000F0030028B9ABEB080000E0D2E08008FE
:1026500003E0ABEB08008008401C01904FF000093C
:102660000AE070495431DAF80000086009F1010904
:102670000AF1040A08F1040801988145F1D310E039
:102680004FF0000906E05AF8290066495431086005
:1026900009F10109B9F1080FF5D30AF1200A08F18F
:1026A00020086FF0404504E0FFE70DB9042000E783
:1026B0006D1E5C480830006840F21A31084000285E
:1026C000B3D00820FEF78AFF20B10820FEF75CFF98
:1026D0000420EEE60220FEF781FF20B10220FEF783
:1026E00053FF0220E5E61020FEF778FF20B110200E
:1026F000FEF74AFF0520DCE64FF40070FEF76EFFA0
:1027000030B14FF40070FEF73FFF0720D1E62AE01A
:102710004FF48070FEF762FF00B34448007838B190
:1027200042480078012803D040480078022815D19B
:1027300000203F4908600C2048604020886000204D
:10274000C8604FF4806008610846FEF793FF0C20D4
:10275000FEF762F806460EB13046AAE640F2FF5098
:10276000FEF712FF46E034480078012842D10020ED
:102770003249087001203249087000203149087040
:1027800028481030006840F21A31084325491031BA
:10279000086007FB04F140220498FEF7D7FF2148A8
:1027A000006840F008001F4908604FF0FF3500E066
:1027B0006D1E2548006800F0006008B9002DF7D1B3
:1027C0001DB9FFF7A9F9042073E64FF0FF3500E0CB
:1027D0006D1E1C48007820B91848007808B9002DF3
:1027E000F6D10DB9042064E61448007810B11348FE
:1027F00000785EE640F2FF50FEF7C6FE02A8FEF744
:10280000E3FC064603E002A8FEF7DEFC06463EB9FE
:102810009DF808000728F6D09DF808000628F2D099
:10282000304646E62C2C01409C0800202000002069
:102830008808002024000020280000202A00002012
:10284000290000202B0000200064024010B57121F7
:102850000B4800F02FF8012808D17121084800F03A
:1028600016F808480068401C0649086005480068DA
:10287000B0F5806F02D100200249086010BD000051
:102880000038004010000020CA430281704710B594
:10289000002201F00F040123A3409AB2D343038125
:1028A00010BD0246002013890B400BB1012000E04F
:1028B00000207047F0B502460020002400230025C8
:1028C00001F00F070126BE40B4B20B1101269E4055
:1028D000B3B2968806EA03051689264016B10DB1F3
:1028E000012000E00020F0BD818170470CB5002080
:1028F000019000903448006840F48030324908600C
:1029000000BF3148006800F4003000900198401C7E
:102910000190009818B90198B0F5A04FF1D12A485C
:10292000006800F4003010B10120009001E00020A8
:1029300000900098012846D123484030006840F0BC
:1029400080502149403108602048006840F44040F0
:102950001E4908601C48083000681B49083108609F
:102960000846006840F4004008600846006840F4EB
:10297000A05008601648091F0860081F006840F052
:102980008070091F086000BF0F48006800F00070E9
:102990000028F9D040F205700E4908600A48083056
:1029A000006820F003000849083108600846006804
:1029B00040F00200086000BF03480830006800F0E3
:1029C0000C000828F8D10CBD00380240007000400F
:1029D00019544007003C024010B500BF502080F35E
:1029E0001188BFF34F8FBFF36F8F00BF00F0E2FF7E
:1029F00018B14FF080500449086000BF002080F3F8
:102A0000118800BF10BD000004ED00E010B51548AE
:102A1000006840F47000134908601348006840F0F3
:102A200001001149086000200F49083108600E4874
:102A300000680E4908400C4908600D48091D0860EF
:102A4000081F006820F48020091F08600020064944
:102A50000C310860FFF74AFF4FF0006001498039F0
:102A6000086010BD88ED00E000380240FFFFF6FE70
:102A70001030002410B501210A4800F037F8012871
:102A80000BD109480088401C80B2074908800749DB
:102A900008800021034800F01AF80121014800F0E5
:102AA00013F810BD001000401C0000201A00002088
:102AB00021B1028842F08002028004E002884FF6D1
:102AC0007F731A4002807047CA430282704721B167
:102AD000028842F00102028004E002884FF6FE7391
:102AE0001A40028070470146486A7047024600203B
:102AF000138A0B400BB1012000E0002070471AB18F
:102B000083890B43838102E083898B4383817047F0
:102B100000220288184B98420ED0184B98420BD0D6
:102B2000B0F1804F08D0164B984205D0154B984213
:102B300002D0154B984204D14FF68F731A404B8840
:102B40001A43124B984207D0114B984204D04FF6CB
:102B5000FF431A400B891A4302804B68C3620B88FB
:102B60000385054B984202D0044B984201D18B7AE1
:102B70000386012383827047000001400004014066
:102B80000004004000080040000C0040001000401D
:102B90000014004001F40072B2F5007F00D100BFC4
:102BA000CA430280704721B1828942F40052828177
:102BB00004E082894DF6FF731A4082817047024615
:102BC0000020B1F5007F00D100BF13880B400BB18E
:102BD000012000E000207047F0B5034600240026E5
:102BE0000025002040F66A17B94200D100BF184600
:102BF000C1F3421401F01F06012707FA06F5012C64
:102C000001D10C3004E0022C01D1103000E014306E
:102C10001AB107682F43076002E00768AF430760F7
:102C2000F0BD00002DE9FF4705460E460024A146F1
:102C300000BFA046B08900B100BF2C8A24F44054E4
:102C4000F08804432C82AC8941F20C608443B08844
:102C500031890843718908430443AC81AC8A24F468
:102C60004074B0890443AC826846FEF7C3FB204839
:102C7000854202D01F48854202D1DDF80C9001E068
:102C8000DDF80890A88900F4004040B109EBC900C4
:102C900000EB091031684900B0FBF1F707E009EBE0
:102CA000C90000EB091031688900B0FBF1F764201E
:102CB000B7FBF0F004012009642101FB1078A8891A
:102CC00000F4004040B1322000EBC800B0FBF1F04E
:102CD00000F00700044308E0322000EB08106421F4
:102CE000B0FBF1F000F00F0004432C81BDE8FF873A
:102CF0000010014000140140C1F3080282807047B7
:102D000000BFFEE70FB4054B10B503A9044A0298B3
:102D100000F0DAF810BC5DF814FB0000C1360008C2
:102D20006C00002002E008C8121F08C1002AFAD176
:102D300070477047002001E001C1121F002AFBD13B
:102D4000704700002DE9FF5F82B00021DDE904300B
:102D5000020DDDF840B0034318D044F61050A2F243
:102D6000FF3242431514119801281FD0A5EB0B0028
:102D7000401C5FEA000A4FF000064E4FDFF8389122
:102D8000B046504615D5CAF1000413E0119801244D
:102D90004AA3012801D16FEA0B010298119AC0E9F8
:102DA0000031C0E9024206B0BDE8F09FCBF100005F
:102DB000DFE704460021404A491842EB0450CDE9C0
:102DC000001012E0E00707D032463B464046494635
:102DD000FDF70FFB8046894632463B4610461946B2
:102DE000FDF707FB06460F466410002CEAD1DDE92B
:102DF0000401DDE90023BAF1000F06DAFDF7F9FA64
:102E000042464B46FDF7F5FA05E0FDF764FB424606
:102E10004B46FDF760FB04460E460022284BFDF7AB
:102E2000B7FC03D84FF0FF30014607E00022254BE6
:102E300020463146FDF736FAFDF791FC102409E0F3
:102E4000002C0ADB0A220023FDF7CAFB039B303269
:102E50001A55641E50EA0102F2D1641C039AC4F1AF
:102E600011031444119A012A03D0012208430DD101
:102E70000AE0084304D000204FF0110B119072E7D4
:102E8000A3EB0B056D1E0DE05B4504DD4FF000026A
:102E900005F1010504E003DA4FF00002A5F1010598
:102EA000002AECD002981199C0E90231C0E900452E
:102EB00079E70000000014400000F03F30000000FF
:102EC0000000F0430000E03F2DE9FF4F95B09B4626
:102ED0008946064600250FE2252877D1002427469B
:102EE000F84A0121059400E0044316F8013F203B15
:102EF00001FA03F01042F7D130782A2811D06FF090
:102F00002F033078A0F13002092A16D8059A44F030
:102F1000020402EB820203EB42021044761C05908D
:102F2000EFE759F8042B0592002A03DA504244F4E3
:102F30000054059044F00204761C30782E2816D1F7
:102F400016F8010F44F004042A280DD06FF02F0268
:102F50003078A0F13003092B09D807EB870302EB87
:102F60004303C718761CF3E759F8047B761C3078C6
:102F70006C280FD006DC4C2817D068280DD06A28A2
:102F800014D104E0742810D07A280FD10DE044F455
:102F900000140AE044F4801401E044F44014727810
:102FA000824202D104F58014761C761C30786628A3
:102FB0000BD013DC582877D009DC002875D04528C1
:102FC000F6D04628F4D047281AD19DE118E06328AE
:102FD00035D0642879D0652812D195E1702873D056
:102FE00008DC6728F1D069286FD06E280DD06F28D3
:102FF00006D1B5E073282CD0752875D0782874D008
:103000005A46179990476D1C75E1C4F30250022887
:1030100009D003280DD0D9F8001004280DD00D6078
:1030200009F1040967E1D9F80010EA17C1E9005273
:10303000F6E7D9F800100D80F2E70D70F0E719F807
:10304000041B8DF8001000208DF80100EA460120D5
:1030500003E059F804AB4FF0FF3061074FF0000177
:1030600002D40DE008F101018846B9420FDA80452B
:10307000F8DB1AF808100029F4D108E008F1010182
:1030800088468142FADB1AF808100029F6D1059823
:103090005B46A0EB080721463846179A00F094FAE1
:1030A000284400EB080507E04DE029E10DE01AF89F
:1030B000010B5A4617999047B8F10108F7D25B46C1
:1030C00021463846179A13E142E00A220092C4F3DF
:1030D00002524FF0000A022A08D059F804CB032A02
:1030E0004FEAEC710AD00DE029E02AE009F107016E
:1030F00021F00702F2E802C1914609E00FFA8CFCC8
:103100004FEAEC71042A03D14FFA8CFC4FEAEC71C0
:10311000002907DA0A460021DCF1000C61EB02010C
:103120002D2202E0220504D52B228DF80420012255
:1031300003E0E20701D02022F7E7904659E00A2198
:1031400002E010220DE010214FF0000A00910BE088
:1031500010224FF0000A44F004040827009203E014
:1031600008224FF0000A0092C4F30252022A05D04E
:1031700059F804CB0021032A08D009E009F107011E
:1031800021F00702F2E802C1914605E01FFA8CFC2B
:10319000042A01D10CF0FF0C4FF00008220728D5BB
:1031A000702806D0009B83F0100353EA0A0305D071
:1031B0000EE040228DF80420012208E05CEA0102C2
:1031C00006D030228DF804208DF8050002229046AA
:1031D000009B83F0080353EA0A030AD15CEA010268
:1031E00001D1620705D530228DF804204FF0010887
:1031F0007F1E582804D034A003900EA802900DE042
:1032000036A0F9E753466046009AFDF7E9F984468F
:103210000398825C0298401E029002705CEA0100F2
:10322000F0D1029806A9081A00F1200A600702D519
:1032300024F4803400E00127574502DDA7EB0A00A3
:1032400000E0002000EB0A01009005984144401A7C
:103250000590E00306D45B462146179A059800F0D6
:10326000B3F90544002706E001A85A46C05D179946
:1032700090476D1C7F1C4745F6DBE0030CD55B4691
:103280002146179A059800F09FF9054404E0302084
:103290005A46179990476D1C0099481E00900029C6
:1032A000F5DC08E0029802995A460078491C029120
:1032B000179990476D1CBAF10001AAF1010AF1DCDF
:1032C00065E10000092801003031323334353637EA
:1032D0003839616263646566000000003031323362
:1032E0003435363738394142434445460000000002
:1032F00000F058F90544761C307800287FF4ECADD6
:1033000019B02846BDE8F08F620700D4062709F1FE
:10331000070222F0070CFCE80223E14603F0004814
:103320005FEA080C02D00FF2702C0DE05FEA045C3B
:1033300002D50FF2682C07E05FEAC47C02D00FF2DE
:10334000602C01E0AFF2700C4FF0FF3823F0004327
:10335000CDF850C065280CD006DC452809D0462899
:103360001DD047283DD13DE0662818D067287ED182
:1033700038E00021112F01DB112000E0781CCDE99D
:10338000000106A90EA8FFF7DDFCDDE90F010E9A8A
:1033900003910021009207F1010A04914DE04FF0E2
:1033A00000400097CDE9011006A90EA8FFF7CAFC5E
:1033B000DDE90F0203920E9B11990022DDF80CA0AB
:1033C0000093049211B9791C00EB010AB7EB0A00D3
:1033D00004D4C0F1FF3007F1010A0490AAEB070002
:1033E000019044E0012F00DA01270021112F01DDB7
:1033F000112000E03846CDE9000106A90EA8FFF72C
:10340000A1FCDDE90F010E9A0391002104910092C5
:10341000BA4621070CD40399514500DA8A46BAF11D
:10342000010F05DD009AAAF10101515C302908D095
:10343000B84202DA10F1040F06DA0121CDE90110D9
:1034400015E0AAF10101E9E7002805DC049901442F
:103450000491AAEB000102E0411C514500DD8A46BF
:103460000499401A401C01904FF000400290200740
:1034700004D40198504501DBCDF8048000208DF87C
:103480004F0002980DF14F07B0F1004F25D02B20CF
:103490000E9002984FF0020800280CDA4042029089
:1034A0002D200E9007E00A210298FDF783F83031B5
:1034B000029007F8011DB8F10001A8F10108F2DC43
:1034C00002980028EFD1791E0E980870307800F02D
:1034D000200040F0450007F8020D12A8C01B00F1C3
:1034E00007081498007800B1012000EB0A01019848
:1034F00001EBE07105984144401A401E0590E0033D
:1035000006D45B462146179A059800F05DF80544FD
:103510001498007818B15A46179990476D1CE0032B
:1035200024D55B462146179A059800F04DF80544CE
:103530001CE00498002807DBDDE90301884203DD75
:103540000098405C179901E0179930205A4690473F
:10355000049805F10105401C04900198401E01905B
:1035600004D12E205A46179990476D1CBAF10001DC
:10357000AAF1010ADDDC05E017F8010B5A4617999C
:1035800090476D1CB8F10001A8F10108F4DC5B461E
:103590002146179A0598ABE62D0000002B0000008D
:1035A000200000002DE9F041044600251E46174684
:1035B000880404D405E039462020B0476D1C641E01
:1035C000F9D52846BDE8F0812DE9F04104460025F3
:1035D0001E469046C80301D5302700E02027880406
:1035E00004D505E041463846B0476D1C641EF9D548
:1035F0002846BDE8F08110B5212000F0DBF800205E
:1036000000F0D8F87F2000F0D5F8322000F03BF829
:10361000222000F0CFF8002000F0CCF8072000F0C6
:10362000C9F8322000F02FF8002403E0002000F059
:10363000A3F8641CB4F5806FF8D310BD01460020D8
:1036400002E04910421CD0B20129FAD1704701466C
:1036500045F208224A434FF0E0235A6100229A6162
:1036600001221A6100BF4FF0E022106900F0010250
:103670001AB100F48032002AF5D000224FF0E02386
:103680001A619A6170470146C1EBC10202EB420226
:103690004FF0E0235A6100229A6101221A6100BFB3
:1036A0004FF0E022106900F001021AB100F48032FC
:1036B000002AF5D000224FF0E0231A619A6170478A
:1036C00070B504460D4600BF40210748FFF777FA62
:1036D0000028F9D0E1B20448FFF70EFB4021024870
:1036E000FFF758FA204670BD001001401CB50121BB
:1036F0000220FDF73FFE4FF41870009001208DF876
:10370000040002208DF8050000208DF8060001203D
:103710008DF8070069460648FDF7E4FC402104489F
:10372000FDF74DFD20210248FDF749FD1CBD0000BD
:10373000000402404FF4A060FDF7D6FD4FF4E130E5
:1037400000F070F8FFF7D2FFFEF7E6F9FDF7AEFFE5
:103750000FE04FF400710748FDF731FD6420FFF7DB
:1037600076FF4FF400710348FDF727FD6420FFF753
:103770006EFFEEE70004024010B504464FF480519E
:103780000A48FDF71CFD00BF02210948FFF789F830
:103790000028F9D021460648FFF7A6F80221044880
:1037A000FFF772F80A20FFF76EFF10BD0004024019
:1037B0000038004010B504464FF480510A48FDF728
:1037C000FCFC00BF02210948FFF76BF80028F9D084
:1037D00021460648FFF788F802210448FFF754F80D
:1037E0000A20FFF750FF10BD0004024000380040DF
:1037F0000A490968096809B9012100E0002121B1DD
:103800004FF0FF31064A116006E004490968C968B3
:10381000C868034A41681160704700003400002006
:103820006000002010B588B0044601211020FDF78B
:10383000C1FD01210846FDF79DFD4FF40070069083
:1038400002208DF81C0001208DF81F0006A92448D5
:10385000FDF748FC4FF48060069002208DF81C00B4
:1038600006A91F48FDF73EFC072209211C48FDF769
:1038700081FC07220A211A48FDF77CFC02940020F3
:10388000ADF80C00ADF80E00ADF810000C20ADF84E
:1038900012000020ADF8140002A91248FFF7C2F987
:1038A00025208DF8040000208DF805008DF8060015
:1038B00001208DF8070001A8FDF7DAFC40F2FF3186
:1038C0000848FFF767F9012240F225510548FFF744
:1038D00083F901210348FFF766F908B010BD000025
:1038E000000002400010014001460A69D1E90130A0
:1038F0009860D1E9010358605068884201D1886816
:103900005060002008611068401E10601068704709
:1039100042684A6093688B6093685960916008615F
:1039200003685B1C036070471D48006818B10120E4
:103930001C49086032E000201A4908601A480068F3
:10394000B0FA80F0C0F11F0101EB8100174A52F874
:10395000200008B1012000E0002050B900BF502035
:1039600080F31188BFF34F8FBFF36F8F00BF00BF8D
:10397000FEE701EB81020D4B03EB820042685268C7
:10398000426000F108024368934202D142685268E3
:1039900042604268D268064B1A6000BF7047000060
:1039A000680000205400002048000020240B002064
:1039B000300000202DE9F0414FF000084448006835
:1039C000002877D143480068451C4248056015BB74
:1039D00041480068006808B9012000E0002050B9A3
:1039E00000BF502080F31188BFF34F8FBFF36F8F5C
:1039F00000BF00BFFEE7384807683848006836490E
:103A000008603648076036480068401C3449086042
:103A1000FFF7EEFE00BF3348006885423CD300BF8D
:103A20002D480068006808B9012000E0002020B19E
:103A30004FF0FF302B4908602DE027480068C06830
:103A4000C4686668B54202D22648066023E0201D9D
:103A5000FFF74AFFA06A18B104F11800FFF744FF0E
:103A600094F82C10012088401F49096808431E491A
:103A70000860E16A01EB81011C4A02EB8100211D13
:103A8000FFF746FF1A49E06A0968C96A8842C7D346
:103A90004FF00108C4E700BF15480068C06A00EB9A
:103AA0008000124951F82000012801D94FF0010887
:103AB00005E0FFE70F480068401C0E4908600E480B
:103AC000006808B14FF001084046BDE8F0810000F1
:103AD000680000204400002034000020380000204E
:103AE000580000206000002048000020240B002027
:103AF0003000002050000020540000201C3B000833
:103B00000000002070000000242D00088C3B0008FD
:103B10007000002048100000342D00080000000054
:103B20000102030401020304060708090000000063
:103B30000000191928280000000000000000000003
:103B40000000000001000000000000000000000074
:103B50000000000000000000000000000000000065
:103B60000000000000000000000000000000000055
:103B70000000000000000000000000000000000045
:0C3B800000000000000000000000000039
:040000050800018965
:00000001FF
