:020000040800F2
:10000000400E00205D020008D50F0008CD0F00084B
:10001000D10F0008D3080008411E000800000000AE
:100020000000000000000000000000009D0100082A
:10003000F90C000800000000F9010008ED1A0008A2
:1000400077020008770200087702000877020008AC
:100050007702000877020008FD0C0008770200080C
:10006000450D0008F90D0008770200087702000826
:100070007702000877020008770200087D0B00086D
:10008000770200087702000877020008770200086C
:10009000770200087702000877020008770200085C
:1000A000770200087702000877020008770200084C
:1000B000770200087702000877020008770200083C
:1000C000770200087702000877020008770200082C
:1000D00061190008251C0008770200087702000853
:1000E000770200087702000877020008770200080C
:1000F00077020008770200087702000877020008FC
:1001000077020008770200087702000877020008EB
:100110007702000877020008891B000877020008B0
:1001200077020008770200087702000877020008CB
:1001300077020008770200087702000877020008BB
:1001400077020008770200087702000877020008AB
:10015000CD0B0008F10B00087702000877020008B9
:10016000770200087702000877020008770200088B
:10017000770200087702000877020008770200087B
:100180007702000877020008DFF80CD000F03EFB91
:10019000004800475D320008400E00202C4B1968D3
:1001A0000868B0E8F04F80F30988BFF36F8F4FF015
:1001B000000080F3118870470000000008480068C4
:1001C000006880F308884FF0000080F3148862B65E
:1001D00061B6BFF34F8FBFF36F8F00DF00BF00BF6B
:1001E00008ED00E0DFF80C00016841F470010160E7
:1001F000704700BF88ED00E0EFF30980BFF36F8F19
:10020000134B1A681EF0100F08BF20ED108A20E96A
:10021000F04F106009B44FF0500080F31188BFF325
:100220004F8FBFF36F8F03F0F5F94FF0000080F3AD
:10023000118809BC19680868B0E8F04F1EF0100F6B
:1002400008BFB0EC108A80F30988BFF36F8F704746
:1002500030000020EFF3058070470000064880471B
:1002600006480047FEE7FEE7FEE7FEE7FEE7FEE79B
:10027000FEE7FEE7FEE7FEE7211B00088901000814
:10028000D2B201E000F8012B491EFBD270470022D8
:10029000F6E710B513460A4604461946FFF7F0FF85
:1002A000204610BD2DE9FE4F804681EA0300C00FB5
:1002B0000C46009021F0004123F00045B8EB02000D
:1002C000A94105D24046214690461C460B460246AF
:1002D00023F00040104347D0270DC7F30A00C3F3B3
:1002E0000A510290401A019040286BDAC3F31300C0
:1002F00040F4801B0098924620B10023D2EB030A01
:1003000063EB0B0B01985946C0F14002504600F0D8
:10031000BFF906460D4650465946019A00F0D7F9F6
:1003200010EB08006141002487EA115284EAE77368
:100330001A4340D0009A62B3019A012A4FEA075249
:1003400015DC001B61EB02014FF0004202EA07528C
:10035000CDE90042001C41F5801132462B4600F0E9
:10036000D7F903B0BDE8F08F40462146F9E7001BFE
:1003700061EB0201001C41F5801300185B4120185D
:10038000A2F5001747EB030140EAD570B6196D419D
:1003900011E06D084FEA360645EAC0754FEA07528C
:1003A000001B61EB0201001C41F5801149084FEA76
:1003B00030000019514132462B4603B0BDE8F04FE2
:1003C00000F097B90098012240000023D0EB020210
:1003D00063EBE073009821464FEAE074B8EB00004D
:1003E00061EB0401E9E783F000435BE781F0004142
:1003F00058E72DE9FE4F81EA030404F0004421F0A0
:10040000004100944FF0000B23F0004350EA010438
:100410005ED052EA03045BD0C3F30A54C1F30A5519
:100420002C44A4F2F3340194A0FB0254C1F3130151
:1004300041F48011C3F3130343F4801301FB02441E
:1004400000FB034E840A970A44EA815447EA835723
:10045000A4FB076802958D0A05FB07854FEA932CDC
:1004600004FB0C542705029D4FEA065847EA16374D
:10047000B5EB08056EEB070C870E920E47EA811765
:1004800042EA8312A7FB0201B6EB0B0164EB000406
:100490002B0D43EA0C335E1844EB1C50DA465146F0
:1004A000E7FB0201C5F313044FEA0B3343EA14538D
:1004B0004FEA0432019C43EA0603A4F10C040294BF
:1004C000009CCDE900B400F023F903B0BDE8F08F43
:1004D00000200146F9E72DE9F04D81EA030404F01C
:1004E000004B21F0004514464FF0000A23F0004174
:1004F00050EA050220D054EA01021DD0C5F30A5784
:100500000246C5F31303C1F31300C1F30A5640F4C6
:10051000801543F48013A7EB0608101BD64608F29B
:10052000FD3873EB050002D308F1010801E09218D1
:100530005B41B8F1000F03DA00200146BDE8F08D01
:1005400000204FF48011064684460EE0171B73EB23
:10055000050705D3121B63EB050306434CEA010CA8
:1005600049084FEA300092185B4150EA0107EDD18B
:1005700052EA030012D082EA040083EA050108432C
:1005800005D0101BAB4106D20122002306E0002259
:100590004FF0004302E06FF0010253101AEB060027
:1005A0004CEB085110EB0A0041EB0B01BDE8F04D9C
:1005B00000F09FB80EB5C10F80EAE0700844CA078A
:1005C000002140F233438DE80E000A460B4600F04E
:1005D0009FF803B000BD0EB540F2334102910021F7
:1005E000CDE900110A460B4600F092F803B000BDB9
:1005F00070B5C1F30A5201F000450024C1F31301A4
:1006000040F2FF3341F480119A4201DA002070BDBC
:1006100040F233439A42A2F2334203DC524200F0EA
:1006200046F800E090402C43F1D0404270BD2DE9E7
:10063000F05F0546002092469B4688460646814666
:1006400040241BE0284641464746224600F02FF84A
:1006500053465A46C01A914110D3114618462246B5
:1006600000F016F82D1A67EB01084F4622460120CC
:10067000002100F00DF817EB00094E41201EA4F1F7
:100680000104DFDC484631462A464346BDE8F09F78
:10069000202A04DB203A00FA02F100207047914042
:1006A000C2F1200320FA03F3194390407047202A37
:1006B00004DB203A21FA02F00021704721FA02F30C
:1006C000D040C2F120029140084319467047202AC9
:1006D00006DBCB17203A41FA02F043EAE07306E06A
:1006E00041FA02F3D040C2F120029140084319467A
:1006F000704710B5141E73F1000408DA401C41F174
:10070000000192185B411A4301D120F0010010BD95
:100710002DE9F04D92469B4611B1B1FA81F202E00B
:10072000B0FA80F220329046FFF7B2FF04460F463F
:1007300040EA0A0041EA0B0153465A46084313D0E7
:10074000114653EA010019D0C8F140025046FFF7A4
:10075000AEFF05460E46504659464246FFF798FF03
:10076000084305D0012004E020463946BDE8F08D5D
:100770000020054346EAE0762C4337430A98630598
:10078000E40AA0EB08000022FD0A44EA47540A30BC
:1007900002D500200146E9E7010510196941DDE9AC
:1007A000084500196941BDE8F04DA2E770B521F098
:1007B000004303430CD0C1F30A550024D5EB0405D4
:1007C00064EB0403D617AD1AB34102DB00200146E7
:1007D00070BD201841EB025170BD000030B5041E01
:1007E00071F1000404DB4FF00044404264EB01016E
:1007F000141E73F1000405DB1C464FF00043524207
:1008000063EB0403994208BF904230BD064C074D8C
:1008100006E0E06840F0010394E8070098471034D0
:10082000AC42F6D3FFF7B4FC7838000898380008DB
:100830002DE9F04D00231A461B1A8A4103DB0020E4
:100840000146BDE8F08DC1F30A52C1F3130141F432
:1008500080154FF0000BD10702D100186D41521ED8
:100860000027044640F2FF11384601EB620A3E467B
:100870008046024600204FF48011FFF718FFC2198E
:100880007141BB1846EB0100B4EB030C75EB000C97
:1008900004D3E41A65EB000517460E46241908F147
:1008A00001006D4180463428E3DDF91946EB06006E
:1008B000091BA84103D24FF0FF32134601E000228A
:1008C00013461BEB070046EB0A51BDE8F04DFFF75E
:1008D00010BF00BFFEE7000010B5002419209149A9
:1008E000087012E1012000F08BFC012805D100F016
:1008F0004DFC01208B4908700CE1402000F080FC89
:10090000012806D1402000F041FC002085490870F4
:1009100000E1802000F074FC012806D1802000F066
:1009200035FC00207F490870F4E0042000F068FCEA
:10093000012806D1042000F029FC03207949087021
:10094000E8E0022000F05CFC012806D1022000F063
:100950001DFC022073490870DCE0082000F050FC08
:10096000012806D1082000F011FC04206D49087010
:10097000D0E0102000F044FC012806D1102000F047
:1009800005FC052067490870C4E0202000F038FC11
:10099000012806D1202000F0F9FB062061490870EB
:1009A000B8E04FF4807000F02BFC012806D1000263
:1009B00000F0ECFB09205B490870ABE04FF40070DD
:1009C00000F01EFC012806D1400200F0DFFB0A20E7
:1009D000544908709EE04FF4806000F011FC01283B
:1009E00006D1800200F0D2FB0B204E49087091E046
:1009F0004FF4800000F004FC012806D1800500F0CF
:100A0000C5FB17204749087084E04FF4000000F050
:100A1000F7FB012806D1C00500F0B8FB18204149BA
:100A2000087077E00C2000F0EBFB012803D10C20CC
:100A30003C4908706EE00D2000F0E2FB012803D174
:100A40000D203849087065E00D2000F0D9FB012821
:100A500003D10D20334908705CE00E2000F0D0FB7C
:100A6000012803D10E202F49087053E00F2000F019
:100A7000C7FB012803D10F202A4908704AE0102043
:100A800000F0BEFB012803D110202649087041E088
:100A9000112000F0B5FB012803D111202149087075
:100AA00038E0122000F0ACFB012803D112201D49D0
:100AB00008702FE0132000F0A3FB012803D11320BE
:100AC0001849087026E0142000F09AFB012803D191
:100AD0001420144908701DE0152000F091FB012836
:100AE00003D115200F49087014E0162000F088FB90
:100AF000012803D116200B4908700BE040F6B830EE
:100B0000844201D9192010BD641C064800780028D1
:100B10007FF4E8AE00BF044800F038FB01480078DD
:100B2000F1E7000026000020FF07C00070B586B086
:100B300004460E4615460196029403950020049043
:100B40004FF48060059001A800F090FB06B070BDE6
:100B500010B50849084800F05BF80021064800F08D
:100B60008BF88021044800F0C5F80121024800F00C
:100B700083F810BD200000207060024010B50649C7
:100B8000064800F085F828B10349044800F05AF8F7
:100B900000F006F810BD00002080002070600240C8
:100BA00010B50849084800F033F80021064800F065
:100BB00063F88021044800F09DF80121024800F00C
:100BC0005BF810BD000800208864024010B506499B
:100BD000064800F05DF828B10349044800F032F8F7
:100BE000FFF7B6FF10BD00000088002088640240B7
:100BF00010B50549054800F04BF818B10249034803
:100C000000F020F810BD000000802020A064024009
:100C10000246094B9A4201D2084801E006481038C2
:100C200001F000531BB1064B0B40C36002E0044BC4
:100C30000B40836070470000106402400060024077
:100C40007D0F7D0F0246094B9A4201D2084801E010
:100C50000648103801F000531BB1064B0B40C3602F
:100C600002E0044B0B4083607047000010640240B8
:100C7000006002407D0F7D0F21B1026842F0010249
:100C8000026003E0026822F0010202607047000087
:100C900070B50246002000240025124EB24201D257
:100CA000114B01E00F4B103B104E0E4036B11E268B
:100CB00006EAD124166806EA040502E0566906F041
:100CC000800501F000560EB15C6800E01C68084E1B
:100CD000344004EA010616B10DB1012000E0002005
:100CE00070BD000010640240006002403C0F3C0FE9
:100CF0007D0F7D0F416070477047000010B5C82020
:100D000002F02CFA012000F0DDF8012811D1410297
:100D10000A4800F059F90A480078401C0849087050
:100D200002F0F9F906480078042802DD00200449A1
:100D30000870012000F0C0F810BD0000000402405F
:100D40002000002010B5C82002F008FA042000F0AE
:100D5000B9F801283FD14102214800F033F9214878
:100D60000078012806D0022810D003281AD00428C1
:100D700030D123E01C480078401C1B49087008460D
:100D80000078632801D10020087023E0174800781C
:100D9000401C1649087008460078632801D10020DD
:100DA000087017E012480078401C11490870084686
:100DB0000078632801D1002008700BE00D4800780E
:100DC000401C0C49087008460078632801D10020B7
:100DD000087000BF00BF042000F06EF810BD0000D6
:100DE00000040240200000202200002023000020F8
:100DF000240000202500002010B5C82002F0AEF924
:100E0000082000F05FF8012844D14102234800F097
:100E1000D9F82348007806283BD2DFE800F03A03EF
:100E20000E19242F1F480078401E1E4908700846DE
:100E3000007808B9632008702BE01B480078401E3A
:100E4000194908700846007808B96320087020E046
:100E500016480078401E154908700846007808B901
:100E60006320087015E012480078401E1049087091
:100E70000846007808B9632008700AE00D48007839
:100E8000401E0C4908700846007808B91E200870FA
:100E900000BF00BF082000F00FF810BD00040240A2
:100EA0002000002022000020230000202400002039
:100EB0002500002021000020014908607047000043
:100EC000143C014001460020034A12680A400AB15E
:100ED000012000E000207047143C0140F0B50A46B4
:100EE00000210023002400BF3DE0012505FA01F3A5
:100EF000156805EA03049C4234D105684F000326B7
:100F0000BE40B543056015794E00B54006683543CF
:100F100005601579012D02D01579022D16D185684D
:100F20004F000326BE40B543856055794E00B5405D
:100F3000866835438560456801268E40B543456027
:100F4000456896798E40B6B235434560C5684F0016
:100F50000326BE40B543C560D5794E00B540C6688E
:100F60003543C560491C1029BFD3F0BDF0B500233F
:100F700000244D07ED0E02FA05F3CE1000F1200516
:100F800055F826504E07F70E0F26BE40B543CF103A
:100F900000F1200646F82750CE1000F1200555F844
:100FA000265045EA0304CE1000F1200545F82640FE
:100FB000F0BD0246002013690B400BB1012000E098
:100FC00000207047418370470183704700BFFEE7F0
:100FD00000BFFEE77047000070B5002100230F221C
:100FE000C4781CB3174C246804F4E064C4F5E064CE
:100FF000C4F30721C1F10404E3B20A4144789C40E0
:10100000E1B28478144021430C07210E0E4C057880
:101010006155047804F01F050124AC4005786D117A
:10102000AD0005F1E025C5F8004109E0047804F0C1
:101030001F050124AC40054D0678761145F8264081
:1010400070BD00000CED00E000E400E080E100E095
:1010500002490143024A1160704700000000FA058E
:101060000CED00E029B1064A12680243044B1A60F5
:1010700004E0034A12688243014B1A607047000083
:101080003038024029B1064A12680243044B1A6004
:1010900004E0034A12688243014B1A607047000063
:1010A00044380240F0B50021002200240225002629
:1010B0000223324F3F6807F00C0121B1042905D00B
:1010C000082937D105E02E4F076036E02D4F076025
:1010D00033E02A4F3F1F3F68C7F38056274F3F1F1B
:1010E0003F6807F03F036EB1264FB7FBF3F7DFF819
:1010F0008CC0ACF1040CDCF800C0CCF3881C07FBFE
:101100000CF40CE01E4FB7FBF3F7DFF870C0ACF146
:10111000040CDCF800C0CCF3881C07FB0CF4174F60
:101120003F1F3F68C7F301477F1C7D00B4FBF5F705
:10113000076002E0124F076000BF00BF0F4F3F681B
:1011400007F0F0010909104F7A5C0768D740476043
:101150000A4F3F6807F4E051890A0B4F7A5C4768F1
:10116000D7408760054F3F6807F46041490B064F41
:101170007A5C4768D740C760F0BD0000083802407D
:101180000024F40040787D0110000020014908602F
:1011900070470000382C014001490860704700008A
:1011A000A080254200210B4B02681A601B1D42687B
:1011B0001A601A1D116821F0F701D0E902231A43C1
:1011C00003691A4343691A431143024A0832116002
:1011D00070470000242C014030B587B005460C460E
:1011E0009020039002956FF00F000190049400206E
:1011F00005900120069001A8FFF7D4FF07B030BD8D
:1012000001460020034A12680A400AB1012000E0AA
:1012100000207047342C014008B5014600200090A2
:101220000248084400900098006808BD142C014052
:1012300000210A4A116847F6FF629143027D8368E4
:101240001A4343681A43C3681A4303681A4303697D
:101250001A431143014A116070470000042C0140F9
:101260000148006870470000802C01400021094BB4
:1012700002681A601A1D11686FF30A01D0E9012390
:101280001A43C3681A4303691A431143014A121DE2
:1012900011607047082C0140024909680143014A66
:1012A00011607047042C014001490860704700003C
:1012B000002C0140024909680143014A116070474E
:1012C000042C01400149086070470000802C014057
:1012D00070B52DED048B002500F0B6FA4FF4807147
:1012E0005F48FFF766FE18B901205E49087606E000
:1012F00000205C4908761A20BDEC048B70BD0024E8
:1013000006E0002211461046FFF710FC601CC4B234
:101310005A2CF6DB0A2001F021FF00F013F95148A6
:10132000407801287ED100F0FFF900F027F900F0A5
:101330004DF900F0DBF84B48007800284FD14948C0
:10134000C06AC0F30340474948760846006BC0F3C3
:10135000C23008620846808D8005010D4148006B4F
:1013600041EA90703F49C861096A881CFFF733F968
:1013700041EC190BB0EE491AF0EE691A9FED3A0BE9
:1013800000F08AFDB0EE408AF0EE608A51EC180B56
:10139000FFF72EF933494862487EFFF71CF941EC0C
:1013A000190BB0EE491AF0EE691A9FED2F0B00F001
:1013B00073FDB0EE408AF0EE608A51EC180BFFF737
:1013C00017F9284988600846C069401C496A4843A3
:1013D000244989684843000D2249486112E00420ED
:1013E000FFF71AFF060C0820FFF716FF00F03F007A
:1013F00046EA00401B49C8610846C069401CC0F36A
:10140000CB20486100F050F94FF40060FFF744FF33
:10141000022000F061F90620FFF74CFF11484068F8
:10142000010C00E017E012A000F00CFD0D48C168AF
:1014300012A000F007FD0B48016916A000F002FDA4
:101440000848816819A000F0FDFC064841691CA00D
:1014500000F0F8FC02E020A000F0F4FC28464BE786
:10146000000002407408002000000000000000405E
:101470005344205243413A25640D0A004D616E7574
:1014800066616374757265204944A3BA25640D0AC8
:101490000000000053442053657269616C204E7552
:1014A0006D6265723A307825780D0A00424C4F43E0
:1014B0004B5F53697A653A2564200D0A00000000ED
:1014C0004D656D6F72792053697A653A2564204DB8
:1014D000627974650D0A0000B1BEBBFAB2BBD6A733
:1014E000B3D656312E30BFA80D0A000010B51348F0
:1014F000C02241680920FFF719FBFFF7EDF91049F9
:1015000008700846007810B10846007810BD002029
:10151000FFF782FE094988620420FFF77DFE074934
:10152000C8620820FFF778FE044908630C20FFF723
:1015300073FE024948630020E8E7000074080020B9
:101540002600002010B540224FF4D5710820FFF787
:10155000EDFAFFF7C1F9074908700846007818B995
:1015600001200549487002E0002003494870024804
:10157000407810BD260000207408002010B5C0225D
:1015800000210220FFF7D2FAFFF7A6F90D490870F3
:101590000846007810B10846007810BD0020FFF71B
:1015A0003BFE000E0849C8600C20FFF735FE040E14
:1015B0000820FFF731FE44EA0020034908610020BB
:1015C000EBE70000260000207408002010B5402240
:1015D00000210320FFF7AAFAFFF77EF908490870F7
:1015E0000846007810B10846007810BD0020FFF7CB
:1015F00013FE6FF30F00034948600020F5E7000079
:1016000026000020740800202DE9F04105460F4611
:10161000002400264022D1001020FFF787FAFFF7B0
:101620005BF9204908700846007818B10846007830
:10163000BDE8F081402239461120FFF777FAFFF725
:101640004BF9184908700846007810B10846007830
:10165000EEE702210802FFF7BFFD72B614E04FF477
:101660000040FFF7CDFD01280ED1002405E0FFF773
:10167000F7FDA11945F82100641C082CF7D34FF49D
:101680000040FFF783FD08364FF48060FFF7B8FD98
:101690000028E4D04FF4A060FFF778FD62B601485F
:1016A0000078C5E72600002010B5094840224168AF
:1016B0000720FFF73BFAFFF70FF9064908700846C5
:1016C000007810B10846007810BD0020FCE700004B
:1016D000740800202600002010B50446104840225F
:1016E00041683720FFF722FAFFF7F6F80D49087036
:1016F0000846007810B10846007810BD4022214607
:101700000620FFF713FAFFF7E7F8064908700846C6
:10171000007810B108460078EFE70020EDE7000000
:10172000740800202600002070B500251BE0402230
:1017300000213720FFF7FAF9FFF7CEF812490870B9
:10174000402212492920FFF7F1F9FFF7C5F80E49A9
:1017500008700020FFF760FDC50F601CC4B2C82CE4
:1017600001DD192070BD012DE1D10020FFF754FDEE
:10177000C0F3807018B101200549087002E0002014
:10178000034908700020EDE726000020000010400B
:10179000740800202DE9F04105460F464022D10093
:1017A0001020FFF7C3F9FFF797F82649087008469D
:1017B000007818B108460078BDE8F081402239462B
:1017C0001820FFF7B3F9FFF787F81E49087008469D
:1017D000007810B108460078EEE700214FF4007061
:1017E000FFF7FAFC72B613E04FF48040FFF708FDF4
:1017F00001280DD1002406E0A11955F82100FFF7BA
:1018000061FD601CC4B2082CF6DB06F10800C6B20C
:101810004FF48060FFF7F4FC0028E5D04FF4A0609F
:10182000FFF7B4FC62B6402200210C20FFF77EF9DE
:10183000FFF752F803490870032001F08FFC0148BC
:101840000078B9E72600002000B58DB001210846D8
:10185000FFF708FC01210420FFF704FC0121082008
:10186000FFF700FC0121C802FFF70CFC4FF4807069
:101870000B9000208DF8300001208DF833000020FF
:101880008DF8320002208DF831000BA93148FFF7A6
:1018900025FB4FF4F850099002208DF82800012014
:1018A0008DF82B0000208DF82A0009A92A48FFF79F
:1018B00015FB0420079002208DF8200001208DF8F0
:1018C000230000208DF8220007A92448FFF706FB1B
:1018D0000C2208212048FFF749FB0C2209211E4851
:1018E000FFF744FB0C220A211B48FFF73FFB0C22A9
:1018F0000B211948FFF73AFB0C2211461648FFF757
:1019000035FB0C2202211548FFF730FB0020019027
:101910000290039004900590F0208DF8180001A823
:10192000FFF786FC31208DF8000002208DF80100C1
:1019300000208DF8020001208DF803006846FFF7B3
:101940004BFB0320FFF7B0FC0120FFF725FC002034
:101950000DB000BD0000024000080240000C024033
:1019600010B571210B4800F02FF8012808D1712122
:10197000084800F016F808480068401C064908604E
:1019800005480068B0F5806F02D100200249086068
:1019900010BD0000003800400C000020CA43028146
:1019A000704710B5002201F00F040123A3409AB242
:1019B000D343038110BD0246002013890B400BB1B5
:1019C000012000E000207047F0B50246002000240E
:1019D0000023002501F00F070126BE40B4B20B1111
:1019E00001269E40B3B2968806EA03051689264072
:1019F00016B10DB1012000E00020F0BD81817047DB
:101A00000CB50020019000903448006840F480300C
:101A10003249086000BF3148006800F4003000908F
:101A20000198401C0190009818B90198B0F5A04F9A
:101A3000F1D12A48006800F4003010B10120009074
:101A400001E0002000900098012846D12348403052
:101A5000006840F08050214940310860204800680B
:101A600040F440401E4908601C48083000681B498B
:101A7000083108600846006840F4004008600846E5
:101A8000006840F4A05008601648091F0860081F4D
:101A9000006840F08070091F086000BF0F480068B0
:101AA00000F000700028F9D040F205700E4908607F
:101AB0000A480830006820F003000849083108602F
:101AC0000846006840F00200086000BF0348083084
:101AD000006800F00C000828F8D10CBD0038024066
:101AE0000070004019544007003C024010B500BF90
:101AF000502080F31188BFF34F8FBFF36F8F00BF6B
:101B000001F0CEFD18B14FF080500449086000BFCD
:101B1000002080F3118800BF10BD000004ED00E03C
:101B200010B51548006840F4700013490860134868
:101B3000006840F001001149086000200F49083199
:101B400008600E4800680E4908400C4908600D48BE
:101B5000091D0860081F006820F48020091F086024
:101B6000002006490C310860FFF74AFF4FF0006083
:101B700001498039086010BD88ED00E0003802405E
:101B8000FFFFF6FE1030002410B50121144800F0CC
:101B900040F801281FD113480068401C1149086013
:101BA00011480068401C104908601048007800EB9C
:101BB000C00101EB00100B490968B1EB800F0AD995
:101BC00040210B48FFF700FA002006490860002179
:101BD000034800F012F80121014800F00BF810BD95
:101BE00000100040280000202C00002021000020D0
:101BF00000040240CA430282704721B1028842F0C9
:101C00000102028004E002884FF6FE731A4002804F
:101C1000704702460020138A0B400BB1012000E000
:101C20000020704710B540F225510C4800F04BF8E9
:101C3000012809D140F22551084800F01CF8084855
:101C40000068401C0649086005480068B0F5806FD0
:101C500002D100200249086010BD000000100140C0
:101C60000800002001F40072B2F5007F00D100BF2F
:101C7000CA430280704710B50022002340F66A1460
:101C8000A14200D100BF0A1201249440A3B2DC4358
:101C9000048010BD21B1828942F40052828104E0A7
:101CA00082894DF6FF731A408281704702460020F8
:101CB000B1F5007F00D100BF13880B400BB10120AC
:101CC00000E00020704770B5024600240023002584
:101CD000002040F66A16B14200D100BFC1F34215A0
:101CE00001F01F03012606FA03F3012D02D19689A4
:101CF000334006E0022D02D1168A334001E0968A75
:101D000033400C12012606FA04F41688344013B14D
:101D10000CB1012000E0002070BDF0B503460024A6
:101D200000260025002040F66A17B94200D100BF06
:101D30001846C1F3421401F01F06012707FA06F501
:101D4000012C01D10C3004E0022C01D1103000E054
:101D500014301AB107682F43076002E00768AF43E9
:101D60000760F0BD2DE9FF4705460E460024A14659
:101D700000BFA046B08900B100BF2C8A24F44054B3
:101D8000F08804432C82AC8941F20C608443B08813
:101D900031890843718908430443AC81AC8A24F437
:101DA0004074B0890443AC826846FFF77BF9204851
:101DB000854202D01F48854202D1DDF80C9001E037
:101DC000DDF80890A88900F4004040B109EBC90093
:101DD00000EB091031684900B0FBF1F707E009EBAF
:101DE000C90000EB091031688900B0FBF1F76420ED
:101DF000B7FBF0F004012009642101FB1078A889E9
:101E000000F4004040B1322000EBC800B0FBF1F01C
:101E100000F00700044308E0322000EB08106421C2
:101E2000B0FBF1F000F00F0004432C81BDE8FF8708
:101E30000010014000140140C1F308028280704785
:101E400000BFFEE70FB4054B10B503A9044A029882
:101E500000F030FF10BC5DF814FB0000E931000811
:101E60006C00002003B401984100009850EAC120A2
:101E700018BF04204A0D18BF40F0010040F2FF7265
:101E8000B2EB515F08BF40F00200012808BF0520F7
:101E900002B07047000000002DE9F04D2DED040B5D
:101EA0002DED0E8B96B0DDE92550279CDDF890A036
:101EB00025F0004624F00048BAF1000F14BF0121BC
:101EC000002101EB4502FC4953184A1093422AD3E2
:101ED000002814BF0123002303EB44030B44F749FC
:101EE0008B4220D358EA00019FEDF59B76D0DFF8B6
:101EF000D8B35D4503D1BAF1000F05D188E0BAF13E
:101F0000000F08BF002100D0012101EB450111F5B0
:101F1000001F08D8002814BF0121002101EB440153
:101F200011F5001F0BD99DED261B9DED240B16B05E
:101F3000BDEC0E8B04B0BDE8F04D00F069BE00278B
:101F4000002DBCBFE149884521DAE1498845A8BF99
:101F500002271CDAC3451ADCDE4901EB285114299B
:101F600008DDC1F1340220FA02F101FA02F28242E4
:101F70000DD108E058B9C1F1140228FA02F101FAB2
:101F800002F2424503D101F00101C1F1020756EA14
:101F90000A0124D1002C22DA002D18BF022F01D013
:101FA000012F0AD0022000F07FFE16B0BDEC0E8B90
:101FB00004B0BDE8F04D00F013BE022000F074FE46
:101FC00000F00EFE51EC100B81F0004141EC100BC3
:101FD00016B0BDEC0E8B04B0BDE8F08D18E09FED9F
:101FE000BEAB9FEDBF8B002871D1B848804522D190
:101FF00005F1804010F5801008BFBAF1000F07D03E
:10200000B3450ADC002CA8BF9DED260BE0DA0DE0FD
:10201000B0EE490AF0EE690ADAE7002C06DA9DED27
:10202000260B51EC100B81F000416FE0AE48784474
:1020300090ED000BCCE7D8454DD1002C48DA2EB1FD
:1020400086423AD1BAF1000F42D126E0BAF1000F30
:1020500013D0022000F028FE00F0F6FD8DED020BFB
:102060009DED240B8DED000B10EE900A039961F3AA
:102070001E0003909DED020BAAE78DED02AB9DEDD6
:10208000240B1AEE901A10EE900A8DED000B61F3FE
:102090001E0003909DED020B9AE78DED028B9DEDE6
:1020A000240B18EE901A10EE900A8DED000B61F3E0
:1020B0001E0003909DED020B8AE709DA9DED240BCB
:1020C00051EC190B53EC102BFEF705FA1EE020E043
:1020D0009DED240B7CE786421BDAB4F1804F0DD0D6
:1020E000A4F10050B0F1FF5013D1002D11DB9DED94
:1020F000240B51EC100B01F0D3F907E09DED240BFC
:1021000053EC102B51EC100B00F0C2BC41EC100B47
:102110005EE79DED240B51EC100B01F058F8BAF17D
:10212000000FCDE90E0142D19FED710B46B3A6F130
:10213000E040B0F17F600CD05E4538D1002D00DA70
:10214000A7B3022F0CBF01204FF0FF30FEF732FA89
:10215000DCE7002D01DD002C0DDA002D01DD002C67
:102160001FDB002D16DA002C14DB012F08BF9FEDBA
:10217000620B3FF42DAFB0EE4A0AF0EE6A0A27E791
:10218000022F18BF002D0CD0012F0AD1002DFFF611
:102190001FAF06E0002DB8BF002C08DA012F3FF476
:1021A00017AFB0EE480AF0EE680A11E71BE0012015
:1021B00000EBE57050EA070115D0791EB0EE498AB0
:1021C000F0EE698A084308BF9FED4D8B4E4800250D
:1021D000804570DD4D494E48884514DDB0420DDB29
:1021E000002C19DB2FE0012000F05EFD16B0BDECE5
:1021F0000E8B04B0BDE8F04D00F016BDB34502DC17
:10220000002C09DC1FE0864202DA002C1BDA03E016
:102210005E452BDD002C16DD022000F045FD00F0B0
:1022200013FD8DED020B53EC1A2B51EC180BFEF73E
:10223000E0F8CDE900010399019861F31E000390D5
:102240009DED020BC4E6022000F02EFD00F00CFD17
:1022500010EE901A18EE900A8DED020B8DED008BAA
:1022600061F31E0003909DED020BB1E69DED0E0B98
:1022700053EC192B51EC100BFEF7B5F89FED260B24
:10228000CDE9080153EC102B9DED080B51EC100B20
:10229000FEF7AFF89FED221B53EC112BFEF7A6F8CB
:1022A0009DED081B53EC112BFEF7A3F89FED1E1BB1
:1022B00053EC112B3CE08CE0FFFF1F00FFFF0F00F1
:1022C000000000000000F03F0000F03F0000F07F41
:1022D0000000404301FCFFFF000000000000F07F11
:1022E00000000000000000003E1800000000000098
:1022F0000000000000000080000000000000F0FF6F
:10230000000000000000F0BF0000E0410000F043CA
:10231000FFFFEF3F00000000000000000000D03F82
:10232000555555555555D53F000000000000E03F7C
:10233000FEF75CF89DED080B41EC1A0B53EC102BEB
:1023400051EC100BFEF755F853EC1A2BFEF751F831
:1023500041EC1A0B9FEDFE0B53EC102B9DED080B7F
:1023600051EC100BFEF745F841EC1B0B9FEDFA0BFF
:1023700051EC1A0B53EC102BFEF73BF841EC1A0B07
:102380009FEDF70B53EC102B9DED080B51EC100B50
:10239000FEF72FF853EC1A2BFEF725F841EC1A0B39
:1023A00051EC1B0B53EC1A2BFDF77CFF0690CDE98B
:1023B00006519DED060B53EC1B2B51EC100BFEF759
:1023C00012F853EC1A2BFEF711F841EC100B00F049
:1023D000A1B90020B6F5801F0EDA9FEDE30B53EC98
:1023E000102B9DED0E0B51EC100BFEF702F8CDE912
:1023F0000E016FF034000E4600EB2650A0F2FF37BE
:10240000C6F31300DA4940F07F6646F04056884232
:10241000D8BF002408DDD7498142C8BF012403DCAE
:102420000024A6F580167F1CD348784400EBC40036
:102430000F9690ED00CB9DED0E0B53EC1C2B51EC49
:10244000100BFDF7D0FF9DED0E0B41EC1B0B53EC79
:102450001C2B51EC100BFDF725FF41EC100B51EC40
:10246000190B53EC102BFEF736F841EC1D0B51EC19
:102470001B0B53EC1D2BFDF7BCFF41EC1A0BBF48A7
:102480008DED10AB7844109590ED000B4FF000509F
:1024900040EA660000EB84408DED080B00F500205B
:1024A00009909DED080B53EC1C2B51EC100BFDF724
:1024B0009AFF9DED0E1B53EC112BFDF797FF41EC9E
:1024C000100B53EC102B9DED100B51EC100BFDF786
:1024D00090FF9DED080B41EC1C0B53EC102B9DED78
:1024E000100B51EC100BFDF784FF53EC1B2BFDF789
:1024F0007DFF53EC1C2BFDF776FF53EC1D2BFDF7F6
:1025000078FF41EC1C0B53EC1A2B51EC1A0BFDF726
:1025100070FF41EC1B0B9A480621B0EE4B0AF0EE1F
:102520006B0A784400F0E0FAB0EE401AF0EE601A60
:10253000B0EE41DAF0EE61DA53EC1B2B51EC1B0BE1
:10254000FDF757FF53EC1D2BFDF753FF9DED100BCF
:1025500041EC1B0B53EC1A2B51EC100BFDF7A2FEB8
:1025600053EC1C2BFDF745FF53EC1B2BFDF79AFE9C
:102570009DED100B41EC1B0B53EC102B51EC100B91
:10258000FDF737FF41EC1D0B9FED7FEB53EC1E2B4E
:10259000FDF788FE53EC1B2BFDF784FE0890CDE978
:1025A00008519DED080B53EC1E2B51EC100BFDF761
:1025B0001AFF53EC1D2BFDF716FF53EC1B2BFDF7F9
:1025C00015FF9DED080B41EC1D0B53EC102B9DED01
:1025D000100B51EC100BFDF70CFF41EC1B0B53ECF7
:1025E0001A2B51EC1D0BFDF704FF9DED080B41EC80
:1025F0001A0B53EC102B51EC1C0BFDF7FAFE53ECAD
:102600001A2BFDF74FFE41EC1A0B51EC1B0B53EC50
:102610001A2BFDF747FE0C90CDE90C519DED0C0BEC
:1026200053EC1B2B51EC100BFDF7DDFE53EC1A2B7A
:10263000FDF7DCFE41EC1B0B9FED550B53EC102B13
:102640009DED0C0B51EC100BFDF7D3FE41EC1A0B7A
:102650009FED510B51EC1B0B53EC102BFDF7C9FEFA
:1026600041EC1B0B9FED4E0B53EC102B9DED0C0B17
:1026700051EC100BFDF7BDFE53EC1B2BFDF712FECA
:1026800041EC100B4848784400EBC40090ED001B6F
:1026900051EC100B53EC112BFDF704FE41EC1B0B1E
:1026A0003846FDF787FFCDE9080153EC1B2B51ECB1
:1026B0001A0BFDF7F7FD41EC100B3C48784400EB9A
:1026C000C40090ED00CB51EC100B53EC1C2BFDF72C
:1026D000E9FD9DED081B53EC112BFDF7E3FD069082
:1026E000CDE906519DED080B53EC102B9DED060B2B
:1026F00051EC100BFDF777FE53EC1C2BFDF773FE2E
:1027000053EC1A2BFDF76FFE53EC1B2BFDF76EFEFF
:1027100041EC100B9DED261B53EC102B8DED001B97
:1027200000959DED260B51EC100BFDF762FE9DED23
:10273000000B41EC1A0B53EC102B9DED260B51ECCA
:10274000100BFDF750FE9DED061B53EC112B2FE0F7
:10275000000000604715F73FFE822B654715F73FE5
:1027600044DF5DF80BAE543E000000000000404323
:102770008E9803007AB60B00BA130000E81300002D
:10278000F2120000000000000000000000000840FD
:10279000000000E009C7EE3FFD033ADC09C7EE3F49
:1027A000F5015B14E02F3EBE7E11000038110000E1
:1027B000FDF71FFE53EC1A2BFDF774FD9DED060B84
:1027C00041EC1A0B53EC102B9DED000B51EC100B50
:1027D000FDF70FFECDE90C019DED0C0B51EC1A0B32
:1027E00053EC102BFDF75EFDCDE902010C46AA4922
:1027F0008C422FDB611A084318D19DED0C0B53EC72
:10280000102B9DED020B51EC100BFDF7ECFD41EC94
:102810001B0B9FEDA30B51EC1A0B53EC102BFDF788
:1028200041FD53EC1B2BFDF7D9FF2DD2022000F008
:102830003BFA00F009FA10EE901A18EE900A8DEDAE
:10284000020B8DED008B61F31E0003909DED020BDA
:10285000FFF7BEBB944A24F00041914214D3934940
:10286000214408437FF4EFAC9DED0C0B53EC102B8F
:102870009DED020B51EC100BFDF7B5FD53EC1A2B3F
:10288000FDF7ACFF7FF6DFAC24F000408849894AB1
:10289000002601EB205182422BDA481C4FF48011B4
:1028A00021FA00F02044844AC0F30A517A44A1F28C
:1028B000FF3192ED000B814A8DED080BCA4020EAF2
:1028C0000202C0F3130040F48010C1F1140120FA99
:1028D00001F60992002CB8BF76429DED080B53EC2F
:1028E000102B9DED0C0B51EC100BFDF77CFDCDE991
:1028F0000C019DED0C0B51EC1A0B53EC102BFDF75A
:10290000D1FC9FED6F0B0890CDE9085153EC102BD3
:102910009DED080B51EC100BFDF76BFD41EC1B0B13
:102920009FED690B53EC102B9DED080B51EC100B38
:10293000FDF75FFD9DED0C0B41EC1C0B53EC102BD8
:102940009DED080B51EC100BFDF74DFD53EC1A2BD0
:10295000FDF74CFD9FED5E1B53EC112BFDF749FD80
:1029600053EC1C2BFDF79EFC41EC1A0B51EC1B0B9E
:1029700053EC1A2BFDF796FCCDE902019DED020BFD
:1029800053EC1B2B51EC100BFDF72DFD53EC1A2BC8
:10299000FDF72CFD9DED020B41EC1A0B53EC102BB7
:1029A00051EC100BFDF725FDCDE908014A489DEDDE
:1029B000080B0521784400F097F89DED081B51ECB9
:1029C000100B53EC112BFDF714FD9DED021B53EC86
:1029D000112BFDF70BFDCDE906019DED020B53EC2C
:1029E0001A2B51EC100BFDF704FD53EC1A2BFDF7DD
:1029F00059FC9FED3B0B41EC1A0B53EC102B9DED5A
:102A0000060B51EC100BFDF7EEFC9DED060B41ECB7
:102A10001B0B53EC102B9DED020B51EC100BFDF733
:102A2000E8FC53EC1B2BFDF756FD53EC1A2BFDF77E
:102A3000DAFC9DED021B53EC112BFDF7D4FC53EC9B
:102A4000192BFDF7D3FCCDE9020101EB065001156E
:102A50000029C8BF039015DC9DED020B324651ECF6
:102A6000100BFDF7A3FEFFF7FDF9042808BF00F0E7
:102A7000FBF832469DED020B51EC100BFDF796FE74
:102A8000CDE902019DED020B51EC180B53EC102B1C
:102A9000FDF7AFFCFFF73ABB0000904000000000DC
:102AA000FE822B654715973C00CC904000346F3F69
:102AB00001FCFFFF0000E03FC00F0000FFFF0F0020
:102AC00000000000432EE63F396CA80C615C20BE7C
:102AD000EF39FAFE422EE63F900E000000000000A3
:102AE000000000000000004070B504462DED028B90
:102AF0004D1E00EBC500B0EE408AF0EE608A90ED0E
:102B0000000B35F0060017D053EC182B51EC100BCE
:102B1000FDF76FFC41EC100B6D1E04EBC50090ED52
:102B2000001B51EC100B53EC112BFDF7BBFB41ECE0
:102B3000100B35F00600E7D1022D36D0042D1CD045
:102B4000062D1CBFBDEC028B70BD53EC182B51EC55
:102B5000100BFDF74EFC94ED0A1B53EC112BFDF707
:102B6000A1FB53EC182BFDF744FC94ED081B53EC30
:102B7000112BFDF797FB41EC100B53EC182B51EC8C
:102B8000100BFDF736FC94ED061B53EC112BFDF7F3
:102B900089FB53EC182BFDF72CFC94ED040B53EC44
:102BA000102BFDF77FFB41EC100B53EC182B51EC75
:102BB000100BFDF71EFC94ED021B53EC112BFDF7DF
:102BC00071FB53EC182BFDF714FC94ED001B53EC38
:102BD000112BFDF767FBBDEC028B41EC100B70BDB8
:102BE0009FED070B10B553EC102B9FED070B51EC2D
:102BF000100BFDF770FC41EC100B10BD0000000045
:102C00000000000000000000000000000000F03F95
:102C100010B553EC112B51EC100BFDF743FB41ECBD
:102C2000100B10BD000000009FED050B10B553EC1C
:102C3000102B51EC100BFDF74EFC41EC100B10BDAE
:102C400000000000000000009FED050B10B553ECE4
:102C5000102B51EC100BFDF7CCFB41EC100B10BD11
:102C600000000000000000709FED050B10B553EC54
:102C7000102B51EC100BFDF7BCFB41EC100B10BD01
:102C8000000000000000001002E008C8121F08C188
:102C9000002AFAD170477047002001E001C1121FDD
:102CA000002AFBD17047000001490860704700000E
:102CB000700000202DE9FF4F8DB00F46054600261D
:102CC00006E025280BD0DDE90F1290476D1C761C1D
:102CD00028780028F5D111B03046BDE8F08F0024E7
:102CE000A246A1460122EC4900E0044315F8013F49
:102CF000203B02FA03F00842F7D128782A2810D0A6
:102D00006FF02F022878A0F13001092914D80AEBBE
:102D10008A0102EB410144F0020400EB010A6D1C40
:102D2000F0E701CF5FEA000A03D544F40054CAF18A
:102D3000000A44F002046D1C28782E2817D115F8DB
:102D4000010F44F004042A280ED06FF02F022878D7
:102D5000A0F1300109290AD809EB890102EB4101F0
:102D600000EB01096D1CF2E757F8049B6D1C2878F5
:102D70006C280FD006DC4C2817D068280DD06A28A4
:102D800014D104E0742810D07A280FD10DE044F457
:102D900000140AE044F4801401E044F4401469781B
:102DA000814202D104F580146D1C6D1C2A786E2AB4
:102DB0001FD00CDC632A31D004DC002A8BD0582AC7
:102DC00011D1A3E0642A68D0692A0CD165E0732A86
:102DD0002ED004DC6F2A73D0702A04D19BE0752AB0
:102DE0006FD0782A6ED01046DDE90F129047761C1E
:102DF00050E1C4F30250022806D0032809D0042869
:102E000001CF09D0066045E101CFF117C0E90061AB
:102E100040E101CF06803DE106703BE117F8040B6D
:102E20008DF8000000208DF80100EB46012003E042
:102E300057F804BB4FF0FF3061074FF0000102D498
:102E40000DE008F10101884649450FDA8045F8DBBD
:102E50001BF808100029F4D108E008F101018846A8
:102E60008142FADB1BF808100029F6D1DDE90F23B7
:102E7000AAEB08008146214600F036F9304400EB09
:102E8000080604E0DDE90F121BF8010B9047B8F1CA
:102E90000108F7D221464846F7E00A21C4F302535D
:102EA0004FF0000B0891022B04D001CFC117032B68
:102EB00009D00AE0FF1D27F00707F7E8020108E044
:102EC00032E01FE020E000B2C117042B01D140B274
:102ED000C117031E71F1000307DA4FF0000CD0EBAD
:102EE0000C006CEB01012D2302E0230504D52B23FC
:102EF0008DF82430012303E0E30701D02023F7E716
:102F0000984658E00A2110E010210EE010204FF002
:102F1000000B08900CE010214FF0000B44F004046B
:102F20004FF00809089103E008214FF0000B0891C9
:102F3000C4F30253022B04D001CF0021032B06D08F
:102F400006E0FF1D27F00707F7E8020103E080B263
:102F5000042B00D1C0B24FF0000823072BD5702AF4
:102F600007D0DDF820C08CF0100C5CEA0B0C05D00B
:102F70000EE040238DF82430012308E050EA0103DD
:102F800006D030238DF824308DF825200223984672
:102F9000DDF820C08CF0080C5CEA0B0C0BD150EA79
:102FA000010301D1630706D530238DF824304FF09B
:102FB0000108A9F10109582A04D038A20B9208AAE5
:102FC0000A920BE03AA2F9E75B46089AFDF72FFB5D
:102FD0000B9B9B5C0A9A521E0A92137050EA0102E4
:102FE000F2D10A98ADEB000000F1200B600702D58A
:102FF00024F4803401E04FF00109D94502DDA9EB4A
:103000000B0000E0002000EB0B0141440890AAEB0C
:10301000010AE00306D4DDE90F232146504600F003
:1030200063F806444FF0000908E009A911F8090007
:10303000DDE90F12904709F10109761CC145F4DB67
:10304000E0030CD5DDE90F232146504600F04CF893
:10305000064404E0DDE90F1230209047761C089901
:10306000481E08900029F5DC08E00A980A990078C3
:10307000491C0A91DDE90F129047761CBBF1000153
:10308000ABF1010BF1DC21465046DDE90F2300F0E6
:1030900019F806446D1C1BE6092801003031323353
:1030A0003435363738396162636465660000000084
:1030B000303132333435363738394142434445466E
:1030C000000000002DE9F041044600251E46174689
:1030D000880404D405E039462020B0476D1C641EE6
:1030E000F9D52846BDE8F0812DE9F04104460025D8
:1030F0001E469046C80301D5302700E020278804EB
:1031000004D505E041463846B0476D1C641EF9D52C
:103110002846BDE8F08110B5212000F089F9002093
:1031200000F086F97F2000F083F9322000F032F8B9
:10313000222000F07DF9002000F07AF9072000F04D
:1031400077F9322000F026F8002403E0002000F098
:1031500051F9641CB4F5806FF8D310BD014645F2F7
:1031600008224A434FF0E0235A6100229A6101226B
:103170001A6100BF4FF0E022106900F001021AB19D
:1031800000F48032002AF5D000224FF0E0231A61CB
:103190009A6170470146C1EBC10202EB42024FF057
:1031A000E0235A6100229A6101221A6100BF4FF0A8
:1031B000E022106900F001021AB100F48032002A06
:1031C000F5D000224FF0E0231A619A61704782B077
:1031D000CDE9000121F0004001909DED000B02B00F
:1031E00051EC100B7047000070B504460D4600BF4F
:1031F00040210748FEF75AFD0028F9D0E1B2044803
:10320000FEF71AFE40210248FEF72CFD204670BD55
:10321000001001401CB501210220FDF723FF4FF4EF
:103220001870009001208DF8040002208DF8050030
:1032300000208DF8060001208DF807006946064839
:10324000FDF74CFE40210448FDF7BEFE2021024858
:10325000FDF7BAFE1CBD0000000402404FF4806080
:10326000FDF7F6FE4FF4E13000F052F9FFF7D2FF20
:103270004FF4FA70FFF772FFFEF72AF8A1224FF41D
:1032800000715248FCF7FCFFA2224FF40071504835
:10329000FCF7F6FFA3224FF400714E48FCF7F0FF55
:1032A000A4224FF400714C48FCF7EAFF4FF4007180
:1032B0004648FEF76FFA4FF480614548FEF76AFA18
:1032C0004FF4C0614348FEF765FA4FF4006142488D
:1032D000FEF760FA4FF400713C48FEF795F94FF4A1
:1032E00080613B48FEF790F94FF4C0613948FEF722
:1032F0008BF94FF400613848FEF786F900240FE09F
:103300003248025D214635A0FEF79CFD0A20B4FB41
:10331000F0F100FB114010B934A0FEF793FD641CDE
:10332000B4F5007FECD300240FE02948025D21466C
:103330002AA0FEF787FD0A20B4FBF0F100FB114044
:1033400010B92AA0FEF77EFD641CB4F5007FECD313
:1033500000240FE01F48025D214620A0FEF772FD09
:103360000A20B4FBF0F100FB114010B91FA0FEF7DA
:1033700069FD641CB4F5007FECD300240FE016480F
:10338000025D214615A0FEF75DFD0A20B4FBF0F1B9
:1033900000FB114010B915A0FEF754FD641CB4F5F4
:1033A000007FECD311E04FF400711148FDF70CFEE3
:1033B0004FF49670FFF7D2FE4FF400710C48FDF702
:1033C00001FE4FF49670FFF7C9FEECE77400002091
:1033D0007402002074040020740600202534643A2E
:1033E0003078253278202020000000000D0A0000EF
:1033F0000004024010B504464FF480510A48FDF71E
:10340000E3FD00BF02210948FEF7D5FA0028F9D0F4
:1034100021460648FEF7F2FA02210448FEF7BEFAFA
:103420000A20FFF7B7FE10BD00040240003800403C
:1034300010B504464FF480510A48FDF7C3FD00BFA4
:1034400002210948FEF7B7FA0028F9D021460648BC
:10345000FEF7D4FA02210448FEF7A0FA0A20FFF78B
:1034600099FE10BD00040240003800400A49096876
:10347000096809B9012100E0002121B14FF0FF31B5
:10348000064A116006E004490968C968C868034A29
:103490004168116070470000340000206000002087
:1034A00000B52DED048B83B041EC190BFDF7C0F98D
:1034B00041EC180B18EE100A18EE901A8DED008BE7
:1034C000002818BF0120084320F00040C0F17F60B1
:1034D00000F1E040C00F14D019EE101A19EE900A56
:1034E0008DED009B002918BF0121084320F000400A
:1034F000C0F17F6000F1E040C00F04BF0120FFF782
:10350000D3FB51EC180B03B0BDEC048B00BD0000E5
:1035100010B588B0044601211020FDF7B3FD01214C
:103520000846FDF79FFD4FF40070069002208DF8CD
:103530001C0001208DF81F0006A92448FDF7CEFCD1
:103540004FF48060069002208DF81C0006A91F48E9
:10355000FDF7C4FC072209211C48FDF707FD0722DF
:103560000A211A48FDF702FD02940020ADF80C0074
:10357000ADF80E00ADF810000C20ADF812000020E0
:10358000ADF8140002A91248FEF7ECFB25208DF8D7
:10359000040000208DF805008DF8060001208DF84C
:1035A000070001A8FDF718FD40F2FF310848FEF7BB
:1035B00059FB012240F225510548FEF7AEFB0121DF
:1035C0000348FEF767FB08B010BD00000000024092
:1035D0000010014001460A69D1E901309860D1E943
:1035E000010358605068884201D18868506000200B
:1035F00008611068401E10601068704742684A6099
:1036000093688B60936859609160086103685B1CE4
:10361000036070471D48006818B101201C4908600C
:1036200032E000201A4908601A480068B0FA80F0B9
:10363000C0F11F0101EB8100174A52F8200008B1C8
:10364000012000E0002050B900BF502080F3118815
:10365000BFF34F8FBFF36F8F00BF00BFFEE701EBDB
:1036600081020D4B03EB820042685268426000F118
:1036700008024368934202D142685268426042683D
:10368000D268064B1A6000BF704700006800002037
:103690005400002048000020AC080020300000202A
:1036A0002DE9F0414FF0000844480068002877D128
:1036B00043480068451C4248056015BB4148006806
:1036C000006808B9012000E0002050B900BF502078
:1036D00080F31188BFF34F8FBFF36F8F00BF00BF20
:1036E000FEE73848076838480068364908603648B9
:1036F000076036480068401C34490860FFF7B6FE92
:1037000000BF3348006885423CD300BF2D480068A5
:10371000006808B9012000E0002020B14FF0FF3020
:103720002B4908602DE027480068C068C4686668B7
:10373000B54202D22648066023E0201DFFF74AFF6B
:10374000A06A18B104F11800FFF744FF94F82C1098
:10375000012088401F49096808431E490860E16A42
:1037600001EB81011C4A02EB8100211DFFF746FF9E
:103770001A49E06A0968C96A8842C7D34FF001084C
:10378000C4E700BF15480068C06A00EB800012491A
:1037900051F82000012801D94FF0010805E0FFE7AA
:1037A0000F480068401C0E4908600E48006808B1C8
:1037B0004FF001084046BDE8F0810000680000209D
:1037C0004400002034000020380000205800002071
:1037D0006000002048000020AC08002030000020DD
:1037E0005000002054000020000000000000F03FC6
:1037F000000000000000F83F000000000000000092
:103800000000004003B8E23F00000000000000009C
:1038100006D0CF43EBFD4C3E033333333333E33F2A
:10382000FFAB6FDBB66DDB3F4D268F515555D53F56
:1038300001411DA96074D13F65DBC9934A86CD3F24
:10384000EF4E454A287ECA3F3E5555555555C53F12
:1038500093BDBE166CC166BF2CDE25AF6A56113F04
:10386000F16BD2C541BDBBBED0A4BE726937663E06
:103870000000000000000000983800080000002050
:1038800074000000882C00080C3900087400002027
:10389000CC0D0000982C0008000000000000000083
:1038A000000000000000000000000000010203040E
:1038B000010203040607080900001919282800005E
:1038C00000000000000000000000000000000000F8
:1038D00000000000000000000000000000000000E8
:1038E00000000000000000000000000000000000D8
:1038F00000000000000000000000000000000000C8
:0C390000000000000000000000000000BB
:040000050800018965
:00000001FF
