:020000040800F2
:10000000802F002061020008F7070008EF070008B2
:10001000F307000823030008E314000800000000B1
:10002000000000000000000000000000A101000826
:100030003505000800000000FD010008E910000877
:100040007B0200087B0200087B0200087B0200089C
:100050007B0200087B020008390500087B020008CB
:10006000790500082D0600087B0200087B020008C5
:100070007B0200087B0200087B020008B90300082D
:100080007B0200087B0200087B0200087B0200085C
:100090007B0200087B0200087B0200087B0200084C
:1000A0007B0200087B0200087B0200087B0200083C
:1000B0007B0200087B0200087B0200087B0200082C
:1000C0007B0200087B0200087B0200087B0200081C
:1000D000090F0008091200087B0200087B020008D3
:1000E0007B0200087B0200087B0200087B020008FC
:1000F0007B0200087B0200087B0200087B020008EC
:100100007B020008810D00087B0200087B020008CA
:100110007B0200087B020008851100087B020008B2
:100120007B0200087B0200087B0200087B020008BB
:100130007B0200087B0200087B0200087B020008AB
:100140007B0200087B0200087B0200087B0200089B
:10015000090400082D0400087B0200087B02000847
:100160007B0200087B0200087B0200087B0200087B
:100170007B0200087B0200087B0200087B0200086B
:100180007B0200087B020008DFF810D000F08CF83A
:1001900000480047C1150008AFF30080802F002001
:1001A0002C4B19680868B0E8F04F80F30988BFF35A
:1001B0006F8F4FF0000080F311887047000000003F
:1001C00008480068006880F308884FF0000080F35A
:1001D000148862B661B6BFF34F8FBFF36F8F00DF35
:1001E00000BF00BF08ED00E0DFF80C00016841F43B
:1001F00070010160704700BF88ED00E0EFF30980F7
:10020000BFF36F8F134B1A681EF0100F08BF20ED5D
:10021000108A20E9F04F106009B44FF0500080F3CD
:100220001188BFF34F8FBFF36F8F01F039FA4FF092
:10023000000080F3118809BC19680868B0E8F04F25
:100240001EF0100F08BFB0EC108A80F30988BFF3CE
:100250006F8F704734060020EFF305807047000071
:100260000648804706480047FEE7FEE7FEE7FEE750
:10027000FEE7FEE7FEE7FEE7FEE7FEE71D110008EA
:1002800089010008D2B201E000F8012B491EFBD21F
:1002900070470022F6E710B513460A460446194691
:1002A000FFF7F0FF204610BD064C074D06E0E06862
:1002B00040F0010394E8070098471034AC42F6D3AD
:1002C000FFF766FFB8180008D818000870B58C183A
:1002D00010F8015B15F0070301D110F8013B2A115A
:1002E00006D110F8012B03E010F8016B01F8016B47
:1002F0005B1EF9D12B0705D40023521E0DD401F843
:10030000013BFAE710F8013BCB1A921C03E013F80B
:10031000015B01F8015B521EF9D5A142D8D3002040
:1003200070BD00BFFEE7000070B5044605E016484A
:10033000056805F0450000B100E0F8E700BF0420C3
:1003400000F012FD20B1042000F008FD032070BD74
:10035000012000F009FD20B1012000F0FFFC012088
:10036000F5E7094824380068A04201D01020EEE7E4
:1003700040F2FF5000F0F2FC0348203800680821EA
:100380000840C0B2E3E70000342C014010B5084932
:10039000084800F05BF80021064800F08BF8802147
:1003A000044800F0C5F80121024800F083F810BDB0
:1003B000200000207060024010B50649064800F099
:1003C00085F828B10349044800F05AF800F006F80F
:1003D00010BD0000208000207060024010B5084968
:1003E000084800F033F80021064800F063F8802147
:1003F000044800F09DF80121024800F05BF810BDB0
:10040000000800208864024010B50649064800F044
:100410005DF828B10349044800F032F8FFF7B6FF51
:1004200010BD0000008800208864024010B5054916
:10043000054800F04BF818B10249034800F020F8D5
:1004400010BD000000802020A06402400246094B3D
:100450009A4201D2084801E00648103801F00053E2
:100460001BB1064B0B40C36002E0044B0B408360A2
:100470007047000010640240006002407D0F7D0F55
:100480000246094B9A4201D2084801E0064810385A
:1004900001F000531BB1064B0B40C36002E0044B5C
:1004A0000B4083607047000010640240006002400F
:1004B0007D0F7D0F21B1026842F00102026003E06E
:1004C000026822F0010202607047000070B5024627
:1004D000002000240025124EB24201D2114B01E04F
:1004E0000F4B103B104E0E4036B11E2606EAD124AB
:1004F000166806EA040502E0566906F0800501F078
:1005000000560EB15C6800E01C68084E344004EAF6
:10051000010616B10DB1012000E0002070BD000001
:1005200010640240006002403C0F3C0F7D0F7D0FC5
:10053000416070477047000010B5C82000F0E2FF2E
:10054000012000F0D9F801280ED14102084800F03E
:100550004CF908480078401C0649087008460078A5
:10056000042801DD00200870012000F0BFF810BD54
:10057000000402401806002010B5C82000F0C2FF99
:10058000042000F0B9F801283FD14102214800F0D1
:100590002AF921480078012806D0022810D0032823
:1005A0001AD0042830D123E01C480078401C1B4995
:1005B000087008460078632801D10020087023E005
:1005C00017480078401C16490870084600786328D0
:1005D00001D10020087017E012480078401C114932
:1005E000087008460078632801D1002008700BE0ED
:1005F0000D480078401C0C490870084600786328B4
:1006000001D10020087000BF00BF042000F06EF888
:1006100010BD000000040240180600201A06002049
:100620001B0600201C0600201D06002010B5C82057
:1006300000F068FF082000F05FF8012844D1410273
:10064000234800F0D0F82348007806283BD2DFE8A2
:1006500000F03A030E19242F1F480078401E1E494F
:1006600008700846007808B9632008702BE01B4822
:100670000078401E194908700846007808B96320C0
:10068000087020E016480078401E1549087008469A
:10069000007808B96320087015E012480078401E01
:1006A000104908700846007808B9632008700AE00D
:1006B0000D480078401E0C4908700846007808B9BB
:1006C0001E20087000BF00BF082000F00FF810BD0A
:1006D00000040240180600201A0600201B06002015
:1006E0001C0600201D060020190600200149086094
:1006F00070470000143C014001460020034A126884
:100700000A400AB1012000E000207047143C01407B
:10071000F0B50A4600210023002400BF3DE001257A
:1007200005FA01F3156805EA03049C4234D1056813
:100730004F000326BE40B543056015794E00B54015
:100740000668354305601579012D02D01579022D13
:1007500016D185684F000326BE40B54385605579A4
:100760004E00B540866835438560456801268E4059
:10077000B5434560456896798E40B6B235434560CD
:10078000C5684F000326BE40B543C560D5794E000D
:10079000B540C6683543C560491C1029BFD3F0BDBC
:1007A000F0B5002300244D07ED0E02FA05F3CE103C
:1007B00000F1200555F826504E07F70E0F26BE40D3
:1007C000B543CF1000F1200646F82750CE1000F1B7
:1007D000200555F8265045EA0304CE1000F1200507
:1007E00045F82640F0BD418370470183704700BF44
:1007F000FEE700BFFEE7704770B5002100230F221F
:10080000C4781CB3174C246804F4E064C4F5E064B5
:10081000C4F30721C1F10404E3B20A4144789C40C7
:10082000E1B28478144021430C07210E0E4C057868
:100830006155047804F01F050124AC4005786D1162
:10084000AD0005F1E025C5F8004109E0047804F0A9
:100850001F050124AC40054D0678761145F8264069
:1008600070BD00000CED00E000E400E080E100E07D
:1008700002490143024A1160704700000000FA0576
:100880000CED00E010B5044622464FF480610348A9
:10089000FFF7F8FC00F090F910BD000038070020C9
:1008A00010B500F06BF84FF480413348FFF79BFF21
:1008B000052000F043FE4FF480412F48FFF795FFDD
:1008C000052000F03BFEA82000F0D8F83F2000F003
:1008D000D5F8D32000F0D2F8002000F0CFF8402067
:1008E00000F0CCF8D52000F0C9F8F12000F0C6F8EF
:1008F000A02000F0C3F8C02000F0C0F8DA2000F01B
:10090000BDF8122000F0BAF8812000F0B7F8FF20FF
:1009100000F0B4F8D92000F0B1F8F12000F0AEF802
:10092000DB2000F0ABF8302000F0A8F8A42000F0A5
:10093000A5F8A62000F0A2F8202000F09FF80020E3
:1009400000F09CF8C02000F099F8A12000F096F883
:10095000232000F093F8002000F090F88D2000F0A4
:100960008DF8142000F08AF8AF2000F087F80020FE
:10097000FFF788FF10BD00000004024000B587B0FB
:100980000121880300F056F90121022000F042F90C
:100990004FF42040059002208DF8180003208DF8B8
:1009A000190000208DF81A0001208DF81B0005A900
:1009B0002248FFF7ADFE4FF4A040059001208DF8CE
:1009C000180003208DF8190000208DF81A0001206E
:1009D0008DF81B0005A91948FFF79AFE05220D2185
:1009E0001648FFF7DDFE05220F211448FFF7D8FE59
:1009F0000020ADF800004FF48270ADF80200002036
:100A0000ADF804000220ADF806000120ADF80800A2
:100A10004002ADF80A000020ADF80C000720ADF848
:100A200010000020ADF80E006946054800F0C8FA35
:100A30000121034800F086FA07B000BD000402401F
:100A40000038004010B504464FF480510948FFF7C4
:100A5000CCFE00BF0221084800F08DFA0028F9D032
:100A60002146054800F0AAFA0221034800F076FA70
:100A700010BD0000000402400038004010B50446DC
:100A80004FF480510948FFF7AEFE00BF022108482D
:100A900000F071FA0028F9D02146054800F08EFADE
:100AA0000221034800F05AFA10BD00000004024081
:100AB0000038004070B504460D46D520FFF7DEFF34
:100AC000002141EA04112943C8B2FFF7D7FF70BDE6
:100AD00070B504460D462320FFF7D0FF44EA050019
:100AE000FFF7CCFF70BD0000F0B504460B460020B8
:100AF00013E000210DE001EBC005555DC0F10706D4
:100B0000A6EB4306064F07EBC6160F19F5554D1C0D
:100B1000E9B20829EFDB451CE8B20228E9DBF0BDA9
:100B2000380700202DE9F04190B007468846154669
:100B30001E460024402E00DC16B910B0BDE8F0813E
:100B400017E0285D212808DB285D7E2805DC285D6C
:100B50002138C0B20DF8040009E0285D202803D137
:100B60005E200DF8040002E05F200DF80400601C18
:100B7000C4B2B442E5DB002418E0782F08DD00277A
:100B800008F1010000F0FF08B8F1030F00DDB846DE
:100B90001DF80400074901EB001241463846FFF7F3
:100BA000A3FF07F10800C7B2601CC4B2B442E4DB83
:100BB00000BFC2E71600002070B52120FFF75EFFDE
:100BC0000020FFF75BFF7F20FFF758FF052000F0B4
:100BD000B5FC2220FFF752FF0020FFF74FFF072050
:100BE000FFF74CFF052000F0A9FC00240DE00025D4
:100BF00007E0074901EBC411485DFFF723FF681CBC
:100C0000C5B2802DF5DB601CC4B2082CEFDB70BDD3
:100C10003807002029B1064A12680243044B1A60C3
:100C200004E0034A12688243014B1A6070470000D7
:100C30003038024029B1064A12680243044B1A6058
:100C400004E0034A12688243014B1A6070470000B7
:100C50004038024029B1064A12680243044B1A6028
:100C600004E0034A12688243014B1A607047000097
:100C700044380240F0B5002100220024022500265D
:100C80000223324F3F6807F00C0121B1042905D03F
:100C9000082937D105E02E4F076036E02D4F076059
:100CA00033E02A4F3F1F3F68C7F38056274F3F1F4F
:100CB0003F6807F03F036EB1264FB7FBF3F7DFF84D
:100CC0008CC0ACF1040CDCF800C0CCF3881C07FB32
:100CD0000CF40CE01E4FB7FBF3F7DFF870C0ACF17B
:100CE000040CDCF800C0CCF3881C07FB0CF4174F95
:100CF0003F1F3F68C7F301477F1C7D00B4FBF5F73A
:100D0000076002E0124F076000BF00BF0F4F3F684F
:100D100007F0F0010909104F7A5C0768D740476077
:100D20000A4F3F6807F4E051890A0B4F7A5C476825
:100D3000D7408760054F3F6807F46041490B064F75
:100D40007A5C4768D740C760F0BD000008380240B1
:100D50000024F40040787D01000000200149086073
:100D600070470000382C014001460020034A1268F9
:100D70000A400AB1012000E000207047342C0140F5
:100D800010B500F017F810BD0021094B02681A6079
:100D90001A1D11686FF30A01D0E901231A43C368D1
:100DA0001A4303691A431143014A121D1160704727
:100DB000082C014010B54FF48070FFF7D5FF78B3D1
:100DC0004C480078012814D100204B4908600C20C1
:100DD0004860402088600020C8604FF4806008614F
:100DE0000846FFF7D1FF0C20FFF79EFA4349087031
:100DF00002E00020414908704148006840F48070DA
:100E00003F490860081D00684CF23A3188433C496C
:100E1000091D086001203B4908703848007810BD62
:100E2000FFE70220FFF7A0FF78B10220FFF796FF4F
:100E30003348001D00684CF23A3188433049091D9F
:100E4000086002202D490870E9E70820FFF78CFFB1
:100E500078B10820FFF782FF2948001D00684CF296
:100E60003A3188432649091D086004202349087047
:100E7000D5E72020FFF778FF78B12020FFF76EFF3D
:100E80001F48001D00684CF23A3188431C49091D77
:100E90000860062019490870C1E71020FFF764FFB9
:100EA00078B11020FFF75AFF1548001D00684CF27A
:100EB0003A3188431249091D086005200F4908701E
:100EC000ADE74FF40070FFF74FFF80B14FF40070B3
:100ED000FFF744FF0A48001D00684CF23A3188438E
:100EE0000749091D086007200449087097E700209A
:100EF00095E700002D060020500B00202E06002054
:100F0000382C01402F06002010B571210B4800F04D
:100F10003BF8012808D17121084800F022F8084860
:100F20000068401C0649086005480068B0F5806FFD
:100F300002D100200249086010BD000000380040C6
:100F40001000002021B1028842F04002028004E03B
:100F500002884FF6BF731A4002807047CA4302816D
:100F6000704710B5002201F00F040123A3409AB28C
:100F7000D343038110BD0246002013890B400BB1FF
:100F8000012000E000207047F0B502460020002458
:100F90000023002501F00F070126BE40B4B20B115B
:100FA00001269E40B3B2968806EA030516892640BC
:100FB00016B10DB1012000E00020F0BD8181704725
:100FC00010B50022028802F441520B884C8823435A
:100FD0008C882343CC8823430C8923434C892343A7
:100FE0008C892343CC8923431A430280838B4FF29D
:100FF000FF74234083830B8A038210BD0CB500204D
:10100000019000903448006840F480303249086014
:1010100000BF3148006800F4003000900198401C87
:101020000190009818B90198B0F5A04FF1D12A4865
:10103000006800F4003010B10120009001E00020B1
:1010400000900098012846D123484030006840F0C5
:1010500080502149403108602048006840F44040F9
:101060001E4908601C48083000681B4908310860A8
:101070000846006840F4004008600846006840F4F4
:10108000A05008601648091F0860081F006840F05B
:101090008070091F086000BF0F48006800F00070F2
:1010A0000028F9D040F205700E4908600A4808305F
:1010B000006820F00300084908310860084600680D
:1010C00040F00200086000BF03480830006800F0EC
:1010D0000C000828F8D10CBD003802400070004018
:1010E00019544007003C024010B500BF502080F367
:1010F0001188BFF34F8FBFF36F8F00BF00F016FB57
:1011000018B14FF080500449086000BF002080F300
:10111000118800BF10BD000004ED00E010B51548B7
:10112000006840F47000134908601348006840F0FC
:1011300001001149086000200F49083108600E487D
:1011400000680E4908400C4908600D48091D0860F8
:10115000081F006820F48020091F0860002006494D
:101160000C310860FFF74AFF4FF0006001498039F9
:10117000086010BD88ED00E000380240FFFFF6FE79
:101180001030002410B50121104800F034F8012877
:1011900017D10E48406A4FF47A71B0FBF1F10C4858
:1011A0000088401C80B20A4A108000EBC00202EBAB
:1011B000001001EB4000074908800021034800F0BF
:1011C0000EF80121014800F007F810BD00100040A2
:1011D000200600201E060020CA430282704721B16B
:1011E000028842F00102028004E002884FF6FE739A
:1011F0001A400280704702460020138A0B400BB150
:10120000012000E00020704710B540F225510E4843
:1012100000F0A8F890B10D480078C72802DD002042
:101220000A490870084800F057F90949074A127836
:10123000885406480078401C0449087040F2277121
:10124000014800F074F810BD0010014014000020A7
:1012500070060020F0B587B007460C4615461E46BE
:1012600001211020FFF7F6FC01210846FFF7D2FC10
:101270004FF40070059002208DF8180001208DF8C1
:101280001B0005A92348FFF743FA4FF4806005903F
:1012900002208DF8180005A91E48FFF739FA072229
:1012A00009211C48FFF77CFA07220A211948FFF799
:1012B00077FA0197ADF80840ADF80A50ADF80C6028
:1012C0000C20ADF80E000020ADF8100001A9124866
:1012D00000F098F825208DF8000000208DF801001E
:1012E0008DF8020001208DF803006846FFF784FAAC
:1012F00040F2FF31084800F011F8012240F2255178
:10130000054800F059F80121034800F01FF807B024
:10131000F0BD0000000002400010014001F4007226
:10132000B2F5007F00D100BFCA430280704710B5FC
:101330000022002340F66A14A14200D100BF0A1225
:1013400001249440A3B2DC43048010BD21B1828902
:1013500042F40052828104E082894DF6FF731A4004
:101360008281704770B502460024002300250020CA
:1013700040F66A16B14200D100BFC1F3421501F038
:101380001F03012606FA03F3012D02D1968933408B
:1013900006E0022D02D1168A334001E0968A3340DE
:1013A0000C12012606FA04F41688344013B10CB16D
:1013B000012000E0002070BDF0B5034600240026A7
:1013C0000025002040F66A17B94200D100BF184638
:1013D000C1F3421401F01F06012707FA06F5012C9C
:1013E00001D10C3004E0022C01D1103000E01430A7
:1013F0001AB107682F43076002E00768AF43076030
:10140000F0BD00002DE9FF4705460E460024A14629
:1014100000BFA046B08900B100BF2C8A24F440541C
:10142000F08804432C82AC8941F20C608443B0887C
:1014300031890843718908430443AC81AC8A24F4A0
:101440004074B0890443AC826846FFF713FC20481F
:10145000854202D01F48854202D1DDF80C9001E0A0
:10146000DDF80890A88900F4004040B109EBC900FC
:1014700000EB091031684900B0FBF1F707E009EB18
:10148000C90000EB091031688900B0FBF1F7642056
:10149000B7FBF0F004012009642101FB1078A88952
:1014A00000F4004040B1322000EBC800B0FBF1F086
:1014B00000F00700044308E0322000EB081064212C
:1014C000B0FBF1F000F00F0004432C81BDE8FF8772
:1014D000001001400014014001468888C0F3080054
:1014E000704700BFFEE702E008C8121F08C1002ACB
:1014F000FAD170477047002001E001C1121F002A95
:10150000FBD17047014645F208224A434FF0E023E1
:101510005A6100229A6101221A6100BF4FF0E02255
:10152000106900F001021AB100F48032002AF5D0EF
:1015300000224FF0E0231A619A6170470146C1EB27
:10154000C10202EB42024FF0E0235A6100229A618D
:1015500001221A6100BF4FF0E022106900F0010281
:101560001AB100F48032002AF5D000224FF0E023B7
:101570001A619A61704700001CB501210220FFF733
:1015800049FB4FF41870009001208DF804000220F0
:101590008DF8050000208DF8060001208DF8070069
:1015A00069460648FFF7B4F840210448FFF71DF9E3
:1015B00020210248FFF719F91CBD00000004024079
:1015C0004FF4A060FFF754F94FF4806300221146F6
:1015D0004FF4E130FFF73EFEFFF7CEFFFFF760F973
:1015E00000210F20FFF766FA00213020FFF770FA84
:1015F00040230C4A00210846FFF794FAFFF7DCFA73
:101600000FE04FF400710848FFF7EFF8C820FFF72C
:1016100079FF4FF400710448FFF7E5F8C820FFF7A1
:1016200071FFEEE774180008000402400A490968D7
:10163000096809B9012100E0002121B14FF0FF3113
:10164000064A116006E004490968C968C868034A87
:1016500041681160704700003806002064060020D1
:1016600001460A69D1E901309860D1E90103586067
:101670005068884201D18868506000200861106875
:10168000401E10601068704742684A6093688B6023
:10169000936859609160086103685B1C0360704740
:1016A0001D48006818B101201C49086032E0002084
:1016B0001A4908601A480068B0FA80F0C0F11F01AA
:1016C00001EB8100174A52F8200008B1012000E028
:1016D000002050B900BF502080F31188BFF34F8F16
:1016E000BFF36F8F00BF00BFFEE701EB81020D4B20
:1016F00003EB820042685268426000F108024368CE
:10170000934202D14268526842604268D268064BF6
:101710001A6000BF704700006C06002058060020C9
:101720004C060020EC0D0020340600202DE9F0418D
:101730004FF0000844480068002877D1434800680B
:10174000451C4248056015BB41480068006808B95F
:10175000012000E0002050B900BF502080F3118824
:10176000BFF34F8FBFF36F8F00BF00BFFEE7384856
:1017700007683848006836490860364807603648C8
:101780000068401C34490860FFF750FF00BF334831
:10179000006885423CD300BF2D480068006808B946
:1017A000012000E0002020B14FF0FF302B490860FD
:1017B0002DE027480068C068C4686668B54202D258
:1017C0002648066023E0201DFFF74AFFA06A18B1F3
:1017D00004F11800FFF744FF94F82C100120884012
:1017E0001F49096808431E490860E16A01EB81014D
:1017F0001C4A02EB8100211DFFF746FF1A49E06AEF
:101800000968C96A8842C7D34FF00108C4E700BF1E
:1018100015480068C06A00EB8000124951F82000AA
:10182000012801D94FF0010805E0FFE70F480068E3
:10183000401C0E4908600E48006808B14FF00108CE
:101840004046BDE8F08100006C06002048060020FC
:10185000380600203C0600205C06002064060020BC
:101860004C060020EC0D0020340600205406002019
:101870005806002030313233343536373839303974
:10188000383736354142434445464748494A4B4C30
:101890004D4E4F506162636465666768696A6B6C40
:1018A0006D6E6F707E21402324255E262A28295FD5
:1018B0002B7B7D7C00000000D81800080000002071
:1018C00070060000CC020008681C000870060020AA
:1018D00010290000F6140008412D010203040495AC
:1018E00006070809721F52CC1C08304003A11C02D5
:1018F000031E03211C20FC200321270E11113F1081
:101900000C17180404FF8478370F100F0106181DF8
:101910008C30C07810191133110E10097884C4343A
:1019200098E48408031048703C0718206025E018EC
:1019300004023D40201807682C0418E00717020134
:101940000F0102024F404080F080408839201B8008
:1019500080119380802A0966B1191CA91F111A0CE5
:10196000A4711B031CB83A065F194D1D081010081E
:10197000522FF008040408F0F153081F1E0404FC61
:101980000404E01A10011A0F401D14244484441A60
:101990000C0F29D2371804848444382C01020C31EE
:1019A000100860A02424FC2424271F1111111010FA
:1019B0001E9804040488EC3607081111091BF088EE
:1019C000111AF838193F4316183A7C9E1A0E2E2920
:1019D000504B3844501A0F6029902E804844448858
:1019E0009011CB0303C272011925390F1C020408A0
:1019F000701E8040201008B03A0201213A400121B7
:101A000019152A023219251B2040724B0E1270192B
:101A1000502AEC5D1D0C131417702808E018E4140C
:101A2000F414E8122A1C59280A043CC44040E41C5F
:101A30000410D0192F4B04FCD01B030CA01B101C4E
:101A400030191019784B101FB039201B08F0103EC8
:101A5000111117100810ACC4041810113AC07039D5
:101A60003F39402C4478404019A418091F1004FC49
:101A700084808084252A1052298129424149112ECF
:101A800003010101FE0E2F1F1103141810501C80BA
:101A9000641C2F2940292F29801B040C10121F1AA7
:101AA0001F142E04FC807C804F4C1F0C03601A0412
:101AB0007412FC4B0708B06BF008B029D01A0F3035
:101AC0001980228089203E14140C0AF2C04C111196
:101AD0000EC014300C044B0E11C1171C0484844436
:101AE000383A189F4A188239A049D0112AF8901222
:101AF000F824101E111B131C151CE01C70601A101A
:101B00009F1129241EC07C807CC010481318160128
:101B100001161810040C34C0C0340C04101C132F10
:101B20005950298F29102F041C648404046811451E
:101B30007F40404025FE02020274201C032B80607F
:101B40000B191D427F191D52FE0512204040205ADC
:101B500001011930D91E2915311D98242448821BF2
:101B6000080F11418FFC8804048870211A70104BF3
:101B700004880F23090F29F02A08B3395619101ABF
:101B800024012AE80F1C070909171A04D029D14992
:101B90007A214FD6292929C90660190F4C04FC84E3
:101BA000F354011919793059121A032719D1193030
:101BB00039311F04FC2460940C21AC08081F3069E3
:101BC000D7294B2903190BC96079A019B02B04F848
:101BD000DD390F8C01FF89E011191229E03B89FFE3
:101BE0002D3950194112048A80C02ACCE03A98E07D
:101BF000394139525A084D190529606C08FC0440D6
:101C0000114EC0300C30C05D2903380980700C3093
:101C1000E01C60801D39A14E8C70748C042C290549
:101C20001D81611E181F59D12167840C3444840C16
:101C3000443F404045807C020272FF2908544040E6
:101C40003F2C02027CAD19113D804040202F011530
:101C50001CFF809F011E80FFFF01F1013A014BE54F
:081C60001919282849E1013E91
:040000050800018965
:00000001FF
